{
  "transactions": [
    {
      "hash": "0x9c035365ce8f087425f0449f4bb3e03a7e3e314f9f49b0ae1ad1eb4d59499baa",
      "transactionType": "CALL",
      "contractName": null,
      "contractAddress": "0xc840e742C9CC87F08C14537C6b6515cD952AC789",
      "function": "setApprovedActionsForPool(address,uint256)",
      "arguments": [
        "0x7E7AAbC766aD4079257c88d41B9E95B0dd48c2C3",
        "19"
      ],
      "transaction": {
        "from": "0x12395366299C28492682f7853424554df0b81B38",
        "to": "0xc840e742C9CC87F08C14537C6b6515cD952AC789",
        "gas": "0xfa38",
        "value": "0x0",
        "input": "0xaebdc7f30000000000000000000000007e7aabc766ad4079257c88d41b9e95b0dd48c2c30000000000000000000000000000000000000000000000000000000000000013",
        "nonce": "0x18c",
        "chainId": "0xaa36a7"
      },
      "additionalContracts": [],
      "isFixedGasLimit": false
    }
  ],
  "receipts": [
    {
      "status": "0x1",
      "cumulativeGasUsed": "0xf0e67e",
      "logs": [
        {
          "address": "0xc840e742C9CC87F08C14537C6b6515cD952AC789",
          "topics": [
            "0x3a309afa88cec49f72c320ed28a537fb2892836e81170d3adf2560ae12c68fdf",
            "0x00000000000000000000000012395366299c28492682f7853424554df0b81b38",
            "0x0000000000000000000000007e7aabc766ad4079257c88d41b9e95b0dd48c2c3"
          ],
          "data": "0x0000000000000000000000000000000000000000000000000000000000000013",
          "blockHash": "0x89aa017abc128c1917ceda1081bc2cd1d8bb3a88cab439fd5cc273bcc896d219",
          "blockNumber": "0x7b230f",
          "blockTimestamp": "0x67f3bb4c",
          "transactionHash": "0x9c035365ce8f087425f0449f4bb3e03a7e3e314f9f49b0ae1ad1eb4d59499baa",
          "transactionIndex": "0x62",
          "logIndex": "0x90",
          "removed": false
        }
      ],
      "logsBloom": "0x00000000000000010000000000000000000200000000000000000000000000000000000000000000000000000000000400080000000000000000000000000000000000000000000000000800000000020000000000000000000000000000000000000000000000000000000000000000000000000000000000100000000000000000000000000000000000000000040020000000000000000000000000000000000000000000000000000000000000800000000000000800000000000000000000000000000000000010000000000000000000000000000000000000000000000000000000000000000000000000000000000000000000000000000000000000",
      "type": "0x2",
      "transactionHash": "0x9c035365ce8f087425f0449f4bb3e03a7e3e314f9f49b0ae1ad1eb4d59499baa",
      "transactionIndex": "0x62",
      "blockHash": "0x89aa017abc128c1917ceda1081bc2cd1d8bb3a88cab439fd5cc273bcc896d219",
      "blockNumber": "0x7b230f",
      "gasUsed": "0xb528",
      "effectiveGasPrice": "0x2a767d85",
      "from": "0x12395366299C28492682f7853424554df0b81B38",
      "to": "0xc840e742C9CC87F08C14537C6b6515cD952AC789",
      "contractAddress": null
    }
  ],
  "libraries": [],
  "pending": [],
  "returns": {},
  "timestamp": 1744026448,
  "chain": 11155111,
  "commit": "10e16f9"
}