{
  "transactions": [
    {
      "hash": "0x5b692859a86b96e050cd45d0ebfb6e1b6ae9a4d24f76ba68f170bb6c1e1e8d7a",
      "transactionType": "CALL",
      "contractName": null,
      "contractAddress": "0xc840e742C9CC87F08C14537C6b6515cD952AC789",
      "function": "setApprovedActionsForPool(address,uint256)",
      "arguments": [
        "0xCd2Ca3bBe68Fb83E9B1f1217deCF3Fb01dbFb01E",
        "19"
      ],
      "transaction": {
        "from": "0x12395366299C28492682f7853424554df0b81B38",
        "to": "0xc840e742C9CC87F08C14537C6b6515cD952AC789",
        "gas": "0xfa38",
        "value": "0x0",
        "input": "0xaebdc7f3000000000000000000000000cd2ca3bbe68fb83e9b1f1217decf3fb01dbfb01e0000000000000000000000000000000000000000000000000000000000000013",
        "nonce": "0x169",
        "chainId": "0xaa36a7"
      },
      "additionalContracts": [],
      "isFixedGasLimit": false
    }
  ],
  "receipts": [
    {
      "status": "0x1",
      "cumulativeGasUsed": "0x14b047e",
      "logs": [
        {
          "address": "0xc840e742C9CC87F08C14537C6b6515cD952AC789",
          "topics": [
            "0x3a309afa88cec49f72c320ed28a537fb2892836e81170d3adf2560ae12c68fdf",
            "0x00000000000000000000000012395366299c28492682f7853424554df0b81b38",
            "0x000000000000000000000000cd2ca3bbe68fb83e9b1f1217decf3fb01dbfb01e"
          ],
          "data": "0x0000000000000000000000000000000000000000000000000000000000000013",
          "blockHash": "0xfa38d17c3b41612fd1aef51624e83198da97e6a30803874cbaa07f29e178a8c7",
          "blockNumber": "0x7aceb4",
          "blockTimestamp": "0x67efb13c",
          "transactionHash": "0x5b692859a86b96e050cd45d0ebfb6e1b6ae9a4d24f76ba68f170bb6c1e1e8d7a",
          "transactionIndex": "0xa1",
          "logIndex": "0xdd",
          "removed": false
        }
      ],
      "logsBloom": "0x00000010000000010000000000000000000000000000000000000000000000000000000000000000000001000000000400000000000000000000000000020000000000000000000000000800000000020000000000000000000000000000000000000000000000000000000000000000000000000000000000100000000000000000000000000000000000000000040020000000000000000000000000000000000000000000000000000000000000000000000000000800000000000000000000000000000000000010000000000000000000000000000000000000000000000000000000000000000000000000000000000000000000000000000000000000",
      "type": "0x2",
      "transactionHash": "0x5b692859a86b96e050cd45d0ebfb6e1b6ae9a4d24f76ba68f170bb6c1e1e8d7a",
      "transactionIndex": "0xa1",
      "blockHash": "0xfa38d17c3b41612fd1aef51624e83198da97e6a30803874cbaa07f29e178a8c7",
      "blockNumber": "0x7aceb4",
      "gasUsed": "0xb528",
      "effectiveGasPrice": "0x6ca6fe49",
      "from": "0x12395366299C28492682f7853424554df0b81B38",
      "to": "0xc840e742C9CC87F08C14537C6b6515cD952AC789",
      "contractAddress": null
    }
  ],
  "libraries": [],
  "pending": [],
  "returns": {},
  "timestamp": 1743761728,
  "chain": 11155111,
  "commit": "53ca75c"
}