{
  "transactions": [
    {
      "hash": "0xd15da96674fed40a8ce5fd0ff78ff599878b4d3e2787e10b3fb0759c87335f1a",
      "transactionType": "CALL",
      "contractName": null,
      "contractAddress": "0xB6b7CCa5E4D3B4DD1a4f52C38f287c7303Db7dA2",
      "function": "setApprovedActionsForPool(address,uint256)",
      "arguments": [
        "0xCB78DF4EAd6D9558c19960Cdec71AcA3e37c1087",
        "19"
      ],
      "transaction": {
        "from": "0x12395366299C28492682f7853424554df0b81B38",
        "to": "0xB6b7CCa5E4D3B4DD1a4f52C38f287c7303Db7dA2",
        "gas": "0xfa56",
        "value": "0x0",
        "input": "0xaebdc7f3000000000000000000000000cb78df4ead6d9558c19960cdec71aca3e37c10870000000000000000000000000000000000000000000000000000000000000013",
        "nonce": "0x1b3",
        "chainId": "0xaa36a7"
      },
      "additionalContracts": [],
      "isFixedGasLimit": false
    }
  ],
  "receipts": [
    {
      "status": "0x1",
      "cumulativeGasUsed": "0xd17280",
      "logs": [
        {
          "address": "0xB6b7CCa5E4D3B4DD1a4f52C38f287c7303Db7dA2",
          "topics": [
            "0x3a309afa88cec49f72c320ed28a537fb2892836e81170d3adf2560ae12c68fdf",
            "0x00000000000000000000000012395366299c28492682f7853424554df0b81b38",
            "0x000000000000000000000000cb78df4ead6d9558c19960cdec71aca3e37c1087"
          ],
          "data": "0x0000000000000000000000000000000000000000000000000000000000000013",
          "blockHash": "0xc0efd4341d7551091da172b06cd5bfc9f4423bb543b990f5cae13115da2cba36",
          "blockNumber": "0x7b89cf",
          "blockTimestamp": "0x67f8d464",
          "transactionHash": "0xd15da96674fed40a8ce5fd0ff78ff599878b4d3e2787e10b3fb0759c87335f1a",
          "transactionIndex": "0x52",
          "logIndex": "0x86",
          "removed": false
        }
      ],
      "logsBloom": "0x00000000000000010000000000000000000000000000000000000000000000000000000000000000000000000000000000000000000400000000000000000000000000000000004000000800000000020000000000000000000000000000000000000000000000000000000000000000000000000000000000100000000000000000000000000000000000000200040000000000000000000000040800000000000000000000000000000000000000000000000000000000000000000000000000000000000000000010000100000000000000000000000000000000000000000000000000000000000000000000000000000000000000000000000000000000",
      "type": "0x2",
      "transactionHash": "0xd15da96674fed40a8ce5fd0ff78ff599878b4d3e2787e10b3fb0759c87335f1a",
      "transactionIndex": "0x52",
      "blockHash": "0xc0efd4341d7551091da172b06cd5bfc9f4423bb543b990f5cae13115da2cba36",
      "blockNumber": "0x7b89cf",
      "gasUsed": "0xb53e",
      "effectiveGasPrice": "0x1b398c",
      "from": "0x12395366299C28492682f7853424554df0b81B38",
      "to": "0xB6b7CCa5E4D3B4DD1a4f52C38f287c7303Db7dA2",
      "contractAddress": null
    }
  ],
  "libraries": [],
  "pending": [],
  "returns": {},
  "timestamp": 1744360557,
  "chain": 11155111,
  "commit": "c05839a"
}