{
  "transactions": [
    {
      "hash": "0x222f5b98a31b944ef3b4514886b5226d5da1d2ae60d87ef5f16a9f2213698543",
      "transactionType": "CALL",
      "contractName": null,
      "contractAddress": "0xc840e742C9CC87F08C14537C6b6515cD952AC789",
      "function": "setApprovedActionsForPool(address,uint256)",
      "arguments": [
        "0x5a424180eeBc7A02a1f329d05651D541Bd22fa84",
        "19"
      ],
      "transaction": {
        "from": "0x12395366299C28492682f7853424554df0b81B38",
        "to": "0xc840e742C9CC87F08C14537C6b6515cD952AC789",
        "gas": "0xfa38",
        "value": "0x0",
        "input": "0xaebdc7f30000000000000000000000005a424180eebc7a02a1f329d05651d541bd22fa840000000000000000000000000000000000000000000000000000000000000013",
        "nonce": "0x161",
        "chainId": "0xaa36a7"
      },
      "additionalContracts": [],
      "isFixedGasLimit": false
    }
  ],
  "receipts": [
    {
      "status": "0x1",
      "cumulativeGasUsed": "0xe844c7",
      "logs": [
        {
          "address": "0xc840e742C9CC87F08C14537C6b6515cD952AC789",
          "topics": [
            "0x3a309afa88cec49f72c320ed28a537fb2892836e81170d3adf2560ae12c68fdf",
            "0x00000000000000000000000012395366299c28492682f7853424554df0b81b38",
            "0x0000000000000000000000005a424180eebc7a02a1f329d05651d541bd22fa84"
          ],
          "data": "0x0000000000000000000000000000000000000000000000000000000000000013",
          "blockHash": "0x85b6034455c2be2caba4c163f512a29fb0531677e567d1f9409981f397fc919f",
          "blockNumber": "0x7ace1a",
          "blockTimestamp": "0x67efaa04",
          "transactionHash": "0x222f5b98a31b944ef3b4514886b5226d5da1d2ae60d87ef5f16a9f2213698543",
          "transactionIndex": "0x80",
          "logIndex": "0xd0",
          "removed": false
        }
      ],
      "logsBloom": "0x00000000000000010000000000000000000000000000000000000000000000000000000000000000000000000000000400000000000000000000000000000000000000000000000000000800000000020800000000000000000000000000000000000800000000000000000000000000000000000000000000100000000000000000000000000000000000000000040020000000000000000000000000000000000000000000000000000000000000000000000000002800000000000000000000000000000000000010000000000000000000000000000000000000000000000000000000000000000000000000000000000000000000000000000000000000",
      "type": "0x2",
      "transactionHash": "0x222f5b98a31b944ef3b4514886b5226d5da1d2ae60d87ef5f16a9f2213698543",
      "transactionIndex": "0x80",
      "blockHash": "0x85b6034455c2be2caba4c163f512a29fb0531677e567d1f9409981f397fc919f",
      "blockNumber": "0x7ace1a",
      "gasUsed": "0xb528",
      "effectiveGasPrice": "0x47f92aa5",
      "from": "0x12395366299C28492682f7853424554df0b81B38",
      "to": "0xc840e742C9CC87F08C14537C6b6515cD952AC789",
      "contractAddress": null
    }
  ],
  "libraries": [],
  "pending": [],
  "returns": {},
  "timestamp": 1743759879,
  "chain": 11155111,
  "commit": "53ca75c"
}