{
  "transactions": [
    {
      "hash": "0xc032c36902fce68d3ead4da4ded083d5e64a74eded9afed0aa87370d634d4002",
      "transactionType": "CALL",
      "contractName": null,
      "contractAddress": "0x09191Ca061108c03D41b9a154e20C6f188291404",
      "function": "createWithoutArgs((string,string,(address,uint8,address,bool)[],uint256[],(address,address,address),uint256,address,bool,bool,bytes32,int256[],(address[],address,address[][],uint16,uint64[],uint64,uint64,uint64,int256[][],address),int256[],int256[],uint256,uint256,string[][]))",
      "arguments": [
        "(test quantamm pool, test, [(0x29f2D40B0605204364af54EC677bD022dA425d03, 0, 0x0000000000000000000000000000000000000000, false), (0x94a9D9AC8a22534E3FaCa9F4e7F2E2cf85d5E4C8, 0, 0x0000000000000000000000000000000000000000, false)], [500000000000000000, 500000000000000000], (0x0000000000000000000000000000000000000000, 0x0000000000000000000000000000000000000000, 0x0000000000000000000000000000000000000000), 20000000000000000, 0x0000000000000000000000000000000000000000, true, false, 0x67591141b1f0e69e3806a33944fa37e2bc4a5d16bb7fa37a01bf81cc5318fc46, [500000000000000000, 500000000000000000], ([0x94a9D9AC8a22534E3FaCa9F4e7F2E2cf85d5E4C8, 0x29f2D40B0605204364af54EC677bD022dA425d03], 0xd728f8c62949BbfB4E3D1701C263887F313e9B4e, [[0x809CEbbb376A97D175570b5c71ED2a219ACd6f21], [0xdA841aEEE267b4607f8F0F3622e99060D64644EF]], 60, [200000000000000000], 200000000000000000, 200000000000000000, 300000000000000000, [[200000000000000000]], 0x12395366299C28492682f7853424554df0b81B38), [1000000000000000000, 1000000000000000000], [1000000000000000000, 1000000000000000000], 3600, 16, [[Overview, Adaptability, number, 5]])"
      ],
      "transaction": {
        "from": "0x12395366299C28492682f7853424554df0b81B38",
        "to": "0x09191Ca061108c03D41b9a154e20C6f188291404",
        "gas": "0xa9cdaa",
        "value": "0x0",
        "input": "0x2fcb03050000000000000000000000000000000000000000000000000000000000000020000000000000000000000000000000000000000000000000000000000000026000000000000000000000000000000000000000000000000000000000000002a000000000000000000000000000000000000000000000000000000000000002e0000000000000000000000000000000000000000000000000000000000000040000000000000000000000000000000000000000000000000000000000000000000000000000000000000000000000000000000000000000000000000000000000000000000000000000000000000000000000000000000000000000000000000000000000000000000000000000000000000000000000000000470de4df82000000000000000000000000000000000000000000000000000000000000000000000000000000000000000000000000000000000000000000000000000000000001000000000000000000000000000000000000000000000000000000000000000067591141b1f0e69e3806a33944fa37e2bc4a5d16bb7fa37a01bf81cc5318fc46000000000000000000000000000000000000000000000000000000000000046000000000000000000000000000000000000000000000000000000000000004c0000000000000000000000000000000000000000000000000000000000000080000000000000000000000000000000000000000000000000000000000000008600000000000000000000000000000000000000000000000000000000000000e10000000000000000000000000000000000000000000000000000000000000001000000000000000000000000000000000000000000000000000000000000008c0000000000000000000000000000000000000000000000000000000000000001274657374207175616e74616d6d20706f6f6c000000000000000000000000000000000000000000000000000000000000000000000000000000000000000000047465737400000000000000000000000000000000000000000000000000000000000000000000000000000000000000000000000000000000000000000000000200000000000000000000000029f2d40b0605204364af54ec677bd022da425d0300000000000000000000000000000000000000000000000000000000000000000000000000000000000000000000000000000000000000000000000000000000000000000000000000000000000000000000000000000000000000000000000000000000000000000000000094a9d9ac8a22534e3faca9f4e7f2e2cf85d5e4c8000000000000000000000000000000000000000000000000000000000000000000000000000000000000000000000000000000000000000000000000000000000000000000000000000000000000000000000000000000000000000000000000000000000000000000000000000000000000000000000000000000000000000200000000000000000000000000000000000000000000000006f05b59d3b2000000000000000000000000000000000000000000000000000006f05b59d3b20000000000000000000000000000000000000000000000000000000000000000000200000000000000000000000000000000000000000000000006f05b59d3b2000000000000000000000000000000000000000000000000000006f05b59d3b200000000000000000000000000000000000000000000000000000000000000000140000000000000000000000000d728f8c62949bbfb4e3d1701c263887f313e9b4e00000000000000000000000000000000000000000000000000000000000001a0000000000000000000000000000000000000000000000000000000000000003c000000000000000000000000000000000000000000000000000000000000028000000000000000000000000000000000000000000000000002c68af0bb14000000000000000000000000000000000000000000000000000002c68af0bb1400000000000000000000000000000000000000000000000000000429d069189e000000000000000000000000000000000000000000000000000000000000000002c000000000000000000000000012395366299c28492682f7853424554df0b81b38000000000000000000000000000000000000000000000000000000000000000200000000000000000000000094a9d9ac8a22534e3faca9f4e7f2e2cf85d5e4c800000000000000000000000029f2d40b0605204364af54ec677bd022da425d030000000000000000000000000000000000000000000000000000000000000002000000000000000000000000000000000000000000000000000000000000004000000000000000000000000000000000000000000000000000000000000000800000000000000000000000000000000000000000000000000000000000000001000000000000000000000000809cebbb376a97d175570b5c71ed2a219acd6f210000000000000000000000000000000000000000000000000000000000000001000000000000000000000000da841aeee267b4607f8f0f3622e99060d64644ef000000000000000000000000000000000000000000000000000000000000000100000000000000000000000000000000000000000000000002c68af0bb14000000000000000000000000000000000000000000000000000000000000000000010000000000000000000000000000000000000000000000000000000000000020000000000000000000000000000000000000000000000000000000000000000100000000000000000000000000000000000000000000000002c68af0bb14000000000000000000000000000000000000000000000000000000000000000000020000000000000000000000000000000000000000000000000de0b6b3a76400000000000000000000000000000000000000000000000000000de0b6b3a764000000000000000000000000000000000000000000000000000000000000000000020000000000000000000000000000000000000000000000000de0b6b3a76400000000000000000000000000000000000000000000000000000de0b6b3a7640000000000000000000000000000000000000000000000000000000000000000000100000000000000000000000000000000000000000000000000000000000000200000000000000000000000000000000000000000000000000000000000000004000000000000000000000000000000000000000000000000000000000000008000000000000000000000000000000000000000000000000000000000000000c00000000000000000000000000000000000000000000000000000000000000100000000000000000000000000000000000000000000000000000000000000014000000000000000000000000000000000000000000000000000000000000000084f76657276696577000000000000000000000000000000000000000000000000000000000000000000000000000000000000000000000000000000000000000c41646170746162696c697479000000000000000000000000000000000000000000000000000000000000000000000000000000000000000000000000000000066e756d626572000000000000000000000000000000000000000000000000000000000000000000000000000000000000000000000000000000000000000000013500000000000000000000000000000000000000000000000000000000000000",
        "nonce": "0x39",
        "chainId": "0xaa36a7"
      },
      "additionalContracts": [],
      "isFixedGasLimit": false
    }
  ],
  "receipts": [],
  "libraries": [],
  "pending": [],
  "returns": {},
  "timestamp": 1741299474,
  "chain": 11155111,
  "commit": "98ddc72"
}