{
  "transactions": [
    {
      "hash": "0xe59bcbf1ab1d01cc6fb0c4b181a8001925e20af0fc23f60efe8f830fef81fcae",
      "transactionType": "CALL",
      "contractName": null,
      "contractAddress": "0x23920dFC349c55F535D1020dcaBFEf4E80b9680b",
      "function": "createWithoutArgs((string,string,(address,uint8,address,bool)[],uint256[],(address,address,address),uint256,address,bool,bool,bytes32,int256[],(address[],address,address[][],uint16,uint64[],uint64,uint64,uint64,int256[][],address),int256[],int256[],uint256,uint256,string[][]))",
      "arguments": [
        "(test quantamm pool 2, test, [(0x29f2D40B0605204364af54EC677bD022dA425d03, 0, 0x0000000000000000000000000000000000000000, false), (0x94a9D9AC8a22534E3FaCa9F4e7F2E2cf85d5E4C8, 0, 0x0000000000000000000000000000000000000000, false)], [500000000000000000, 500000000000000000], (0x0000000000000000000000000000000000000000, 0x0000000000000000000000000000000000000000, 0x0000000000000000000000000000000000000000), 20000000000000000, 0x0000000000000000000000000000000000000000, true, false, 0xc2dd720d2305315069c0fbcf76946d313bd0778da6f4b0b568559026a4d13974, [500000000000000000, 500000000000000000], ([0x94a9D9AC8a22534E3FaCa9F4e7F2E2cf85d5E4C8, 0x29f2D40B0605204364af54EC677bD022dA425d03], 0xd728f8c62949BbfB4E3D1701C263887F313e9B4e, [[0x809CEbbb376A97D175570b5c71ED2a219ACd6f21], [0xdA841aEEE267b4607f8F0F3622e99060D64644EF]], 60, [200000000000000000], 200000000000000000, 200000000000000000, 300000000000000000, [[200000000000000000]], 0x12395366299C28492682f7853424554df0b81B38), [1000000000000000000, 1000000000000000000], [1000000000000000000, 1000000000000000000], 3600, 16, [[Overview, Adaptability, number, 5]])"
      ],
      "transaction": {
        "from": "0x12395366299C28492682f7853424554df0b81B38",
        "to": "0x23920dFC349c55F535D1020dcaBFEf4E80b9680b",
        "gas": "0x894524",
        "value": "0x0",
        "input": "0x2fcb03050000000000000000000000000000000000000000000000000000000000000020000000000000000000000000000000000000000000000000000000000000026000000000000000000000000000000000000000000000000000000000000002a000000000000000000000000000000000000000000000000000000000000002e0000000000000000000000000000000000000000000000000000000000000040000000000000000000000000000000000000000000000000000000000000000000000000000000000000000000000000000000000000000000000000000000000000000000000000000000000000000000000000000000000000000000000000000000000000000000000000000000000000000000000000000470de4df820000000000000000000000000000000000000000000000000000000000000000000000000000000000000000000000000000000000000000000000000000000000010000000000000000000000000000000000000000000000000000000000000000c2dd720d2305315069c0fbcf76946d313bd0778da6f4b0b568559026a4d13974000000000000000000000000000000000000000000000000000000000000046000000000000000000000000000000000000000000000000000000000000004c0000000000000000000000000000000000000000000000000000000000000080000000000000000000000000000000000000000000000000000000000000008600000000000000000000000000000000000000000000000000000000000000e10000000000000000000000000000000000000000000000000000000000000001000000000000000000000000000000000000000000000000000000000000008c0000000000000000000000000000000000000000000000000000000000000001474657374207175616e74616d6d20706f6f6c203200000000000000000000000000000000000000000000000000000000000000000000000000000000000000047465737400000000000000000000000000000000000000000000000000000000000000000000000000000000000000000000000000000000000000000000000200000000000000000000000029f2d40b0605204364af54ec677bd022da425d0300000000000000000000000000000000000000000000000000000000000000000000000000000000000000000000000000000000000000000000000000000000000000000000000000000000000000000000000000000000000000000000000000000000000000000000000094a9d9ac8a22534e3faca9f4e7f2e2cf85d5e4c8000000000000000000000000000000000000000000000000000000000000000000000000000000000000000000000000000000000000000000000000000000000000000000000000000000000000000000000000000000000000000000000000000000000000000000000000000000000000000000000000000000000000000200000000000000000000000000000000000000000000000006f05b59d3b2000000000000000000000000000000000000000000000000000006f05b59d3b20000000000000000000000000000000000000000000000000000000000000000000200000000000000000000000000000000000000000000000006f05b59d3b2000000000000000000000000000000000000000000000000000006f05b59d3b200000000000000000000000000000000000000000000000000000000000000000140000000000000000000000000d728f8c62949bbfb4e3d1701c263887f313e9b4e00000000000000000000000000000000000000000000000000000000000001a0000000000000000000000000000000000000000000000000000000000000003c000000000000000000000000000000000000000000000000000000000000028000000000000000000000000000000000000000000000000002c68af0bb14000000000000000000000000000000000000000000000000000002c68af0bb1400000000000000000000000000000000000000000000000000000429d069189e000000000000000000000000000000000000000000000000000000000000000002c000000000000000000000000012395366299c28492682f7853424554df0b81b38000000000000000000000000000000000000000000000000000000000000000200000000000000000000000094a9d9ac8a22534e3faca9f4e7f2e2cf85d5e4c800000000000000000000000029f2d40b0605204364af54ec677bd022da425d030000000000000000000000000000000000000000000000000000000000000002000000000000000000000000000000000000000000000000000000000000004000000000000000000000000000000000000000000000000000000000000000800000000000000000000000000000000000000000000000000000000000000001000000000000000000000000809cebbb376a97d175570b5c71ed2a219acd6f210000000000000000000000000000000000000000000000000000000000000001000000000000000000000000da841aeee267b4607f8f0f3622e99060d64644ef000000000000000000000000000000000000000000000000000000000000000100000000000000000000000000000000000000000000000002c68af0bb14000000000000000000000000000000000000000000000000000000000000000000010000000000000000000000000000000000000000000000000000000000000020000000000000000000000000000000000000000000000000000000000000000100000000000000000000000000000000000000000000000002c68af0bb14000000000000000000000000000000000000000000000000000000000000000000020000000000000000000000000000000000000000000000000de0b6b3a76400000000000000000000000000000000000000000000000000000de0b6b3a764000000000000000000000000000000000000000000000000000000000000000000020000000000000000000000000000000000000000000000000de0b6b3a76400000000000000000000000000000000000000000000000000000de0b6b3a7640000000000000000000000000000000000000000000000000000000000000000000100000000000000000000000000000000000000000000000000000000000000200000000000000000000000000000000000000000000000000000000000000004000000000000000000000000000000000000000000000000000000000000008000000000000000000000000000000000000000000000000000000000000000c00000000000000000000000000000000000000000000000000000000000000100000000000000000000000000000000000000000000000000000000000000014000000000000000000000000000000000000000000000000000000000000000084f76657276696577000000000000000000000000000000000000000000000000000000000000000000000000000000000000000000000000000000000000000c41646170746162696c697479000000000000000000000000000000000000000000000000000000000000000000000000000000000000000000000000000000066e756d626572000000000000000000000000000000000000000000000000000000000000000000000000000000000000000000000000000000000000000000013500000000000000000000000000000000000000000000000000000000000000",
        "nonce": "0x3d",
        "chainId": "0xaa36a7"
      },
      "additionalContracts": [],
      "isFixedGasLimit": false
    }
  ],
  "receipts": [
    {
      "status": "0x1",
      "cumulativeGasUsed": "0x12464aa",
      "logs": [
        {
          "address": "0x23920dFC349c55F535D1020dcaBFEf4E80b9680b",
          "topics": [
            "0x83a48fbcfc991335314e74d0496aab6a1987e992ddc85dddbcc4d6dd6ef2e9fc",
            "0x0000000000000000000000006471455c50c1ea6e1aee1915606d9412c4496e77"
          ],
          "data": "0x",
          "blockHash": "0xd9777a2afe71f17492211da34e978d98bb34cb2accfc9820c541ee368a3bbcd3",
          "blockNumber": "0x7823b8",
          "blockTimestamp": "0x67cedbfc",
          "transactionHash": "0xe59bcbf1ab1d01cc6fb0c4b181a8001925e20af0fc23f60efe8f830fef81fcae",
          "transactionIndex": "0xef",
          "logIndex": "0x108",
          "removed": false
        },
        {
          "address": "0x6471455C50c1Ea6e1aee1915606D9412C4496E77",
          "topics": [
            "0x3f678b7d550c0f8dfb5dce7c8568f6e139b01f5582a5613d669ebe77729a49fc",
            "0x0000000000000000000000006471455c50c1ea6e1aee1915606d9412c4496e77"
          ],
          "data": "0x00000000000000000000000000000000000000000000000000000000000000600000000000000000000000000000000000000000000000000000000067cedbfc0000000000000000000000000000000000000000000000000000000067cedbfc000000000000000000000000000000000000000000000000000000000000000400000000000000000000000000000000000000000000000006f05b59d3b2000000000000000000000000000000000000000000000000000006f05b59d3b2000000000000000000000000000000000000000000000000000000000000000000000000000000000000000000000000000000000000000000000000000000000000",
          "blockHash": "0xd9777a2afe71f17492211da34e978d98bb34cb2accfc9820c541ee368a3bbcd3",
          "blockNumber": "0x7823b8",
          "blockTimestamp": "0x67cedbfc",
          "transactionHash": "0xe59bcbf1ab1d01cc6fb0c4b181a8001925e20af0fc23f60efe8f830fef81fcae",
          "transactionIndex": "0xef",
          "logIndex": "0x109",
          "removed": false
        },
        {
          "address": "0x6471455C50c1Ea6e1aee1915606D9412C4496E77",
          "topics": [
            "0x0fac2c21f556c18c8ccc516e0c773f53ac94c19685206bc8dabe8a189cb1f43a"
          ],
          "data": "0x000000000000000000000000d728f8c62949bbfb4e3d1701c263887f313e9b4e00000000000000000000000000000000000000000000000000000000000001200000000000000000000000000000000000000000000000000000000000000200000000000000000000000000000000000000000000000000000000000000024000000000000000000000000000000000000000000000000002c68af0bb14000000000000000000000000000000000000000000000000000002c68af0bb140000000000000000000000000000000000000000000000000000000000000000003c00000000000000000000000012395366299c28492682f7853424554df0b81b3800000000000000000000000023920dfc349c55f535d1020dcabfef4e80b9680b0000000000000000000000000000000000000000000000000000000000000002000000000000000000000000000000000000000000000000000000000000004000000000000000000000000000000000000000000000000000000000000000800000000000000000000000000000000000000000000000000000000000000001000000000000000000000000809cebbb376a97d175570b5c71ed2a219acd6f210000000000000000000000000000000000000000000000000000000000000001000000000000000000000000da841aeee267b4607f8f0f3622e99060d64644ef000000000000000000000000000000000000000000000000000000000000000100000000000000000000000000000000000000000000000002c68af0bb14000000000000000000000000000000000000000000000000000000000000000000010000000000000000000000000000000000000000000000000000000000000020000000000000000000000000000000000000000000000000000000000000000100000000000000000000000000000000000000000000000002c68af0bb140000",
          "blockHash": "0xd9777a2afe71f17492211da34e978d98bb34cb2accfc9820c541ee368a3bbcd3",
          "blockNumber": "0x7823b8",
          "blockTimestamp": "0x67cedbfc",
          "transactionHash": "0xe59bcbf1ab1d01cc6fb0c4b181a8001925e20af0fc23f60efe8f830fef81fcae",
          "transactionIndex": "0xef",
          "logIndex": "0x10a",
          "removed": false
        },
        {
          "address": "0x6471455C50c1Ea6e1aee1915606D9412C4496E77",
          "topics": [
            "0xc7f505b2f371ae2175ee4913f4499e1f2633a7b5936321eed1cdaeb6115181d2"
          ],
          "data": "0x0000000000000000000000000000000000000000000000000000000000000001",
          "blockHash": "0xd9777a2afe71f17492211da34e978d98bb34cb2accfc9820c541ee368a3bbcd3",
          "blockNumber": "0x7823b8",
          "blockTimestamp": "0x67cedbfc",
          "transactionHash": "0xe59bcbf1ab1d01cc6fb0c4b181a8001925e20af0fc23f60efe8f830fef81fcae",
          "transactionIndex": "0xef",
          "logIndex": "0x10b",
          "removed": false
        },
        {
          "address": "0xbA1333333333a1BA1108E8412f11850A5C319bA9",
          "topics": [
            "0x89d41522342fabac1471ca6073a5623e5caf367b03ca6e9a001478d0cf8be4a1",
            "0x0000000000000000000000006471455c50c1ea6e1aee1915606d9412c4496e77"
          ],
          "data": "0x00000000000000000000000000000000000000000000000000470de4df820000",
          "blockHash": "0xd9777a2afe71f17492211da34e978d98bb34cb2accfc9820c541ee368a3bbcd3",
          "blockNumber": "0x7823b8",
          "blockTimestamp": "0x67cedbfc",
          "transactionHash": "0xe59bcbf1ab1d01cc6fb0c4b181a8001925e20af0fc23f60efe8f830fef81fcae",
          "transactionIndex": "0xef",
          "logIndex": "0x10c",
          "removed": false
        },
        {
          "address": "0xbA1333333333a1BA1108E8412f11850A5C319bA9",
          "topics": [
            "0xbc1561eeab9f40962e2fb827a7ff9c7cdb47a9d7c84caeefa4ed90e043842dad",
            "0x0000000000000000000000006471455c50c1ea6e1aee1915606d9412c4496e77",
            "0x00000000000000000000000023920dfc349c55f535d1020dcabfef4e80b9680b"
          ],
          "data": "0x00000000000000000000000000000000000000000000000000000000000002a000000000000000000000000000000000000000000000000000470de4df8200000000000000000000000000000000000000000000000000000000000067d81340000000000000000000000000000000000000000000000000000000000000000000000000000000000000000000000000000000000000000000000000000000000000000000000000000000000000000000000000000000000000000000000000000000000000000000000000000000000000000000000000000000000000000000000000000000000000000000000000000000000000000000000000000000000000000000000000000000000000000000000000000000000000000000000000000000000000000000000000000000000000000000000000000000000000000000000000000000000000000000000000000000000000000000000000000000000000000000000000000000000000000000000000000000000000000000000000000000000000000000000000000000000000000000000000000000000000000000000000000000000000000000000000000000000000000000000000000000000000000000000000000000000000000000000000000000000000000000000000000000000000000000000000000000000000000000000000000000000000000000000000000000000000000000000000000000000000000000000000000000000000000000000000000000000000000000000000000000000000000000000000000000000000000000000000000000000000000000000000000000000000000000000000000000000000000000000000000000000000000000000000000000000000000000000000000000000000000000000000000000000000000000000001000000000000000000000000000000000000000000000000000000000000000200000000000000000000000029f2d40b0605204364af54ec677bd022da425d0300000000000000000000000000000000000000000000000000000000000000000000000000000000000000000000000000000000000000000000000000000000000000000000000000000000000000000000000000000000000000000000000000000000000000000000000094a9d9ac8a22534e3faca9f4e7f2e2cf85d5e4c8000000000000000000000000000000000000000000000000000000000000000000000000000000000000000000000000000000000000000000000000000000000000000000000000000000000000000000000000000000000000000000000000",
          "blockHash": "0xd9777a2afe71f17492211da34e978d98bb34cb2accfc9820c541ee368a3bbcd3",
          "blockNumber": "0x7823b8",
          "blockTimestamp": "0x67cedbfc",
          "transactionHash": "0xe59bcbf1ab1d01cc6fb0c4b181a8001925e20af0fc23f60efe8f830fef81fcae",
          "transactionIndex": "0xef",
          "logIndex": "0x10d",
          "removed": false
        }
      ],
      "logsBloom": "0x408000000000000000000000000000000000000000000000800000000020080000000000080000008000000000000000000000000000000000000000400000000000000000000000000000000000000000000000000000008000000000000000000000000000000000000000000000000000010001010000008000000200000000000000000000000008000000000000000000000000c0000000000000000000000000000000000000000100000000000000000002080000000000000000000040800040000008000010000000000000000000020004100800000000000000000000000001000100002000000000000000000000000080000000000000000000",
      "type": "0x2",
      "transactionHash": "0xe59bcbf1ab1d01cc6fb0c4b181a8001925e20af0fc23f60efe8f830fef81fcae",
      "transactionIndex": "0xef",
      "blockHash": "0xd9777a2afe71f17492211da34e978d98bb34cb2accfc9820c541ee368a3bbcd3",
      "blockNumber": "0x7823b8",
      "gasUsed": "0x5ddc22",
      "effectiveGasPrice": "0x396c5d4d35",
      "from": "0x12395366299C28492682f7853424554df0b81B38",
      "to": "0x23920dFC349c55F535D1020dcaBFEf4E80b9680b",
      "contractAddress": null
    }
  ],
  "libraries": [],
  "pending": [],
  "returns": {},
  "timestamp": 1741609984,
  "chain": 11155111,
  "commit": "4b402e5"
}