{
  "transactions": [
    {
      "hash": "0x7689434e8ce82fdb1e16f508717b68410bd30526d7fd549620a82325aba261a2",
      "transactionType": "CALL",
      "contractName": null,
      "contractAddress": "0x000000000022D473030F116dDEE9F6B43aC78BA3",
      "function": "approve(address,address,uint160,uint48)",
      "arguments": [
        "0x29f2D40B0605204364af54EC677bD022dA425d03",
        "0x0BF61f706105EA44694f2e92986bD01C39930280",
        "1461501637330902918203684832716283019655932542975",
        "1742401068"
      ],
      "transaction": {
        "from": "0x12395366299C28492682f7853424554df0b81B38",
        "to": "0x000000000022D473030F116dDEE9F6B43aC78BA3",
        "gas": "0xa59b",
        "value": "0x0",
        "input": "0x87517c4500000000000000000000000029f2d40b0605204364af54ec677bd022da425d030000000000000000000000000bf61f706105ea44694f2e92986bd01c39930280000000000000000000000000ffffffffffffffffffffffffffffffffffffffff0000000000000000000000000000000000000000000000000000000067daee2c",
        "nonce": "0x59",
        "chainId": "0xaa36a7"
      },
      "additionalContracts": [],
      "isFixedGasLimit": false
    },
    {
      "hash": "0xced9c129156cc59902a488d17877b6800c9b799ceb3e325998acb148387bec10",
      "transactionType": "CALL",
      "contractName": null,
      "contractAddress": "0x000000000022D473030F116dDEE9F6B43aC78BA3",
      "function": "approve(address,address,uint160,uint48)",
      "arguments": [
        "0x94a9D9AC8a22534E3FaCa9F4e7F2E2cf85d5E4C8",
        "0x0BF61f706105EA44694f2e92986bD01C39930280",
        "1461501637330902918203684832716283019655932542975",
        "1742401068"
      ],
      "transaction": {
        "from": "0x12395366299C28492682f7853424554df0b81B38",
        "to": "0x000000000022D473030F116dDEE9F6B43aC78BA3",
        "gas": "0xa59b",
        "value": "0x0",
        "input": "0x87517c4500000000000000000000000094a9d9ac8a22534e3faca9f4e7f2e2cf85d5e4c80000000000000000000000000bf61f706105ea44694f2e92986bd01c39930280000000000000000000000000ffffffffffffffffffffffffffffffffffffffff0000000000000000000000000000000000000000000000000000000067daee2c",
        "nonce": "0x5a",
        "chainId": "0xaa36a7"
      },
      "additionalContracts": [],
      "isFixedGasLimit": false
    },
    {
      "hash": "0x9454d178a97722c2db41666226b0aa16645502936b2cdc3bb41cb3b6eeab199a",
      "transactionType": "CALL",
      "contractName": null,
      "contractAddress": "0x29f2D40B0605204364af54EC677bD022dA425d03",
      "function": "approve(address,uint256)",
      "arguments": [
        "0x0BF61f706105EA44694f2e92986bD01C39930280",
        "2"
      ],
      "transaction": {
        "from": "0x12395366299C28492682f7853424554df0b81B38",
        "to": "0x29f2D40B0605204364af54EC677bD022dA425d03",
        "gas": "0x9632",
        "value": "0x0",
        "input": "0x095ea7b30000000000000000000000000bf61f706105ea44694f2e92986bd01c399302800000000000000000000000000000000000000000000000000000000000000002",
        "nonce": "0x5b",
        "chainId": "0xaa36a7"
      },
      "additionalContracts": [],
      "isFixedGasLimit": false
    },
    {
      "hash": "0x9e835ef2270d694d61f778176a24ed1f13a0e9aea7acf3322c91d116de1a0bcb",
      "transactionType": "CALL",
      "contractName": null,
      "contractAddress": "0x94a9D9AC8a22534E3FaCa9F4e7F2E2cf85d5E4C8",
      "function": "approve(address,uint256)",
      "arguments": [
        "0x0BF61f706105EA44694f2e92986bD01C39930280",
        "2"
      ],
      "transaction": {
        "from": "0x12395366299C28492682f7853424554df0b81B38",
        "to": "0x94a9D9AC8a22534E3FaCa9F4e7F2E2cf85d5E4C8",
        "gas": "0x9632",
        "value": "0x0",
        "input": "0x095ea7b30000000000000000000000000bf61f706105ea44694f2e92986bd01c399302800000000000000000000000000000000000000000000000000000000000000002",
        "nonce": "0x5c",
        "chainId": "0xaa36a7"
      },
      "additionalContracts": [],
      "isFixedGasLimit": false
    },
    {
      "hash": "0xa08e57d0b6d49ae7d058e9d080577d967c71e19f135ef3a5f6fcecf18f64ec74",
      "transactionType": "CALL",
      "contractName": null,
      "contractAddress": "0x0BF61f706105EA44694f2e92986bD01C39930280",
      "function": "addLiquidityUnbalanced(address,uint256[],uint256,bool,bytes)",
      "arguments": [
        "0xA3a6398f3B29b84a6657A1f4bcE5c90F38462bf7",
        "[1, 1]",
        "0",
        "false",
        "0x"
      ],
      "transaction": {
        "from": "0x12395366299C28492682f7853424554df0b81B38",
        "to": "0x0BF61f706105EA44694f2e92986bD01C39930280",
        "gas": "0x50215",
        "value": "0x0",
        "input": "0xc08bc851000000000000000000000000a3a6398f3b29b84a6657a1f4bce5c90f38462bf700000000000000000000000000000000000000000000000000000000000000a00000000000000000000000000000000000000000000000000000000000000000000000000000000000000000000000000000000000000000000000000000000000000000000000000000000000000000000000000000000000000000000001000000000000000000000000000000000000000000000000000000000000000002000000000000000000000000000000000000000000000000000000000000000100000000000000000000000000000000000000000000000000000000000000010000000000000000000000000000000000000000000000000000000000000000",
        "nonce": "0x5d",
        "chainId": "0xaa36a7"
      },
      "additionalContracts": [],
      "isFixedGasLimit": false
    }
  ],
  "receipts": [
    {
      "status": "0x1",
      "cumulativeGasUsed": "0x204cfac",
      "logs": [
        {
          "address": "0x000000000022D473030F116dDEE9F6B43aC78BA3",
          "topics": [
            "0xda9fa7c1b00402c17d0161b249b1ab8bbec047c5a52207b9c112deffd817036b",
            "0x00000000000000000000000012395366299c28492682f7853424554df0b81b38",
            "0x00000000000000000000000029f2d40b0605204364af54ec677bd022da425d03",
            "0x0000000000000000000000000bf61f706105ea44694f2e92986bd01c39930280"
          ],
          "data": "0x000000000000000000000000ffffffffffffffffffffffffffffffffffffffff0000000000000000000000000000000000000000000000000000000067daee2c",
          "blockHash": "0xf3e0a765fad28df54d54bd130f4a8701cbc0c8a2712fd135d2ed0f4ba9a8e6a4",
          "blockNumber": "0x78fda7",
          "blockTimestamp": "0x67d99cc4",
          "transactionHash": "0x7689434e8ce82fdb1e16f508717b68410bd30526d7fd549620a82325aba261a2",
          "transactionIndex": "0x10f",
          "logIndex": "0x193",
          "removed": false
        }
      ],
      "logsBloom": "0x00010000000000010000000000004000000000000004000000000000000000000000000000000000000000000000000000000000000000080000000000080000000000000000000000000000000000000000000000000000000000000000000000000000000000000000000000000000000000000000000000100000000000000020000000000000000000000000040000000000000000000000000000000000000000000000000000000000000000000000200000000000000000080000000000000000000000000000000000000000000000000000000040000000000000000000000000000000000000004000000000000000000000000000000002000400",
      "type": "0x2",
      "transactionHash": "0x7689434e8ce82fdb1e16f508717b68410bd30526d7fd549620a82325aba261a2",
      "transactionIndex": "0x10f",
      "blockHash": "0xf3e0a765fad28df54d54bd130f4a8701cbc0c8a2712fd135d2ed0f4ba9a8e6a4",
      "blockNumber": "0x78fda7",
      "gasUsed": "0x77e6",
      "effectiveGasPrice": "0x201cf2de",
      "from": "0x12395366299C28492682f7853424554df0b81B38",
      "to": "0x000000000022D473030F116dDEE9F6B43aC78BA3",
      "contractAddress": null
    },
    {
      "status": "0x1",
      "cumulativeGasUsed": "0x2054792",
      "logs": [
        {
          "address": "0x000000000022D473030F116dDEE9F6B43aC78BA3",
          "topics": [
            "0xda9fa7c1b00402c17d0161b249b1ab8bbec047c5a52207b9c112deffd817036b",
            "0x00000000000000000000000012395366299c28492682f7853424554df0b81b38",
            "0x00000000000000000000000094a9d9ac8a22534e3faca9f4e7f2e2cf85d5e4c8",
            "0x0000000000000000000000000bf61f706105ea44694f2e92986bd01c39930280"
          ],
          "data": "0x000000000000000000000000ffffffffffffffffffffffffffffffffffffffff0000000000000000000000000000000000000000000000000000000067daee2c",
          "blockHash": "0xf3e0a765fad28df54d54bd130f4a8701cbc0c8a2712fd135d2ed0f4ba9a8e6a4",
          "blockNumber": "0x78fda7",
          "blockTimestamp": "0x67d99cc4",
          "transactionHash": "0xced9c129156cc59902a488d17877b6800c9b799ceb3e325998acb148387bec10",
          "transactionIndex": "0x110",
          "logIndex": "0x194",
          "removed": false
        }
      ],
      "logsBloom": "0x00010000000000010200000000000000000000000004000000000000000000000000000000000000000100000000000000000000000000080000000000080000000000000000000000000000000000000000000000000000000000000000000000000000000000000000000000000000000000000000000000100000000000000020000000000000000000000000040000000000000000000000000000000000000000000000000000000000000000000000000000000000000000080000000000000000000000000000000000000000000000000000020040000000000000000000000000000000000000000000000000000000000000000000000002000400",
      "type": "0x2",
      "transactionHash": "0xced9c129156cc59902a488d17877b6800c9b799ceb3e325998acb148387bec10",
      "transactionIndex": "0x110",
      "blockHash": "0xf3e0a765fad28df54d54bd130f4a8701cbc0c8a2712fd135d2ed0f4ba9a8e6a4",
      "blockNumber": "0x78fda7",
      "gasUsed": "0x77e6",
      "effectiveGasPrice": "0x201cf2de",
      "from": "0x12395366299C28492682f7853424554df0b81B38",
      "to": "0x000000000022D473030F116dDEE9F6B43aC78BA3",
      "contractAddress": null
    },
    {
      "status": "0x1",
      "cumulativeGasUsed": "0x205ae45",
      "logs": [
        {
          "address": "0x29f2D40B0605204364af54EC677bD022dA425d03",
          "topics": [
            "0x8c5be1e5ebec7d5bd14f71427d1e84f3dd0314c0f7b2291e5b200ac8c7c3b925",
            "0x00000000000000000000000012395366299c28492682f7853424554df0b81b38",
            "0x0000000000000000000000000bf61f706105ea44694f2e92986bd01c39930280"
          ],
          "data": "0x0000000000000000000000000000000000000000000000000000000000000002",
          "blockHash": "0xf3e0a765fad28df54d54bd130f4a8701cbc0c8a2712fd135d2ed0f4ba9a8e6a4",
          "blockNumber": "0x78fda7",
          "blockTimestamp": "0x67d99cc4",
          "transactionHash": "0x9454d178a97722c2db41666226b0aa16645502936b2cdc3bb41cb3b6eeab199a",
          "transactionIndex": "0x111",
          "logIndex": "0x195",
          "removed": false
        }
      ],
      "logsBloom": "0x00000000000000010000000000000000000000000004400000000000000000000000000000000000000000000000000000000000000000080000000000200000000000000000000000000000004000000000000000000000000000000000000000000000000000000000000000000000000000000000000000100000000000000000000000000000000000000000040000000000000000000000000000000000020000000000000000000000000000000000000000000000000000000000000000000000000000000000000000000000000000200000000000000000000000000010000000000000000000000000000000000000000000000000000002000000",
      "type": "0x2",
      "transactionHash": "0x9454d178a97722c2db41666226b0aa16645502936b2cdc3bb41cb3b6eeab199a",
      "transactionIndex": "0x111",
      "blockHash": "0xf3e0a765fad28df54d54bd130f4a8701cbc0c8a2712fd135d2ed0f4ba9a8e6a4",
      "blockNumber": "0x78fda7",
      "gasUsed": "0x66b3",
      "effectiveGasPrice": "0x201cf2de",
      "from": "0x12395366299C28492682f7853424554df0b81B38",
      "to": "0x29f2D40B0605204364af54EC677bD022dA425d03",
      "contractAddress": null
    },
    {
      "status": "0x1",
      "cumulativeGasUsed": "0x20614f8",
      "logs": [
        {
          "address": "0x94a9D9AC8a22534E3FaCa9F4e7F2E2cf85d5E4C8",
          "topics": [
            "0x8c5be1e5ebec7d5bd14f71427d1e84f3dd0314c0f7b2291e5b200ac8c7c3b925",
            "0x00000000000000000000000012395366299c28492682f7853424554df0b81b38",
            "0x0000000000000000000000000bf61f706105ea44694f2e92986bd01c39930280"
          ],
          "data": "0x0000000000000000000000000000000000000000000000000000000000000002",
          "blockHash": "0xf3e0a765fad28df54d54bd130f4a8701cbc0c8a2712fd135d2ed0f4ba9a8e6a4",
          "blockNumber": "0x78fda7",
          "blockTimestamp": "0x67d99cc4",
          "transactionHash": "0x9e835ef2270d694d61f778176a24ed1f13a0e9aea7acf3322c91d116de1a0bcb",
          "transactionIndex": "0x112",
          "logIndex": "0x196",
          "removed": false
        }
      ],
      "logsBloom": "0x00000000000000010000000000000000000000000004000000000000000000000000000000000000000000000000000000000000000000080000000000200000000000000000000000000000000000000000000000000000000008000000000000000000000000000000000000000000000000000000000000100000000000000000000000000000000000000000040000000000000000000000000000000000020000000100000000004000000000000000000000000000000000000000000000000000000000000000000000000000000000000000000000000000000000000010000000000000000000000000000000000000000000000000000002000000",
      "type": "0x2",
      "transactionHash": "0x9e835ef2270d694d61f778176a24ed1f13a0e9aea7acf3322c91d116de1a0bcb",
      "transactionIndex": "0x112",
      "blockHash": "0xf3e0a765fad28df54d54bd130f4a8701cbc0c8a2712fd135d2ed0f4ba9a8e6a4",
      "blockNumber": "0x78fda7",
      "gasUsed": "0x66b3",
      "effectiveGasPrice": "0x201cf2de",
      "from": "0x12395366299C28492682f7853424554df0b81B38",
      "to": "0x94a9D9AC8a22534E3FaCa9F4e7F2E2cf85d5E4C8",
      "contractAddress": null
    },
    {
      "status": "0x1",
      "cumulativeGasUsed": "0x209b52d",
      "logs": [
        {
          "address": "0xbA1333333333a1BA1108E8412f11850A5C319bA9",
          "topics": [
            "0xd1398bee19313d6bf672ccb116e51f4a1a947e91c757907f51fbb5b5e56c698f",
            "0x000000000000000000000000a3a6398f3b29b84a6657a1f4bce5c90f38462bf7",
            "0x0000000000000000000000000000000000000000000000000000000000000000",
            "0x00000000000000000000000012395366299c28492682f7853424554df0b81b38"
          ],
          "data": "0x000000000000000000000000000000000000000000000000000000174876e7f7",
          "blockHash": "0xf3e0a765fad28df54d54bd130f4a8701cbc0c8a2712fd135d2ed0f4ba9a8e6a4",
          "blockNumber": "0x78fda7",
          "blockTimestamp": "0x67d99cc4",
          "transactionHash": "0xa08e57d0b6d49ae7d058e9d080577d967c71e19f135ef3a5f6fcecf18f64ec74",
          "transactionIndex": "0x113",
          "logIndex": "0x197",
          "removed": false
        },
        {
          "address": "0xA3a6398f3B29b84a6657A1f4bcE5c90F38462bf7",
          "topics": [
            "0xddf252ad1be2c89b69c2b068fc378daa952ba7f163c4a11628f55a4df523b3ef",
            "0x0000000000000000000000000000000000000000000000000000000000000000",
            "0x00000000000000000000000012395366299c28492682f7853424554df0b81b38"
          ],
          "data": "0x000000000000000000000000000000000000000000000000000000174876e7f7",
          "blockHash": "0xf3e0a765fad28df54d54bd130f4a8701cbc0c8a2712fd135d2ed0f4ba9a8e6a4",
          "blockNumber": "0x78fda7",
          "blockTimestamp": "0x67d99cc4",
          "transactionHash": "0xa08e57d0b6d49ae7d058e9d080577d967c71e19f135ef3a5f6fcecf18f64ec74",
          "transactionIndex": "0x113",
          "logIndex": "0x198",
          "removed": false
        },
        {
          "address": "0xbA1333333333a1BA1108E8412f11850A5C319bA9",
          "topics": [
            "0xa26a52d8d53702bba7f137907b8e1f99ff87f6d450144270ca25e72481cca871",
            "0x000000000000000000000000a3a6398f3b29b84a6657a1f4bce5c90f38462bf7",
            "0x00000000000000000000000012395366299c28492682f7853424554df0b81b38",
            "0x0000000000000000000000000000000000000000000000000000000000000001"
          ],
          "data": "0x0000000000000000000000000000000000000000000000000000002e90edcff6000000000000000000000000000000000000000000000000000000000000006000000000000000000000000000000000000000000000000000000000000000c0000000000000000000000000000000000000000000000000000000000000000200000000000000000000000000000000000000000000000000000000000000010000000000000000000000000000000000000000000000000000000000000001000000000000000000000000000000000000000000000000000000000000000200000000000000000000000000000000000000000000000000000000000000000000000000000000000000000000000000000000000000000000000000000000",
          "blockHash": "0xf3e0a765fad28df54d54bd130f4a8701cbc0c8a2712fd135d2ed0f4ba9a8e6a4",
          "blockNumber": "0x78fda7",
          "blockTimestamp": "0x67d99cc4",
          "transactionHash": "0xa08e57d0b6d49ae7d058e9d080577d967c71e19f135ef3a5f6fcecf18f64ec74",
          "transactionIndex": "0x113",
          "logIndex": "0x199",
          "removed": false
        },
        {
          "address": "0x29f2D40B0605204364af54EC677bD022dA425d03",
          "topics": [
            "0xddf252ad1be2c89b69c2b068fc378daa952ba7f163c4a11628f55a4df523b3ef",
            "0x00000000000000000000000012395366299c28492682f7853424554df0b81b38",
            "0x000000000000000000000000ba1333333333a1ba1108e8412f11850a5c319ba9"
          ],
          "data": "0x0000000000000000000000000000000000000000000000000000000000000001",
          "blockHash": "0xf3e0a765fad28df54d54bd130f4a8701cbc0c8a2712fd135d2ed0f4ba9a8e6a4",
          "blockNumber": "0x78fda7",
          "blockTimestamp": "0x67d99cc4",
          "transactionHash": "0xa08e57d0b6d49ae7d058e9d080577d967c71e19f135ef3a5f6fcecf18f64ec74",
          "transactionIndex": "0x113",
          "logIndex": "0x19a",
          "removed": false
        },
        {
          "address": "0x29f2D40B0605204364af54EC677bD022dA425d03",
          "topics": [
            "0x8c5be1e5ebec7d5bd14f71427d1e84f3dd0314c0f7b2291e5b200ac8c7c3b925",
            "0x00000000000000000000000012395366299c28492682f7853424554df0b81b38",
            "0x000000000000000000000000000000000022d473030f116ddee9f6b43ac78ba3"
          ],
          "data": "0xfffffffffffffffffffffffffffffffffffffffffffffffffffffffffffffffd",
          "blockHash": "0xf3e0a765fad28df54d54bd130f4a8701cbc0c8a2712fd135d2ed0f4ba9a8e6a4",
          "blockNumber": "0x78fda7",
          "blockTimestamp": "0x67d99cc4",
          "transactionHash": "0xa08e57d0b6d49ae7d058e9d080577d967c71e19f135ef3a5f6fcecf18f64ec74",
          "transactionIndex": "0x113",
          "logIndex": "0x19b",
          "removed": false
        },
        {
          "address": "0x94a9D9AC8a22534E3FaCa9F4e7F2E2cf85d5E4C8",
          "topics": [
            "0xddf252ad1be2c89b69c2b068fc378daa952ba7f163c4a11628f55a4df523b3ef",
            "0x00000000000000000000000012395366299c28492682f7853424554df0b81b38",
            "0x000000000000000000000000ba1333333333a1ba1108e8412f11850a5c319ba9"
          ],
          "data": "0x0000000000000000000000000000000000000000000000000000000000000001",
          "blockHash": "0xf3e0a765fad28df54d54bd130f4a8701cbc0c8a2712fd135d2ed0f4ba9a8e6a4",
          "blockNumber": "0x78fda7",
          "blockTimestamp": "0x67d99cc4",
          "transactionHash": "0xa08e57d0b6d49ae7d058e9d080577d967c71e19f135ef3a5f6fcecf18f64ec74",
          "transactionIndex": "0x113",
          "logIndex": "0x19c",
          "removed": false
        },
        {
          "address": "0x94a9D9AC8a22534E3FaCa9F4e7F2E2cf85d5E4C8",
          "topics": [
            "0x8c5be1e5ebec7d5bd14f71427d1e84f3dd0314c0f7b2291e5b200ac8c7c3b925",
            "0x00000000000000000000000012395366299c28492682f7853424554df0b81b38",
            "0x000000000000000000000000000000000022d473030f116ddee9f6b43ac78ba3"
          ],
          "data": "0xfffffffffffffffffffffffffffffffffffffffffffffffffffffffffffffffd",
          "blockHash": "0xf3e0a765fad28df54d54bd130f4a8701cbc0c8a2712fd135d2ed0f4ba9a8e6a4",
          "blockNumber": "0x78fda7",
          "blockTimestamp": "0x67d99cc4",
          "transactionHash": "0xa08e57d0b6d49ae7d058e9d080577d967c71e19f135ef3a5f6fcecf18f64ec74",
          "transactionIndex": "0x113",
          "logIndex": "0x19d",
          "removed": false
        }
      ],
      "logsBloom": "0x00000000000000010040000000000000000080000000400000004000002000000000000000000000000000000000000000000000800000000000000000240000802000000000000000004008104000000000000000040800000008000000000000000000020000000000000000000800000001000000000000100010000000000000000000000000000000000000040000000001000000000000010000080000020000800180000000044000000000000000000000000000000000000000000000000002000000000000000000000000000004200000000000000000800060080010000000000000002000000000000000000000000000000000000000000000",
      "type": "0x2",
      "transactionHash": "0xa08e57d0b6d49ae7d058e9d080577d967c71e19f135ef3a5f6fcecf18f64ec74",
      "transactionIndex": "0x113",
      "blockHash": "0xf3e0a765fad28df54d54bd130f4a8701cbc0c8a2712fd135d2ed0f4ba9a8e6a4",
      "blockNumber": "0x78fda7",
      "gasUsed": "0x3a035",
      "effectiveGasPrice": "0x201cf2de",
      "from": "0x12395366299C28492682f7853424554df0b81B38",
      "to": "0x0BF61f706105EA44694f2e92986bD01C39930280",
      "contractAddress": null
    }
  ],
  "libraries": [],
  "pending": [],
  "returns": {},
  "timestamp": 1742314693,
  "chain": 11155111,
  "commit": "c5d8f79"
}