{
  "transactions": [
    {
      "hash": "0xc8053c5b4a7d2e965780a65ccbaef279593aad1d3350e93d82d19ead0279c0ac",
      "transactionType": "CALL",
      "contractName": null,
      "contractAddress": "0x94a9D9AC8a22534E3FaCa9F4e7F2E2cf85d5E4C8",
      "function": "approve(address,uint256)",
      "arguments": [
        "0x000000000022D473030F116dDEE9F6B43aC78BA3",
        "115792089237316195423570985008687907853269984665640564039457584007913129639935"
      ],
      "transaction": {
        "from": "0x12395366299C28492682f7853424554df0b81B38",
        "to": "0x94a9D9AC8a22534E3FaCa9F4e7F2E2cf85d5E4C8",
        "gas": "0xa7f9",
        "value": "0x0",
        "input": "0x095ea7b3000000000000000000000000000000000022d473030f116ddee9f6b43ac78ba3ffffffffffffffffffffffffffffffffffffffffffffffffffffffffffffffff",
        "nonce": "0x144",
        "chainId": "0xaa36a7"
      },
      "additionalContracts": [],
      "isFixedGasLimit": false
    },
    {
      "hash": "0x52bf9238f880890bfe55540923c79dc3e46484eaa6d1e5cd11e5dba488bf1cd7",
      "transactionType": "CALL",
      "contractName": null,
      "contractAddress": "0x29f2D40B0605204364af54EC677bD022dA425d03",
      "function": "approve(address,uint256)",
      "arguments": [
        "0x000000000022D473030F116dDEE9F6B43aC78BA3",
        "115792089237316195423570985008687907853269984665640564039457584007913129639935"
      ],
      "transaction": {
        "from": "0x12395366299C28492682f7853424554df0b81B38",
        "to": "0x29f2D40B0605204364af54EC677bD022dA425d03",
        "gas": "0xa7f9",
        "value": "0x0",
        "input": "0x095ea7b3000000000000000000000000000000000022d473030f116ddee9f6b43ac78ba3ffffffffffffffffffffffffffffffffffffffffffffffffffffffffffffffff",
        "nonce": "0x145",
        "chainId": "0xaa36a7"
      },
      "additionalContracts": [],
      "isFixedGasLimit": false
    },
    {
      "hash": "0xf80e94946e3e478e32d4f29a49a0202ca3fa7ddd5c75bd60370f76afead7972d",
      "transactionType": "CALL",
      "contractName": null,
      "contractAddress": "0x000000000022D473030F116dDEE9F6B43aC78BA3",
      "function": "approve(address,address,uint160,uint48)",
      "arguments": [
        "0x29f2D40B0605204364af54EC677bD022dA425d03",
        "0x0BF61f706105EA44694f2e92986bD01C39930280",
        "1461501637330902918203684832716283019655932542975",
        "1742490588"
      ],
      "transaction": {
        "from": "0x12395366299C28492682f7853424554df0b81B38",
        "to": "0x000000000022D473030F116dDEE9F6B43aC78BA3",
        "gas": "0xa59b",
        "value": "0x0",
        "input": "0x87517c4500000000000000000000000029f2d40b0605204364af54ec677bd022da425d030000000000000000000000000bf61f706105ea44694f2e92986bd01c39930280000000000000000000000000ffffffffffffffffffffffffffffffffffffffff0000000000000000000000000000000000000000000000000000000067dc4bdc",
        "nonce": "0x146",
        "chainId": "0xaa36a7"
      },
      "additionalContracts": [],
      "isFixedGasLimit": false
    },
    {
      "hash": "0x1cfd8e6f0e56adc727c144b2d6cea0dde5a80c804195109eb0aa8a1cf1dec228",
      "transactionType": "CALL",
      "contractName": null,
      "contractAddress": "0x000000000022D473030F116dDEE9F6B43aC78BA3",
      "function": "approve(address,address,uint160,uint48)",
      "arguments": [
        "0x94a9D9AC8a22534E3FaCa9F4e7F2E2cf85d5E4C8",
        "0x0BF61f706105EA44694f2e92986bD01C39930280",
        "1461501637330902918203684832716283019655932542975",
        "1742490588"
      ],
      "transaction": {
        "from": "0x12395366299C28492682f7853424554df0b81B38",
        "to": "0x000000000022D473030F116dDEE9F6B43aC78BA3",
        "gas": "0xa59b",
        "value": "0x0",
        "input": "0x87517c4500000000000000000000000094a9d9ac8a22534e3faca9f4e7f2e2cf85d5e4c80000000000000000000000000bf61f706105ea44694f2e92986bd01c39930280000000000000000000000000ffffffffffffffffffffffffffffffffffffffff0000000000000000000000000000000000000000000000000000000067dc4bdc",
        "nonce": "0x147",
        "chainId": "0xaa36a7"
      },
      "additionalContracts": [],
      "isFixedGasLimit": false
    },
    {
      "hash": "0x518d56e59798ef32a234d434edb49f55e0ea5fb022d2a8b85e1734b3b299d9a1",
      "transactionType": "CALL",
      "contractName": null,
      "contractAddress": "0x0BF61f706105EA44694f2e92986bD01C39930280",
      "function": "initialize(address,address[],uint256[],uint256,bool,bytes)",
      "arguments": [
        "0x2E629cd9061E2B5214B6CFc8d001DEB726275Eb0",
        "[0x29f2D40B0605204364af54EC677bD022dA425d03, 0x94a9D9AC8a22534E3FaCa9F4e7F2E2cf85d5E4C8]",
        "[100000000, 100000000]",
        "0",
        "true",
        "0x"
      ],
      "transaction": {
        "from": "0x12395366299C28492682f7853424554df0b81B38",
        "to": "0x0BF61f706105EA44694f2e92986bD01C39930280",
        "gas": "0x62db1",
        "value": "0x0",
        "input": "0x026b3d950000000000000000000000002e629cd9061e2b5214b6cfc8d001deb726275eb000000000000000000000000000000000000000000000000000000000000000c00000000000000000000000000000000000000000000000000000000000000120000000000000000000000000000000000000000000000000000000000000000000000000000000000000000000000000000000000000000000000000000000010000000000000000000000000000000000000000000000000000000000000180000000000000000000000000000000000000000000000000000000000000000200000000000000000000000029f2d40b0605204364af54ec677bd022da425d0300000000000000000000000094a9d9ac8a22534e3faca9f4e7f2e2cf85d5e4c800000000000000000000000000000000000000000000000000000000000000020000000000000000000000000000000000000000000000000000000005f5e1000000000000000000000000000000000000000000000000000000000005f5e1000000000000000000000000000000000000000000000000000000000000000000",
        "nonce": "0x148",
        "chainId": "0xaa36a7"
      },
      "additionalContracts": [],
      "isFixedGasLimit": false
    }
  ],
  "receipts": [
    {
      "status": "0x1",
      "cumulativeGasUsed": "0xe2f197",
      "logs": [
        {
          "address": "0x94a9D9AC8a22534E3FaCa9F4e7F2E2cf85d5E4C8",
          "topics": [
            "0x8c5be1e5ebec7d5bd14f71427d1e84f3dd0314c0f7b2291e5b200ac8c7c3b925",
            "0x00000000000000000000000012395366299c28492682f7853424554df0b81b38",
            "0x000000000000000000000000000000000022d473030f116ddee9f6b43ac78ba3"
          ],
          "data": "0xffffffffffffffffffffffffffffffffffffffffffffffffffffffffffffffff",
          "blockHash": "0x58d80c12d6cb92855c9aace1140427b35557c38c17b5fdaaebf296855a4625fa",
          "blockNumber": "0x7919df",
          "blockTimestamp": "0x67dafa74",
          "transactionHash": "0xc8053c5b4a7d2e965780a65ccbaef279593aad1d3350e93d82d19ead0279c0ac",
          "transactionIndex": "0x7d",
          "logIndex": "0xd4",
          "removed": false
        }
      ],
      "logsBloom": "0x00000000000000010000000000000000000000000000000000000000000000000000000000000000000000000000000000000000800000000000000000200000000000000000000000004000000000000000000000000800000008000000000000000000000000000000000000000000000000000000000000100000000000000000000000000000000000000000040000000000000000000000000000000000020000000100000000004000000000000000000000000000000000000000000000000000000000000000000000000000000000000000000000000000000000000010000000000000000000000000000000000000000000000000000000000000",
      "type": "0x2",
      "transactionHash": "0xc8053c5b4a7d2e965780a65ccbaef279593aad1d3350e93d82d19ead0279c0ac",
      "transactionIndex": "0x7d",
      "blockHash": "0x58d80c12d6cb92855c9aace1140427b35557c38c17b5fdaaebf296855a4625fa",
      "blockNumber": "0x7919df",
      "gasUsed": "0x72db",
      "effectiveGasPrice": "0x42edd835",
      "from": "0x12395366299C28492682f7853424554df0b81B38",
      "to": "0x94a9D9AC8a22534E3FaCa9F4e7F2E2cf85d5E4C8",
      "contractAddress": null
    },
    {
      "status": "0x1",
      "cumulativeGasUsed": "0xe36472",
      "logs": [
        {
          "address": "0x29f2D40B0605204364af54EC677bD022dA425d03",
          "topics": [
            "0x8c5be1e5ebec7d5bd14f71427d1e84f3dd0314c0f7b2291e5b200ac8c7c3b925",
            "0x00000000000000000000000012395366299c28492682f7853424554df0b81b38",
            "0x000000000000000000000000000000000022d473030f116ddee9f6b43ac78ba3"
          ],
          "data": "0xffffffffffffffffffffffffffffffffffffffffffffffffffffffffffffffff",
          "blockHash": "0x58d80c12d6cb92855c9aace1140427b35557c38c17b5fdaaebf296855a4625fa",
          "blockNumber": "0x7919df",
          "blockTimestamp": "0x67dafa74",
          "transactionHash": "0x52bf9238f880890bfe55540923c79dc3e46484eaa6d1e5cd11e5dba488bf1cd7",
          "transactionIndex": "0x7e",
          "logIndex": "0xd5",
          "removed": false
        }
      ],
      "logsBloom": "0x00000000000000010000000000000000000000000000400000000000000000000000000000000000000000000000000000000000800000000000000000200000000000000000000000004000004000000000000000000800000000000000000000000000000000000000000000000000000000000000000000100000000000000000000000000000000000000000040000000000000000000000000000000000020000000000000000000000000000000000000000000000000000000000000000000000000000000000000000000000000000200000000000000000000000000010000000000000000000000000000000000000000000000000000000000000",
      "type": "0x2",
      "transactionHash": "0x52bf9238f880890bfe55540923c79dc3e46484eaa6d1e5cd11e5dba488bf1cd7",
      "transactionIndex": "0x7e",
      "blockHash": "0x58d80c12d6cb92855c9aace1140427b35557c38c17b5fdaaebf296855a4625fa",
      "blockNumber": "0x7919df",
      "gasUsed": "0x72db",
      "effectiveGasPrice": "0x42edd835",
      "from": "0x12395366299C28492682f7853424554df0b81B38",
      "to": "0x29f2D40B0605204364af54EC677bD022dA425d03",
      "contractAddress": null
    },
    {
      "status": "0x1",
      "cumulativeGasUsed": "0xe3dc58",
      "logs": [
        {
          "address": "0x000000000022D473030F116dDEE9F6B43aC78BA3",
          "topics": [
            "0xda9fa7c1b00402c17d0161b249b1ab8bbec047c5a52207b9c112deffd817036b",
            "0x00000000000000000000000012395366299c28492682f7853424554df0b81b38",
            "0x00000000000000000000000029f2d40b0605204364af54ec677bd022da425d03",
            "0x0000000000000000000000000bf61f706105ea44694f2e92986bd01c39930280"
          ],
          "data": "0x000000000000000000000000ffffffffffffffffffffffffffffffffffffffff0000000000000000000000000000000000000000000000000000000067dc4bdc",
          "blockHash": "0x58d80c12d6cb92855c9aace1140427b35557c38c17b5fdaaebf296855a4625fa",
          "blockNumber": "0x7919df",
          "blockTimestamp": "0x67dafa74",
          "transactionHash": "0xf80e94946e3e478e32d4f29a49a0202ca3fa7ddd5c75bd60370f76afead7972d",
          "transactionIndex": "0x7f",
          "logIndex": "0xd6",
          "removed": false
        }
      ],
      "logsBloom": "0x00010000000000010000000000004000000000000004000000000000000000000000000000000000000000000000000000000000000000080000000000080000000000000000000000000000000000000000000000000000000000000000000000000000000000000000000000000000000000000000000000100000000000000020000000000000000000000000040000000000000000000000000000000000000000000000000000000000000000000000200000000000000000080000000000000000000000000000000000000000000000000000000040000000000000000000000000000000000000004000000000000000000000000000000002000400",
      "type": "0x2",
      "transactionHash": "0xf80e94946e3e478e32d4f29a49a0202ca3fa7ddd5c75bd60370f76afead7972d",
      "transactionIndex": "0x7f",
      "blockHash": "0x58d80c12d6cb92855c9aace1140427b35557c38c17b5fdaaebf296855a4625fa",
      "blockNumber": "0x7919df",
      "gasUsed": "0x77e6",
      "effectiveGasPrice": "0x42edd835",
      "from": "0x12395366299C28492682f7853424554df0b81B38",
      "to": "0x000000000022D473030F116dDEE9F6B43aC78BA3",
      "contractAddress": null
    },
    {
      "status": "0x1",
      "cumulativeGasUsed": "0xe4543e",
      "logs": [
        {
          "address": "0x000000000022D473030F116dDEE9F6B43aC78BA3",
          "topics": [
            "0xda9fa7c1b00402c17d0161b249b1ab8bbec047c5a52207b9c112deffd817036b",
            "0x00000000000000000000000012395366299c28492682f7853424554df0b81b38",
            "0x00000000000000000000000094a9d9ac8a22534e3faca9f4e7f2e2cf85d5e4c8",
            "0x0000000000000000000000000bf61f706105ea44694f2e92986bd01c39930280"
          ],
          "data": "0x000000000000000000000000ffffffffffffffffffffffffffffffffffffffff0000000000000000000000000000000000000000000000000000000067dc4bdc",
          "blockHash": "0x58d80c12d6cb92855c9aace1140427b35557c38c17b5fdaaebf296855a4625fa",
          "blockNumber": "0x7919df",
          "blockTimestamp": "0x67dafa74",
          "transactionHash": "0x1cfd8e6f0e56adc727c144b2d6cea0dde5a80c804195109eb0aa8a1cf1dec228",
          "transactionIndex": "0x80",
          "logIndex": "0xd7",
          "removed": false
        }
      ],
      "logsBloom": "0x00010000000000010200000000000000000000000004000000000000000000000000000000000000000100000000000000000000000000080000000000080000000000000000000000000000000000000000000000000000000000000000000000000000000000000000000000000000000000000000000000100000000000000020000000000000000000000000040000000000000000000000000000000000000000000000000000000000000000000000000000000000000000080000000000000000000000000000000000000000000000000000020040000000000000000000000000000000000000000000000000000000000000000000000002000400",
      "type": "0x2",
      "transactionHash": "0x1cfd8e6f0e56adc727c144b2d6cea0dde5a80c804195109eb0aa8a1cf1dec228",
      "transactionIndex": "0x80",
      "blockHash": "0x58d80c12d6cb92855c9aace1140427b35557c38c17b5fdaaebf296855a4625fa",
      "blockNumber": "0x7919df",
      "gasUsed": "0x77e6",
      "effectiveGasPrice": "0x42edd835",
      "from": "0x12395366299C28492682f7853424554df0b81B38",
      "to": "0x000000000022D473030F116dDEE9F6B43aC78BA3",
      "contractAddress": null
    },
    {
      "status": "0x1",
      "cumulativeGasUsed": "0xe8cd5d",
      "logs": [
        {
          "address": "0xbA1333333333a1BA1108E8412f11850A5C319bA9",
          "topics": [
            "0xd1398bee19313d6bf672ccb116e51f4a1a947e91c757907f51fbb5b5e56c698f",
            "0x0000000000000000000000002e629cd9061e2b5214b6cfc8d001deb726275eb0",
            "0x0000000000000000000000000000000000000000000000000000000000000000",
            "0x0000000000000000000000000000000000000000000000000000000000000000"
          ],
          "data": "0x00000000000000000000000000000000000000000000000000000000000f4240",
          "blockHash": "0x58d80c12d6cb92855c9aace1140427b35557c38c17b5fdaaebf296855a4625fa",
          "blockNumber": "0x7919df",
          "blockTimestamp": "0x67dafa74",
          "transactionHash": "0x518d56e59798ef32a234d434edb49f55e0ea5fb022d2a8b85e1734b3b299d9a1",
          "transactionIndex": "0x81",
          "logIndex": "0xd8",
          "removed": false
        },
        {
          "address": "0x2E629cd9061E2B5214B6CFc8d001DEB726275Eb0",
          "topics": [
            "0xddf252ad1be2c89b69c2b068fc378daa952ba7f163c4a11628f55a4df523b3ef",
            "0x0000000000000000000000000000000000000000000000000000000000000000",
            "0x0000000000000000000000000000000000000000000000000000000000000000"
          ],
          "data": "0x00000000000000000000000000000000000000000000000000000000000f4240",
          "blockHash": "0x58d80c12d6cb92855c9aace1140427b35557c38c17b5fdaaebf296855a4625fa",
          "blockNumber": "0x7919df",
          "blockTimestamp": "0x67dafa74",
          "transactionHash": "0x518d56e59798ef32a234d434edb49f55e0ea5fb022d2a8b85e1734b3b299d9a1",
          "transactionIndex": "0x81",
          "logIndex": "0xd9",
          "removed": false
        },
        {
          "address": "0xbA1333333333a1BA1108E8412f11850A5C319bA9",
          "topics": [
            "0xd1398bee19313d6bf672ccb116e51f4a1a947e91c757907f51fbb5b5e56c698f",
            "0x0000000000000000000000002e629cd9061e2b5214b6cfc8d001deb726275eb0",
            "0x0000000000000000000000000000000000000000000000000000000000000000",
            "0x00000000000000000000000012395366299c28492682f7853424554df0b81b38"
          ],
          "data": "0x0000000000000000000000000000000000000000000000008ac7230489d5b06a",
          "blockHash": "0x58d80c12d6cb92855c9aace1140427b35557c38c17b5fdaaebf296855a4625fa",
          "blockNumber": "0x7919df",
          "blockTimestamp": "0x67dafa74",
          "transactionHash": "0x518d56e59798ef32a234d434edb49f55e0ea5fb022d2a8b85e1734b3b299d9a1",
          "transactionIndex": "0x81",
          "logIndex": "0xda",
          "removed": false
        },
        {
          "address": "0x2E629cd9061E2B5214B6CFc8d001DEB726275Eb0",
          "topics": [
            "0xddf252ad1be2c89b69c2b068fc378daa952ba7f163c4a11628f55a4df523b3ef",
            "0x0000000000000000000000000000000000000000000000000000000000000000",
            "0x00000000000000000000000012395366299c28492682f7853424554df0b81b38"
          ],
          "data": "0x0000000000000000000000000000000000000000000000008ac7230489d5b06a",
          "blockHash": "0x58d80c12d6cb92855c9aace1140427b35557c38c17b5fdaaebf296855a4625fa",
          "blockNumber": "0x7919df",
          "blockTimestamp": "0x67dafa74",
          "transactionHash": "0x518d56e59798ef32a234d434edb49f55e0ea5fb022d2a8b85e1734b3b299d9a1",
          "transactionIndex": "0x81",
          "logIndex": "0xdb",
          "removed": false
        },
        {
          "address": "0xbA1333333333a1BA1108E8412f11850A5C319bA9",
          "topics": [
            "0xa26a52d8d53702bba7f137907b8e1f99ff87f6d450144270ca25e72481cca871",
            "0x0000000000000000000000002e629cd9061e2b5214b6cfc8d001deb726275eb0",
            "0x00000000000000000000000012395366299c28492682f7853424554df0b81b38",
            "0x0000000000000000000000000000000000000000000000000000000000000001"
          ],
          "data": "0x0000000000000000000000000000000000000000000000008ac7230489e4f2aa000000000000000000000000000000000000000000000000000000000000006000000000000000000000000000000000000000000000000000000000000000c000000000000000000000000000000000000000000000000000000000000000020000000000000000000000000000000000000000000000000000000005f5e1000000000000000000000000000000000000000000000000000000000005f5e100000000000000000000000000000000000000000000000000000000000000000200000000000000000000000000000000000000000000000000000000000000000000000000000000000000000000000000000000000000000000000000000000",
          "blockHash": "0x58d80c12d6cb92855c9aace1140427b35557c38c17b5fdaaebf296855a4625fa",
          "blockNumber": "0x7919df",
          "blockTimestamp": "0x67dafa74",
          "transactionHash": "0x518d56e59798ef32a234d434edb49f55e0ea5fb022d2a8b85e1734b3b299d9a1",
          "transactionIndex": "0x81",
          "logIndex": "0xdc",
          "removed": false
        },
        {
          "address": "0xbA1333333333a1BA1108E8412f11850A5C319bA9",
          "topics": [
            "0xcad8c9d32507393b6508ca4a888b81979919b477510585bde8488f153072d6f3",
            "0x0000000000000000000000002e629cd9061e2b5214b6cfc8d001deb726275eb0"
          ],
          "data": "0x",
          "blockHash": "0x58d80c12d6cb92855c9aace1140427b35557c38c17b5fdaaebf296855a4625fa",
          "blockNumber": "0x7919df",
          "blockTimestamp": "0x67dafa74",
          "transactionHash": "0x518d56e59798ef32a234d434edb49f55e0ea5fb022d2a8b85e1734b3b299d9a1",
          "transactionIndex": "0x81",
          "logIndex": "0xdd",
          "removed": false
        },
        {
          "address": "0x29f2D40B0605204364af54EC677bD022dA425d03",
          "topics": [
            "0xddf252ad1be2c89b69c2b068fc378daa952ba7f163c4a11628f55a4df523b3ef",
            "0x00000000000000000000000012395366299c28492682f7853424554df0b81b38",
            "0x000000000000000000000000ba1333333333a1ba1108e8412f11850a5c319ba9"
          ],
          "data": "0x0000000000000000000000000000000000000000000000000000000005f5e100",
          "blockHash": "0x58d80c12d6cb92855c9aace1140427b35557c38c17b5fdaaebf296855a4625fa",
          "blockNumber": "0x7919df",
          "blockTimestamp": "0x67dafa74",
          "transactionHash": "0x518d56e59798ef32a234d434edb49f55e0ea5fb022d2a8b85e1734b3b299d9a1",
          "transactionIndex": "0x81",
          "logIndex": "0xde",
          "removed": false
        },
        {
          "address": "0x29f2D40B0605204364af54EC677bD022dA425d03",
          "topics": [
            "0x8c5be1e5ebec7d5bd14f71427d1e84f3dd0314c0f7b2291e5b200ac8c7c3b925",
            "0x00000000000000000000000012395366299c28492682f7853424554df0b81b38",
            "0x000000000000000000000000000000000022d473030f116ddee9f6b43ac78ba3"
          ],
          "data": "0xfffffffffffffffffffffffffffffffffffffffffffffffffffffffffa0a1eff",
          "blockHash": "0x58d80c12d6cb92855c9aace1140427b35557c38c17b5fdaaebf296855a4625fa",
          "blockNumber": "0x7919df",
          "blockTimestamp": "0x67dafa74",
          "transactionHash": "0x518d56e59798ef32a234d434edb49f55e0ea5fb022d2a8b85e1734b3b299d9a1",
          "transactionIndex": "0x81",
          "logIndex": "0xdf",
          "removed": false
        },
        {
          "address": "0x94a9D9AC8a22534E3FaCa9F4e7F2E2cf85d5E4C8",
          "topics": [
            "0xddf252ad1be2c89b69c2b068fc378daa952ba7f163c4a11628f55a4df523b3ef",
            "0x00000000000000000000000012395366299c28492682f7853424554df0b81b38",
            "0x000000000000000000000000ba1333333333a1ba1108e8412f11850a5c319ba9"
          ],
          "data": "0x0000000000000000000000000000000000000000000000000000000005f5e100",
          "blockHash": "0x58d80c12d6cb92855c9aace1140427b35557c38c17b5fdaaebf296855a4625fa",
          "blockNumber": "0x7919df",
          "blockTimestamp": "0x67dafa74",
          "transactionHash": "0x518d56e59798ef32a234d434edb49f55e0ea5fb022d2a8b85e1734b3b299d9a1",
          "transactionIndex": "0x81",
          "logIndex": "0xe0",
          "removed": false
        },
        {
          "address": "0x94a9D9AC8a22534E3FaCa9F4e7F2E2cf85d5E4C8",
          "topics": [
            "0x8c5be1e5ebec7d5bd14f71427d1e84f3dd0314c0f7b2291e5b200ac8c7c3b925",
            "0x00000000000000000000000012395366299c28492682f7853424554df0b81b38",
            "0x000000000000000000000000000000000022d473030f116ddee9f6b43ac78ba3"
          ],
          "data": "0xfffffffffffffffffffffffffffffffffffffffffffffffffffffffffa0a1eff",
          "blockHash": "0x58d80c12d6cb92855c9aace1140427b35557c38c17b5fdaaebf296855a4625fa",
          "blockNumber": "0x7919df",
          "blockTimestamp": "0x67dafa74",
          "transactionHash": "0x518d56e59798ef32a234d434edb49f55e0ea5fb022d2a8b85e1734b3b299d9a1",
          "transactionIndex": "0x81",
          "logIndex": "0xe1",
          "removed": false
        }
      ],
      "logsBloom": "0x00000000000000010040000000000000000080000000400000004000002010000000000000000010000000000000000000000000800000000000000000240000802000000000000000004008004000000000000000040800000008000000000000000000020000000000000000000800000001000000000000100010000000000000080000000000000000000000040000000000000000000000110000004000020000c00180000000044000000000000000000020000000000000000000000000000002000000000000000000000000000000200000000000000000800060000010000000000000002000000100000000000000000000000000000000000000",
      "type": "0x2",
      "transactionHash": "0x518d56e59798ef32a234d434edb49f55e0ea5fb022d2a8b85e1734b3b299d9a1",
      "transactionIndex": "0x81",
      "blockHash": "0x58d80c12d6cb92855c9aace1140427b35557c38c17b5fdaaebf296855a4625fa",
      "blockNumber": "0x7919df",
      "gasUsed": "0x4791f",
      "effectiveGasPrice": "0x42edd835",
      "from": "0x12395366299C28492682f7853424554df0b81B38",
      "to": "0x0BF61f706105EA44694f2e92986bD01C39930280",
      "contractAddress": null
    }
  ],
  "libraries": [],
  "pending": [],
  "returns": {},
  "timestamp": 1742404217,
  "chain": 11155111,
  "commit": "c5d8f79"
}