{
  "transactions": [
    {
      "hash": "0x4378cb183e468732f690dac35ebd22bedb52989e06baebaf2df597082ec66fbd",
      "transactionType": "CALL",
      "contractName": null,
      "contractAddress": "0x000000000022D473030F116dDEE9F6B43aC78BA3",
      "function": "approve(address,address,uint160,uint48)",
      "arguments": [
        "0x29f2D40B0605204364af54EC677bD022dA425d03",
        "0x0BF61f706105EA44694f2e92986bD01C39930280",
        "1461501637330902918203684832716283019655932542975",
        "1742402640"
      ],
      "transaction": {
        "from": "0x12395366299C28492682f7853424554df0b81B38",
        "to": "0x000000000022D473030F116dDEE9F6B43aC78BA3",
        "gas": "0xa59b",
        "value": "0x0",
        "input": "0x87517c4500000000000000000000000029f2d40b0605204364af54ec677bd022da425d030000000000000000000000000bf61f706105ea44694f2e92986bd01c39930280000000000000000000000000ffffffffffffffffffffffffffffffffffffffff0000000000000000000000000000000000000000000000000000000067daf450",
        "nonce": "0x103",
        "chainId": "0xaa36a7"
      },
      "additionalContracts": [],
      "isFixedGasLimit": false
    },
    {
      "hash": "0x0b0879c3b633ff40e510a9acf8bb7ed67299caf388fe67469958cb31b3a69b04",
      "transactionType": "CALL",
      "contractName": null,
      "contractAddress": "0x000000000022D473030F116dDEE9F6B43aC78BA3",
      "function": "approve(address,address,uint160,uint48)",
      "arguments": [
        "0x94a9D9AC8a22534E3FaCa9F4e7F2E2cf85d5E4C8",
        "0x0BF61f706105EA44694f2e92986bD01C39930280",
        "1461501637330902918203684832716283019655932542975",
        "1742402640"
      ],
      "transaction": {
        "from": "0x12395366299C28492682f7853424554df0b81B38",
        "to": "0x000000000022D473030F116dDEE9F6B43aC78BA3",
        "gas": "0xa59b",
        "value": "0x0",
        "input": "0x87517c4500000000000000000000000094a9d9ac8a22534e3faca9f4e7f2e2cf85d5e4c80000000000000000000000000bf61f706105ea44694f2e92986bd01c39930280000000000000000000000000ffffffffffffffffffffffffffffffffffffffff0000000000000000000000000000000000000000000000000000000067daf450",
        "nonce": "0x104",
        "chainId": "0xaa36a7"
      },
      "additionalContracts": [],
      "isFixedGasLimit": false
    },
    {
      "hash": "0x98e64a585c97ae6407f2353dc77fd26af7fc3ede81cd1c58027c0da2c80c1302",
      "transactionType": "CALL",
      "contractName": null,
      "contractAddress": "0x29f2D40B0605204364af54EC677bD022dA425d03",
      "function": "approve(address,uint256)",
      "arguments": [
        "0x0BF61f706105EA44694f2e92986bD01C39930280",
        "115792089237316195423570985008687907853269984665640564039457584007913129639935"
      ],
      "transaction": {
        "from": "0x12395366299C28492682f7853424554df0b81B38",
        "to": "0x29f2D40B0605204364af54EC677bD022dA425d03",
        "gas": "0x8fdb",
        "value": "0x0",
        "input": "0x095ea7b30000000000000000000000000bf61f706105ea44694f2e92986bd01c39930280ffffffffffffffffffffffffffffffffffffffffffffffffffffffffffffffff",
        "nonce": "0x105",
        "chainId": "0xaa36a7"
      },
      "additionalContracts": [],
      "isFixedGasLimit": false
    },
    {
      "hash": "0xca7304ce69cc67160dbcf91a9f399942cd7187e73adf9005d751d6fbd92d1171",
      "transactionType": "CALL",
      "contractName": null,
      "contractAddress": "0x94a9D9AC8a22534E3FaCa9F4e7F2E2cf85d5E4C8",
      "function": "approve(address,uint256)",
      "arguments": [
        "0x0BF61f706105EA44694f2e92986bD01C39930280",
        "115792089237316195423570985008687907853269984665640564039457584007913129639935"
      ],
      "transaction": {
        "from": "0x12395366299C28492682f7853424554df0b81B38",
        "to": "0x94a9D9AC8a22534E3FaCa9F4e7F2E2cf85d5E4C8",
        "gas": "0x8fdb",
        "value": "0x0",
        "input": "0x095ea7b30000000000000000000000000bf61f706105ea44694f2e92986bd01c39930280ffffffffffffffffffffffffffffffffffffffffffffffffffffffffffffffff",
        "nonce": "0x106",
        "chainId": "0xaa36a7"
      },
      "additionalContracts": [],
      "isFixedGasLimit": false
    },
    {
      "hash": "0xffc9252f17e1f570e3df5769e7690059319c93e20793937f9c26230e09e64ee7",
      "transactionType": "CALL",
      "contractName": null,
      "contractAddress": "0x0BF61f706105EA44694f2e92986bD01C39930280",
      "function": "addLiquidityUnbalanced(address,uint256[],uint256,bool,bytes)",
      "arguments": [
        "0xA3a6398f3B29b84a6657A1f4bcE5c90F38462bf7",
        "[50, 50]",
        "0",
        "false",
        "0x"
      ],
      "transaction": {
        "from": "0x12395366299C28492682f7853424554df0b81B38",
        "to": "0x0BF61f706105EA44694f2e92986bD01C39930280",
        "gas": "0x4ff3c",
        "value": "0x0",
        "input": "0xc08bc851000000000000000000000000a3a6398f3b29b84a6657a1f4bce5c90f38462bf700000000000000000000000000000000000000000000000000000000000000a00000000000000000000000000000000000000000000000000000000000000000000000000000000000000000000000000000000000000000000000000000000000000000000000000000000000000000000000000000000000000000000001000000000000000000000000000000000000000000000000000000000000000002000000000000000000000000000000000000000000000000000000000000003200000000000000000000000000000000000000000000000000000000000000320000000000000000000000000000000000000000000000000000000000000000",
        "nonce": "0x107",
        "chainId": "0xaa36a7"
      },
      "additionalContracts": [],
      "isFixedGasLimit": false
    }
  ],
  "receipts": [
    {
      "status": "0x1",
      "cumulativeGasUsed": "0x96eb69",
      "logs": [
        {
          "address": "0x000000000022D473030F116dDEE9F6B43aC78BA3",
          "topics": [
            "0xda9fa7c1b00402c17d0161b249b1ab8bbec047c5a52207b9c112deffd817036b",
            "0x00000000000000000000000012395366299c28492682f7853424554df0b81b38",
            "0x00000000000000000000000029f2d40b0605204364af54ec677bd022da425d03",
            "0x0000000000000000000000000bf61f706105ea44694f2e92986bd01c39930280"
          ],
          "data": "0x000000000000000000000000ffffffffffffffffffffffffffffffffffffffff0000000000000000000000000000000000000000000000000000000067daf450",
          "blockHash": "0x9873d391f3a3f05765e1d5dca2927604a66d849907a13e525fcbe802f457aecc",
          "blockNumber": "0x78fe2a",
          "blockTimestamp": "0x67d9a2e8",
          "transactionHash": "0x4378cb183e468732f690dac35ebd22bedb52989e06baebaf2df597082ec66fbd",
          "transactionIndex": "0x68",
          "logIndex": "0x83",
          "removed": false
        }
      ],
      "logsBloom": "0x00010000000000010000000000004000000000000004000000000000000000000000000000000000000000000000000000000000000000080000000000080000000000000000000000000000000000000000000000000000000000000000000000000000000000000000000000000000000000000000000000100000000000000020000000000000000000000000040000000000000000000000000000000000000000000000000000000000000000000000200000000000000000080000000000000000000000000000000000000000000000000000000040000000000000000000000000000000000000004000000000000000000000000000000002000400",
      "type": "0x2",
      "transactionHash": "0x4378cb183e468732f690dac35ebd22bedb52989e06baebaf2df597082ec66fbd",
      "transactionIndex": "0x68",
      "blockHash": "0x9873d391f3a3f05765e1d5dca2927604a66d849907a13e525fcbe802f457aecc",
      "blockNumber": "0x78fe2a",
      "gasUsed": "0x77e6",
      "effectiveGasPrice": "0x6bd2c29",
      "from": "0x12395366299C28492682f7853424554df0b81B38",
      "to": "0x000000000022D473030F116dDEE9F6B43aC78BA3",
      "contractAddress": null
    },
    {
      "status": "0x1",
      "cumulativeGasUsed": "0x97634f",
      "logs": [
        {
          "address": "0x000000000022D473030F116dDEE9F6B43aC78BA3",
          "topics": [
            "0xda9fa7c1b00402c17d0161b249b1ab8bbec047c5a52207b9c112deffd817036b",
            "0x00000000000000000000000012395366299c28492682f7853424554df0b81b38",
            "0x00000000000000000000000094a9d9ac8a22534e3faca9f4e7f2e2cf85d5e4c8",
            "0x0000000000000000000000000bf61f706105ea44694f2e92986bd01c39930280"
          ],
          "data": "0x000000000000000000000000ffffffffffffffffffffffffffffffffffffffff0000000000000000000000000000000000000000000000000000000067daf450",
          "blockHash": "0x9873d391f3a3f05765e1d5dca2927604a66d849907a13e525fcbe802f457aecc",
          "blockNumber": "0x78fe2a",
          "blockTimestamp": "0x67d9a2e8",
          "transactionHash": "0x0b0879c3b633ff40e510a9acf8bb7ed67299caf388fe67469958cb31b3a69b04",
          "transactionIndex": "0x69",
          "logIndex": "0x84",
          "removed": false
        }
      ],
      "logsBloom": "0x00010000000000010200000000000000000000000004000000000000000000000000000000000000000100000000000000000000000000080000000000080000000000000000000000000000000000000000000000000000000000000000000000000000000000000000000000000000000000000000000000100000000000000020000000000000000000000000040000000000000000000000000000000000000000000000000000000000000000000000000000000000000000080000000000000000000000000000000000000000000000000000020040000000000000000000000000000000000000000000000000000000000000000000000002000400",
      "type": "0x2",
      "transactionHash": "0x0b0879c3b633ff40e510a9acf8bb7ed67299caf388fe67469958cb31b3a69b04",
      "transactionIndex": "0x69",
      "blockHash": "0x9873d391f3a3f05765e1d5dca2927604a66d849907a13e525fcbe802f457aecc",
      "blockNumber": "0x78fe2a",
      "gasUsed": "0x77e6",
      "effectiveGasPrice": "0x6bd2c29",
      "from": "0x12395366299C28492682f7853424554df0b81B38",
      "to": "0x000000000022D473030F116dDEE9F6B43aC78BA3",
      "contractAddress": null
    },
    {
      "status": "0x1",
      "cumulativeGasUsed": "0x97cb76",
      "logs": [
        {
          "address": "0x29f2D40B0605204364af54EC677bD022dA425d03",
          "topics": [
            "0x8c5be1e5ebec7d5bd14f71427d1e84f3dd0314c0f7b2291e5b200ac8c7c3b925",
            "0x00000000000000000000000012395366299c28492682f7853424554df0b81b38",
            "0x0000000000000000000000000bf61f706105ea44694f2e92986bd01c39930280"
          ],
          "data": "0xffffffffffffffffffffffffffffffffffffffffffffffffffffffffffffffff",
          "blockHash": "0x9873d391f3a3f05765e1d5dca2927604a66d849907a13e525fcbe802f457aecc",
          "blockNumber": "0x78fe2a",
          "blockTimestamp": "0x67d9a2e8",
          "transactionHash": "0x98e64a585c97ae6407f2353dc77fd26af7fc3ede81cd1c58027c0da2c80c1302",
          "transactionIndex": "0x6a",
          "logIndex": "0x85",
          "removed": false
        }
      ],
      "logsBloom": "0x00000000000000010000000000000000000000000004400000000000000000000000000000000000000000000000000000000000000000080000000000200000000000000000000000000000004000000000000000000000000000000000000000000000000000000000000000000000000000000000000000100000000000000000000000000000000000000000040000000000000000000000000000000000020000000000000000000000000000000000000000000000000000000000000000000000000000000000000000000000000000200000000000000000000000000010000000000000000000000000000000000000000000000000000002000000",
      "type": "0x2",
      "transactionHash": "0x98e64a585c97ae6407f2353dc77fd26af7fc3ede81cd1c58027c0da2c80c1302",
      "transactionIndex": "0x6a",
      "blockHash": "0x9873d391f3a3f05765e1d5dca2927604a66d849907a13e525fcbe802f457aecc",
      "blockNumber": "0x78fe2a",
      "gasUsed": "0x6827",
      "effectiveGasPrice": "0x6bd2c29",
      "from": "0x12395366299C28492682f7853424554df0b81B38",
      "to": "0x29f2D40B0605204364af54EC677bD022dA425d03",
      "contractAddress": null
    },
    {
      "status": "0x1",
      "cumulativeGasUsed": "0x98339d",
      "logs": [
        {
          "address": "0x94a9D9AC8a22534E3FaCa9F4e7F2E2cf85d5E4C8",
          "topics": [
            "0x8c5be1e5ebec7d5bd14f71427d1e84f3dd0314c0f7b2291e5b200ac8c7c3b925",
            "0x00000000000000000000000012395366299c28492682f7853424554df0b81b38",
            "0x0000000000000000000000000bf61f706105ea44694f2e92986bd01c39930280"
          ],
          "data": "0xffffffffffffffffffffffffffffffffffffffffffffffffffffffffffffffff",
          "blockHash": "0x9873d391f3a3f05765e1d5dca2927604a66d849907a13e525fcbe802f457aecc",
          "blockNumber": "0x78fe2a",
          "blockTimestamp": "0x67d9a2e8",
          "transactionHash": "0xca7304ce69cc67160dbcf91a9f399942cd7187e73adf9005d751d6fbd92d1171",
          "transactionIndex": "0x6b",
          "logIndex": "0x86",
          "removed": false
        }
      ],
      "logsBloom": "0x00000000000000010000000000000000000000000004000000000000000000000000000000000000000000000000000000000000000000080000000000200000000000000000000000000000000000000000000000000000000008000000000000000000000000000000000000000000000000000000000000100000000000000000000000000000000000000000040000000000000000000000000000000000020000000100000000004000000000000000000000000000000000000000000000000000000000000000000000000000000000000000000000000000000000000010000000000000000000000000000000000000000000000000000002000000",
      "type": "0x2",
      "transactionHash": "0xca7304ce69cc67160dbcf91a9f399942cd7187e73adf9005d751d6fbd92d1171",
      "transactionIndex": "0x6b",
      "blockHash": "0x9873d391f3a3f05765e1d5dca2927604a66d849907a13e525fcbe802f457aecc",
      "blockNumber": "0x78fe2a",
      "gasUsed": "0x6827",
      "effectiveGasPrice": "0x6bd2c29",
      "from": "0x12395366299C28492682f7853424554df0b81B38",
      "to": "0x94a9D9AC8a22534E3FaCa9F4e7F2E2cf85d5E4C8",
      "contractAddress": null
    },
    {
      "status": "0x1",
      "cumulativeGasUsed": "0x9bd1c2",
      "logs": [
        {
          "address": "0xbA1333333333a1BA1108E8412f11850A5C319bA9",
          "topics": [
            "0xd1398bee19313d6bf672ccb116e51f4a1a947e91c757907f51fbb5b5e56c698f",
            "0x000000000000000000000000a3a6398f3b29b84a6657a1f4bce5c90f38462bf7",
            "0x0000000000000000000000000000000000000000000000000000000000000000",
            "0x00000000000000000000000012395366299c28492682f7853424554df0b81b38"
          ],
          "data": "0x0000000000000000000000000000000000000000000000000000048c27394b9e",
          "blockHash": "0x9873d391f3a3f05765e1d5dca2927604a66d849907a13e525fcbe802f457aecc",
          "blockNumber": "0x78fe2a",
          "blockTimestamp": "0x67d9a2e8",
          "transactionHash": "0xffc9252f17e1f570e3df5769e7690059319c93e20793937f9c26230e09e64ee7",
          "transactionIndex": "0x6c",
          "logIndex": "0x87",
          "removed": false
        },
        {
          "address": "0xA3a6398f3B29b84a6657A1f4bcE5c90F38462bf7",
          "topics": [
            "0xddf252ad1be2c89b69c2b068fc378daa952ba7f163c4a11628f55a4df523b3ef",
            "0x0000000000000000000000000000000000000000000000000000000000000000",
            "0x00000000000000000000000012395366299c28492682f7853424554df0b81b38"
          ],
          "data": "0x0000000000000000000000000000000000000000000000000000048c27394b9e",
          "blockHash": "0x9873d391f3a3f05765e1d5dca2927604a66d849907a13e525fcbe802f457aecc",
          "blockNumber": "0x78fe2a",
          "blockTimestamp": "0x67d9a2e8",
          "transactionHash": "0xffc9252f17e1f570e3df5769e7690059319c93e20793937f9c26230e09e64ee7",
          "transactionIndex": "0x6c",
          "logIndex": "0x88",
          "removed": false
        },
        {
          "address": "0xbA1333333333a1BA1108E8412f11850A5C319bA9",
          "topics": [
            "0xa26a52d8d53702bba7f137907b8e1f99ff87f6d450144270ca25e72481cca871",
            "0x000000000000000000000000a3a6398f3b29b84a6657a1f4bce5c90f38462bf7",
            "0x00000000000000000000000012395366299c28492682f7853424554df0b81b38",
            "0x0000000000000000000000000000000000000000000000000000000000000001"
          ],
          "data": "0x000000000000000000000000000000000000000000000000000018bcfe56684a000000000000000000000000000000000000000000000000000000000000006000000000000000000000000000000000000000000000000000000000000000c0000000000000000000000000000000000000000000000000000000000000000200000000000000000000000000000000000000000000000000000000000000320000000000000000000000000000000000000000000000000000000000000032000000000000000000000000000000000000000000000000000000000000000200000000000000000000000000000000000000000000000000000000000000000000000000000000000000000000000000000000000000000000000000000000",
          "blockHash": "0x9873d391f3a3f05765e1d5dca2927604a66d849907a13e525fcbe802f457aecc",
          "blockNumber": "0x78fe2a",
          "blockTimestamp": "0x67d9a2e8",
          "transactionHash": "0xffc9252f17e1f570e3df5769e7690059319c93e20793937f9c26230e09e64ee7",
          "transactionIndex": "0x6c",
          "logIndex": "0x89",
          "removed": false
        },
        {
          "address": "0x29f2D40B0605204364af54EC677bD022dA425d03",
          "topics": [
            "0xddf252ad1be2c89b69c2b068fc378daa952ba7f163c4a11628f55a4df523b3ef",
            "0x00000000000000000000000012395366299c28492682f7853424554df0b81b38",
            "0x000000000000000000000000ba1333333333a1ba1108e8412f11850a5c319ba9"
          ],
          "data": "0x0000000000000000000000000000000000000000000000000000000000000032",
          "blockHash": "0x9873d391f3a3f05765e1d5dca2927604a66d849907a13e525fcbe802f457aecc",
          "blockNumber": "0x78fe2a",
          "blockTimestamp": "0x67d9a2e8",
          "transactionHash": "0xffc9252f17e1f570e3df5769e7690059319c93e20793937f9c26230e09e64ee7",
          "transactionIndex": "0x6c",
          "logIndex": "0x8a",
          "removed": false
        },
        {
          "address": "0x29f2D40B0605204364af54EC677bD022dA425d03",
          "topics": [
            "0x8c5be1e5ebec7d5bd14f71427d1e84f3dd0314c0f7b2291e5b200ac8c7c3b925",
            "0x00000000000000000000000012395366299c28492682f7853424554df0b81b38",
            "0x000000000000000000000000000000000022d473030f116ddee9f6b43ac78ba3"
          ],
          "data": "0xfffffffffffffffffffffffffffffffffffffffffffffffffffffffffffffeef",
          "blockHash": "0x9873d391f3a3f05765e1d5dca2927604a66d849907a13e525fcbe802f457aecc",
          "blockNumber": "0x78fe2a",
          "blockTimestamp": "0x67d9a2e8",
          "transactionHash": "0xffc9252f17e1f570e3df5769e7690059319c93e20793937f9c26230e09e64ee7",
          "transactionIndex": "0x6c",
          "logIndex": "0x8b",
          "removed": false
        },
        {
          "address": "0x94a9D9AC8a22534E3FaCa9F4e7F2E2cf85d5E4C8",
          "topics": [
            "0xddf252ad1be2c89b69c2b068fc378daa952ba7f163c4a11628f55a4df523b3ef",
            "0x00000000000000000000000012395366299c28492682f7853424554df0b81b38",
            "0x000000000000000000000000ba1333333333a1ba1108e8412f11850a5c319ba9"
          ],
          "data": "0x0000000000000000000000000000000000000000000000000000000000000032",
          "blockHash": "0x9873d391f3a3f05765e1d5dca2927604a66d849907a13e525fcbe802f457aecc",
          "blockNumber": "0x78fe2a",
          "blockTimestamp": "0x67d9a2e8",
          "transactionHash": "0xffc9252f17e1f570e3df5769e7690059319c93e20793937f9c26230e09e64ee7",
          "transactionIndex": "0x6c",
          "logIndex": "0x8c",
          "removed": false
        },
        {
          "address": "0x94a9D9AC8a22534E3FaCa9F4e7F2E2cf85d5E4C8",
          "topics": [
            "0x8c5be1e5ebec7d5bd14f71427d1e84f3dd0314c0f7b2291e5b200ac8c7c3b925",
            "0x00000000000000000000000012395366299c28492682f7853424554df0b81b38",
            "0x000000000000000000000000000000000022d473030f116ddee9f6b43ac78ba3"
          ],
          "data": "0xfffffffffffffffffffffffffffffffffffffffffffffffffffffffffffffeef",
          "blockHash": "0x9873d391f3a3f05765e1d5dca2927604a66d849907a13e525fcbe802f457aecc",
          "blockNumber": "0x78fe2a",
          "blockTimestamp": "0x67d9a2e8",
          "transactionHash": "0xffc9252f17e1f570e3df5769e7690059319c93e20793937f9c26230e09e64ee7",
          "transactionIndex": "0x6c",
          "logIndex": "0x8d",
          "removed": false
        }
      ],
      "logsBloom": "0x00000000000000010040000000000000000080000000400000004000002000000000000000000000000000000000000000000000800000000000000000240000802000000000000000004008104000000000000000040800000008000000000000000000020000000000000000000800000001000000000000100010000000000000000000000000000000000000040000000001000000000000010000080000020000800180000000044000000000000000000000000000000000000000000000000002000000000000000000000000000004200000000000000000800060080010000000000000002000000000000000000000000000000000000000000000",
      "type": "0x2",
      "transactionHash": "0xffc9252f17e1f570e3df5769e7690059319c93e20793937f9c26230e09e64ee7",
      "transactionIndex": "0x6c",
      "blockHash": "0x9873d391f3a3f05765e1d5dca2927604a66d849907a13e525fcbe802f457aecc",
      "blockNumber": "0x78fe2a",
      "gasUsed": "0x39e25",
      "effectiveGasPrice": "0x6bd2c29",
      "from": "0x12395366299C28492682f7853424554df0b81B38",
      "to": "0x0BF61f706105EA44694f2e92986bD01C39930280",
      "contractAddress": null
    }
  ],
  "libraries": [],
  "pending": [],
  "returns": {},
  "timestamp": 1742316270,
  "chain": 11155111,
  "commit": "c5d8f79"
}