{
  "transactions": [
    {
      "hash": "0xa38118bbb128fbea59a44b03fd39236775dd35a12497ef49bbdb3dfb284d5e87",
      "transactionType": "CALL",
      "contractName": null,
      "contractAddress": "0x0BF61f706105EA44694f2e92986bD01C39930280",
      "function": "addLiquidityUnbalanced(address,uint256[],uint256,bool,bytes)",
      "arguments": [
        "0xA3a6398f3B29b84a6657A1f4bcE5c90F38462bf7",
        "[3000, 3000]",
        "0",
        "false",
        "0x"
      ],
      "transaction": {
        "from": "0x12395366299C28492682f7853424554df0b81B38",
        "to": "0x0BF61f706105EA44694f2e92986bD01C39930280",
        "gas": "0x5167f",
        "value": "0x0",
        "input": "0xc08bc851000000000000000000000000a3a6398f3b29b84a6657a1f4bce5c90f38462bf700000000000000000000000000000000000000000000000000000000000000a000000000000000000000000000000000000000000000000000000000000000000000000000000000000000000000000000000000000000000000000000000000000000000000000000000000000000000000000000000000000000000000010000000000000000000000000000000000000000000000000000000000000000020000000000000000000000000000000000000000000000000000000000000bb80000000000000000000000000000000000000000000000000000000000000bb80000000000000000000000000000000000000000000000000000000000000000",
        "nonce": "0x129",
        "chainId": "0xaa36a7"
      },
      "additionalContracts": [],
      "isFixedGasLimit": false
    }
  ],
  "receipts": [
    {
      "status": "0x1",
      "cumulativeGasUsed": "0x2112f94",
      "logs": [
        {
          "address": "0xbA1333333333a1BA1108E8412f11850A5C319bA9",
          "topics": [
            "0xd1398bee19313d6bf672ccb116e51f4a1a947e91c757907f51fbb5b5e56c698f",
            "0x000000000000000000000000a3a6398f3b29b84a6657a1f4bce5c90f38462bf7",
            "0x0000000000000000000000000000000000000000000000000000000000000000",
            "0x00000000000000000000000012395366299c28492682f7853424554df0b81b38"
          ],
          "data": "0x000000000000000000000000000000000000000000000000000110d9316db8f8",
          "blockHash": "0x244e2ddd4a8bad9081cb00bb4672aa709c71e785e0e831d46e6361d37d745f6f",
          "blockNumber": "0x78fe42",
          "blockTimestamp": "0x67d9a408",
          "transactionHash": "0xa38118bbb128fbea59a44b03fd39236775dd35a12497ef49bbdb3dfb284d5e87",
          "transactionIndex": "0xca",
          "logIndex": "0x129",
          "removed": false
        },
        {
          "address": "0xA3a6398f3B29b84a6657A1f4bcE5c90F38462bf7",
          "topics": [
            "0xddf252ad1be2c89b69c2b068fc378daa952ba7f163c4a11628f55a4df523b3ef",
            "0x0000000000000000000000000000000000000000000000000000000000000000",
            "0x00000000000000000000000012395366299c28492682f7853424554df0b81b38"
          ],
          "data": "0x000000000000000000000000000000000000000000000000000110d9316db8f8",
          "blockHash": "0x244e2ddd4a8bad9081cb00bb4672aa709c71e785e0e831d46e6361d37d745f6f",
          "blockNumber": "0x78fe42",
          "blockTimestamp": "0x67d9a408",
          "transactionHash": "0xa38118bbb128fbea59a44b03fd39236775dd35a12497ef49bbdb3dfb284d5e87",
          "transactionIndex": "0xca",
          "logIndex": "0x12a",
          "removed": false
        },
        {
          "address": "0xbA1333333333a1BA1108E8412f11850A5C319bA9",
          "topics": [
            "0xa26a52d8d53702bba7f137907b8e1f99ff87f6d450144270ca25e72481cca871",
            "0x000000000000000000000000a3a6398f3b29b84a6657a1f4bce5c90f38462bf7",
            "0x00000000000000000000000012395366299c28492682f7853424554df0b81b38",
            "0x0000000000000000000000000000000000000000000000000000000000000001"
          ],
          "data": "0x000000000000000000000000000000000000000000000000000381da694f1eeb000000000000000000000000000000000000000000000000000000000000006000000000000000000000000000000000000000000000000000000000000000c000000000000000000000000000000000000000000000000000000000000000020000000000000000000000000000000000000000000000000000000000000bb80000000000000000000000000000000000000000000000000000000000000bb8000000000000000000000000000000000000000000000000000000000000000200000000000000000000000000000000000000000000000000000000000000000000000000000000000000000000000000000000000000000000000000000000",
          "blockHash": "0x244e2ddd4a8bad9081cb00bb4672aa709c71e785e0e831d46e6361d37d745f6f",
          "blockNumber": "0x78fe42",
          "blockTimestamp": "0x67d9a408",
          "transactionHash": "0xa38118bbb128fbea59a44b03fd39236775dd35a12497ef49bbdb3dfb284d5e87",
          "transactionIndex": "0xca",
          "logIndex": "0x12b",
          "removed": false
        },
        {
          "address": "0x29f2D40B0605204364af54EC677bD022dA425d03",
          "topics": [
            "0xddf252ad1be2c89b69c2b068fc378daa952ba7f163c4a11628f55a4df523b3ef",
            "0x00000000000000000000000012395366299c28492682f7853424554df0b81b38",
            "0x000000000000000000000000ba1333333333a1ba1108e8412f11850a5c319ba9"
          ],
          "data": "0x0000000000000000000000000000000000000000000000000000000000000bb8",
          "blockHash": "0x244e2ddd4a8bad9081cb00bb4672aa709c71e785e0e831d46e6361d37d745f6f",
          "blockNumber": "0x78fe42",
          "blockTimestamp": "0x67d9a408",
          "transactionHash": "0xa38118bbb128fbea59a44b03fd39236775dd35a12497ef49bbdb3dfb284d5e87",
          "transactionIndex": "0xca",
          "logIndex": "0x12c",
          "removed": false
        },
        {
          "address": "0x29f2D40B0605204364af54EC677bD022dA425d03",
          "topics": [
            "0x8c5be1e5ebec7d5bd14f71427d1e84f3dd0314c0f7b2291e5b200ac8c7c3b925",
            "0x00000000000000000000000012395366299c28492682f7853424554df0b81b38",
            "0x000000000000000000000000000000000022d473030f116ddee9f6b43ac78ba3"
          ],
          "data": "0xffffffffffffffffffffffffffffffffffffffffffffffffffffffffffffd96f",
          "blockHash": "0x244e2ddd4a8bad9081cb00bb4672aa709c71e785e0e831d46e6361d37d745f6f",
          "blockNumber": "0x78fe42",
          "blockTimestamp": "0x67d9a408",
          "transactionHash": "0xa38118bbb128fbea59a44b03fd39236775dd35a12497ef49bbdb3dfb284d5e87",
          "transactionIndex": "0xca",
          "logIndex": "0x12d",
          "removed": false
        },
        {
          "address": "0x94a9D9AC8a22534E3FaCa9F4e7F2E2cf85d5E4C8",
          "topics": [
            "0xddf252ad1be2c89b69c2b068fc378daa952ba7f163c4a11628f55a4df523b3ef",
            "0x00000000000000000000000012395366299c28492682f7853424554df0b81b38",
            "0x000000000000000000000000ba1333333333a1ba1108e8412f11850a5c319ba9"
          ],
          "data": "0x0000000000000000000000000000000000000000000000000000000000000bb8",
          "blockHash": "0x244e2ddd4a8bad9081cb00bb4672aa709c71e785e0e831d46e6361d37d745f6f",
          "blockNumber": "0x78fe42",
          "blockTimestamp": "0x67d9a408",
          "transactionHash": "0xa38118bbb128fbea59a44b03fd39236775dd35a12497ef49bbdb3dfb284d5e87",
          "transactionIndex": "0xca",
          "logIndex": "0x12e",
          "removed": false
        },
        {
          "address": "0x94a9D9AC8a22534E3FaCa9F4e7F2E2cf85d5E4C8",
          "topics": [
            "0x8c5be1e5ebec7d5bd14f71427d1e84f3dd0314c0f7b2291e5b200ac8c7c3b925",
            "0x00000000000000000000000012395366299c28492682f7853424554df0b81b38",
            "0x000000000000000000000000000000000022d473030f116ddee9f6b43ac78ba3"
          ],
          "data": "0xffffffffffffffffffffffffffffffffffffffffffffffffffffffffffffd96f",
          "blockHash": "0x244e2ddd4a8bad9081cb00bb4672aa709c71e785e0e831d46e6361d37d745f6f",
          "blockNumber": "0x78fe42",
          "blockTimestamp": "0x67d9a408",
          "transactionHash": "0xa38118bbb128fbea59a44b03fd39236775dd35a12497ef49bbdb3dfb284d5e87",
          "transactionIndex": "0xca",
          "logIndex": "0x12f",
          "removed": false
        }
      ],
      "logsBloom": "0x00000000000000010040000000000000000080000000400000004000002000000000000000000000000000000000000000000000800000000000000000240000802000000000000000004008104000000000000000040800000008000000000000000000020000000000000000000800000001000000000000100010000000000000000000000000000000000000040000000001000000000000010000080000020000800180000000044000000000000000000000000000000000000000000000000002000000000000000000000000000004200000000000000000800060080010000000000000002000000000000000000000000000000000000000000000",
      "type": "0x2",
      "transactionHash": "0xa38118bbb128fbea59a44b03fd39236775dd35a12497ef49bbdb3dfb284d5e87",
      "transactionIndex": "0xca",
      "blockHash": "0x244e2ddd4a8bad9081cb00bb4672aa709c71e785e0e831d46e6361d37d745f6f",
      "blockNumber": "0x78fe42",
      "gasUsed": "0x3aefd",
      "effectiveGasPrice": "0x5204466",
      "from": "0x12395366299C28492682f7853424554df0b81B38",
      "to": "0x0BF61f706105EA44694f2e92986bD01C39930280",
      "contractAddress": null
    }
  ],
  "libraries": [],
  "pending": [],
  "returns": {},
  "timestamp": 1742316558,
  "chain": 11155111,
  "commit": "c5d8f79"
}