{
  "transactions": [
    {
      "hash": "0x573c22edd5963624e4d69dcbe54744c2a8a2d687b4dde493873d8ed1e89a0ae0",
      "transactionType": "CALL",
      "contractName": null,
      "contractAddress": "0x000000000022D473030F116dDEE9F6B43aC78BA3",
      "function": "approve(address,address,uint160,uint48)",
      "arguments": [
        "0x29f2D40B0605204364af54EC677bD022dA425d03",
        "0x0BF61f706105EA44694f2e92986bD01C39930280",
        "1461501637330902918203684832716283019655932542975",
        "1742402748"
      ],
      "transaction": {
        "from": "0x12395366299C28492682f7853424554df0b81B38",
        "to": "0x000000000022D473030F116dDEE9F6B43aC78BA3",
        "gas": "0xa59b",
        "value": "0x0",
        "input": "0x87517c4500000000000000000000000029f2d40b0605204364af54ec677bd022da425d030000000000000000000000000bf61f706105ea44694f2e92986bd01c39930280000000000000000000000000ffffffffffffffffffffffffffffffffffffffff0000000000000000000000000000000000000000000000000000000067daf4bc",
        "nonce": "0x117",
        "chainId": "0xaa36a7"
      },
      "additionalContracts": [],
      "isFixedGasLimit": false
    },
    {
      "hash": "0x40813b5c70de162749fad4e960ee723a2e489b112cb4811f75f20f438b227924",
      "transactionType": "CALL",
      "contractName": null,
      "contractAddress": "0x000000000022D473030F116dDEE9F6B43aC78BA3",
      "function": "approve(address,address,uint160,uint48)",
      "arguments": [
        "0x94a9D9AC8a22534E3FaCa9F4e7F2E2cf85d5E4C8",
        "0x0BF61f706105EA44694f2e92986bD01C39930280",
        "1461501637330902918203684832716283019655932542975",
        "1742402748"
      ],
      "transaction": {
        "from": "0x12395366299C28492682f7853424554df0b81B38",
        "to": "0x000000000022D473030F116dDEE9F6B43aC78BA3",
        "gas": "0xa59b",
        "value": "0x0",
        "input": "0x87517c4500000000000000000000000094a9d9ac8a22534e3faca9f4e7f2e2cf85d5e4c80000000000000000000000000bf61f706105ea44694f2e92986bd01c39930280000000000000000000000000ffffffffffffffffffffffffffffffffffffffff0000000000000000000000000000000000000000000000000000000067daf4bc",
        "nonce": "0x118",
        "chainId": "0xaa36a7"
      },
      "additionalContracts": [],
      "isFixedGasLimit": false
    },
    {
      "hash": "0x75fd74da9f9224d01b6f424b25501d54c2e79debb173f2c9037833fca2e5b064",
      "transactionType": "CALL",
      "contractName": null,
      "contractAddress": "0x29f2D40B0605204364af54EC677bD022dA425d03",
      "function": "approve(address,uint256)",
      "arguments": [
        "0x0BF61f706105EA44694f2e92986bD01C39930280",
        "115792089237316195423570985008687907853269984665640564039457584007913129639935"
      ],
      "transaction": {
        "from": "0x12395366299C28492682f7853424554df0b81B38",
        "to": "0x29f2D40B0605204364af54EC677bD022dA425d03",
        "gas": "0x8fdb",
        "value": "0x0",
        "input": "0x095ea7b30000000000000000000000000bf61f706105ea44694f2e92986bd01c39930280ffffffffffffffffffffffffffffffffffffffffffffffffffffffffffffffff",
        "nonce": "0x119",
        "chainId": "0xaa36a7"
      },
      "additionalContracts": [],
      "isFixedGasLimit": false
    },
    {
      "hash": "0x75f481a96a32e13e1173aac67f4566707118464b420e5d8abee1ad7ec1296385",
      "transactionType": "CALL",
      "contractName": null,
      "contractAddress": "0x94a9D9AC8a22534E3FaCa9F4e7F2E2cf85d5E4C8",
      "function": "approve(address,uint256)",
      "arguments": [
        "0x0BF61f706105EA44694f2e92986bD01C39930280",
        "115792089237316195423570985008687907853269984665640564039457584007913129639935"
      ],
      "transaction": {
        "from": "0x12395366299C28492682f7853424554df0b81B38",
        "to": "0x94a9D9AC8a22534E3FaCa9F4e7F2E2cf85d5E4C8",
        "gas": "0x8fdb",
        "value": "0x0",
        "input": "0x095ea7b30000000000000000000000000bf61f706105ea44694f2e92986bd01c39930280ffffffffffffffffffffffffffffffffffffffffffffffffffffffffffffffff",
        "nonce": "0x11a",
        "chainId": "0xaa36a7"
      },
      "additionalContracts": [],
      "isFixedGasLimit": false
    },
    {
      "hash": "0x5f8786b9cf7402409f3a5b804a813b1d86f1bdce072431251b2d13012ee5f7ac",
      "transactionType": "CALL",
      "contractName": null,
      "contractAddress": "0x0BF61f706105EA44694f2e92986bD01C39930280",
      "function": "addLiquidityUnbalanced(address,uint256[],uint256,bool,bytes)",
      "arguments": [
        "0xA3a6398f3B29b84a6657A1f4bcE5c90F38462bf7",
        "[300, 300]",
        "0",
        "false",
        "0x"
      ],
      "transaction": {
        "from": "0x12395366299C28492682f7853424554df0b81B38",
        "to": "0x0BF61f706105EA44694f2e92986bD01C39930280",
        "gas": "0x5199d",
        "value": "0x0",
        "input": "0xc08bc851000000000000000000000000a3a6398f3b29b84a6657a1f4bce5c90f38462bf700000000000000000000000000000000000000000000000000000000000000a00000000000000000000000000000000000000000000000000000000000000000000000000000000000000000000000000000000000000000000000000000000000000000000000000000000000000000000000000000000000000000000001000000000000000000000000000000000000000000000000000000000000000002000000000000000000000000000000000000000000000000000000000000012c000000000000000000000000000000000000000000000000000000000000012c0000000000000000000000000000000000000000000000000000000000000000",
        "nonce": "0x11b",
        "chainId": "0xaa36a7"
      },
      "additionalContracts": [],
      "isFixedGasLimit": false
    }
  ],
  "receipts": [
    {
      "status": "0x1",
      "cumulativeGasUsed": "0xb90304",
      "logs": [
        {
          "address": "0x000000000022D473030F116dDEE9F6B43aC78BA3",
          "topics": [
            "0xda9fa7c1b00402c17d0161b249b1ab8bbec047c5a52207b9c112deffd817036b",
            "0x00000000000000000000000012395366299c28492682f7853424554df0b81b38",
            "0x00000000000000000000000029f2d40b0605204364af54ec677bd022da425d03",
            "0x0000000000000000000000000bf61f706105ea44694f2e92986bd01c39930280"
          ],
          "data": "0x000000000000000000000000ffffffffffffffffffffffffffffffffffffffff0000000000000000000000000000000000000000000000000000000067daf4bc",
          "blockHash": "0xd5a932958c069c1291ecf15dba32b99f3af46ff9f881b109a5b7d775d9e85202",
          "blockNumber": "0x78fe33",
          "blockTimestamp": "0x67d9a354",
          "transactionHash": "0x573c22edd5963624e4d69dcbe54744c2a8a2d687b4dde493873d8ed1e89a0ae0",
          "transactionIndex": "0x8f",
          "logIndex": "0xd4",
          "removed": false
        }
      ],
      "logsBloom": "0x00010000000000010000000000004000000000000004000000000000000000000000000000000000000000000000000000000000000000080000000000080000000000000000000000000000000000000000000000000000000000000000000000000000000000000000000000000000000000000000000000100000000000000020000000000000000000000000040000000000000000000000000000000000000000000000000000000000000000000000200000000000000000080000000000000000000000000000000000000000000000000000000040000000000000000000000000000000000000004000000000000000000000000000000002000400",
      "type": "0x2",
      "transactionHash": "0x573c22edd5963624e4d69dcbe54744c2a8a2d687b4dde493873d8ed1e89a0ae0",
      "transactionIndex": "0x8f",
      "blockHash": "0xd5a932958c069c1291ecf15dba32b99f3af46ff9f881b109a5b7d775d9e85202",
      "blockNumber": "0x78fe33",
      "gasUsed": "0x77e6",
      "effectiveGasPrice": "0x62c1f90",
      "from": "0x12395366299C28492682f7853424554df0b81B38",
      "to": "0x000000000022D473030F116dDEE9F6B43aC78BA3",
      "contractAddress": null
    },
    {
      "status": "0x1",
      "cumulativeGasUsed": "0xb97aea",
      "logs": [
        {
          "address": "0x000000000022D473030F116dDEE9F6B43aC78BA3",
          "topics": [
            "0xda9fa7c1b00402c17d0161b249b1ab8bbec047c5a52207b9c112deffd817036b",
            "0x00000000000000000000000012395366299c28492682f7853424554df0b81b38",
            "0x00000000000000000000000094a9d9ac8a22534e3faca9f4e7f2e2cf85d5e4c8",
            "0x0000000000000000000000000bf61f706105ea44694f2e92986bd01c39930280"
          ],
          "data": "0x000000000000000000000000ffffffffffffffffffffffffffffffffffffffff0000000000000000000000000000000000000000000000000000000067daf4bc",
          "blockHash": "0xd5a932958c069c1291ecf15dba32b99f3af46ff9f881b109a5b7d775d9e85202",
          "blockNumber": "0x78fe33",
          "blockTimestamp": "0x67d9a354",
          "transactionHash": "0x40813b5c70de162749fad4e960ee723a2e489b112cb4811f75f20f438b227924",
          "transactionIndex": "0x90",
          "logIndex": "0xd5",
          "removed": false
        }
      ],
      "logsBloom": "0x00010000000000010200000000000000000000000004000000000000000000000000000000000000000100000000000000000000000000080000000000080000000000000000000000000000000000000000000000000000000000000000000000000000000000000000000000000000000000000000000000100000000000000020000000000000000000000000040000000000000000000000000000000000000000000000000000000000000000000000000000000000000000080000000000000000000000000000000000000000000000000000020040000000000000000000000000000000000000000000000000000000000000000000000002000400",
      "type": "0x2",
      "transactionHash": "0x40813b5c70de162749fad4e960ee723a2e489b112cb4811f75f20f438b227924",
      "transactionIndex": "0x90",
      "blockHash": "0xd5a932958c069c1291ecf15dba32b99f3af46ff9f881b109a5b7d775d9e85202",
      "blockNumber": "0x78fe33",
      "gasUsed": "0x77e6",
      "effectiveGasPrice": "0x62c1f90",
      "from": "0x12395366299C28492682f7853424554df0b81B38",
      "to": "0x000000000022D473030F116dDEE9F6B43aC78BA3",
      "contractAddress": null
    },
    {
      "status": "0x1",
      "cumulativeGasUsed": "0xb9e311",
      "logs": [
        {
          "address": "0x29f2D40B0605204364af54EC677bD022dA425d03",
          "topics": [
            "0x8c5be1e5ebec7d5bd14f71427d1e84f3dd0314c0f7b2291e5b200ac8c7c3b925",
            "0x00000000000000000000000012395366299c28492682f7853424554df0b81b38",
            "0x0000000000000000000000000bf61f706105ea44694f2e92986bd01c39930280"
          ],
          "data": "0xffffffffffffffffffffffffffffffffffffffffffffffffffffffffffffffff",
          "blockHash": "0xd5a932958c069c1291ecf15dba32b99f3af46ff9f881b109a5b7d775d9e85202",
          "blockNumber": "0x78fe33",
          "blockTimestamp": "0x67d9a354",
          "transactionHash": "0x75fd74da9f9224d01b6f424b25501d54c2e79debb173f2c9037833fca2e5b064",
          "transactionIndex": "0x91",
          "logIndex": "0xd6",
          "removed": false
        }
      ],
      "logsBloom": "0x00000000000000010000000000000000000000000004400000000000000000000000000000000000000000000000000000000000000000080000000000200000000000000000000000000000004000000000000000000000000000000000000000000000000000000000000000000000000000000000000000100000000000000000000000000000000000000000040000000000000000000000000000000000020000000000000000000000000000000000000000000000000000000000000000000000000000000000000000000000000000200000000000000000000000000010000000000000000000000000000000000000000000000000000002000000",
      "type": "0x2",
      "transactionHash": "0x75fd74da9f9224d01b6f424b25501d54c2e79debb173f2c9037833fca2e5b064",
      "transactionIndex": "0x91",
      "blockHash": "0xd5a932958c069c1291ecf15dba32b99f3af46ff9f881b109a5b7d775d9e85202",
      "blockNumber": "0x78fe33",
      "gasUsed": "0x6827",
      "effectiveGasPrice": "0x62c1f90",
      "from": "0x12395366299C28492682f7853424554df0b81B38",
      "to": "0x29f2D40B0605204364af54EC677bD022dA425d03",
      "contractAddress": null
    },
    {
      "status": "0x1",
      "cumulativeGasUsed": "0xba4b38",
      "logs": [
        {
          "address": "0x94a9D9AC8a22534E3FaCa9F4e7F2E2cf85d5E4C8",
          "topics": [
            "0x8c5be1e5ebec7d5bd14f71427d1e84f3dd0314c0f7b2291e5b200ac8c7c3b925",
            "0x00000000000000000000000012395366299c28492682f7853424554df0b81b38",
            "0x0000000000000000000000000bf61f706105ea44694f2e92986bd01c39930280"
          ],
          "data": "0xffffffffffffffffffffffffffffffffffffffffffffffffffffffffffffffff",
          "blockHash": "0xd5a932958c069c1291ecf15dba32b99f3af46ff9f881b109a5b7d775d9e85202",
          "blockNumber": "0x78fe33",
          "blockTimestamp": "0x67d9a354",
          "transactionHash": "0x75f481a96a32e13e1173aac67f4566707118464b420e5d8abee1ad7ec1296385",
          "transactionIndex": "0x92",
          "logIndex": "0xd7",
          "removed": false
        }
      ],
      "logsBloom": "0x00000000000000010000000000000000000000000004000000000000000000000000000000000000000000000000000000000000000000080000000000200000000000000000000000000000000000000000000000000000000008000000000000000000000000000000000000000000000000000000000000100000000000000000000000000000000000000000040000000000000000000000000000000000020000000100000000004000000000000000000000000000000000000000000000000000000000000000000000000000000000000000000000000000000000000010000000000000000000000000000000000000000000000000000002000000",
      "type": "0x2",
      "transactionHash": "0x75f481a96a32e13e1173aac67f4566707118464b420e5d8abee1ad7ec1296385",
      "transactionIndex": "0x92",
      "blockHash": "0xd5a932958c069c1291ecf15dba32b99f3af46ff9f881b109a5b7d775d9e85202",
      "blockNumber": "0x78fe33",
      "gasUsed": "0x6827",
      "effectiveGasPrice": "0x62c1f90",
      "from": "0x12395366299C28492682f7853424554df0b81B38",
      "to": "0x94a9D9AC8a22534E3FaCa9F4e7F2E2cf85d5E4C8",
      "contractAddress": null
    },
    {
      "status": "0x1",
      "cumulativeGasUsed": "0xbdfc77",
      "logs": [
        {
          "address": "0xbA1333333333a1BA1108E8412f11850A5C319bA9",
          "topics": [
            "0xd1398bee19313d6bf672ccb116e51f4a1a947e91c757907f51fbb5b5e56c698f",
            "0x000000000000000000000000a3a6398f3b29b84a6657a1f4bce5c90f38462bf7",
            "0x0000000000000000000000000000000000000000000000000000000000000000",
            "0x00000000000000000000000012395366299c28492682f7853424554df0b81b38"
          ],
          "data": "0x00000000000000000000000000000000000000000000000000001b48eb57c5b9",
          "blockHash": "0xd5a932958c069c1291ecf15dba32b99f3af46ff9f881b109a5b7d775d9e85202",
          "blockNumber": "0x78fe33",
          "blockTimestamp": "0x67d9a354",
          "transactionHash": "0x5f8786b9cf7402409f3a5b804a813b1d86f1bdce072431251b2d13012ee5f7ac",
          "transactionIndex": "0x93",
          "logIndex": "0xd8",
          "removed": false
        },
        {
          "address": "0xA3a6398f3B29b84a6657A1f4bcE5c90F38462bf7",
          "topics": [
            "0xddf252ad1be2c89b69c2b068fc378daa952ba7f163c4a11628f55a4df523b3ef",
            "0x0000000000000000000000000000000000000000000000000000000000000000",
            "0x00000000000000000000000012395366299c28492682f7853424554df0b81b38"
          ],
          "data": "0x00000000000000000000000000000000000000000000000000001b48eb57c5b9",
          "blockHash": "0xd5a932958c069c1291ecf15dba32b99f3af46ff9f881b109a5b7d775d9e85202",
          "blockNumber": "0x78fe33",
          "blockTimestamp": "0x67d9a354",
          "transactionHash": "0x5f8786b9cf7402409f3a5b804a813b1d86f1bdce072431251b2d13012ee5f7ac",
          "transactionIndex": "0x93",
          "logIndex": "0xd9",
          "removed": false
        },
        {
          "address": "0xbA1333333333a1BA1108E8412f11850A5C319bA9",
          "topics": [
            "0xa26a52d8d53702bba7f137907b8e1f99ff87f6d450144270ca25e72481cca871",
            "0x000000000000000000000000a3a6398f3b29b84a6657a1f4bce5c90f38462bf7",
            "0x00000000000000000000000012395366299c28492682f7853424554df0b81b38",
            "0x0000000000000000000000000000000000000000000000000000000000000001"
          ],
          "data": "0x0000000000000000000000000000000000000000000000000000586723788b02000000000000000000000000000000000000000000000000000000000000006000000000000000000000000000000000000000000000000000000000000000c00000000000000000000000000000000000000000000000000000000000000002000000000000000000000000000000000000000000000000000000000000012c000000000000000000000000000000000000000000000000000000000000012c000000000000000000000000000000000000000000000000000000000000000200000000000000000000000000000000000000000000000000000000000000000000000000000000000000000000000000000000000000000000000000000000",
          "blockHash": "0xd5a932958c069c1291ecf15dba32b99f3af46ff9f881b109a5b7d775d9e85202",
          "blockNumber": "0x78fe33",
          "blockTimestamp": "0x67d9a354",
          "transactionHash": "0x5f8786b9cf7402409f3a5b804a813b1d86f1bdce072431251b2d13012ee5f7ac",
          "transactionIndex": "0x93",
          "logIndex": "0xda",
          "removed": false
        },
        {
          "address": "0x29f2D40B0605204364af54EC677bD022dA425d03",
          "topics": [
            "0xddf252ad1be2c89b69c2b068fc378daa952ba7f163c4a11628f55a4df523b3ef",
            "0x00000000000000000000000012395366299c28492682f7853424554df0b81b38",
            "0x000000000000000000000000ba1333333333a1ba1108e8412f11850a5c319ba9"
          ],
          "data": "0x000000000000000000000000000000000000000000000000000000000000012c",
          "blockHash": "0xd5a932958c069c1291ecf15dba32b99f3af46ff9f881b109a5b7d775d9e85202",
          "blockNumber": "0x78fe33",
          "blockTimestamp": "0x67d9a354",
          "transactionHash": "0x5f8786b9cf7402409f3a5b804a813b1d86f1bdce072431251b2d13012ee5f7ac",
          "transactionIndex": "0x93",
          "logIndex": "0xdb",
          "removed": false
        },
        {
          "address": "0x29f2D40B0605204364af54EC677bD022dA425d03",
          "topics": [
            "0x8c5be1e5ebec7d5bd14f71427d1e84f3dd0314c0f7b2291e5b200ac8c7c3b925",
            "0x00000000000000000000000012395366299c28492682f7853424554df0b81b38",
            "0x000000000000000000000000000000000022d473030f116ddee9f6b43ac78ba3"
          ],
          "data": "0xfffffffffffffffffffffffffffffffffffffffffffffffffffffffffffffc33",
          "blockHash": "0xd5a932958c069c1291ecf15dba32b99f3af46ff9f881b109a5b7d775d9e85202",
          "blockNumber": "0x78fe33",
          "blockTimestamp": "0x67d9a354",
          "transactionHash": "0x5f8786b9cf7402409f3a5b804a813b1d86f1bdce072431251b2d13012ee5f7ac",
          "transactionIndex": "0x93",
          "logIndex": "0xdc",
          "removed": false
        },
        {
          "address": "0x94a9D9AC8a22534E3FaCa9F4e7F2E2cf85d5E4C8",
          "topics": [
            "0xddf252ad1be2c89b69c2b068fc378daa952ba7f163c4a11628f55a4df523b3ef",
            "0x00000000000000000000000012395366299c28492682f7853424554df0b81b38",
            "0x000000000000000000000000ba1333333333a1ba1108e8412f11850a5c319ba9"
          ],
          "data": "0x000000000000000000000000000000000000000000000000000000000000012c",
          "blockHash": "0xd5a932958c069c1291ecf15dba32b99f3af46ff9f881b109a5b7d775d9e85202",
          "blockNumber": "0x78fe33",
          "blockTimestamp": "0x67d9a354",
          "transactionHash": "0x5f8786b9cf7402409f3a5b804a813b1d86f1bdce072431251b2d13012ee5f7ac",
          "transactionIndex": "0x93",
          "logIndex": "0xdd",
          "removed": false
        },
        {
          "address": "0x94a9D9AC8a22534E3FaCa9F4e7F2E2cf85d5E4C8",
          "topics": [
            "0x8c5be1e5ebec7d5bd14f71427d1e84f3dd0314c0f7b2291e5b200ac8c7c3b925",
            "0x00000000000000000000000012395366299c28492682f7853424554df0b81b38",
            "0x000000000000000000000000000000000022d473030f116ddee9f6b43ac78ba3"
          ],
          "data": "0xfffffffffffffffffffffffffffffffffffffffffffffffffffffffffffffc33",
          "blockHash": "0xd5a932958c069c1291ecf15dba32b99f3af46ff9f881b109a5b7d775d9e85202",
          "blockNumber": "0x78fe33",
          "blockTimestamp": "0x67d9a354",
          "transactionHash": "0x5f8786b9cf7402409f3a5b804a813b1d86f1bdce072431251b2d13012ee5f7ac",
          "transactionIndex": "0x93",
          "logIndex": "0xde",
          "removed": false
        }
      ],
      "logsBloom": "0x00000000000000010040000000000000000080000000400000004000002000000000000000000000000000000000000000000000800000000000000000240000802000000000000000004008104000000000000000040800000008000000000000000000020000000000000000000800000001000000000000100010000000000000000000000000000000000000040000000001000000000000010000080000020000800180000000044000000000000000000000000000000000000000000000000002000000000000000000000000000004200000000000000000800060080010000000000000002000000000000000000000000000000000000000000000",
      "type": "0x2",
      "transactionHash": "0x5f8786b9cf7402409f3a5b804a813b1d86f1bdce072431251b2d13012ee5f7ac",
      "transactionIndex": "0x93",
      "blockHash": "0xd5a932958c069c1291ecf15dba32b99f3af46ff9f881b109a5b7d775d9e85202",
      "blockNumber": "0x78fe33",
      "gasUsed": "0x3b13f",
      "effectiveGasPrice": "0x62c1f90",
      "from": "0x12395366299C28492682f7853424554df0b81B38",
      "to": "0x0BF61f706105EA44694f2e92986bD01C39930280",
      "contractAddress": null
    }
  ],
  "libraries": [],
  "pending": [],
  "returns": {},
  "timestamp": 1742316372,
  "chain": 11155111,
  "commit": "c5d8f79"
}