{
  "transactions": [
    {
      "hash": "0xb91af4aa357135cf072622987915a7a0abc0aaf2de3d414ad5b0b3341d03990e",
      "transactionType": "CALL",
      "contractName": null,
      "contractAddress": "0x94a9D9AC8a22534E3FaCa9F4e7F2E2cf85d5E4C8",
      "function": "approve(address,uint256)",
      "arguments": [
        "0x000000000022D473030F116dDEE9F6B43aC78BA3",
        "115792089237316195423570985008687907853269984665640564039457584007913129639935"
      ],
      "transaction": {
        "from": "0x12395366299C28492682f7853424554df0b81B38",
        "to": "0x94a9D9AC8a22534E3FaCa9F4e7F2E2cf85d5E4C8",
        "gas": "0xa7f9",
        "value": "0x0",
        "input": "0x095ea7b3000000000000000000000000000000000022d473030f116ddee9f6b43ac78ba3ffffffffffffffffffffffffffffffffffffffffffffffffffffffffffffffff",
        "nonce": "0x15c",
        "chainId": "0xaa36a7"
      },
      "additionalContracts": [],
      "isFixedGasLimit": false
    },
    {
      "hash": "0xd4f48af0009d1a1a34f5b2bb7030565722e03d05cc8f9f8f7b59065513a3805c",
      "transactionType": "CALL",
      "contractName": null,
      "contractAddress": "0x29f2D40B0605204364af54EC677bD022dA425d03",
      "function": "approve(address,uint256)",
      "arguments": [
        "0x000000000022D473030F116dDEE9F6B43aC78BA3",
        "115792089237316195423570985008687907853269984665640564039457584007913129639935"
      ],
      "transaction": {
        "from": "0x12395366299C28492682f7853424554df0b81B38",
        "to": "0x29f2D40B0605204364af54EC677bD022dA425d03",
        "gas": "0xa7f9",
        "value": "0x0",
        "input": "0x095ea7b3000000000000000000000000000000000022d473030f116ddee9f6b43ac78ba3ffffffffffffffffffffffffffffffffffffffffffffffffffffffffffffffff",
        "nonce": "0x15d",
        "chainId": "0xaa36a7"
      },
      "additionalContracts": [],
      "isFixedGasLimit": false
    },
    {
      "hash": "0x3edfed2b3f3802ac344ab41180cf4909594231874fd040af34320ad1d01e61ed",
      "transactionType": "CALL",
      "contractName": null,
      "contractAddress": "0x000000000022D473030F116dDEE9F6B43aC78BA3",
      "function": "approve(address,address,uint160,uint48)",
      "arguments": [
        "0x29f2D40B0605204364af54EC677bD022dA425d03",
        "0x0BF61f706105EA44694f2e92986bD01C39930280",
        "1461501637330902918203684832716283019655932542975",
        "1743844284"
      ],
      "transaction": {
        "from": "0x12395366299C28492682f7853424554df0b81B38",
        "to": "0x000000000022D473030F116dDEE9F6B43aC78BA3",
        "gas": "0xa59b",
        "value": "0x0",
        "input": "0x87517c4500000000000000000000000029f2d40b0605204364af54ec677bd022da425d030000000000000000000000000bf61f706105ea44694f2e92986bd01c39930280000000000000000000000000ffffffffffffffffffffffffffffffffffffffff0000000000000000000000000000000000000000000000000000000067f0f3bc",
        "nonce": "0x15e",
        "chainId": "0xaa36a7"
      },
      "additionalContracts": [],
      "isFixedGasLimit": false
    },
    {
      "hash": "0xac23c00b8180a32847f9891c0415825df6c9166a689db16647733108c62561f5",
      "transactionType": "CALL",
      "contractName": null,
      "contractAddress": "0x000000000022D473030F116dDEE9F6B43aC78BA3",
      "function": "approve(address,address,uint160,uint48)",
      "arguments": [
        "0x94a9D9AC8a22534E3FaCa9F4e7F2E2cf85d5E4C8",
        "0x0BF61f706105EA44694f2e92986bD01C39930280",
        "1461501637330902918203684832716283019655932542975",
        "1743844284"
      ],
      "transaction": {
        "from": "0x12395366299C28492682f7853424554df0b81B38",
        "to": "0x000000000022D473030F116dDEE9F6B43aC78BA3",
        "gas": "0xa59b",
        "value": "0x0",
        "input": "0x87517c4500000000000000000000000094a9d9ac8a22534e3faca9f4e7f2e2cf85d5e4c80000000000000000000000000bf61f706105ea44694f2e92986bd01c39930280000000000000000000000000ffffffffffffffffffffffffffffffffffffffff0000000000000000000000000000000000000000000000000000000067f0f3bc",
        "nonce": "0x15f",
        "chainId": "0xaa36a7"
      },
      "additionalContracts": [],
      "isFixedGasLimit": false
    },
    {
      "hash": "0x183c18ea672e187d2747158d83399bdcbdee6bdc3ba03a60a87a2a37fd05a7ab",
      "transactionType": "CALL",
      "contractName": null,
      "contractAddress": "0x0BF61f706105EA44694f2e92986bD01C39930280",
      "function": "initialize(address,address[],uint256[],uint256,bool,bytes)",
      "arguments": [
        "0x5a424180eeBc7A02a1f329d05651D541Bd22fa84",
        "[0x29f2D40B0605204364af54EC677bD022dA425d03, 0x94a9D9AC8a22534E3FaCa9F4e7F2E2cf85d5E4C8]",
        "[10000000, 10000000]",
        "0",
        "true",
        "0x"
      ],
      "transaction": {
        "from": "0x12395366299C28492682f7853424554df0b81B38",
        "to": "0x0BF61f706105EA44694f2e92986bD01C39930280",
        "gas": "0x63087",
        "value": "0x0",
        "input": "0x026b3d950000000000000000000000005a424180eebc7a02a1f329d05651d541bd22fa8400000000000000000000000000000000000000000000000000000000000000c00000000000000000000000000000000000000000000000000000000000000120000000000000000000000000000000000000000000000000000000000000000000000000000000000000000000000000000000000000000000000000000000010000000000000000000000000000000000000000000000000000000000000180000000000000000000000000000000000000000000000000000000000000000200000000000000000000000029f2d40b0605204364af54ec677bd022da425d0300000000000000000000000094a9d9ac8a22534e3faca9f4e7f2e2cf85d5e4c80000000000000000000000000000000000000000000000000000000000000002000000000000000000000000000000000000000000000000000000000098968000000000000000000000000000000000000000000000000000000000009896800000000000000000000000000000000000000000000000000000000000000000",
        "nonce": "0x160",
        "chainId": "0xaa36a7"
      },
      "additionalContracts": [],
      "isFixedGasLimit": false
    }
  ],
  "receipts": [
    {
      "status": "0x1",
      "cumulativeGasUsed": "0xc60531",
      "logs": [
        {
          "address": "0x94a9D9AC8a22534E3FaCa9F4e7F2E2cf85d5E4C8",
          "topics": [
            "0x8c5be1e5ebec7d5bd14f71427d1e84f3dd0314c0f7b2291e5b200ac8c7c3b925",
            "0x00000000000000000000000012395366299c28492682f7853424554df0b81b38",
            "0x000000000000000000000000000000000022d473030f116ddee9f6b43ac78ba3"
          ],
          "data": "0xffffffffffffffffffffffffffffffffffffffffffffffffffffffffffffffff",
          "blockHash": "0x73bfa8346511bf1979cafab189ff392d3edb13bebd9d492dc817aec5b574372d",
          "blockNumber": "0x7acd76",
          "blockTimestamp": "0x67efa254",
          "transactionHash": "0xb91af4aa357135cf072622987915a7a0abc0aaf2de3d414ad5b0b3341d03990e",
          "transactionIndex": "0x8a",
          "logIndex": "0x9f",
          "removed": false
        }
      ],
      "logsBloom": "0x00000000000000010000000000000000000000000000000000000000000000000000000000000000000000000000000000000000800000000000000000200000000000000000000000004000000000000000000000000800000008000000000000000000000000000000000000000000000000000000000000100000000000000000000000000000000000000000040000000000000000000000000000000000020000000100000000004000000000000000000000000000000000000000000000000000000000000000000000000000000000000000000000000000000000000010000000000000000000000000000000000000000000000000000000000000",
      "type": "0x2",
      "transactionHash": "0xb91af4aa357135cf072622987915a7a0abc0aaf2de3d414ad5b0b3341d03990e",
      "transactionIndex": "0x8a",
      "blockHash": "0x73bfa8346511bf1979cafab189ff392d3edb13bebd9d492dc817aec5b574372d",
      "blockNumber": "0x7acd76",
      "gasUsed": "0x72db",
      "effectiveGasPrice": "0x487929a6",
      "from": "0x12395366299C28492682f7853424554df0b81B38",
      "to": "0x94a9D9AC8a22534E3FaCa9F4e7F2E2cf85d5E4C8",
      "contractAddress": null
    },
    {
      "status": "0x1",
      "cumulativeGasUsed": "0xc6780c",
      "logs": [
        {
          "address": "0x29f2D40B0605204364af54EC677bD022dA425d03",
          "topics": [
            "0x8c5be1e5ebec7d5bd14f71427d1e84f3dd0314c0f7b2291e5b200ac8c7c3b925",
            "0x00000000000000000000000012395366299c28492682f7853424554df0b81b38",
            "0x000000000000000000000000000000000022d473030f116ddee9f6b43ac78ba3"
          ],
          "data": "0xffffffffffffffffffffffffffffffffffffffffffffffffffffffffffffffff",
          "blockHash": "0x73bfa8346511bf1979cafab189ff392d3edb13bebd9d492dc817aec5b574372d",
          "blockNumber": "0x7acd76",
          "blockTimestamp": "0x67efa254",
          "transactionHash": "0xd4f48af0009d1a1a34f5b2bb7030565722e03d05cc8f9f8f7b59065513a3805c",
          "transactionIndex": "0x8b",
          "logIndex": "0xa0",
          "removed": false
        }
      ],
      "logsBloom": "0x00000000000000010000000000000000000000000000400000000000000000000000000000000000000000000000000000000000800000000000000000200000000000000000000000004000004000000000000000000800000000000000000000000000000000000000000000000000000000000000000000100000000000000000000000000000000000000000040000000000000000000000000000000000020000000000000000000000000000000000000000000000000000000000000000000000000000000000000000000000000000200000000000000000000000000010000000000000000000000000000000000000000000000000000000000000",
      "type": "0x2",
      "transactionHash": "0xd4f48af0009d1a1a34f5b2bb7030565722e03d05cc8f9f8f7b59065513a3805c",
      "transactionIndex": "0x8b",
      "blockHash": "0x73bfa8346511bf1979cafab189ff392d3edb13bebd9d492dc817aec5b574372d",
      "blockNumber": "0x7acd76",
      "gasUsed": "0x72db",
      "effectiveGasPrice": "0x487929a6",
      "from": "0x12395366299C28492682f7853424554df0b81B38",
      "to": "0x29f2D40B0605204364af54EC677bD022dA425d03",
      "contractAddress": null
    },
    {
      "status": "0x1",
      "cumulativeGasUsed": "0xc6eff2",
      "logs": [
        {
          "address": "0x000000000022D473030F116dDEE9F6B43aC78BA3",
          "topics": [
            "0xda9fa7c1b00402c17d0161b249b1ab8bbec047c5a52207b9c112deffd817036b",
            "0x00000000000000000000000012395366299c28492682f7853424554df0b81b38",
            "0x00000000000000000000000029f2d40b0605204364af54ec677bd022da425d03",
            "0x0000000000000000000000000bf61f706105ea44694f2e92986bd01c39930280"
          ],
          "data": "0x000000000000000000000000ffffffffffffffffffffffffffffffffffffffff0000000000000000000000000000000000000000000000000000000067f0f3bc",
          "blockHash": "0x73bfa8346511bf1979cafab189ff392d3edb13bebd9d492dc817aec5b574372d",
          "blockNumber": "0x7acd76",
          "blockTimestamp": "0x67efa254",
          "transactionHash": "0x3edfed2b3f3802ac344ab41180cf4909594231874fd040af34320ad1d01e61ed",
          "transactionIndex": "0x8c",
          "logIndex": "0xa1",
          "removed": false
        }
      ],
      "logsBloom": "0x00010000000000010000000000004000000000000004000000000000000000000000000000000000000000000000000000000000000000080000000000080000000000000000000000000000000000000000000000000000000000000000000000000000000000000000000000000000000000000000000000100000000000000020000000000000000000000000040000000000000000000000000000000000000000000000000000000000000000000000200000000000000000080000000000000000000000000000000000000000000000000000000040000000000000000000000000000000000000004000000000000000000000000000000002000400",
      "type": "0x2",
      "transactionHash": "0x3edfed2b3f3802ac344ab41180cf4909594231874fd040af34320ad1d01e61ed",
      "transactionIndex": "0x8c",
      "blockHash": "0x73bfa8346511bf1979cafab189ff392d3edb13bebd9d492dc817aec5b574372d",
      "blockNumber": "0x7acd76",
      "gasUsed": "0x77e6",
      "effectiveGasPrice": "0x487929a6",
      "from": "0x12395366299C28492682f7853424554df0b81B38",
      "to": "0x000000000022D473030F116dDEE9F6B43aC78BA3",
      "contractAddress": null
    },
    {
      "status": "0x1",
      "cumulativeGasUsed": "0xc767d8",
      "logs": [
        {
          "address": "0x000000000022D473030F116dDEE9F6B43aC78BA3",
          "topics": [
            "0xda9fa7c1b00402c17d0161b249b1ab8bbec047c5a52207b9c112deffd817036b",
            "0x00000000000000000000000012395366299c28492682f7853424554df0b81b38",
            "0x00000000000000000000000094a9d9ac8a22534e3faca9f4e7f2e2cf85d5e4c8",
            "0x0000000000000000000000000bf61f706105ea44694f2e92986bd01c39930280"
          ],
          "data": "0x000000000000000000000000ffffffffffffffffffffffffffffffffffffffff0000000000000000000000000000000000000000000000000000000067f0f3bc",
          "blockHash": "0x73bfa8346511bf1979cafab189ff392d3edb13bebd9d492dc817aec5b574372d",
          "blockNumber": "0x7acd76",
          "blockTimestamp": "0x67efa254",
          "transactionHash": "0xac23c00b8180a32847f9891c0415825df6c9166a689db16647733108c62561f5",
          "transactionIndex": "0x8d",
          "logIndex": "0xa2",
          "removed": false
        }
      ],
      "logsBloom": "0x00010000000000010200000000000000000000000004000000000000000000000000000000000000000100000000000000000000000000080000000000080000000000000000000000000000000000000000000000000000000000000000000000000000000000000000000000000000000000000000000000100000000000000020000000000000000000000000040000000000000000000000000000000000000000000000000000000000000000000000000000000000000000080000000000000000000000000000000000000000000000000000020040000000000000000000000000000000000000000000000000000000000000000000000002000400",
      "type": "0x2",
      "transactionHash": "0xac23c00b8180a32847f9891c0415825df6c9166a689db16647733108c62561f5",
      "transactionIndex": "0x8d",
      "blockHash": "0x73bfa8346511bf1979cafab189ff392d3edb13bebd9d492dc817aec5b574372d",
      "blockNumber": "0x7acd76",
      "gasUsed": "0x77e6",
      "effectiveGasPrice": "0x487929a6",
      "from": "0x12395366299C28492682f7853424554df0b81B38",
      "to": "0x000000000022D473030F116dDEE9F6B43aC78BA3",
      "contractAddress": null
    },
    {
      "status": "0x1",
      "cumulativeGasUsed": "0xcbe304",
      "logs": [
        {
          "address": "0xbA1333333333a1BA1108E8412f11850A5C319bA9",
          "topics": [
            "0xd1398bee19313d6bf672ccb116e51f4a1a947e91c757907f51fbb5b5e56c698f",
            "0x0000000000000000000000005a424180eebc7a02a1f329d05651d541bd22fa84",
            "0x0000000000000000000000000000000000000000000000000000000000000000",
            "0x0000000000000000000000000000000000000000000000000000000000000000"
          ],
          "data": "0x00000000000000000000000000000000000000000000000000000000000f4240",
          "blockHash": "0x73bfa8346511bf1979cafab189ff392d3edb13bebd9d492dc817aec5b574372d",
          "blockNumber": "0x7acd76",
          "blockTimestamp": "0x67efa254",
          "transactionHash": "0x183c18ea672e187d2747158d83399bdcbdee6bdc3ba03a60a87a2a37fd05a7ab",
          "transactionIndex": "0x8e",
          "logIndex": "0xa3",
          "removed": false
        },
        {
          "address": "0x5a424180eeBc7A02a1f329d05651D541Bd22fa84",
          "topics": [
            "0xddf252ad1be2c89b69c2b068fc378daa952ba7f163c4a11628f55a4df523b3ef",
            "0x0000000000000000000000000000000000000000000000000000000000000000",
            "0x0000000000000000000000000000000000000000000000000000000000000000"
          ],
          "data": "0x00000000000000000000000000000000000000000000000000000000000f4240",
          "blockHash": "0x73bfa8346511bf1979cafab189ff392d3edb13bebd9d492dc817aec5b574372d",
          "blockNumber": "0x7acd76",
          "blockTimestamp": "0x67efa254",
          "transactionHash": "0x183c18ea672e187d2747158d83399bdcbdee6bdc3ba03a60a87a2a37fd05a7ab",
          "transactionIndex": "0x8e",
          "logIndex": "0xa4",
          "removed": false
        },
        {
          "address": "0xbA1333333333a1BA1108E8412f11850A5C319bA9",
          "topics": [
            "0xd1398bee19313d6bf672ccb116e51f4a1a947e91c757907f51fbb5b5e56c698f",
            "0x0000000000000000000000005a424180eebc7a02a1f329d05651d541bd22fa84",
            "0x0000000000000000000000000000000000000000000000000000000000000000",
            "0x00000000000000000000000012395366299c28492682f7853424554df0b81b38"
          ],
          "data": "0x0000000000000000000000000000000000000000000000000de0b6b3a7546f98",
          "blockHash": "0x73bfa8346511bf1979cafab189ff392d3edb13bebd9d492dc817aec5b574372d",
          "blockNumber": "0x7acd76",
          "blockTimestamp": "0x67efa254",
          "transactionHash": "0x183c18ea672e187d2747158d83399bdcbdee6bdc3ba03a60a87a2a37fd05a7ab",
          "transactionIndex": "0x8e",
          "logIndex": "0xa5",
          "removed": false
        },
        {
          "address": "0x5a424180eeBc7A02a1f329d05651D541Bd22fa84",
          "topics": [
            "0xddf252ad1be2c89b69c2b068fc378daa952ba7f163c4a11628f55a4df523b3ef",
            "0x0000000000000000000000000000000000000000000000000000000000000000",
            "0x00000000000000000000000012395366299c28492682f7853424554df0b81b38"
          ],
          "data": "0x0000000000000000000000000000000000000000000000000de0b6b3a7546f98",
          "blockHash": "0x73bfa8346511bf1979cafab189ff392d3edb13bebd9d492dc817aec5b574372d",
          "blockNumber": "0x7acd76",
          "blockTimestamp": "0x67efa254",
          "transactionHash": "0x183c18ea672e187d2747158d83399bdcbdee6bdc3ba03a60a87a2a37fd05a7ab",
          "transactionIndex": "0x8e",
          "logIndex": "0xa6",
          "removed": false
        },
        {
          "address": "0xbA1333333333a1BA1108E8412f11850A5C319bA9",
          "topics": [
            "0xa26a52d8d53702bba7f137907b8e1f99ff87f6d450144270ca25e72481cca871",
            "0x0000000000000000000000005a424180eebc7a02a1f329d05651d541bd22fa84",
            "0x00000000000000000000000012395366299c28492682f7853424554df0b81b38",
            "0x0000000000000000000000000000000000000000000000000000000000000001"
          ],
          "data": "0x0000000000000000000000000000000000000000000000000de0b6b3a763b1d8000000000000000000000000000000000000000000000000000000000000006000000000000000000000000000000000000000000000000000000000000000c0000000000000000000000000000000000000000000000000000000000000000200000000000000000000000000000000000000000000000000000000009896800000000000000000000000000000000000000000000000000000000000989680000000000000000000000000000000000000000000000000000000000000000200000000000000000000000000000000000000000000000000000000000000000000000000000000000000000000000000000000000000000000000000000000",
          "blockHash": "0x73bfa8346511bf1979cafab189ff392d3edb13bebd9d492dc817aec5b574372d",
          "blockNumber": "0x7acd76",
          "blockTimestamp": "0x67efa254",
          "transactionHash": "0x183c18ea672e187d2747158d83399bdcbdee6bdc3ba03a60a87a2a37fd05a7ab",
          "transactionIndex": "0x8e",
          "logIndex": "0xa7",
          "removed": false
        },
        {
          "address": "0xbA1333333333a1BA1108E8412f11850A5C319bA9",
          "topics": [
            "0xcad8c9d32507393b6508ca4a888b81979919b477510585bde8488f153072d6f3",
            "0x0000000000000000000000005a424180eebc7a02a1f329d05651d541bd22fa84"
          ],
          "data": "0x",
          "blockHash": "0x73bfa8346511bf1979cafab189ff392d3edb13bebd9d492dc817aec5b574372d",
          "blockNumber": "0x7acd76",
          "blockTimestamp": "0x67efa254",
          "transactionHash": "0x183c18ea672e187d2747158d83399bdcbdee6bdc3ba03a60a87a2a37fd05a7ab",
          "transactionIndex": "0x8e",
          "logIndex": "0xa8",
          "removed": false
        },
        {
          "address": "0x29f2D40B0605204364af54EC677bD022dA425d03",
          "topics": [
            "0xddf252ad1be2c89b69c2b068fc378daa952ba7f163c4a11628f55a4df523b3ef",
            "0x00000000000000000000000012395366299c28492682f7853424554df0b81b38",
            "0x000000000000000000000000ba1333333333a1ba1108e8412f11850a5c319ba9"
          ],
          "data": "0x0000000000000000000000000000000000000000000000000000000000989680",
          "blockHash": "0x73bfa8346511bf1979cafab189ff392d3edb13bebd9d492dc817aec5b574372d",
          "blockNumber": "0x7acd76",
          "blockTimestamp": "0x67efa254",
          "transactionHash": "0x183c18ea672e187d2747158d83399bdcbdee6bdc3ba03a60a87a2a37fd05a7ab",
          "transactionIndex": "0x8e",
          "logIndex": "0xa9",
          "removed": false
        },
        {
          "address": "0x29f2D40B0605204364af54EC677bD022dA425d03",
          "topics": [
            "0x8c5be1e5ebec7d5bd14f71427d1e84f3dd0314c0f7b2291e5b200ac8c7c3b925",
            "0x00000000000000000000000012395366299c28492682f7853424554df0b81b38",
            "0x000000000000000000000000000000000022d473030f116ddee9f6b43ac78ba3"
          ],
          "data": "0xffffffffffffffffffffffffffffffffffffffffffffffffffffffffff67697f",
          "blockHash": "0x73bfa8346511bf1979cafab189ff392d3edb13bebd9d492dc817aec5b574372d",
          "blockNumber": "0x7acd76",
          "blockTimestamp": "0x67efa254",
          "transactionHash": "0x183c18ea672e187d2747158d83399bdcbdee6bdc3ba03a60a87a2a37fd05a7ab",
          "transactionIndex": "0x8e",
          "logIndex": "0xaa",
          "removed": false
        },
        {
          "address": "0x94a9D9AC8a22534E3FaCa9F4e7F2E2cf85d5E4C8",
          "topics": [
            "0xddf252ad1be2c89b69c2b068fc378daa952ba7f163c4a11628f55a4df523b3ef",
            "0x00000000000000000000000012395366299c28492682f7853424554df0b81b38",
            "0x000000000000000000000000ba1333333333a1ba1108e8412f11850a5c319ba9"
          ],
          "data": "0x0000000000000000000000000000000000000000000000000000000000989680",
          "blockHash": "0x73bfa8346511bf1979cafab189ff392d3edb13bebd9d492dc817aec5b574372d",
          "blockNumber": "0x7acd76",
          "blockTimestamp": "0x67efa254",
          "transactionHash": "0x183c18ea672e187d2747158d83399bdcbdee6bdc3ba03a60a87a2a37fd05a7ab",
          "transactionIndex": "0x8e",
          "logIndex": "0xab",
          "removed": false
        },
        {
          "address": "0x94a9D9AC8a22534E3FaCa9F4e7F2E2cf85d5E4C8",
          "topics": [
            "0x8c5be1e5ebec7d5bd14f71427d1e84f3dd0314c0f7b2291e5b200ac8c7c3b925",
            "0x00000000000000000000000012395366299c28492682f7853424554df0b81b38",
            "0x000000000000000000000000000000000022d473030f116ddee9f6b43ac78ba3"
          ],
          "data": "0xffffffffffffffffffffffffffffffffffffffffffffffffffffffffff67697f",
          "blockHash": "0x73bfa8346511bf1979cafab189ff392d3edb13bebd9d492dc817aec5b574372d",
          "blockNumber": "0x7acd76",
          "blockTimestamp": "0x67efa254",
          "transactionHash": "0x183c18ea672e187d2747158d83399bdcbdee6bdc3ba03a60a87a2a37fd05a7ab",
          "transactionIndex": "0x8e",
          "logIndex": "0xac",
          "removed": false
        }
      ],
      "logsBloom": "0x00000000000000010040000000000000000080000000400000004000002000000000000000000000000000000000000000000000800000000000000000240000802000000000000000004008004000000800000000040800000008000000000000000800020000000000000000000800000001000000000000100010000000000000000800400000000000000000040000000000000000000000010000000000020000c00180000000044000000040000000000000002000000000000000000000000002000000000000000000000000000000200000000000000000800060000010000000000000002000000100000000000000000000000000000000000000",
      "type": "0x2",
      "transactionHash": "0x183c18ea672e187d2747158d83399bdcbdee6bdc3ba03a60a87a2a37fd05a7ab",
      "transactionIndex": "0x8e",
      "blockHash": "0x73bfa8346511bf1979cafab189ff392d3edb13bebd9d492dc817aec5b574372d",
      "blockNumber": "0x7acd76",
      "gasUsed": "0x47b2c",
      "effectiveGasPrice": "0x487929a6",
      "from": "0x12395366299C28492682f7853424554df0b81B38",
      "to": "0x0BF61f706105EA44694f2e92986bD01C39930280",
      "contractAddress": null
    }
  ],
  "libraries": [],
  "pending": [],
  "returns": {},
  "timestamp": 1743757912,
  "chain": 11155111,
  "commit": "53ca75c"
}