{
  "transactions": [
    {
      "hash": "0x91ef67d667e3825463f242847c8a29740c4bad92a62e943fa09a8aabd4f67373",
      "transactionType": "CALL",
      "contractName": null,
      "contractAddress": "0x000000000022D473030F116dDEE9F6B43aC78BA3",
      "function": "approve(address,address,uint160,uint48)",
      "arguments": [
        "0x29f2D40B0605204364af54EC677bD022dA425d03",
        "0x0BF61f706105EA44694f2e92986bD01C39930280",
        "1461501637330902918203684832716283019655932542975",
        "1742402676"
      ],
      "transaction": {
        "from": "0x12395366299C28492682f7853424554df0b81B38",
        "to": "0x000000000022D473030F116dDEE9F6B43aC78BA3",
        "gas": "0xa59b",
        "value": "0x0",
        "input": "0x87517c4500000000000000000000000029f2d40b0605204364af54ec677bd022da425d030000000000000000000000000bf61f706105ea44694f2e92986bd01c39930280000000000000000000000000ffffffffffffffffffffffffffffffffffffffff0000000000000000000000000000000000000000000000000000000067daf474",
        "nonce": "0x108",
        "chainId": "0xaa36a7"
      },
      "additionalContracts": [],
      "isFixedGasLimit": false
    },
    {
      "hash": "0x32016686a2bb8503e18a94e93eb9264df677e5bd072592c07d6a75984aea2320",
      "transactionType": "CALL",
      "contractName": null,
      "contractAddress": "0x000000000022D473030F116dDEE9F6B43aC78BA3",
      "function": "approve(address,address,uint160,uint48)",
      "arguments": [
        "0x94a9D9AC8a22534E3FaCa9F4e7F2E2cf85d5E4C8",
        "0x0BF61f706105EA44694f2e92986bD01C39930280",
        "1461501637330902918203684832716283019655932542975",
        "1742402676"
      ],
      "transaction": {
        "from": "0x12395366299C28492682f7853424554df0b81B38",
        "to": "0x000000000022D473030F116dDEE9F6B43aC78BA3",
        "gas": "0xa59b",
        "value": "0x0",
        "input": "0x87517c4500000000000000000000000094a9d9ac8a22534e3faca9f4e7f2e2cf85d5e4c80000000000000000000000000bf61f706105ea44694f2e92986bd01c39930280000000000000000000000000ffffffffffffffffffffffffffffffffffffffff0000000000000000000000000000000000000000000000000000000067daf474",
        "nonce": "0x109",
        "chainId": "0xaa36a7"
      },
      "additionalContracts": [],
      "isFixedGasLimit": false
    },
    {
      "hash": "0xab6cb20ae4e041e7964f1d82914affb954f38309b15c2ea5f24f02137a83c074",
      "transactionType": "CALL",
      "contractName": null,
      "contractAddress": "0x29f2D40B0605204364af54EC677bD022dA425d03",
      "function": "approve(address,uint256)",
      "arguments": [
        "0x0BF61f706105EA44694f2e92986bD01C39930280",
        "115792089237316195423570985008687907853269984665640564039457584007913129639935"
      ],
      "transaction": {
        "from": "0x12395366299C28492682f7853424554df0b81B38",
        "to": "0x29f2D40B0605204364af54EC677bD022dA425d03",
        "gas": "0x8fdb",
        "value": "0x0",
        "input": "0x095ea7b30000000000000000000000000bf61f706105ea44694f2e92986bd01c39930280ffffffffffffffffffffffffffffffffffffffffffffffffffffffffffffffff",
        "nonce": "0x10a",
        "chainId": "0xaa36a7"
      },
      "additionalContracts": [],
      "isFixedGasLimit": false
    },
    {
      "hash": "0x31d44c6cd1b1aa4994319ed53ecba9ababa148376c092595d201bb5ad4ea39c5",
      "transactionType": "CALL",
      "contractName": null,
      "contractAddress": "0x94a9D9AC8a22534E3FaCa9F4e7F2E2cf85d5E4C8",
      "function": "approve(address,uint256)",
      "arguments": [
        "0x0BF61f706105EA44694f2e92986bD01C39930280",
        "115792089237316195423570985008687907853269984665640564039457584007913129639935"
      ],
      "transaction": {
        "from": "0x12395366299C28492682f7853424554df0b81B38",
        "to": "0x94a9D9AC8a22534E3FaCa9F4e7F2E2cf85d5E4C8",
        "gas": "0x8fdb",
        "value": "0x0",
        "input": "0x095ea7b30000000000000000000000000bf61f706105ea44694f2e92986bd01c39930280ffffffffffffffffffffffffffffffffffffffffffffffffffffffffffffffff",
        "nonce": "0x10b",
        "chainId": "0xaa36a7"
      },
      "additionalContracts": [],
      "isFixedGasLimit": false
    },
    {
      "hash": "0xe9280d6ac0801ed6d71fb422c81c9dfbaaa6912507fbf733e78672a057ed514d",
      "transactionType": "CALL",
      "contractName": null,
      "contractAddress": "0x0BF61f706105EA44694f2e92986bD01C39930280",
      "function": "addLiquidityUnbalanced(address,uint256[],uint256,bool,bytes)",
      "arguments": [
        "0xA3a6398f3B29b84a6657A1f4bcE5c90F38462bf7",
        "[100, 100]",
        "0",
        "false",
        "0x"
      ],
      "transaction": {
        "from": "0x12395366299C28492682f7853424554df0b81B38",
        "to": "0x0BF61f706105EA44694f2e92986bD01C39930280",
        "gas": "0x54d05",
        "value": "0x0",
        "input": "0xc08bc851000000000000000000000000a3a6398f3b29b84a6657a1f4bce5c90f38462bf700000000000000000000000000000000000000000000000000000000000000a00000000000000000000000000000000000000000000000000000000000000000000000000000000000000000000000000000000000000000000000000000000000000000000000000000000000000000000000000000000000000000000001000000000000000000000000000000000000000000000000000000000000000002000000000000000000000000000000000000000000000000000000000000006400000000000000000000000000000000000000000000000000000000000000640000000000000000000000000000000000000000000000000000000000000000",
        "nonce": "0x10c",
        "chainId": "0xaa36a7"
      },
      "additionalContracts": [],
      "isFixedGasLimit": false
    }
  ],
  "receipts": [
    {
      "status": "0x1",
      "cumulativeGasUsed": "0x11204c9",
      "logs": [
        {
          "address": "0x000000000022D473030F116dDEE9F6B43aC78BA3",
          "topics": [
            "0xda9fa7c1b00402c17d0161b249b1ab8bbec047c5a52207b9c112deffd817036b",
            "0x00000000000000000000000012395366299c28492682f7853424554df0b81b38",
            "0x00000000000000000000000029f2d40b0605204364af54ec677bd022da425d03",
            "0x0000000000000000000000000bf61f706105ea44694f2e92986bd01c39930280"
          ],
          "data": "0x000000000000000000000000ffffffffffffffffffffffffffffffffffffffff0000000000000000000000000000000000000000000000000000000067daf474",
          "blockHash": "0xbf86c9ad2a3164d5088fb4bbedc29fd2bbac497d9a01eacdf62ab97943cac501",
          "blockNumber": "0x78fe2c",
          "blockTimestamp": "0x67d9a300",
          "transactionHash": "0x91ef67d667e3825463f242847c8a29740c4bad92a62e943fa09a8aabd4f67373",
          "transactionIndex": "0x85",
          "logIndex": "0xe6",
          "removed": false
        }
      ],
      "logsBloom": "0x00010000000000010000000000004000000000000004000000000000000000000000000000000000000000000000000000000000000000080000000000080000000000000000000000000000000000000000000000000000000000000000000000000000000000000000000000000000000000000000000000100000000000000020000000000000000000000000040000000000000000000000000000000000000000000000000000000000000000000000200000000000000000080000000000000000000000000000000000000000000000000000000040000000000000000000000000000000000000004000000000000000000000000000000002000400",
      "type": "0x2",
      "transactionHash": "0x91ef67d667e3825463f242847c8a29740c4bad92a62e943fa09a8aabd4f67373",
      "transactionIndex": "0x85",
      "blockHash": "0xbf86c9ad2a3164d5088fb4bbedc29fd2bbac497d9a01eacdf62ab97943cac501",
      "blockNumber": "0x78fe2c",
      "gasUsed": "0x77e6",
      "effectiveGasPrice": "0x671d510",
      "from": "0x12395366299C28492682f7853424554df0b81B38",
      "to": "0x000000000022D473030F116dDEE9F6B43aC78BA3",
      "contractAddress": null
    },
    {
      "status": "0x1",
      "cumulativeGasUsed": "0x1127caf",
      "logs": [
        {
          "address": "0x000000000022D473030F116dDEE9F6B43aC78BA3",
          "topics": [
            "0xda9fa7c1b00402c17d0161b249b1ab8bbec047c5a52207b9c112deffd817036b",
            "0x00000000000000000000000012395366299c28492682f7853424554df0b81b38",
            "0x00000000000000000000000094a9d9ac8a22534e3faca9f4e7f2e2cf85d5e4c8",
            "0x0000000000000000000000000bf61f706105ea44694f2e92986bd01c39930280"
          ],
          "data": "0x000000000000000000000000ffffffffffffffffffffffffffffffffffffffff0000000000000000000000000000000000000000000000000000000067daf474",
          "blockHash": "0xbf86c9ad2a3164d5088fb4bbedc29fd2bbac497d9a01eacdf62ab97943cac501",
          "blockNumber": "0x78fe2c",
          "blockTimestamp": "0x67d9a300",
          "transactionHash": "0x32016686a2bb8503e18a94e93eb9264df677e5bd072592c07d6a75984aea2320",
          "transactionIndex": "0x86",
          "logIndex": "0xe7",
          "removed": false
        }
      ],
      "logsBloom": "0x00010000000000010200000000000000000000000004000000000000000000000000000000000000000100000000000000000000000000080000000000080000000000000000000000000000000000000000000000000000000000000000000000000000000000000000000000000000000000000000000000100000000000000020000000000000000000000000040000000000000000000000000000000000000000000000000000000000000000000000000000000000000000080000000000000000000000000000000000000000000000000000020040000000000000000000000000000000000000000000000000000000000000000000000002000400",
      "type": "0x2",
      "transactionHash": "0x32016686a2bb8503e18a94e93eb9264df677e5bd072592c07d6a75984aea2320",
      "transactionIndex": "0x86",
      "blockHash": "0xbf86c9ad2a3164d5088fb4bbedc29fd2bbac497d9a01eacdf62ab97943cac501",
      "blockNumber": "0x78fe2c",
      "gasUsed": "0x77e6",
      "effectiveGasPrice": "0x671d510",
      "from": "0x12395366299C28492682f7853424554df0b81B38",
      "to": "0x000000000022D473030F116dDEE9F6B43aC78BA3",
      "contractAddress": null
    },
    {
      "status": "0x1",
      "cumulativeGasUsed": "0x112e4d6",
      "logs": [
        {
          "address": "0x29f2D40B0605204364af54EC677bD022dA425d03",
          "topics": [
            "0x8c5be1e5ebec7d5bd14f71427d1e84f3dd0314c0f7b2291e5b200ac8c7c3b925",
            "0x00000000000000000000000012395366299c28492682f7853424554df0b81b38",
            "0x0000000000000000000000000bf61f706105ea44694f2e92986bd01c39930280"
          ],
          "data": "0xffffffffffffffffffffffffffffffffffffffffffffffffffffffffffffffff",
          "blockHash": "0xbf86c9ad2a3164d5088fb4bbedc29fd2bbac497d9a01eacdf62ab97943cac501",
          "blockNumber": "0x78fe2c",
          "blockTimestamp": "0x67d9a300",
          "transactionHash": "0xab6cb20ae4e041e7964f1d82914affb954f38309b15c2ea5f24f02137a83c074",
          "transactionIndex": "0x87",
          "logIndex": "0xe8",
          "removed": false
        }
      ],
      "logsBloom": "0x00000000000000010000000000000000000000000004400000000000000000000000000000000000000000000000000000000000000000080000000000200000000000000000000000000000004000000000000000000000000000000000000000000000000000000000000000000000000000000000000000100000000000000000000000000000000000000000040000000000000000000000000000000000020000000000000000000000000000000000000000000000000000000000000000000000000000000000000000000000000000200000000000000000000000000010000000000000000000000000000000000000000000000000000002000000",
      "type": "0x2",
      "transactionHash": "0xab6cb20ae4e041e7964f1d82914affb954f38309b15c2ea5f24f02137a83c074",
      "transactionIndex": "0x87",
      "blockHash": "0xbf86c9ad2a3164d5088fb4bbedc29fd2bbac497d9a01eacdf62ab97943cac501",
      "blockNumber": "0x78fe2c",
      "gasUsed": "0x6827",
      "effectiveGasPrice": "0x671d510",
      "from": "0x12395366299C28492682f7853424554df0b81B38",
      "to": "0x29f2D40B0605204364af54EC677bD022dA425d03",
      "contractAddress": null
    },
    {
      "status": "0x1",
      "cumulativeGasUsed": "0x1134cfd",
      "logs": [
        {
          "address": "0x94a9D9AC8a22534E3FaCa9F4e7F2E2cf85d5E4C8",
          "topics": [
            "0x8c5be1e5ebec7d5bd14f71427d1e84f3dd0314c0f7b2291e5b200ac8c7c3b925",
            "0x00000000000000000000000012395366299c28492682f7853424554df0b81b38",
            "0x0000000000000000000000000bf61f706105ea44694f2e92986bd01c39930280"
          ],
          "data": "0xffffffffffffffffffffffffffffffffffffffffffffffffffffffffffffffff",
          "blockHash": "0xbf86c9ad2a3164d5088fb4bbedc29fd2bbac497d9a01eacdf62ab97943cac501",
          "blockNumber": "0x78fe2c",
          "blockTimestamp": "0x67d9a300",
          "transactionHash": "0x31d44c6cd1b1aa4994319ed53ecba9ababa148376c092595d201bb5ad4ea39c5",
          "transactionIndex": "0x88",
          "logIndex": "0xe9",
          "removed": false
        }
      ],
      "logsBloom": "0x00000000000000010000000000000000000000000004000000000000000000000000000000000000000000000000000000000000000000080000000000200000000000000000000000000000000000000000000000000000000008000000000000000000000000000000000000000000000000000000000000100000000000000000000000000000000000000000040000000000000000000000000000000000020000000100000000004000000000000000000000000000000000000000000000000000000000000000000000000000000000000000000000000000000000000010000000000000000000000000000000000000000000000000000002000000",
      "type": "0x2",
      "transactionHash": "0x31d44c6cd1b1aa4994319ed53ecba9ababa148376c092595d201bb5ad4ea39c5",
      "transactionIndex": "0x88",
      "blockHash": "0xbf86c9ad2a3164d5088fb4bbedc29fd2bbac497d9a01eacdf62ab97943cac501",
      "blockNumber": "0x78fe2c",
      "gasUsed": "0x6827",
      "effectiveGasPrice": "0x671d510",
      "from": "0x12395366299C28492682f7853424554df0b81B38",
      "to": "0x94a9D9AC8a22534E3FaCa9F4e7F2E2cf85d5E4C8",
      "contractAddress": null
    },
    {
      "status": "0x1",
      "cumulativeGasUsed": "0x116ecde",
      "logs": [
        {
          "address": "0xbA1333333333a1BA1108E8412f11850A5C319bA9",
          "topics": [
            "0xd1398bee19313d6bf672ccb116e51f4a1a947e91c757907f51fbb5b5e56c698f",
            "0x000000000000000000000000a3a6398f3b29b84a6657a1f4bce5c90f38462bf7",
            "0x0000000000000000000000000000000000000000000000000000000000000000",
            "0x00000000000000000000000012395366299c28492682f7853424554df0b81b38"
          ],
          "data": "0x000000000000000000000000000000000000000000000000000009184e729741",
          "blockHash": "0xbf86c9ad2a3164d5088fb4bbedc29fd2bbac497d9a01eacdf62ab97943cac501",
          "blockNumber": "0x78fe2c",
          "blockTimestamp": "0x67d9a300",
          "transactionHash": "0xe9280d6ac0801ed6d71fb422c81c9dfbaaa6912507fbf733e78672a057ed514d",
          "transactionIndex": "0x89",
          "logIndex": "0xea",
          "removed": false
        },
        {
          "address": "0xA3a6398f3B29b84a6657A1f4bcE5c90F38462bf7",
          "topics": [
            "0xddf252ad1be2c89b69c2b068fc378daa952ba7f163c4a11628f55a4df523b3ef",
            "0x0000000000000000000000000000000000000000000000000000000000000000",
            "0x00000000000000000000000012395366299c28492682f7853424554df0b81b38"
          ],
          "data": "0x000000000000000000000000000000000000000000000000000009184e729741",
          "blockHash": "0xbf86c9ad2a3164d5088fb4bbedc29fd2bbac497d9a01eacdf62ab97943cac501",
          "blockNumber": "0x78fe2c",
          "blockTimestamp": "0x67d9a300",
          "transactionHash": "0xe9280d6ac0801ed6d71fb422c81c9dfbaaa6912507fbf733e78672a057ed514d",
          "transactionIndex": "0x89",
          "logIndex": "0xeb",
          "removed": false
        },
        {
          "address": "0xbA1333333333a1BA1108E8412f11850A5C319bA9",
          "topics": [
            "0xa26a52d8d53702bba7f137907b8e1f99ff87f6d450144270ca25e72481cca871",
            "0x000000000000000000000000a3a6398f3b29b84a6657a1f4bce5c90f38462bf7",
            "0x00000000000000000000000012395366299c28492682f7853424554df0b81b38",
            "0x0000000000000000000000000000000000000000000000000000000000000001"
          ],
          "data": "0x000000000000000000000000000000000000000000000000000021d54cc8ff8b000000000000000000000000000000000000000000000000000000000000006000000000000000000000000000000000000000000000000000000000000000c0000000000000000000000000000000000000000000000000000000000000000200000000000000000000000000000000000000000000000000000000000000640000000000000000000000000000000000000000000000000000000000000064000000000000000000000000000000000000000000000000000000000000000200000000000000000000000000000000000000000000000000000000000000000000000000000000000000000000000000000000000000000000000000000000",
          "blockHash": "0xbf86c9ad2a3164d5088fb4bbedc29fd2bbac497d9a01eacdf62ab97943cac501",
          "blockNumber": "0x78fe2c",
          "blockTimestamp": "0x67d9a300",
          "transactionHash": "0xe9280d6ac0801ed6d71fb422c81c9dfbaaa6912507fbf733e78672a057ed514d",
          "transactionIndex": "0x89",
          "logIndex": "0xec",
          "removed": false
        },
        {
          "address": "0x29f2D40B0605204364af54EC677bD022dA425d03",
          "topics": [
            "0xddf252ad1be2c89b69c2b068fc378daa952ba7f163c4a11628f55a4df523b3ef",
            "0x00000000000000000000000012395366299c28492682f7853424554df0b81b38",
            "0x000000000000000000000000ba1333333333a1ba1108e8412f11850a5c319ba9"
          ],
          "data": "0x0000000000000000000000000000000000000000000000000000000000000064",
          "blockHash": "0xbf86c9ad2a3164d5088fb4bbedc29fd2bbac497d9a01eacdf62ab97943cac501",
          "blockNumber": "0x78fe2c",
          "blockTimestamp": "0x67d9a300",
          "transactionHash": "0xe9280d6ac0801ed6d71fb422c81c9dfbaaa6912507fbf733e78672a057ed514d",
          "transactionIndex": "0x89",
          "logIndex": "0xed",
          "removed": false
        },
        {
          "address": "0x29f2D40B0605204364af54EC677bD022dA425d03",
          "topics": [
            "0x8c5be1e5ebec7d5bd14f71427d1e84f3dd0314c0f7b2291e5b200ac8c7c3b925",
            "0x00000000000000000000000012395366299c28492682f7853424554df0b81b38",
            "0x000000000000000000000000000000000022d473030f116ddee9f6b43ac78ba3"
          ],
          "data": "0xfffffffffffffffffffffffffffffffffffffffffffffffffffffffffffffe8b",
          "blockHash": "0xbf86c9ad2a3164d5088fb4bbedc29fd2bbac497d9a01eacdf62ab97943cac501",
          "blockNumber": "0x78fe2c",
          "blockTimestamp": "0x67d9a300",
          "transactionHash": "0xe9280d6ac0801ed6d71fb422c81c9dfbaaa6912507fbf733e78672a057ed514d",
          "transactionIndex": "0x89",
          "logIndex": "0xee",
          "removed": false
        },
        {
          "address": "0x94a9D9AC8a22534E3FaCa9F4e7F2E2cf85d5E4C8",
          "topics": [
            "0xddf252ad1be2c89b69c2b068fc378daa952ba7f163c4a11628f55a4df523b3ef",
            "0x00000000000000000000000012395366299c28492682f7853424554df0b81b38",
            "0x000000000000000000000000ba1333333333a1ba1108e8412f11850a5c319ba9"
          ],
          "data": "0x0000000000000000000000000000000000000000000000000000000000000064",
          "blockHash": "0xbf86c9ad2a3164d5088fb4bbedc29fd2bbac497d9a01eacdf62ab97943cac501",
          "blockNumber": "0x78fe2c",
          "blockTimestamp": "0x67d9a300",
          "transactionHash": "0xe9280d6ac0801ed6d71fb422c81c9dfbaaa6912507fbf733e78672a057ed514d",
          "transactionIndex": "0x89",
          "logIndex": "0xef",
          "removed": false
        },
        {
          "address": "0x94a9D9AC8a22534E3FaCa9F4e7F2E2cf85d5E4C8",
          "topics": [
            "0x8c5be1e5ebec7d5bd14f71427d1e84f3dd0314c0f7b2291e5b200ac8c7c3b925",
            "0x00000000000000000000000012395366299c28492682f7853424554df0b81b38",
            "0x000000000000000000000000000000000022d473030f116ddee9f6b43ac78ba3"
          ],
          "data": "0xfffffffffffffffffffffffffffffffffffffffffffffffffffffffffffffe8b",
          "blockHash": "0xbf86c9ad2a3164d5088fb4bbedc29fd2bbac497d9a01eacdf62ab97943cac501",
          "blockNumber": "0x78fe2c",
          "blockTimestamp": "0x67d9a300",
          "transactionHash": "0xe9280d6ac0801ed6d71fb422c81c9dfbaaa6912507fbf733e78672a057ed514d",
          "transactionIndex": "0x89",
          "logIndex": "0xf0",
          "removed": false
        }
      ],
      "logsBloom": "0x00000000000000010040000000000000000080000000400000004000002000000000000000000000000000000000000000000000800000000000000000240000802000000000000000004008104000000000000000040800000008000000000000000000020000000000000000000800000001000000000000100010000000000000000000000000000000000000040000000001000000000000010000080000020000800180000000044000000000000000000000000000000000000000000000000002000000000000000000000000000004200000000000000000800060080010000000000000002000000000000000000000000000000000000000000000",
      "type": "0x2",
      "transactionHash": "0xe9280d6ac0801ed6d71fb422c81c9dfbaaa6912507fbf733e78672a057ed514d",
      "transactionIndex": "0x89",
      "blockHash": "0xbf86c9ad2a3164d5088fb4bbedc29fd2bbac497d9a01eacdf62ab97943cac501",
      "blockNumber": "0x78fe2c",
      "gasUsed": "0x39fe1",
      "effectiveGasPrice": "0x671d510",
      "from": "0x12395366299C28492682f7853424554df0b81B38",
      "to": "0x0BF61f706105EA44694f2e92986bD01C39930280",
      "contractAddress": null
    }
  ],
  "libraries": [],
  "pending": [],
  "returns": {},
  "timestamp": 1742316290,
  "chain": 11155111,
  "commit": "c5d8f79"
}