{
  "transactions": [
    {
      "hash": "0x667e018613bd587b54fa2e2efa79272de18a33a3bb77fcbc42f5db75cee152ad",
      "transactionType": "CALL",
      "contractName": null,
      "contractAddress": "0x000000000022D473030F116dDEE9F6B43aC78BA3",
      "function": "approve(address,address,uint160,uint48)",
      "arguments": [
        "0x29f2D40B0605204364af54EC677bD022dA425d03",
        "0x0BF61f706105EA44694f2e92986bD01C39930280",
        "1461501637330902918203684832716283019655932542975",
        "1742401884"
      ],
      "transaction": {
        "from": "0x12395366299C28492682f7853424554df0b81B38",
        "to": "0x000000000022D473030F116dDEE9F6B43aC78BA3",
        "gas": "0xa59b",
        "value": "0x0",
        "input": "0x87517c4500000000000000000000000029f2d40b0605204364af54ec677bd022da425d030000000000000000000000000bf61f706105ea44694f2e92986bd01c39930280000000000000000000000000ffffffffffffffffffffffffffffffffffffffff0000000000000000000000000000000000000000000000000000000067daf15c",
        "nonce": "0xc2",
        "chainId": "0xaa36a7"
      },
      "additionalContracts": [],
      "isFixedGasLimit": false
    },
    {
      "hash": "0x2f83769dee439643c360daa4ac996a19fa4fcbfbe0be83071a7af19ddddf87bb",
      "transactionType": "CALL",
      "contractName": null,
      "contractAddress": "0x000000000022D473030F116dDEE9F6B43aC78BA3",
      "function": "approve(address,address,uint160,uint48)",
      "arguments": [
        "0x94a9D9AC8a22534E3FaCa9F4e7F2E2cf85d5E4C8",
        "0x0BF61f706105EA44694f2e92986bD01C39930280",
        "1461501637330902918203684832716283019655932542975",
        "1742401884"
      ],
      "transaction": {
        "from": "0x12395366299C28492682f7853424554df0b81B38",
        "to": "0x000000000022D473030F116dDEE9F6B43aC78BA3",
        "gas": "0xa59b",
        "value": "0x0",
        "input": "0x87517c4500000000000000000000000094a9d9ac8a22534e3faca9f4e7f2e2cf85d5e4c80000000000000000000000000bf61f706105ea44694f2e92986bd01c39930280000000000000000000000000ffffffffffffffffffffffffffffffffffffffff0000000000000000000000000000000000000000000000000000000067daf15c",
        "nonce": "0xc3",
        "chainId": "0xaa36a7"
      },
      "additionalContracts": [],
      "isFixedGasLimit": false
    },
    {
      "hash": "0xa36860a2dd5b3171ffc695fadcd446b08e57572d37502e52635966128eff0efd",
      "transactionType": "CALL",
      "contractName": null,
      "contractAddress": "0x29f2D40B0605204364af54EC677bD022dA425d03",
      "function": "approve(address,uint256)",
      "arguments": [
        "0x0BF61f706105EA44694f2e92986bD01C39930280",
        "115792089237316195423570985008687907853269984665640564039457584007913129639935"
      ],
      "transaction": {
        "from": "0x12395366299C28492682f7853424554df0b81B38",
        "to": "0x29f2D40B0605204364af54EC677bD022dA425d03",
        "gas": "0x8fdb",
        "value": "0x0",
        "input": "0x095ea7b30000000000000000000000000bf61f706105ea44694f2e92986bd01c39930280ffffffffffffffffffffffffffffffffffffffffffffffffffffffffffffffff",
        "nonce": "0xc4",
        "chainId": "0xaa36a7"
      },
      "additionalContracts": [],
      "isFixedGasLimit": false
    },
    {
      "hash": "0x72f57e10c63c3850e10e1ad7e1e408e6bd49c50daea12e2af36127336d058eb0",
      "transactionType": "CALL",
      "contractName": null,
      "contractAddress": "0x94a9D9AC8a22534E3FaCa9F4e7F2E2cf85d5E4C8",
      "function": "approve(address,uint256)",
      "arguments": [
        "0x0BF61f706105EA44694f2e92986bD01C39930280",
        "115792089237316195423570985008687907853269984665640564039457584007913129639935"
      ],
      "transaction": {
        "from": "0x12395366299C28492682f7853424554df0b81B38",
        "to": "0x94a9D9AC8a22534E3FaCa9F4e7F2E2cf85d5E4C8",
        "gas": "0x8fdb",
        "value": "0x0",
        "input": "0x095ea7b30000000000000000000000000bf61f706105ea44694f2e92986bd01c39930280ffffffffffffffffffffffffffffffffffffffffffffffffffffffffffffffff",
        "nonce": "0xc5",
        "chainId": "0xaa36a7"
      },
      "additionalContracts": [],
      "isFixedGasLimit": false
    },
    {
      "hash": "0x6c6caca1a1e3b8d7b55c7bba9b1c80b74190dfdd140ae781df920f922ed87b80",
      "transactionType": "CALL",
      "contractName": null,
      "contractAddress": "0x0BF61f706105EA44694f2e92986bD01C39930280",
      "function": "addLiquidityUnbalanced(address,uint256[],uint256,bool,bytes)",
      "arguments": [
        "0xA3a6398f3B29b84a6657A1f4bcE5c90F38462bf7",
        "[5, 5]",
        "0",
        "false",
        "0x"
      ],
      "transaction": {
        "from": "0x12395366299C28492682f7853424554df0b81B38",
        "to": "0x0BF61f706105EA44694f2e92986bD01C39930280",
        "gas": "0x50167",
        "value": "0x0",
        "input": "0xc08bc851000000000000000000000000a3a6398f3b29b84a6657a1f4bce5c90f38462bf700000000000000000000000000000000000000000000000000000000000000a00000000000000000000000000000000000000000000000000000000000000000000000000000000000000000000000000000000000000000000000000000000000000000000000000000000000000000000000000000000000000000000001000000000000000000000000000000000000000000000000000000000000000002000000000000000000000000000000000000000000000000000000000000000500000000000000000000000000000000000000000000000000000000000000050000000000000000000000000000000000000000000000000000000000000000",
        "nonce": "0xc6",
        "chainId": "0xaa36a7"
      },
      "additionalContracts": [],
      "isFixedGasLimit": false
    }
  ],
  "receipts": [
    {
      "status": "0x1",
      "cumulativeGasUsed": "0x8a6acc",
      "logs": [
        {
          "address": "0x000000000022D473030F116dDEE9F6B43aC78BA3",
          "topics": [
            "0xda9fa7c1b00402c17d0161b249b1ab8bbec047c5a52207b9c112deffd817036b",
            "0x00000000000000000000000012395366299c28492682f7853424554df0b81b38",
            "0x00000000000000000000000029f2d40b0605204364af54ec677bd022da425d03",
            "0x0000000000000000000000000bf61f706105ea44694f2e92986bd01c39930280"
          ],
          "data": "0x000000000000000000000000ffffffffffffffffffffffffffffffffffffffff0000000000000000000000000000000000000000000000000000000067daf15c",
          "blockHash": "0x92e6a5f120808e48d9b313c63ca8b85ecfad43634348b2c7d1a72cd2ed3eaf35",
          "blockNumber": "0x78fdeb",
          "blockTimestamp": "0x67d99ff4",
          "transactionHash": "0x667e018613bd587b54fa2e2efa79272de18a33a3bb77fcbc42f5db75cee152ad",
          "transactionIndex": "0x54",
          "logIndex": "0x79",
          "removed": false
        }
      ],
      "logsBloom": "0x00010000000000010000000000004000000000000004000000000000000000000000000000000000000000000000000000000000000000080000000000080000000000000000000000000000000000000000000000000000000000000000000000000000000000000000000000000000000000000000000000100000000000000020000000000000000000000000040000000000000000000000000000000000000000000000000000000000000000000000200000000000000000080000000000000000000000000000000000000000000000000000000040000000000000000000000000000000000000004000000000000000000000000000000002000400",
      "type": "0x2",
      "transactionHash": "0x667e018613bd587b54fa2e2efa79272de18a33a3bb77fcbc42f5db75cee152ad",
      "transactionIndex": "0x54",
      "blockHash": "0x92e6a5f120808e48d9b313c63ca8b85ecfad43634348b2c7d1a72cd2ed3eaf35",
      "blockNumber": "0x78fdeb",
      "gasUsed": "0x77e6",
      "effectiveGasPrice": "0x1375e190",
      "from": "0x12395366299C28492682f7853424554df0b81B38",
      "to": "0x000000000022D473030F116dDEE9F6B43aC78BA3",
      "contractAddress": null
    },
    {
      "status": "0x1",
      "cumulativeGasUsed": "0x8ae2b2",
      "logs": [
        {
          "address": "0x000000000022D473030F116dDEE9F6B43aC78BA3",
          "topics": [
            "0xda9fa7c1b00402c17d0161b249b1ab8bbec047c5a52207b9c112deffd817036b",
            "0x00000000000000000000000012395366299c28492682f7853424554df0b81b38",
            "0x00000000000000000000000094a9d9ac8a22534e3faca9f4e7f2e2cf85d5e4c8",
            "0x0000000000000000000000000bf61f706105ea44694f2e92986bd01c39930280"
          ],
          "data": "0x000000000000000000000000ffffffffffffffffffffffffffffffffffffffff0000000000000000000000000000000000000000000000000000000067daf15c",
          "blockHash": "0x92e6a5f120808e48d9b313c63ca8b85ecfad43634348b2c7d1a72cd2ed3eaf35",
          "blockNumber": "0x78fdeb",
          "blockTimestamp": "0x67d99ff4",
          "transactionHash": "0x2f83769dee439643c360daa4ac996a19fa4fcbfbe0be83071a7af19ddddf87bb",
          "transactionIndex": "0x55",
          "logIndex": "0x7a",
          "removed": false
        }
      ],
      "logsBloom": "0x00010000000000010200000000000000000000000004000000000000000000000000000000000000000100000000000000000000000000080000000000080000000000000000000000000000000000000000000000000000000000000000000000000000000000000000000000000000000000000000000000100000000000000020000000000000000000000000040000000000000000000000000000000000000000000000000000000000000000000000000000000000000000080000000000000000000000000000000000000000000000000000020040000000000000000000000000000000000000000000000000000000000000000000000002000400",
      "type": "0x2",
      "transactionHash": "0x2f83769dee439643c360daa4ac996a19fa4fcbfbe0be83071a7af19ddddf87bb",
      "transactionIndex": "0x55",
      "blockHash": "0x92e6a5f120808e48d9b313c63ca8b85ecfad43634348b2c7d1a72cd2ed3eaf35",
      "blockNumber": "0x78fdeb",
      "gasUsed": "0x77e6",
      "effectiveGasPrice": "0x1375e190",
      "from": "0x12395366299C28492682f7853424554df0b81B38",
      "to": "0x000000000022D473030F116dDEE9F6B43aC78BA3",
      "contractAddress": null
    },
    {
      "status": "0x1",
      "cumulativeGasUsed": "0x8b4ad9",
      "logs": [
        {
          "address": "0x29f2D40B0605204364af54EC677bD022dA425d03",
          "topics": [
            "0x8c5be1e5ebec7d5bd14f71427d1e84f3dd0314c0f7b2291e5b200ac8c7c3b925",
            "0x00000000000000000000000012395366299c28492682f7853424554df0b81b38",
            "0x0000000000000000000000000bf61f706105ea44694f2e92986bd01c39930280"
          ],
          "data": "0xffffffffffffffffffffffffffffffffffffffffffffffffffffffffffffffff",
          "blockHash": "0x92e6a5f120808e48d9b313c63ca8b85ecfad43634348b2c7d1a72cd2ed3eaf35",
          "blockNumber": "0x78fdeb",
          "blockTimestamp": "0x67d99ff4",
          "transactionHash": "0xa36860a2dd5b3171ffc695fadcd446b08e57572d37502e52635966128eff0efd",
          "transactionIndex": "0x56",
          "logIndex": "0x7b",
          "removed": false
        }
      ],
      "logsBloom": "0x00000000000000010000000000000000000000000004400000000000000000000000000000000000000000000000000000000000000000080000000000200000000000000000000000000000004000000000000000000000000000000000000000000000000000000000000000000000000000000000000000100000000000000000000000000000000000000000040000000000000000000000000000000000020000000000000000000000000000000000000000000000000000000000000000000000000000000000000000000000000000200000000000000000000000000010000000000000000000000000000000000000000000000000000002000000",
      "type": "0x2",
      "transactionHash": "0xa36860a2dd5b3171ffc695fadcd446b08e57572d37502e52635966128eff0efd",
      "transactionIndex": "0x56",
      "blockHash": "0x92e6a5f120808e48d9b313c63ca8b85ecfad43634348b2c7d1a72cd2ed3eaf35",
      "blockNumber": "0x78fdeb",
      "gasUsed": "0x6827",
      "effectiveGasPrice": "0x1375e190",
      "from": "0x12395366299C28492682f7853424554df0b81B38",
      "to": "0x29f2D40B0605204364af54EC677bD022dA425d03",
      "contractAddress": null
    },
    {
      "status": "0x1",
      "cumulativeGasUsed": "0x8bb300",
      "logs": [
        {
          "address": "0x94a9D9AC8a22534E3FaCa9F4e7F2E2cf85d5E4C8",
          "topics": [
            "0x8c5be1e5ebec7d5bd14f71427d1e84f3dd0314c0f7b2291e5b200ac8c7c3b925",
            "0x00000000000000000000000012395366299c28492682f7853424554df0b81b38",
            "0x0000000000000000000000000bf61f706105ea44694f2e92986bd01c39930280"
          ],
          "data": "0xffffffffffffffffffffffffffffffffffffffffffffffffffffffffffffffff",
          "blockHash": "0x92e6a5f120808e48d9b313c63ca8b85ecfad43634348b2c7d1a72cd2ed3eaf35",
          "blockNumber": "0x78fdeb",
          "blockTimestamp": "0x67d99ff4",
          "transactionHash": "0x72f57e10c63c3850e10e1ad7e1e408e6bd49c50daea12e2af36127336d058eb0",
          "transactionIndex": "0x57",
          "logIndex": "0x7c",
          "removed": false
        }
      ],
      "logsBloom": "0x00000000000000010000000000000000000000000004000000000000000000000000000000000000000000000000000000000000000000080000000000200000000000000000000000000000000000000000000000000000000008000000000000000000000000000000000000000000000000000000000000100000000000000000000000000000000000000000040000000000000000000000000000000000020000000100000000004000000000000000000000000000000000000000000000000000000000000000000000000000000000000000000000000000000000000010000000000000000000000000000000000000000000000000000002000000",
      "type": "0x2",
      "transactionHash": "0x72f57e10c63c3850e10e1ad7e1e408e6bd49c50daea12e2af36127336d058eb0",
      "transactionIndex": "0x57",
      "blockHash": "0x92e6a5f120808e48d9b313c63ca8b85ecfad43634348b2c7d1a72cd2ed3eaf35",
      "blockNumber": "0x78fdeb",
      "gasUsed": "0x6827",
      "effectiveGasPrice": "0x1375e190",
      "from": "0x12395366299C28492682f7853424554df0b81B38",
      "to": "0x94a9D9AC8a22534E3FaCa9F4e7F2E2cf85d5E4C8",
      "contractAddress": null
    },
    {
      "status": "0x1",
      "cumulativeGasUsed": "0x8f52b7",
      "logs": [
        {
          "address": "0xbA1333333333a1BA1108E8412f11850A5C319bA9",
          "topics": [
            "0xd1398bee19313d6bf672ccb116e51f4a1a947e91c757907f51fbb5b5e56c698f",
            "0x000000000000000000000000a3a6398f3b29b84a6657a1f4bce5c90f38462bf7",
            "0x0000000000000000000000000000000000000000000000000000000000000000",
            "0x00000000000000000000000012395366299c28492682f7853424554df0b81b38"
          ],
          "data": "0x000000000000000000000000000000000000000000000000000000746a52878f",
          "blockHash": "0x92e6a5f120808e48d9b313c63ca8b85ecfad43634348b2c7d1a72cd2ed3eaf35",
          "blockNumber": "0x78fdeb",
          "blockTimestamp": "0x67d99ff4",
          "transactionHash": "0x6c6caca1a1e3b8d7b55c7bba9b1c80b74190dfdd140ae781df920f922ed87b80",
          "transactionIndex": "0x58",
          "logIndex": "0x7d",
          "removed": false
        },
        {
          "address": "0xA3a6398f3B29b84a6657A1f4bcE5c90F38462bf7",
          "topics": [
            "0xddf252ad1be2c89b69c2b068fc378daa952ba7f163c4a11628f55a4df523b3ef",
            "0x0000000000000000000000000000000000000000000000000000000000000000",
            "0x00000000000000000000000012395366299c28492682f7853424554df0b81b38"
          ],
          "data": "0x000000000000000000000000000000000000000000000000000000746a52878f",
          "blockHash": "0x92e6a5f120808e48d9b313c63ca8b85ecfad43634348b2c7d1a72cd2ed3eaf35",
          "blockNumber": "0x78fdeb",
          "blockTimestamp": "0x67d99ff4",
          "transactionHash": "0x6c6caca1a1e3b8d7b55c7bba9b1c80b74190dfdd140ae781df920f922ed87b80",
          "transactionIndex": "0x58",
          "logIndex": "0x7e",
          "removed": false
        },
        {
          "address": "0xbA1333333333a1BA1108E8412f11850A5C319bA9",
          "topics": [
            "0xa26a52d8d53702bba7f137907b8e1f99ff87f6d450144270ca25e72481cca871",
            "0x000000000000000000000000a3a6398f3b29b84a6657a1f4bce5c90f38462bf7",
            "0x00000000000000000000000012395366299c28492682f7853424554df0b81b38",
            "0x0000000000000000000000000000000000000000000000000000000000000001"
          ],
          "data": "0x000000000000000000000000000000000000000000000000000003d1e3820c84000000000000000000000000000000000000000000000000000000000000006000000000000000000000000000000000000000000000000000000000000000c0000000000000000000000000000000000000000000000000000000000000000200000000000000000000000000000000000000000000000000000000000000050000000000000000000000000000000000000000000000000000000000000005000000000000000000000000000000000000000000000000000000000000000200000000000000000000000000000000000000000000000000000000000000000000000000000000000000000000000000000000000000000000000000000000",
          "blockHash": "0x92e6a5f120808e48d9b313c63ca8b85ecfad43634348b2c7d1a72cd2ed3eaf35",
          "blockNumber": "0x78fdeb",
          "blockTimestamp": "0x67d99ff4",
          "transactionHash": "0x6c6caca1a1e3b8d7b55c7bba9b1c80b74190dfdd140ae781df920f922ed87b80",
          "transactionIndex": "0x58",
          "logIndex": "0x7f",
          "removed": false
        },
        {
          "address": "0x29f2D40B0605204364af54EC677bD022dA425d03",
          "topics": [
            "0xddf252ad1be2c89b69c2b068fc378daa952ba7f163c4a11628f55a4df523b3ef",
            "0x00000000000000000000000012395366299c28492682f7853424554df0b81b38",
            "0x000000000000000000000000ba1333333333a1ba1108e8412f11850a5c319ba9"
          ],
          "data": "0x0000000000000000000000000000000000000000000000000000000000000005",
          "blockHash": "0x92e6a5f120808e48d9b313c63ca8b85ecfad43634348b2c7d1a72cd2ed3eaf35",
          "blockNumber": "0x78fdeb",
          "blockTimestamp": "0x67d99ff4",
          "transactionHash": "0x6c6caca1a1e3b8d7b55c7bba9b1c80b74190dfdd140ae781df920f922ed87b80",
          "transactionIndex": "0x58",
          "logIndex": "0x80",
          "removed": false
        },
        {
          "address": "0x29f2D40B0605204364af54EC677bD022dA425d03",
          "topics": [
            "0x8c5be1e5ebec7d5bd14f71427d1e84f3dd0314c0f7b2291e5b200ac8c7c3b925",
            "0x00000000000000000000000012395366299c28492682f7853424554df0b81b38",
            "0x000000000000000000000000000000000022d473030f116ddee9f6b43ac78ba3"
          ],
          "data": "0xffffffffffffffffffffffffffffffffffffffffffffffffffffffffffffffd5",
          "blockHash": "0x92e6a5f120808e48d9b313c63ca8b85ecfad43634348b2c7d1a72cd2ed3eaf35",
          "blockNumber": "0x78fdeb",
          "blockTimestamp": "0x67d99ff4",
          "transactionHash": "0x6c6caca1a1e3b8d7b55c7bba9b1c80b74190dfdd140ae781df920f922ed87b80",
          "transactionIndex": "0x58",
          "logIndex": "0x81",
          "removed": false
        },
        {
          "address": "0x94a9D9AC8a22534E3FaCa9F4e7F2E2cf85d5E4C8",
          "topics": [
            "0xddf252ad1be2c89b69c2b068fc378daa952ba7f163c4a11628f55a4df523b3ef",
            "0x00000000000000000000000012395366299c28492682f7853424554df0b81b38",
            "0x000000000000000000000000ba1333333333a1ba1108e8412f11850a5c319ba9"
          ],
          "data": "0x0000000000000000000000000000000000000000000000000000000000000005",
          "blockHash": "0x92e6a5f120808e48d9b313c63ca8b85ecfad43634348b2c7d1a72cd2ed3eaf35",
          "blockNumber": "0x78fdeb",
          "blockTimestamp": "0x67d99ff4",
          "transactionHash": "0x6c6caca1a1e3b8d7b55c7bba9b1c80b74190dfdd140ae781df920f922ed87b80",
          "transactionIndex": "0x58",
          "logIndex": "0x82",
          "removed": false
        },
        {
          "address": "0x94a9D9AC8a22534E3FaCa9F4e7F2E2cf85d5E4C8",
          "topics": [
            "0x8c5be1e5ebec7d5bd14f71427d1e84f3dd0314c0f7b2291e5b200ac8c7c3b925",
            "0x00000000000000000000000012395366299c28492682f7853424554df0b81b38",
            "0x000000000000000000000000000000000022d473030f116ddee9f6b43ac78ba3"
          ],
          "data": "0xffffffffffffffffffffffffffffffffffffffffffffffffffffffffffffffd5",
          "blockHash": "0x92e6a5f120808e48d9b313c63ca8b85ecfad43634348b2c7d1a72cd2ed3eaf35",
          "blockNumber": "0x78fdeb",
          "blockTimestamp": "0x67d99ff4",
          "transactionHash": "0x6c6caca1a1e3b8d7b55c7bba9b1c80b74190dfdd140ae781df920f922ed87b80",
          "transactionIndex": "0x58",
          "logIndex": "0x83",
          "removed": false
        }
      ],
      "logsBloom": "0x00000000000000010040000000000000000080000000400000004000002000000000000000000000000000000000000000000000800000000000000000240000802000000000000000004008104000000000000000040800000008000000000000000000020000000000000000000800000001000000000000100010000000000000000000000000000000000000040000000001000000000000010000080000020000800180000000044000000000000000000000000000000000000000000000000002000000000000000000000000000004200000000000000000800060080010000000000000002000000000000000000000000000000000000000000000",
      "type": "0x2",
      "transactionHash": "0x6c6caca1a1e3b8d7b55c7bba9b1c80b74190dfdd140ae781df920f922ed87b80",
      "transactionIndex": "0x58",
      "blockHash": "0x92e6a5f120808e48d9b313c63ca8b85ecfad43634348b2c7d1a72cd2ed3eaf35",
      "blockNumber": "0x78fdeb",
      "gasUsed": "0x39fb7",
      "effectiveGasPrice": "0x1375e190",
      "from": "0x12395366299C28492682f7853424554df0b81B38",
      "to": "0x0BF61f706105EA44694f2e92986bD01C39930280",
      "contractAddress": null
    }
  ],
  "libraries": [],
  "pending": [],
  "returns": {},
  "timestamp": 1742315512,
  "chain": 11155111,
  "commit": "c5d8f79"
}