{
  "transactions": [
    {
      "hash": "0x14b02c2531ec1e14c87aa9b0e7ed0adc5198fdb91d342ab262724a0554249809",
      "transactionType": "CALL",
      "contractName": null,
      "contractAddress": "0x000000000022D473030F116dDEE9F6B43aC78BA3",
      "function": "approve(address,address,uint160,uint48)",
      "arguments": [
        "0x29f2D40B0605204364af54EC677bD022dA425d03",
        "0x0BF61f706105EA44694f2e92986bD01C39930280",
        "1461501637330902918203684832716283019655932542975",
        "1742402484"
      ],
      "transaction": {
        "from": "0x12395366299C28492682f7853424554df0b81B38",
        "to": "0x000000000022D473030F116dDEE9F6B43aC78BA3",
        "gas": "0xa59b",
        "value": "0x0",
        "input": "0x87517c4500000000000000000000000029f2d40b0605204364af54ec677bd022da425d030000000000000000000000000bf61f706105ea44694f2e92986bd01c39930280000000000000000000000000ffffffffffffffffffffffffffffffffffffffff0000000000000000000000000000000000000000000000000000000067daf3b4",
        "nonce": "0xe5",
        "chainId": "0xaa36a7"
      },
      "additionalContracts": [],
      "isFixedGasLimit": false
    },
    {
      "hash": "0x98b2245ff3bfab78790f301535da80c542924830535797b48f9ff617aa760f0a",
      "transactionType": "CALL",
      "contractName": null,
      "contractAddress": "0x000000000022D473030F116dDEE9F6B43aC78BA3",
      "function": "approve(address,address,uint160,uint48)",
      "arguments": [
        "0x94a9D9AC8a22534E3FaCa9F4e7F2E2cf85d5E4C8",
        "0x0BF61f706105EA44694f2e92986bD01C39930280",
        "1461501637330902918203684832716283019655932542975",
        "1742402484"
      ],
      "transaction": {
        "from": "0x12395366299C28492682f7853424554df0b81B38",
        "to": "0x000000000022D473030F116dDEE9F6B43aC78BA3",
        "gas": "0xa59b",
        "value": "0x0",
        "input": "0x87517c4500000000000000000000000094a9d9ac8a22534e3faca9f4e7f2e2cf85d5e4c80000000000000000000000000bf61f706105ea44694f2e92986bd01c39930280000000000000000000000000ffffffffffffffffffffffffffffffffffffffff0000000000000000000000000000000000000000000000000000000067daf3b4",
        "nonce": "0xe6",
        "chainId": "0xaa36a7"
      },
      "additionalContracts": [],
      "isFixedGasLimit": false
    },
    {
      "hash": "0x064fd0d4efe5cf99c055e75f53335c6963f68ae7e5b29b4678e27c7c02630a3b",
      "transactionType": "CALL",
      "contractName": null,
      "contractAddress": "0x29f2D40B0605204364af54EC677bD022dA425d03",
      "function": "approve(address,uint256)",
      "arguments": [
        "0x0BF61f706105EA44694f2e92986bD01C39930280",
        "115792089237316195423570985008687907853269984665640564039457584007913129639935"
      ],
      "transaction": {
        "from": "0x12395366299C28492682f7853424554df0b81B38",
        "to": "0x29f2D40B0605204364af54EC677bD022dA425d03",
        "gas": "0x8fdb",
        "value": "0x0",
        "input": "0x095ea7b30000000000000000000000000bf61f706105ea44694f2e92986bd01c39930280ffffffffffffffffffffffffffffffffffffffffffffffffffffffffffffffff",
        "nonce": "0xe7",
        "chainId": "0xaa36a7"
      },
      "additionalContracts": [],
      "isFixedGasLimit": false
    },
    {
      "hash": "0xee40268b2dd45e38c5c1936ab3ec7819dd465a49c5670ee7d25bb79cd3fbf672",
      "transactionType": "CALL",
      "contractName": null,
      "contractAddress": "0x94a9D9AC8a22534E3FaCa9F4e7F2E2cf85d5E4C8",
      "function": "approve(address,uint256)",
      "arguments": [
        "0x0BF61f706105EA44694f2e92986bD01C39930280",
        "115792089237316195423570985008687907853269984665640564039457584007913129639935"
      ],
      "transaction": {
        "from": "0x12395366299C28492682f7853424554df0b81B38",
        "to": "0x94a9D9AC8a22534E3FaCa9F4e7F2E2cf85d5E4C8",
        "gas": "0x8fdb",
        "value": "0x0",
        "input": "0x095ea7b30000000000000000000000000bf61f706105ea44694f2e92986bd01c39930280ffffffffffffffffffffffffffffffffffffffffffffffffffffffffffffffff",
        "nonce": "0xe8",
        "chainId": "0xaa36a7"
      },
      "additionalContracts": [],
      "isFixedGasLimit": false
    },
    {
      "hash": "0x04a01c7d0c6c1def3909c24cb71edc32155203fb5cf37d2711d1b596fdbd4420",
      "transactionType": "CALL",
      "contractName": null,
      "contractAddress": "0x0BF61f706105EA44694f2e92986bD01C39930280",
      "function": "addLiquidityUnbalanced(address,uint256[],uint256,bool,bytes)",
      "arguments": [
        "0xA3a6398f3B29b84a6657A1f4bcE5c90F38462bf7",
        "[15, 15]",
        "0",
        "false",
        "0x"
      ],
      "transaction": {
        "from": "0x12395366299C28492682f7853424554df0b81B38",
        "to": "0x0BF61f706105EA44694f2e92986bD01C39930280",
        "gas": "0x54d42",
        "value": "0x0",
        "input": "0xc08bc851000000000000000000000000a3a6398f3b29b84a6657a1f4bce5c90f38462bf700000000000000000000000000000000000000000000000000000000000000a00000000000000000000000000000000000000000000000000000000000000000000000000000000000000000000000000000000000000000000000000000000000000000000000000000000000000000000000000000000000000000000001000000000000000000000000000000000000000000000000000000000000000002000000000000000000000000000000000000000000000000000000000000000f000000000000000000000000000000000000000000000000000000000000000f0000000000000000000000000000000000000000000000000000000000000000",
        "nonce": "0xe9",
        "chainId": "0xaa36a7"
      },
      "additionalContracts": [],
      "isFixedGasLimit": false
    }
  ],
  "receipts": [
    {
      "status": "0x1",
      "cumulativeGasUsed": "0xe2acfe",
      "logs": [
        {
          "address": "0x000000000022D473030F116dDEE9F6B43aC78BA3",
          "topics": [
            "0xda9fa7c1b00402c17d0161b249b1ab8bbec047c5a52207b9c112deffd817036b",
            "0x00000000000000000000000012395366299c28492682f7853424554df0b81b38",
            "0x00000000000000000000000029f2d40b0605204364af54ec677bd022da425d03",
            "0x0000000000000000000000000bf61f706105ea44694f2e92986bd01c39930280"
          ],
          "data": "0x000000000000000000000000ffffffffffffffffffffffffffffffffffffffff0000000000000000000000000000000000000000000000000000000067daf3b4",
          "blockHash": "0xb57fe2451c0708d14290c3ca85a33558701915118ad60b4e6c2716ccd33b7382",
          "blockNumber": "0x78fe1d",
          "blockTimestamp": "0x67d9a24c",
          "transactionHash": "0x14b02c2531ec1e14c87aa9b0e7ed0adc5198fdb91d342ab262724a0554249809",
          "transactionIndex": "0x71",
          "logIndex": "0x8b",
          "removed": false
        }
      ],
      "logsBloom": "0x00010000000000010000000000004000000000000004000000000000000000000000000000000000000000000000000000000000000000080000000000080000000000000000000000000000000000000000000000000000000000000000000000000000000000000000000000000000000000000000000000100000000000000020000000000000000000000000040000000000000000000000000000000000000000000000000000000000000000000000200000000000000000080000000000000000000000000000000000000000000000000000000040000000000000000000000000000000000000004000000000000000000000000000000002000400",
      "type": "0x2",
      "transactionHash": "0x14b02c2531ec1e14c87aa9b0e7ed0adc5198fdb91d342ab262724a0554249809",
      "transactionIndex": "0x71",
      "blockHash": "0xb57fe2451c0708d14290c3ca85a33558701915118ad60b4e6c2716ccd33b7382",
      "blockNumber": "0x78fe1d",
      "gasUsed": "0x77e6",
      "effectiveGasPrice": "0x6524f79",
      "from": "0x12395366299C28492682f7853424554df0b81B38",
      "to": "0x000000000022D473030F116dDEE9F6B43aC78BA3",
      "contractAddress": null
    },
    {
      "status": "0x1",
      "cumulativeGasUsed": "0xe324e4",
      "logs": [
        {
          "address": "0x000000000022D473030F116dDEE9F6B43aC78BA3",
          "topics": [
            "0xda9fa7c1b00402c17d0161b249b1ab8bbec047c5a52207b9c112deffd817036b",
            "0x00000000000000000000000012395366299c28492682f7853424554df0b81b38",
            "0x00000000000000000000000094a9d9ac8a22534e3faca9f4e7f2e2cf85d5e4c8",
            "0x0000000000000000000000000bf61f706105ea44694f2e92986bd01c39930280"
          ],
          "data": "0x000000000000000000000000ffffffffffffffffffffffffffffffffffffffff0000000000000000000000000000000000000000000000000000000067daf3b4",
          "blockHash": "0xb57fe2451c0708d14290c3ca85a33558701915118ad60b4e6c2716ccd33b7382",
          "blockNumber": "0x78fe1d",
          "blockTimestamp": "0x67d9a24c",
          "transactionHash": "0x98b2245ff3bfab78790f301535da80c542924830535797b48f9ff617aa760f0a",
          "transactionIndex": "0x72",
          "logIndex": "0x8c",
          "removed": false
        }
      ],
      "logsBloom": "0x00010000000000010200000000000000000000000004000000000000000000000000000000000000000100000000000000000000000000080000000000080000000000000000000000000000000000000000000000000000000000000000000000000000000000000000000000000000000000000000000000100000000000000020000000000000000000000000040000000000000000000000000000000000000000000000000000000000000000000000000000000000000000080000000000000000000000000000000000000000000000000000020040000000000000000000000000000000000000000000000000000000000000000000000002000400",
      "type": "0x2",
      "transactionHash": "0x98b2245ff3bfab78790f301535da80c542924830535797b48f9ff617aa760f0a",
      "transactionIndex": "0x72",
      "blockHash": "0xb57fe2451c0708d14290c3ca85a33558701915118ad60b4e6c2716ccd33b7382",
      "blockNumber": "0x78fe1d",
      "gasUsed": "0x77e6",
      "effectiveGasPrice": "0x6524f79",
      "from": "0x12395366299C28492682f7853424554df0b81B38",
      "to": "0x000000000022D473030F116dDEE9F6B43aC78BA3",
      "contractAddress": null
    },
    {
      "status": "0x1",
      "cumulativeGasUsed": "0xe38d0b",
      "logs": [
        {
          "address": "0x29f2D40B0605204364af54EC677bD022dA425d03",
          "topics": [
            "0x8c5be1e5ebec7d5bd14f71427d1e84f3dd0314c0f7b2291e5b200ac8c7c3b925",
            "0x00000000000000000000000012395366299c28492682f7853424554df0b81b38",
            "0x0000000000000000000000000bf61f706105ea44694f2e92986bd01c39930280"
          ],
          "data": "0xffffffffffffffffffffffffffffffffffffffffffffffffffffffffffffffff",
          "blockHash": "0xb57fe2451c0708d14290c3ca85a33558701915118ad60b4e6c2716ccd33b7382",
          "blockNumber": "0x78fe1d",
          "blockTimestamp": "0x67d9a24c",
          "transactionHash": "0x064fd0d4efe5cf99c055e75f53335c6963f68ae7e5b29b4678e27c7c02630a3b",
          "transactionIndex": "0x73",
          "logIndex": "0x8d",
          "removed": false
        }
      ],
      "logsBloom": "0x00000000000000010000000000000000000000000004400000000000000000000000000000000000000000000000000000000000000000080000000000200000000000000000000000000000004000000000000000000000000000000000000000000000000000000000000000000000000000000000000000100000000000000000000000000000000000000000040000000000000000000000000000000000020000000000000000000000000000000000000000000000000000000000000000000000000000000000000000000000000000200000000000000000000000000010000000000000000000000000000000000000000000000000000002000000",
      "type": "0x2",
      "transactionHash": "0x064fd0d4efe5cf99c055e75f53335c6963f68ae7e5b29b4678e27c7c02630a3b",
      "transactionIndex": "0x73",
      "blockHash": "0xb57fe2451c0708d14290c3ca85a33558701915118ad60b4e6c2716ccd33b7382",
      "blockNumber": "0x78fe1d",
      "gasUsed": "0x6827",
      "effectiveGasPrice": "0x6524f79",
      "from": "0x12395366299C28492682f7853424554df0b81B38",
      "to": "0x29f2D40B0605204364af54EC677bD022dA425d03",
      "contractAddress": null
    },
    {
      "status": "0x1",
      "cumulativeGasUsed": "0xe3f532",
      "logs": [
        {
          "address": "0x94a9D9AC8a22534E3FaCa9F4e7F2E2cf85d5E4C8",
          "topics": [
            "0x8c5be1e5ebec7d5bd14f71427d1e84f3dd0314c0f7b2291e5b200ac8c7c3b925",
            "0x00000000000000000000000012395366299c28492682f7853424554df0b81b38",
            "0x0000000000000000000000000bf61f706105ea44694f2e92986bd01c39930280"
          ],
          "data": "0xffffffffffffffffffffffffffffffffffffffffffffffffffffffffffffffff",
          "blockHash": "0xb57fe2451c0708d14290c3ca85a33558701915118ad60b4e6c2716ccd33b7382",
          "blockNumber": "0x78fe1d",
          "blockTimestamp": "0x67d9a24c",
          "transactionHash": "0xee40268b2dd45e38c5c1936ab3ec7819dd465a49c5670ee7d25bb79cd3fbf672",
          "transactionIndex": "0x74",
          "logIndex": "0x8e",
          "removed": false
        }
      ],
      "logsBloom": "0x00000000000000010000000000000000000000000004000000000000000000000000000000000000000000000000000000000000000000080000000000200000000000000000000000000000000000000000000000000000000008000000000000000000000000000000000000000000000000000000000000100000000000000000000000000000000000000000040000000000000000000000000000000000020000000100000000004000000000000000000000000000000000000000000000000000000000000000000000000000000000000000000000000000000000000010000000000000000000000000000000000000000000000000000002000000",
      "type": "0x2",
      "transactionHash": "0xee40268b2dd45e38c5c1936ab3ec7819dd465a49c5670ee7d25bb79cd3fbf672",
      "transactionIndex": "0x74",
      "blockHash": "0xb57fe2451c0708d14290c3ca85a33558701915118ad60b4e6c2716ccd33b7382",
      "blockNumber": "0x78fe1d",
      "gasUsed": "0x6827",
      "effectiveGasPrice": "0x6524f79",
      "from": "0x12395366299C28492682f7853424554df0b81B38",
      "to": "0x94a9D9AC8a22534E3FaCa9F4e7F2E2cf85d5E4C8",
      "contractAddress": null
    },
    {
      "status": "0x1",
      "cumulativeGasUsed": "0xe7953d",
      "logs": [
        {
          "address": "0xbA1333333333a1BA1108E8412f11850A5C319bA9",
          "topics": [
            "0xd1398bee19313d6bf672ccb116e51f4a1a947e91c757907f51fbb5b5e56c698f",
            "0x000000000000000000000000a3a6398f3b29b84a6657a1f4bce5c90f38462bf7",
            "0x0000000000000000000000000000000000000000000000000000000000000000",
            "0x00000000000000000000000012395366299c28492682f7853424554df0b81b38"
          ],
          "data": "0x0000000000000000000000000000000000000000000000000000015d3ef796af",
          "blockHash": "0xb57fe2451c0708d14290c3ca85a33558701915118ad60b4e6c2716ccd33b7382",
          "blockNumber": "0x78fe1d",
          "blockTimestamp": "0x67d9a24c",
          "transactionHash": "0x04a01c7d0c6c1def3909c24cb71edc32155203fb5cf37d2711d1b596fdbd4420",
          "transactionIndex": "0x75",
          "logIndex": "0x8f",
          "removed": false
        },
        {
          "address": "0xA3a6398f3B29b84a6657A1f4bcE5c90F38462bf7",
          "topics": [
            "0xddf252ad1be2c89b69c2b068fc378daa952ba7f163c4a11628f55a4df523b3ef",
            "0x0000000000000000000000000000000000000000000000000000000000000000",
            "0x00000000000000000000000012395366299c28492682f7853424554df0b81b38"
          ],
          "data": "0x0000000000000000000000000000000000000000000000000000015d3ef796af",
          "blockHash": "0xb57fe2451c0708d14290c3ca85a33558701915118ad60b4e6c2716ccd33b7382",
          "blockNumber": "0x78fe1d",
          "blockTimestamp": "0x67d9a24c",
          "transactionHash": "0x04a01c7d0c6c1def3909c24cb71edc32155203fb5cf37d2711d1b596fdbd4420",
          "transactionIndex": "0x75",
          "logIndex": "0x90",
          "removed": false
        },
        {
          "address": "0xbA1333333333a1BA1108E8412f11850A5C319bA9",
          "topics": [
            "0xa26a52d8d53702bba7f137907b8e1f99ff87f6d450144270ca25e72481cca871",
            "0x000000000000000000000000a3a6398f3b29b84a6657a1f4bce5c90f38462bf7",
            "0x00000000000000000000000012395366299c28492682f7853424554df0b81b38",
            "0x0000000000000000000000000000000000000000000000000000000000000001"
          ],
          "data": "0x000000000000000000000000000000000000000000000000000009bb49b2eec8000000000000000000000000000000000000000000000000000000000000006000000000000000000000000000000000000000000000000000000000000000c00000000000000000000000000000000000000000000000000000000000000002000000000000000000000000000000000000000000000000000000000000000f000000000000000000000000000000000000000000000000000000000000000f000000000000000000000000000000000000000000000000000000000000000200000000000000000000000000000000000000000000000000000000000000000000000000000000000000000000000000000000000000000000000000000000",
          "blockHash": "0xb57fe2451c0708d14290c3ca85a33558701915118ad60b4e6c2716ccd33b7382",
          "blockNumber": "0x78fe1d",
          "blockTimestamp": "0x67d9a24c",
          "transactionHash": "0x04a01c7d0c6c1def3909c24cb71edc32155203fb5cf37d2711d1b596fdbd4420",
          "transactionIndex": "0x75",
          "logIndex": "0x91",
          "removed": false
        },
        {
          "address": "0x29f2D40B0605204364af54EC677bD022dA425d03",
          "topics": [
            "0xddf252ad1be2c89b69c2b068fc378daa952ba7f163c4a11628f55a4df523b3ef",
            "0x00000000000000000000000012395366299c28492682f7853424554df0b81b38",
            "0x000000000000000000000000ba1333333333a1ba1108e8412f11850a5c319ba9"
          ],
          "data": "0x000000000000000000000000000000000000000000000000000000000000000f",
          "blockHash": "0xb57fe2451c0708d14290c3ca85a33558701915118ad60b4e6c2716ccd33b7382",
          "blockNumber": "0x78fe1d",
          "blockTimestamp": "0x67d9a24c",
          "transactionHash": "0x04a01c7d0c6c1def3909c24cb71edc32155203fb5cf37d2711d1b596fdbd4420",
          "transactionIndex": "0x75",
          "logIndex": "0x92",
          "removed": false
        },
        {
          "address": "0x29f2D40B0605204364af54EC677bD022dA425d03",
          "topics": [
            "0x8c5be1e5ebec7d5bd14f71427d1e84f3dd0314c0f7b2291e5b200ac8c7c3b925",
            "0x00000000000000000000000012395366299c28492682f7853424554df0b81b38",
            "0x000000000000000000000000000000000022d473030f116ddee9f6b43ac78ba3"
          ],
          "data": "0xffffffffffffffffffffffffffffffffffffffffffffffffffffffffffffff94",
          "blockHash": "0xb57fe2451c0708d14290c3ca85a33558701915118ad60b4e6c2716ccd33b7382",
          "blockNumber": "0x78fe1d",
          "blockTimestamp": "0x67d9a24c",
          "transactionHash": "0x04a01c7d0c6c1def3909c24cb71edc32155203fb5cf37d2711d1b596fdbd4420",
          "transactionIndex": "0x75",
          "logIndex": "0x93",
          "removed": false
        },
        {
          "address": "0x94a9D9AC8a22534E3FaCa9F4e7F2E2cf85d5E4C8",
          "topics": [
            "0xddf252ad1be2c89b69c2b068fc378daa952ba7f163c4a11628f55a4df523b3ef",
            "0x00000000000000000000000012395366299c28492682f7853424554df0b81b38",
            "0x000000000000000000000000ba1333333333a1ba1108e8412f11850a5c319ba9"
          ],
          "data": "0x000000000000000000000000000000000000000000000000000000000000000f",
          "blockHash": "0xb57fe2451c0708d14290c3ca85a33558701915118ad60b4e6c2716ccd33b7382",
          "blockNumber": "0x78fe1d",
          "blockTimestamp": "0x67d9a24c",
          "transactionHash": "0x04a01c7d0c6c1def3909c24cb71edc32155203fb5cf37d2711d1b596fdbd4420",
          "transactionIndex": "0x75",
          "logIndex": "0x94",
          "removed": false
        },
        {
          "address": "0x94a9D9AC8a22534E3FaCa9F4e7F2E2cf85d5E4C8",
          "topics": [
            "0x8c5be1e5ebec7d5bd14f71427d1e84f3dd0314c0f7b2291e5b200ac8c7c3b925",
            "0x00000000000000000000000012395366299c28492682f7853424554df0b81b38",
            "0x000000000000000000000000000000000022d473030f116ddee9f6b43ac78ba3"
          ],
          "data": "0xffffffffffffffffffffffffffffffffffffffffffffffffffffffffffffff94",
          "blockHash": "0xb57fe2451c0708d14290c3ca85a33558701915118ad60b4e6c2716ccd33b7382",
          "blockNumber": "0x78fe1d",
          "blockTimestamp": "0x67d9a24c",
          "transactionHash": "0x04a01c7d0c6c1def3909c24cb71edc32155203fb5cf37d2711d1b596fdbd4420",
          "transactionIndex": "0x75",
          "logIndex": "0x95",
          "removed": false
        }
      ],
      "logsBloom": "0x00000000000000010040000000000000000080000000400000004000002000000000000000000000000000000000000000000000800000000000000000240000802000000000000000004008104000000000000000040800000008000000000000000000020000000000000000000800000001000000000000100010000000000000000000000000000000000000040000000001000000000000010000080000020000800180000000044000000000000000000000000000000000000000000000000002000000000000000000000000000004200000000000000000800060080010000000000000002000000000000000000000000000000000000000000000",
      "type": "0x2",
      "transactionHash": "0x04a01c7d0c6c1def3909c24cb71edc32155203fb5cf37d2711d1b596fdbd4420",
      "transactionIndex": "0x75",
      "blockHash": "0xb57fe2451c0708d14290c3ca85a33558701915118ad60b4e6c2716ccd33b7382",
      "blockNumber": "0x78fe1d",
      "gasUsed": "0x3a00b",
      "effectiveGasPrice": "0x6524f79",
      "from": "0x12395366299C28492682f7853424554df0b81B38",
      "to": "0x0BF61f706105EA44694f2e92986bD01C39930280",
      "contractAddress": null
    }
  ],
  "libraries": [],
  "pending": [],
  "returns": {},
  "timestamp": 1742316110,
  "chain": 11155111,
  "commit": "c5d8f79"
}