{
  "transactions": [
    {
      "hash": "0xd2405d89367928d9bb4592e8ff74d65ca03d90c6ad0169c3d861e264e405d534",
      "transactionType": "CALL",
      "contractName": null,
      "contractAddress": "0x000000000022D473030F116dDEE9F6B43aC78BA3",
      "function": "approve(address,address,uint160,uint48)",
      "arguments": [
        "0x29f2D40B0605204364af54EC677bD022dA425d03",
        "0x0BF61f706105EA44694f2e92986bD01C39930280",
        "1461501637330902918203684832716283019655932542975",
        "1742402472"
      ],
      "transaction": {
        "from": "0x12395366299C28492682f7853424554df0b81B38",
        "to": "0x000000000022D473030F116dDEE9F6B43aC78BA3",
        "gas": "0xa59b",
        "value": "0x0",
        "input": "0x87517c4500000000000000000000000029f2d40b0605204364af54ec677bd022da425d030000000000000000000000000bf61f706105ea44694f2e92986bd01c39930280000000000000000000000000ffffffffffffffffffffffffffffffffffffffff0000000000000000000000000000000000000000000000000000000067daf3a8",
        "nonce": "0xe0",
        "chainId": "0xaa36a7"
      },
      "additionalContracts": [],
      "isFixedGasLimit": false
    },
    {
      "hash": "0x3d48004c7e1e6159e2b24cbe182902c8f2824c8b0bdd2e1ff440ef11d0ead21e",
      "transactionType": "CALL",
      "contractName": null,
      "contractAddress": "0x000000000022D473030F116dDEE9F6B43aC78BA3",
      "function": "approve(address,address,uint160,uint48)",
      "arguments": [
        "0x94a9D9AC8a22534E3FaCa9F4e7F2E2cf85d5E4C8",
        "0x0BF61f706105EA44694f2e92986bD01C39930280",
        "1461501637330902918203684832716283019655932542975",
        "1742402472"
      ],
      "transaction": {
        "from": "0x12395366299C28492682f7853424554df0b81B38",
        "to": "0x000000000022D473030F116dDEE9F6B43aC78BA3",
        "gas": "0xa59b",
        "value": "0x0",
        "input": "0x87517c4500000000000000000000000094a9d9ac8a22534e3faca9f4e7f2e2cf85d5e4c80000000000000000000000000bf61f706105ea44694f2e92986bd01c39930280000000000000000000000000ffffffffffffffffffffffffffffffffffffffff0000000000000000000000000000000000000000000000000000000067daf3a8",
        "nonce": "0xe1",
        "chainId": "0xaa36a7"
      },
      "additionalContracts": [],
      "isFixedGasLimit": false
    },
    {
      "hash": "0x7e462f121d99d2b141527ea3d459fcc4dfeb12785111ea4a5571fb5807d3e60e",
      "transactionType": "CALL",
      "contractName": null,
      "contractAddress": "0x29f2D40B0605204364af54EC677bD022dA425d03",
      "function": "approve(address,uint256)",
      "arguments": [
        "0x0BF61f706105EA44694f2e92986bD01C39930280",
        "115792089237316195423570985008687907853269984665640564039457584007913129639935"
      ],
      "transaction": {
        "from": "0x12395366299C28492682f7853424554df0b81B38",
        "to": "0x29f2D40B0605204364af54EC677bD022dA425d03",
        "gas": "0x8fdb",
        "value": "0x0",
        "input": "0x095ea7b30000000000000000000000000bf61f706105ea44694f2e92986bd01c39930280ffffffffffffffffffffffffffffffffffffffffffffffffffffffffffffffff",
        "nonce": "0xe2",
        "chainId": "0xaa36a7"
      },
      "additionalContracts": [],
      "isFixedGasLimit": false
    },
    {
      "hash": "0x886a69a68708c2fef17e91808f79f73ff2618f4c55cc2f08f15a24b3a1108186",
      "transactionType": "CALL",
      "contractName": null,
      "contractAddress": "0x94a9D9AC8a22534E3FaCa9F4e7F2E2cf85d5E4C8",
      "function": "approve(address,uint256)",
      "arguments": [
        "0x0BF61f706105EA44694f2e92986bD01C39930280",
        "115792089237316195423570985008687907853269984665640564039457584007913129639935"
      ],
      "transaction": {
        "from": "0x12395366299C28492682f7853424554df0b81B38",
        "to": "0x94a9D9AC8a22534E3FaCa9F4e7F2E2cf85d5E4C8",
        "gas": "0x8fdb",
        "value": "0x0",
        "input": "0x095ea7b30000000000000000000000000bf61f706105ea44694f2e92986bd01c39930280ffffffffffffffffffffffffffffffffffffffffffffffffffffffffffffffff",
        "nonce": "0xe3",
        "chainId": "0xaa36a7"
      },
      "additionalContracts": [],
      "isFixedGasLimit": false
    },
    {
      "hash": "0xa503a3cd72d615552e91c4b71a399940a44febe5ad56dd671eb8f4c730f31c27",
      "transactionType": "CALL",
      "contractName": null,
      "contractAddress": "0x0BF61f706105EA44694f2e92986bD01C39930280",
      "function": "addLiquidityUnbalanced(address,uint256[],uint256,bool,bytes)",
      "arguments": [
        "0xA3a6398f3B29b84a6657A1f4bcE5c90F38462bf7",
        "[15, 15]",
        "0",
        "false",
        "0x"
      ],
      "transaction": {
        "from": "0x12395366299C28492682f7853424554df0b81B38",
        "to": "0x0BF61f706105EA44694f2e92986bD01C39930280",
        "gas": "0x5019b",
        "value": "0x0",
        "input": "0xc08bc851000000000000000000000000a3a6398f3b29b84a6657a1f4bce5c90f38462bf700000000000000000000000000000000000000000000000000000000000000a00000000000000000000000000000000000000000000000000000000000000000000000000000000000000000000000000000000000000000000000000000000000000000000000000000000000000000000000000000000000000000000001000000000000000000000000000000000000000000000000000000000000000002000000000000000000000000000000000000000000000000000000000000000f000000000000000000000000000000000000000000000000000000000000000f0000000000000000000000000000000000000000000000000000000000000000",
        "nonce": "0xe4",
        "chainId": "0xaa36a7"
      },
      "additionalContracts": [],
      "isFixedGasLimit": false
    }
  ],
  "receipts": [
    {
      "status": "0x1",
      "cumulativeGasUsed": "0x95893e",
      "logs": [
        {
          "address": "0x000000000022D473030F116dDEE9F6B43aC78BA3",
          "topics": [
            "0xda9fa7c1b00402c17d0161b249b1ab8bbec047c5a52207b9c112deffd817036b",
            "0x00000000000000000000000012395366299c28492682f7853424554df0b81b38",
            "0x00000000000000000000000029f2d40b0605204364af54ec677bd022da425d03",
            "0x0000000000000000000000000bf61f706105ea44694f2e92986bd01c39930280"
          ],
          "data": "0x000000000000000000000000ffffffffffffffffffffffffffffffffffffffff0000000000000000000000000000000000000000000000000000000067daf3a8",
          "blockHash": "0x13b95eaa928f8d6a706aa6110a34d606d3f82251d9871bd78e255ca713c614f6",
          "blockNumber": "0x78fe1b",
          "blockTimestamp": "0x67d9a234",
          "transactionHash": "0xd2405d89367928d9bb4592e8ff74d65ca03d90c6ad0169c3d861e264e405d534",
          "transactionIndex": "0x82",
          "logIndex": "0x6f",
          "removed": false
        }
      ],
      "logsBloom": "0x00010000000000010000000000004000000000000004000000000000000000000000000000000000000000000000000000000000000000080000000000080000000000000000000000000000000000000000000000000000000000000000000000000000000000000000000000000000000000000000000000100000000000000020000000000000000000000000040000000000000000000000000000000000000000000000000000000000000000000000200000000000000000080000000000000000000000000000000000000000000000000000000040000000000000000000000000000000000000004000000000000000000000000000000002000400",
      "type": "0x2",
      "transactionHash": "0xd2405d89367928d9bb4592e8ff74d65ca03d90c6ad0169c3d861e264e405d534",
      "transactionIndex": "0x82",
      "blockHash": "0x13b95eaa928f8d6a706aa6110a34d606d3f82251d9871bd78e255ca713c614f6",
      "blockNumber": "0x78fe1b",
      "gasUsed": "0x77e6",
      "effectiveGasPrice": "0x6b5d063",
      "from": "0x12395366299C28492682f7853424554df0b81B38",
      "to": "0x000000000022D473030F116dDEE9F6B43aC78BA3",
      "contractAddress": null
    },
    {
      "status": "0x1",
      "cumulativeGasUsed": "0x960124",
      "logs": [
        {
          "address": "0x000000000022D473030F116dDEE9F6B43aC78BA3",
          "topics": [
            "0xda9fa7c1b00402c17d0161b249b1ab8bbec047c5a52207b9c112deffd817036b",
            "0x00000000000000000000000012395366299c28492682f7853424554df0b81b38",
            "0x00000000000000000000000094a9d9ac8a22534e3faca9f4e7f2e2cf85d5e4c8",
            "0x0000000000000000000000000bf61f706105ea44694f2e92986bd01c39930280"
          ],
          "data": "0x000000000000000000000000ffffffffffffffffffffffffffffffffffffffff0000000000000000000000000000000000000000000000000000000067daf3a8",
          "blockHash": "0x13b95eaa928f8d6a706aa6110a34d606d3f82251d9871bd78e255ca713c614f6",
          "blockNumber": "0x78fe1b",
          "blockTimestamp": "0x67d9a234",
          "transactionHash": "0x3d48004c7e1e6159e2b24cbe182902c8f2824c8b0bdd2e1ff440ef11d0ead21e",
          "transactionIndex": "0x83",
          "logIndex": "0x70",
          "removed": false
        }
      ],
      "logsBloom": "0x00010000000000010200000000000000000000000004000000000000000000000000000000000000000100000000000000000000000000080000000000080000000000000000000000000000000000000000000000000000000000000000000000000000000000000000000000000000000000000000000000100000000000000020000000000000000000000000040000000000000000000000000000000000000000000000000000000000000000000000000000000000000000080000000000000000000000000000000000000000000000000000020040000000000000000000000000000000000000000000000000000000000000000000000002000400",
      "type": "0x2",
      "transactionHash": "0x3d48004c7e1e6159e2b24cbe182902c8f2824c8b0bdd2e1ff440ef11d0ead21e",
      "transactionIndex": "0x83",
      "blockHash": "0x13b95eaa928f8d6a706aa6110a34d606d3f82251d9871bd78e255ca713c614f6",
      "blockNumber": "0x78fe1b",
      "gasUsed": "0x77e6",
      "effectiveGasPrice": "0x6b5d063",
      "from": "0x12395366299C28492682f7853424554df0b81B38",
      "to": "0x000000000022D473030F116dDEE9F6B43aC78BA3",
      "contractAddress": null
    },
    {
      "status": "0x1",
      "cumulativeGasUsed": "0x96694b",
      "logs": [
        {
          "address": "0x29f2D40B0605204364af54EC677bD022dA425d03",
          "topics": [
            "0x8c5be1e5ebec7d5bd14f71427d1e84f3dd0314c0f7b2291e5b200ac8c7c3b925",
            "0x00000000000000000000000012395366299c28492682f7853424554df0b81b38",
            "0x0000000000000000000000000bf61f706105ea44694f2e92986bd01c39930280"
          ],
          "data": "0xffffffffffffffffffffffffffffffffffffffffffffffffffffffffffffffff",
          "blockHash": "0x13b95eaa928f8d6a706aa6110a34d606d3f82251d9871bd78e255ca713c614f6",
          "blockNumber": "0x78fe1b",
          "blockTimestamp": "0x67d9a234",
          "transactionHash": "0x7e462f121d99d2b141527ea3d459fcc4dfeb12785111ea4a5571fb5807d3e60e",
          "transactionIndex": "0x84",
          "logIndex": "0x71",
          "removed": false
        }
      ],
      "logsBloom": "0x00000000000000010000000000000000000000000004400000000000000000000000000000000000000000000000000000000000000000080000000000200000000000000000000000000000004000000000000000000000000000000000000000000000000000000000000000000000000000000000000000100000000000000000000000000000000000000000040000000000000000000000000000000000020000000000000000000000000000000000000000000000000000000000000000000000000000000000000000000000000000200000000000000000000000000010000000000000000000000000000000000000000000000000000002000000",
      "type": "0x2",
      "transactionHash": "0x7e462f121d99d2b141527ea3d459fcc4dfeb12785111ea4a5571fb5807d3e60e",
      "transactionIndex": "0x84",
      "blockHash": "0x13b95eaa928f8d6a706aa6110a34d606d3f82251d9871bd78e255ca713c614f6",
      "blockNumber": "0x78fe1b",
      "gasUsed": "0x6827",
      "effectiveGasPrice": "0x6b5d063",
      "from": "0x12395366299C28492682f7853424554df0b81B38",
      "to": "0x29f2D40B0605204364af54EC677bD022dA425d03",
      "contractAddress": null
    },
    {
      "status": "0x1",
      "cumulativeGasUsed": "0x96d172",
      "logs": [
        {
          "address": "0x94a9D9AC8a22534E3FaCa9F4e7F2E2cf85d5E4C8",
          "topics": [
            "0x8c5be1e5ebec7d5bd14f71427d1e84f3dd0314c0f7b2291e5b200ac8c7c3b925",
            "0x00000000000000000000000012395366299c28492682f7853424554df0b81b38",
            "0x0000000000000000000000000bf61f706105ea44694f2e92986bd01c39930280"
          ],
          "data": "0xffffffffffffffffffffffffffffffffffffffffffffffffffffffffffffffff",
          "blockHash": "0x13b95eaa928f8d6a706aa6110a34d606d3f82251d9871bd78e255ca713c614f6",
          "blockNumber": "0x78fe1b",
          "blockTimestamp": "0x67d9a234",
          "transactionHash": "0x886a69a68708c2fef17e91808f79f73ff2618f4c55cc2f08f15a24b3a1108186",
          "transactionIndex": "0x85",
          "logIndex": "0x72",
          "removed": false
        }
      ],
      "logsBloom": "0x00000000000000010000000000000000000000000004000000000000000000000000000000000000000000000000000000000000000000080000000000200000000000000000000000000000000000000000000000000000000008000000000000000000000000000000000000000000000000000000000000100000000000000000000000000000000000000000040000000000000000000000000000000000020000000100000000004000000000000000000000000000000000000000000000000000000000000000000000000000000000000000000000000000000000000010000000000000000000000000000000000000000000000000000002000000",
      "type": "0x2",
      "transactionHash": "0x886a69a68708c2fef17e91808f79f73ff2618f4c55cc2f08f15a24b3a1108186",
      "transactionIndex": "0x85",
      "blockHash": "0x13b95eaa928f8d6a706aa6110a34d606d3f82251d9871bd78e255ca713c614f6",
      "blockNumber": "0x78fe1b",
      "gasUsed": "0x6827",
      "effectiveGasPrice": "0x6b5d063",
      "from": "0x12395366299C28492682f7853424554df0b81B38",
      "to": "0x94a9D9AC8a22534E3FaCa9F4e7F2E2cf85d5E4C8",
      "contractAddress": null
    },
    {
      "status": "0x1",
      "cumulativeGasUsed": "0x9a714f",
      "logs": [
        {
          "address": "0xbA1333333333a1BA1108E8412f11850A5C319bA9",
          "topics": [
            "0xd1398bee19313d6bf672ccb116e51f4a1a947e91c757907f51fbb5b5e56c698f",
            "0x000000000000000000000000a3a6398f3b29b84a6657a1f4bce5c90f38462bf7",
            "0x0000000000000000000000000000000000000000000000000000000000000000",
            "0x00000000000000000000000012395366299c28492682f7853424554df0b81b38"
          ],
          "data": "0x0000000000000000000000000000000000000000000000000000015d3ef796b0",
          "blockHash": "0x13b95eaa928f8d6a706aa6110a34d606d3f82251d9871bd78e255ca713c614f6",
          "blockNumber": "0x78fe1b",
          "blockTimestamp": "0x67d9a234",
          "transactionHash": "0xa503a3cd72d615552e91c4b71a399940a44febe5ad56dd671eb8f4c730f31c27",
          "transactionIndex": "0x86",
          "logIndex": "0x73",
          "removed": false
        },
        {
          "address": "0xA3a6398f3B29b84a6657A1f4bcE5c90F38462bf7",
          "topics": [
            "0xddf252ad1be2c89b69c2b068fc378daa952ba7f163c4a11628f55a4df523b3ef",
            "0x0000000000000000000000000000000000000000000000000000000000000000",
            "0x00000000000000000000000012395366299c28492682f7853424554df0b81b38"
          ],
          "data": "0x0000000000000000000000000000000000000000000000000000015d3ef796b0",
          "blockHash": "0x13b95eaa928f8d6a706aa6110a34d606d3f82251d9871bd78e255ca713c614f6",
          "blockNumber": "0x78fe1b",
          "blockTimestamp": "0x67d9a234",
          "transactionHash": "0xa503a3cd72d615552e91c4b71a399940a44febe5ad56dd671eb8f4c730f31c27",
          "transactionIndex": "0x86",
          "logIndex": "0x74",
          "removed": false
        },
        {
          "address": "0xbA1333333333a1BA1108E8412f11850A5C319bA9",
          "topics": [
            "0xa26a52d8d53702bba7f137907b8e1f99ff87f6d450144270ca25e72481cca871",
            "0x000000000000000000000000a3a6398f3b29b84a6657a1f4bce5c90f38462bf7",
            "0x00000000000000000000000012395366299c28492682f7853424554df0b81b38",
            "0x0000000000000000000000000000000000000000000000000000000000000001"
          ],
          "data": "0x0000000000000000000000000000000000000000000000000000085e0abb5819000000000000000000000000000000000000000000000000000000000000006000000000000000000000000000000000000000000000000000000000000000c00000000000000000000000000000000000000000000000000000000000000002000000000000000000000000000000000000000000000000000000000000000f000000000000000000000000000000000000000000000000000000000000000f000000000000000000000000000000000000000000000000000000000000000200000000000000000000000000000000000000000000000000000000000000000000000000000000000000000000000000000000000000000000000000000000",
          "blockHash": "0x13b95eaa928f8d6a706aa6110a34d606d3f82251d9871bd78e255ca713c614f6",
          "blockNumber": "0x78fe1b",
          "blockTimestamp": "0x67d9a234",
          "transactionHash": "0xa503a3cd72d615552e91c4b71a399940a44febe5ad56dd671eb8f4c730f31c27",
          "transactionIndex": "0x86",
          "logIndex": "0x75",
          "removed": false
        },
        {
          "address": "0x29f2D40B0605204364af54EC677bD022dA425d03",
          "topics": [
            "0xddf252ad1be2c89b69c2b068fc378daa952ba7f163c4a11628f55a4df523b3ef",
            "0x00000000000000000000000012395366299c28492682f7853424554df0b81b38",
            "0x000000000000000000000000ba1333333333a1ba1108e8412f11850a5c319ba9"
          ],
          "data": "0x000000000000000000000000000000000000000000000000000000000000000f",
          "blockHash": "0x13b95eaa928f8d6a706aa6110a34d606d3f82251d9871bd78e255ca713c614f6",
          "blockNumber": "0x78fe1b",
          "blockTimestamp": "0x67d9a234",
          "transactionHash": "0xa503a3cd72d615552e91c4b71a399940a44febe5ad56dd671eb8f4c730f31c27",
          "transactionIndex": "0x86",
          "logIndex": "0x76",
          "removed": false
        },
        {
          "address": "0x29f2D40B0605204364af54EC677bD022dA425d03",
          "topics": [
            "0x8c5be1e5ebec7d5bd14f71427d1e84f3dd0314c0f7b2291e5b200ac8c7c3b925",
            "0x00000000000000000000000012395366299c28492682f7853424554df0b81b38",
            "0x000000000000000000000000000000000022d473030f116ddee9f6b43ac78ba3"
          ],
          "data": "0xffffffffffffffffffffffffffffffffffffffffffffffffffffffffffffffa3",
          "blockHash": "0x13b95eaa928f8d6a706aa6110a34d606d3f82251d9871bd78e255ca713c614f6",
          "blockNumber": "0x78fe1b",
          "blockTimestamp": "0x67d9a234",
          "transactionHash": "0xa503a3cd72d615552e91c4b71a399940a44febe5ad56dd671eb8f4c730f31c27",
          "transactionIndex": "0x86",
          "logIndex": "0x77",
          "removed": false
        },
        {
          "address": "0x94a9D9AC8a22534E3FaCa9F4e7F2E2cf85d5E4C8",
          "topics": [
            "0xddf252ad1be2c89b69c2b068fc378daa952ba7f163c4a11628f55a4df523b3ef",
            "0x00000000000000000000000012395366299c28492682f7853424554df0b81b38",
            "0x000000000000000000000000ba1333333333a1ba1108e8412f11850a5c319ba9"
          ],
          "data": "0x000000000000000000000000000000000000000000000000000000000000000f",
          "blockHash": "0x13b95eaa928f8d6a706aa6110a34d606d3f82251d9871bd78e255ca713c614f6",
          "blockNumber": "0x78fe1b",
          "blockTimestamp": "0x67d9a234",
          "transactionHash": "0xa503a3cd72d615552e91c4b71a399940a44febe5ad56dd671eb8f4c730f31c27",
          "transactionIndex": "0x86",
          "logIndex": "0x78",
          "removed": false
        },
        {
          "address": "0x94a9D9AC8a22534E3FaCa9F4e7F2E2cf85d5E4C8",
          "topics": [
            "0x8c5be1e5ebec7d5bd14f71427d1e84f3dd0314c0f7b2291e5b200ac8c7c3b925",
            "0x00000000000000000000000012395366299c28492682f7853424554df0b81b38",
            "0x000000000000000000000000000000000022d473030f116ddee9f6b43ac78ba3"
          ],
          "data": "0xffffffffffffffffffffffffffffffffffffffffffffffffffffffffffffffa3",
          "blockHash": "0x13b95eaa928f8d6a706aa6110a34d606d3f82251d9871bd78e255ca713c614f6",
          "blockNumber": "0x78fe1b",
          "blockTimestamp": "0x67d9a234",
          "transactionHash": "0xa503a3cd72d615552e91c4b71a399940a44febe5ad56dd671eb8f4c730f31c27",
          "transactionIndex": "0x86",
          "logIndex": "0x79",
          "removed": false
        }
      ],
      "logsBloom": "0x00000000000000010040000000000000000080000000400000004000002000000000000000000000000000000000000000000000800000000000000000240000802000000000000000004008104000000000000000040800000008000000000000000000020000000000000000000800000001000000000000100010000000000000000000000000000000000000040000000001000000000000010000080000020000800180000000044000000000000000000000000000000000000000000000000002000000000000000000000000000004200000000000000000800060080010000000000000002000000000000000000000000000000000000000000000",
      "type": "0x2",
      "transactionHash": "0xa503a3cd72d615552e91c4b71a399940a44febe5ad56dd671eb8f4c730f31c27",
      "transactionIndex": "0x86",
      "blockHash": "0x13b95eaa928f8d6a706aa6110a34d606d3f82251d9871bd78e255ca713c614f6",
      "blockNumber": "0x78fe1b",
      "gasUsed": "0x39fdd",
      "effectiveGasPrice": "0x6b5d063",
      "from": "0x12395366299C28492682f7853424554df0b81B38",
      "to": "0x0BF61f706105EA44694f2e92986bD01C39930280",
      "contractAddress": null
    }
  ],
  "libraries": [],
  "pending": [],
  "returns": {},
  "timestamp": 1742316089,
  "chain": 11155111,
  "commit": "c5d8f79"
}