{
  "transactions": [
    {
      "hash": "0x0cc9c79a6e401655850facaa62de181b1ad5d8914c487ce9c5d3428b5a503fef",
      "transactionType": "CALL",
      "contractName": null,
      "contractAddress": "0x000000000022D473030F116dDEE9F6B43aC78BA3",
      "function": "approve(address,address,uint160,uint48)",
      "arguments": [
        "0x29f2D40B0605204364af54EC677bD022dA425d03",
        "0x0BF61f706105EA44694f2e92986bD01C39930280",
        "1461501637330902918203684832716283019655932542975",
        "1742401752"
      ],
      "transaction": {
        "from": "0x12395366299C28492682f7853424554df0b81B38",
        "to": "0x000000000022D473030F116dDEE9F6B43aC78BA3",
        "gas": "0xa59b",
        "value": "0x0",
        "input": "0x87517c4500000000000000000000000029f2d40b0605204364af54ec677bd022da425d030000000000000000000000000bf61f706105ea44694f2e92986bd01c39930280000000000000000000000000ffffffffffffffffffffffffffffffffffffffff0000000000000000000000000000000000000000000000000000000067daf0d8",
        "nonce": "0xae",
        "chainId": "0xaa36a7"
      },
      "additionalContracts": [],
      "isFixedGasLimit": false
    },
    {
      "hash": "0xf47065cca081c246ea454e09dfa158b584fa74511d296f3e732f15ba4bbf7103",
      "transactionType": "CALL",
      "contractName": null,
      "contractAddress": "0x000000000022D473030F116dDEE9F6B43aC78BA3",
      "function": "approve(address,address,uint160,uint48)",
      "arguments": [
        "0x94a9D9AC8a22534E3FaCa9F4e7F2E2cf85d5E4C8",
        "0x0BF61f706105EA44694f2e92986bD01C39930280",
        "1461501637330902918203684832716283019655932542975",
        "1742401752"
      ],
      "transaction": {
        "from": "0x12395366299C28492682f7853424554df0b81B38",
        "to": "0x000000000022D473030F116dDEE9F6B43aC78BA3",
        "gas": "0xa59b",
        "value": "0x0",
        "input": "0x87517c4500000000000000000000000094a9d9ac8a22534e3faca9f4e7f2e2cf85d5e4c80000000000000000000000000bf61f706105ea44694f2e92986bd01c39930280000000000000000000000000ffffffffffffffffffffffffffffffffffffffff0000000000000000000000000000000000000000000000000000000067daf0d8",
        "nonce": "0xaf",
        "chainId": "0xaa36a7"
      },
      "additionalContracts": [],
      "isFixedGasLimit": false
    },
    {
      "hash": "0xd7d62a0c38b3791b765069f1d5c16fdec9f608c32b59e57002bdf64db645238d",
      "transactionType": "CALL",
      "contractName": null,
      "contractAddress": "0x29f2D40B0605204364af54EC677bD022dA425d03",
      "function": "approve(address,uint256)",
      "arguments": [
        "0x0BF61f706105EA44694f2e92986bD01C39930280",
        "115792089237316195423570985008687907853269984665640564039457584007913129639935"
      ],
      "transaction": {
        "from": "0x12395366299C28492682f7853424554df0b81B38",
        "to": "0x29f2D40B0605204364af54EC677bD022dA425d03",
        "gas": "0x8fdb",
        "value": "0x0",
        "input": "0x095ea7b30000000000000000000000000bf61f706105ea44694f2e92986bd01c39930280ffffffffffffffffffffffffffffffffffffffffffffffffffffffffffffffff",
        "nonce": "0xb0",
        "chainId": "0xaa36a7"
      },
      "additionalContracts": [],
      "isFixedGasLimit": false
    },
    {
      "hash": "0x54ad75767b4a89c8ce521619a93f82f0a7f92f155f2d5386cdf17ed430981b60",
      "transactionType": "CALL",
      "contractName": null,
      "contractAddress": "0x94a9D9AC8a22534E3FaCa9F4e7F2E2cf85d5E4C8",
      "function": "approve(address,uint256)",
      "arguments": [
        "0x0BF61f706105EA44694f2e92986bD01C39930280",
        "115792089237316195423570985008687907853269984665640564039457584007913129639935"
      ],
      "transaction": {
        "from": "0x12395366299C28492682f7853424554df0b81B38",
        "to": "0x94a9D9AC8a22534E3FaCa9F4e7F2E2cf85d5E4C8",
        "gas": "0x8fdb",
        "value": "0x0",
        "input": "0x095ea7b30000000000000000000000000bf61f706105ea44694f2e92986bd01c39930280ffffffffffffffffffffffffffffffffffffffffffffffffffffffffffffffff",
        "nonce": "0xb1",
        "chainId": "0xaa36a7"
      },
      "additionalContracts": [],
      "isFixedGasLimit": false
    },
    {
      "hash": "0x2eb970f27fe68438cf56addf67c594ebdb85fde99d185495bbb5dee9b1627dfa",
      "transactionType": "CALL",
      "contractName": null,
      "contractAddress": "0x0BF61f706105EA44694f2e92986bD01C39930280",
      "function": "addLiquidityUnbalanced(address,uint256[],uint256,bool,bytes)",
      "arguments": [
        "0xA3a6398f3B29b84a6657A1f4bcE5c90F38462bf7",
        "[3, 3]",
        "0",
        "false",
        "0x"
      ],
      "transaction": {
        "from": "0x12395366299C28492682f7853424554df0b81B38",
        "to": "0x0BF61f706105EA44694f2e92986bD01C39930280",
        "gas": "0x50381",
        "value": "0x0",
        "input": "0xc08bc851000000000000000000000000a3a6398f3b29b84a6657a1f4bce5c90f38462bf700000000000000000000000000000000000000000000000000000000000000a00000000000000000000000000000000000000000000000000000000000000000000000000000000000000000000000000000000000000000000000000000000000000000000000000000000000000000000000000000000000000000000001000000000000000000000000000000000000000000000000000000000000000002000000000000000000000000000000000000000000000000000000000000000300000000000000000000000000000000000000000000000000000000000000030000000000000000000000000000000000000000000000000000000000000000",
        "nonce": "0xb2",
        "chainId": "0xaa36a7"
      },
      "additionalContracts": [],
      "isFixedGasLimit": false
    }
  ],
  "receipts": [
    {
      "status": "0x1",
      "cumulativeGasUsed": "0x10620f6",
      "logs": [
        {
          "address": "0x000000000022D473030F116dDEE9F6B43aC78BA3",
          "topics": [
            "0xda9fa7c1b00402c17d0161b249b1ab8bbec047c5a52207b9c112deffd817036b",
            "0x00000000000000000000000012395366299c28492682f7853424554df0b81b38",
            "0x00000000000000000000000029f2d40b0605204364af54ec677bd022da425d03",
            "0x0000000000000000000000000bf61f706105ea44694f2e92986bd01c39930280"
          ],
          "data": "0x000000000000000000000000ffffffffffffffffffffffffffffffffffffffff0000000000000000000000000000000000000000000000000000000067daf0d8",
          "blockHash": "0x569249cc607be2bee88c1765ef84a4266305fc5b01c01dd5c69454415a8c9490",
          "blockNumber": "0x78fddf",
          "blockTimestamp": "0x67d99f64",
          "transactionHash": "0x0cc9c79a6e401655850facaa62de181b1ad5d8914c487ce9c5d3428b5a503fef",
          "transactionIndex": "0xee",
          "logIndex": "0x116",
          "removed": false
        }
      ],
      "logsBloom": "0x00010000000000010000000000004000000000000004000000000000000000000000000000000000000000000000000000000000000000080000000000080000000000000000000000000000000000000000000000000000000000000000000000000000000000000000000000000000000000000000000000100000000000000020000000000000000000000000040000000000000000000000000000000000000000000000000000000000000000000000200000000000000000080000000000000000000000000000000000000000000000000000000040000000000000000000000000000000000000004000000000000000000000000000000002000400",
      "type": "0x2",
      "transactionHash": "0x0cc9c79a6e401655850facaa62de181b1ad5d8914c487ce9c5d3428b5a503fef",
      "transactionIndex": "0xee",
      "blockHash": "0x569249cc607be2bee88c1765ef84a4266305fc5b01c01dd5c69454415a8c9490",
      "blockNumber": "0x78fddf",
      "gasUsed": "0x77e6",
      "effectiveGasPrice": "0x16ad0759",
      "from": "0x12395366299C28492682f7853424554df0b81B38",
      "to": "0x000000000022D473030F116dDEE9F6B43aC78BA3",
      "contractAddress": null
    },
    {
      "status": "0x1",
      "cumulativeGasUsed": "0x10698dc",
      "logs": [
        {
          "address": "0x000000000022D473030F116dDEE9F6B43aC78BA3",
          "topics": [
            "0xda9fa7c1b00402c17d0161b249b1ab8bbec047c5a52207b9c112deffd817036b",
            "0x00000000000000000000000012395366299c28492682f7853424554df0b81b38",
            "0x00000000000000000000000094a9d9ac8a22534e3faca9f4e7f2e2cf85d5e4c8",
            "0x0000000000000000000000000bf61f706105ea44694f2e92986bd01c39930280"
          ],
          "data": "0x000000000000000000000000ffffffffffffffffffffffffffffffffffffffff0000000000000000000000000000000000000000000000000000000067daf0d8",
          "blockHash": "0x569249cc607be2bee88c1765ef84a4266305fc5b01c01dd5c69454415a8c9490",
          "blockNumber": "0x78fddf",
          "blockTimestamp": "0x67d99f64",
          "transactionHash": "0xf47065cca081c246ea454e09dfa158b584fa74511d296f3e732f15ba4bbf7103",
          "transactionIndex": "0xef",
          "logIndex": "0x117",
          "removed": false
        }
      ],
      "logsBloom": "0x00010000000000010200000000000000000000000004000000000000000000000000000000000000000100000000000000000000000000080000000000080000000000000000000000000000000000000000000000000000000000000000000000000000000000000000000000000000000000000000000000100000000000000020000000000000000000000000040000000000000000000000000000000000000000000000000000000000000000000000000000000000000000080000000000000000000000000000000000000000000000000000020040000000000000000000000000000000000000000000000000000000000000000000000002000400",
      "type": "0x2",
      "transactionHash": "0xf47065cca081c246ea454e09dfa158b584fa74511d296f3e732f15ba4bbf7103",
      "transactionIndex": "0xef",
      "blockHash": "0x569249cc607be2bee88c1765ef84a4266305fc5b01c01dd5c69454415a8c9490",
      "blockNumber": "0x78fddf",
      "gasUsed": "0x77e6",
      "effectiveGasPrice": "0x16ad0759",
      "from": "0x12395366299C28492682f7853424554df0b81B38",
      "to": "0x000000000022D473030F116dDEE9F6B43aC78BA3",
      "contractAddress": null
    },
    {
      "status": "0x1",
      "cumulativeGasUsed": "0x1070103",
      "logs": [
        {
          "address": "0x29f2D40B0605204364af54EC677bD022dA425d03",
          "topics": [
            "0x8c5be1e5ebec7d5bd14f71427d1e84f3dd0314c0f7b2291e5b200ac8c7c3b925",
            "0x00000000000000000000000012395366299c28492682f7853424554df0b81b38",
            "0x0000000000000000000000000bf61f706105ea44694f2e92986bd01c39930280"
          ],
          "data": "0xffffffffffffffffffffffffffffffffffffffffffffffffffffffffffffffff",
          "blockHash": "0x569249cc607be2bee88c1765ef84a4266305fc5b01c01dd5c69454415a8c9490",
          "blockNumber": "0x78fddf",
          "blockTimestamp": "0x67d99f64",
          "transactionHash": "0xd7d62a0c38b3791b765069f1d5c16fdec9f608c32b59e57002bdf64db645238d",
          "transactionIndex": "0xf0",
          "logIndex": "0x118",
          "removed": false
        }
      ],
      "logsBloom": "0x00000000000000010000000000000000000000000004400000000000000000000000000000000000000000000000000000000000000000080000000000200000000000000000000000000000004000000000000000000000000000000000000000000000000000000000000000000000000000000000000000100000000000000000000000000000000000000000040000000000000000000000000000000000020000000000000000000000000000000000000000000000000000000000000000000000000000000000000000000000000000200000000000000000000000000010000000000000000000000000000000000000000000000000000002000000",
      "type": "0x2",
      "transactionHash": "0xd7d62a0c38b3791b765069f1d5c16fdec9f608c32b59e57002bdf64db645238d",
      "transactionIndex": "0xf0",
      "blockHash": "0x569249cc607be2bee88c1765ef84a4266305fc5b01c01dd5c69454415a8c9490",
      "blockNumber": "0x78fddf",
      "gasUsed": "0x6827",
      "effectiveGasPrice": "0x16ad0759",
      "from": "0x12395366299C28492682f7853424554df0b81B38",
      "to": "0x29f2D40B0605204364af54EC677bD022dA425d03",
      "contractAddress": null
    },
    {
      "status": "0x1",
      "cumulativeGasUsed": "0x107692a",
      "logs": [
        {
          "address": "0x94a9D9AC8a22534E3FaCa9F4e7F2E2cf85d5E4C8",
          "topics": [
            "0x8c5be1e5ebec7d5bd14f71427d1e84f3dd0314c0f7b2291e5b200ac8c7c3b925",
            "0x00000000000000000000000012395366299c28492682f7853424554df0b81b38",
            "0x0000000000000000000000000bf61f706105ea44694f2e92986bd01c39930280"
          ],
          "data": "0xffffffffffffffffffffffffffffffffffffffffffffffffffffffffffffffff",
          "blockHash": "0x569249cc607be2bee88c1765ef84a4266305fc5b01c01dd5c69454415a8c9490",
          "blockNumber": "0x78fddf",
          "blockTimestamp": "0x67d99f64",
          "transactionHash": "0x54ad75767b4a89c8ce521619a93f82f0a7f92f155f2d5386cdf17ed430981b60",
          "transactionIndex": "0xf1",
          "logIndex": "0x119",
          "removed": false
        }
      ],
      "logsBloom": "0x00000000000000010000000000000000000000000004000000000000000000000000000000000000000000000000000000000000000000080000000000200000000000000000000000000000000000000000000000000000000008000000000000000000000000000000000000000000000000000000000000100000000000000000000000000000000000000000040000000000000000000000000000000000020000000100000000004000000000000000000000000000000000000000000000000000000000000000000000000000000000000000000000000000000000000010000000000000000000000000000000000000000000000000000002000000",
      "type": "0x2",
      "transactionHash": "0x54ad75767b4a89c8ce521619a93f82f0a7f92f155f2d5386cdf17ed430981b60",
      "transactionIndex": "0xf1",
      "blockHash": "0x569249cc607be2bee88c1765ef84a4266305fc5b01c01dd5c69454415a8c9490",
      "blockNumber": "0x78fddf",
      "gasUsed": "0x6827",
      "effectiveGasPrice": "0x16ad0759",
      "from": "0x12395366299C28492682f7853424554df0b81B38",
      "to": "0x94a9D9AC8a22534E3FaCa9F4e7F2E2cf85d5E4C8",
      "contractAddress": null
    },
    {
      "status": "0x1",
      "cumulativeGasUsed": "0x10b0a67",
      "logs": [
        {
          "address": "0xbA1333333333a1BA1108E8412f11850A5C319bA9",
          "topics": [
            "0xd1398bee19313d6bf672ccb116e51f4a1a947e91c757907f51fbb5b5e56c698f",
            "0x000000000000000000000000a3a6398f3b29b84a6657a1f4bce5c90f38462bf7",
            "0x0000000000000000000000000000000000000000000000000000000000000000",
            "0x00000000000000000000000012395366299c28492682f7853424554df0b81b38"
          ],
          "data": "0x00000000000000000000000000000000000000000000000000000045d964b7bc",
          "blockHash": "0x569249cc607be2bee88c1765ef84a4266305fc5b01c01dd5c69454415a8c9490",
          "blockNumber": "0x78fddf",
          "blockTimestamp": "0x67d99f64",
          "transactionHash": "0x2eb970f27fe68438cf56addf67c594ebdb85fde99d185495bbb5dee9b1627dfa",
          "transactionIndex": "0xf2",
          "logIndex": "0x11a",
          "removed": false
        },
        {
          "address": "0xA3a6398f3B29b84a6657A1f4bcE5c90F38462bf7",
          "topics": [
            "0xddf252ad1be2c89b69c2b068fc378daa952ba7f163c4a11628f55a4df523b3ef",
            "0x0000000000000000000000000000000000000000000000000000000000000000",
            "0x00000000000000000000000012395366299c28492682f7853424554df0b81b38"
          ],
          "data": "0x00000000000000000000000000000000000000000000000000000045d964b7bc",
          "blockHash": "0x569249cc607be2bee88c1765ef84a4266305fc5b01c01dd5c69454415a8c9490",
          "blockNumber": "0x78fddf",
          "blockTimestamp": "0x67d99f64",
          "transactionHash": "0x2eb970f27fe68438cf56addf67c594ebdb85fde99d185495bbb5dee9b1627dfa",
          "transactionIndex": "0xf2",
          "logIndex": "0x11b",
          "removed": false
        },
        {
          "address": "0xbA1333333333a1BA1108E8412f11850A5C319bA9",
          "topics": [
            "0xa26a52d8d53702bba7f137907b8e1f99ff87f6d450144270ca25e72481cca871",
            "0x000000000000000000000000a3a6398f3b29b84a6657a1f4bce5c90f38462bf7",
            "0x00000000000000000000000012395366299c28492682f7853424554df0b81b38",
            "0x0000000000000000000000000000000000000000000000000000000000000001"
          ],
          "data": "0x00000000000000000000000000000000000000000000000000000246139ca604000000000000000000000000000000000000000000000000000000000000006000000000000000000000000000000000000000000000000000000000000000c0000000000000000000000000000000000000000000000000000000000000000200000000000000000000000000000000000000000000000000000000000000030000000000000000000000000000000000000000000000000000000000000003000000000000000000000000000000000000000000000000000000000000000200000000000000000000000000000000000000000000000000000000000000000000000000000000000000000000000000000000000000000000000000000000",
          "blockHash": "0x569249cc607be2bee88c1765ef84a4266305fc5b01c01dd5c69454415a8c9490",
          "blockNumber": "0x78fddf",
          "blockTimestamp": "0x67d99f64",
          "transactionHash": "0x2eb970f27fe68438cf56addf67c594ebdb85fde99d185495bbb5dee9b1627dfa",
          "transactionIndex": "0xf2",
          "logIndex": "0x11c",
          "removed": false
        },
        {
          "address": "0x29f2D40B0605204364af54EC677bD022dA425d03",
          "topics": [
            "0xddf252ad1be2c89b69c2b068fc378daa952ba7f163c4a11628f55a4df523b3ef",
            "0x00000000000000000000000012395366299c28492682f7853424554df0b81b38",
            "0x000000000000000000000000ba1333333333a1ba1108e8412f11850a5c319ba9"
          ],
          "data": "0x0000000000000000000000000000000000000000000000000000000000000003",
          "blockHash": "0x569249cc607be2bee88c1765ef84a4266305fc5b01c01dd5c69454415a8c9490",
          "blockNumber": "0x78fddf",
          "blockTimestamp": "0x67d99f64",
          "transactionHash": "0x2eb970f27fe68438cf56addf67c594ebdb85fde99d185495bbb5dee9b1627dfa",
          "transactionIndex": "0xf2",
          "logIndex": "0x11d",
          "removed": false
        },
        {
          "address": "0x29f2D40B0605204364af54EC677bD022dA425d03",
          "topics": [
            "0x8c5be1e5ebec7d5bd14f71427d1e84f3dd0314c0f7b2291e5b200ac8c7c3b925",
            "0x00000000000000000000000012395366299c28492682f7853424554df0b81b38",
            "0x000000000000000000000000000000000022d473030f116ddee9f6b43ac78ba3"
          ],
          "data": "0xffffffffffffffffffffffffffffffffffffffffffffffffffffffffffffffe6",
          "blockHash": "0x569249cc607be2bee88c1765ef84a4266305fc5b01c01dd5c69454415a8c9490",
          "blockNumber": "0x78fddf",
          "blockTimestamp": "0x67d99f64",
          "transactionHash": "0x2eb970f27fe68438cf56addf67c594ebdb85fde99d185495bbb5dee9b1627dfa",
          "transactionIndex": "0xf2",
          "logIndex": "0x11e",
          "removed": false
        },
        {
          "address": "0x94a9D9AC8a22534E3FaCa9F4e7F2E2cf85d5E4C8",
          "topics": [
            "0xddf252ad1be2c89b69c2b068fc378daa952ba7f163c4a11628f55a4df523b3ef",
            "0x00000000000000000000000012395366299c28492682f7853424554df0b81b38",
            "0x000000000000000000000000ba1333333333a1ba1108e8412f11850a5c319ba9"
          ],
          "data": "0x0000000000000000000000000000000000000000000000000000000000000003",
          "blockHash": "0x569249cc607be2bee88c1765ef84a4266305fc5b01c01dd5c69454415a8c9490",
          "blockNumber": "0x78fddf",
          "blockTimestamp": "0x67d99f64",
          "transactionHash": "0x2eb970f27fe68438cf56addf67c594ebdb85fde99d185495bbb5dee9b1627dfa",
          "transactionIndex": "0xf2",
          "logIndex": "0x11f",
          "removed": false
        },
        {
          "address": "0x94a9D9AC8a22534E3FaCa9F4e7F2E2cf85d5E4C8",
          "topics": [
            "0x8c5be1e5ebec7d5bd14f71427d1e84f3dd0314c0f7b2291e5b200ac8c7c3b925",
            "0x00000000000000000000000012395366299c28492682f7853424554df0b81b38",
            "0x000000000000000000000000000000000022d473030f116ddee9f6b43ac78ba3"
          ],
          "data": "0xffffffffffffffffffffffffffffffffffffffffffffffffffffffffffffffe6",
          "blockHash": "0x569249cc607be2bee88c1765ef84a4266305fc5b01c01dd5c69454415a8c9490",
          "blockNumber": "0x78fddf",
          "blockTimestamp": "0x67d99f64",
          "transactionHash": "0x2eb970f27fe68438cf56addf67c594ebdb85fde99d185495bbb5dee9b1627dfa",
          "transactionIndex": "0xf2",
          "logIndex": "0x120",
          "removed": false
        }
      ],
      "logsBloom": "0x00000000000000010040000000000000000080000000400000004000002000000000000000000000000000000000000000000000800000000000000000240000802000000000000000004008104000000000000000040800000008000000000000000000020000000000000000000800000001000000000000100010000000000000000000000000000000000000040000000001000000000000010000080000020000800180000000044000000000000000000000000000000000000000000000000002000000000000000000000000000004200000000000000000800060080010000000000000002000000000000000000000000000000000000000000000",
      "type": "0x2",
      "transactionHash": "0x2eb970f27fe68438cf56addf67c594ebdb85fde99d185495bbb5dee9b1627dfa",
      "transactionIndex": "0xf2",
      "blockHash": "0x569249cc607be2bee88c1765ef84a4266305fc5b01c01dd5c69454415a8c9490",
      "blockNumber": "0x78fddf",
      "gasUsed": "0x3a13d",
      "effectiveGasPrice": "0x16ad0759",
      "from": "0x12395366299C28492682f7853424554df0b81B38",
      "to": "0x0BF61f706105EA44694f2e92986bD01C39930280",
      "contractAddress": null
    }
  ],
  "libraries": [],
  "pending": [],
  "returns": {},
  "timestamp": 1742315369,
  "chain": 11155111,
  "commit": "c5d8f79"
}