{
  "transactions": [
    {
      "hash": "0xcf391b4e72c46cd93831042f183d333f4742fe8e0c5bee5910073845fec02a0f",
      "transactionType": "CALL",
      "contractName": null,
      "contractAddress": "0x000000000022D473030F116dDEE9F6B43aC78BA3",
      "function": "approve(address,address,uint160,uint48)",
      "arguments": [
        "0x29f2D40B0605204364af54EC677bD022dA425d03",
        "0x0BF61f706105EA44694f2e92986bD01C39930280",
        "1461501637330902918203684832716283019655932542975",
        "1742401272"
      ],
      "transaction": {
        "from": "0x12395366299C28492682f7853424554df0b81B38",
        "to": "0x000000000022D473030F116dDEE9F6B43aC78BA3",
        "gas": "0xa59b",
        "value": "0x0",
        "input": "0x87517c4500000000000000000000000029f2d40b0605204364af54ec677bd022da425d030000000000000000000000000bf61f706105ea44694f2e92986bd01c39930280000000000000000000000000ffffffffffffffffffffffffffffffffffffffff0000000000000000000000000000000000000000000000000000000067daeef8",
        "nonce": "0x5e",
        "chainId": "0xaa36a7"
      },
      "additionalContracts": [],
      "isFixedGasLimit": false
    },
    {
      "hash": "0x0c3d7b9b6e45523a522e932ac3868192bb0f6a7c9f2fdabe873a1366bbb51c05",
      "transactionType": "CALL",
      "contractName": null,
      "contractAddress": "0x000000000022D473030F116dDEE9F6B43aC78BA3",
      "function": "approve(address,address,uint160,uint48)",
      "arguments": [
        "0x94a9D9AC8a22534E3FaCa9F4e7F2E2cf85d5E4C8",
        "0x0BF61f706105EA44694f2e92986bD01C39930280",
        "1461501637330902918203684832716283019655932542975",
        "1742401272"
      ],
      "transaction": {
        "from": "0x12395366299C28492682f7853424554df0b81B38",
        "to": "0x000000000022D473030F116dDEE9F6B43aC78BA3",
        "gas": "0xa59b",
        "value": "0x0",
        "input": "0x87517c4500000000000000000000000094a9d9ac8a22534e3faca9f4e7f2e2cf85d5e4c80000000000000000000000000bf61f706105ea44694f2e92986bd01c39930280000000000000000000000000ffffffffffffffffffffffffffffffffffffffff0000000000000000000000000000000000000000000000000000000067daeef8",
        "nonce": "0x5f",
        "chainId": "0xaa36a7"
      },
      "additionalContracts": [],
      "isFixedGasLimit": false
    },
    {
      "hash": "0x3d4b04757d414aa38281f45874765bef5d6b31dca89a635ca5e6852b01b6e647",
      "transactionType": "CALL",
      "contractName": null,
      "contractAddress": "0x29f2D40B0605204364af54EC677bD022dA425d03",
      "function": "approve(address,uint256)",
      "arguments": [
        "0x0BF61f706105EA44694f2e92986bD01C39930280",
        "115792089237316195423570985008687907853269984665640564039457584007913129639935"
      ],
      "transaction": {
        "from": "0x12395366299C28492682f7853424554df0b81B38",
        "to": "0x29f2D40B0605204364af54EC677bD022dA425d03",
        "gas": "0x9ef7",
        "value": "0x0",
        "input": "0x095ea7b30000000000000000000000000bf61f706105ea44694f2e92986bd01c39930280ffffffffffffffffffffffffffffffffffffffffffffffffffffffffffffffff",
        "nonce": "0x60",
        "chainId": "0xaa36a7"
      },
      "additionalContracts": [],
      "isFixedGasLimit": false
    },
    {
      "hash": "0x4763219e9ae9eb50004ab4879e73c5b0e8e704b86beefd87ab681bbf2573e2ff",
      "transactionType": "CALL",
      "contractName": null,
      "contractAddress": "0x94a9D9AC8a22534E3FaCa9F4e7F2E2cf85d5E4C8",
      "function": "approve(address,uint256)",
      "arguments": [
        "0x0BF61f706105EA44694f2e92986bD01C39930280",
        "115792089237316195423570985008687907853269984665640564039457584007913129639935"
      ],
      "transaction": {
        "from": "0x12395366299C28492682f7853424554df0b81B38",
        "to": "0x94a9D9AC8a22534E3FaCa9F4e7F2E2cf85d5E4C8",
        "gas": "0x9ef7",
        "value": "0x0",
        "input": "0x095ea7b30000000000000000000000000bf61f706105ea44694f2e92986bd01c39930280ffffffffffffffffffffffffffffffffffffffffffffffffffffffffffffffff",
        "nonce": "0x61",
        "chainId": "0xaa36a7"
      },
      "additionalContracts": [],
      "isFixedGasLimit": false
    },
    {
      "hash": "0x6354a67358f76c506aa5f1ac1d77840a119bfcfafb90ddd3750e07e394200f87",
      "transactionType": "CALL",
      "contractName": null,
      "contractAddress": "0x0BF61f706105EA44694f2e92986bD01C39930280",
      "function": "addLiquidityUnbalanced(address,uint256[],uint256,bool,bytes)",
      "arguments": [
        "0xA3a6398f3B29b84a6657A1f4bcE5c90F38462bf7",
        "[1, 1]",
        "0",
        "false",
        "0x"
      ],
      "transaction": {
        "from": "0x12395366299C28492682f7853424554df0b81B38",
        "to": "0x0BF61f706105EA44694f2e92986bD01C39930280",
        "gas": "0x5015b",
        "value": "0x0",
        "input": "0xc08bc851000000000000000000000000a3a6398f3b29b84a6657a1f4bce5c90f38462bf700000000000000000000000000000000000000000000000000000000000000a00000000000000000000000000000000000000000000000000000000000000000000000000000000000000000000000000000000000000000000000000000000000000000000000000000000000000000000000000000000000000000000001000000000000000000000000000000000000000000000000000000000000000002000000000000000000000000000000000000000000000000000000000000000100000000000000000000000000000000000000000000000000000000000000010000000000000000000000000000000000000000000000000000000000000000",
        "nonce": "0x62",
        "chainId": "0xaa36a7"
      },
      "additionalContracts": [],
      "isFixedGasLimit": false
    }
  ],
  "receipts": [
    {
      "status": "0x1",
      "cumulativeGasUsed": "0x13950fc",
      "logs": [
        {
          "address": "0x000000000022D473030F116dDEE9F6B43aC78BA3",
          "topics": [
            "0xda9fa7c1b00402c17d0161b249b1ab8bbec047c5a52207b9c112deffd817036b",
            "0x00000000000000000000000012395366299c28492682f7853424554df0b81b38",
            "0x00000000000000000000000029f2d40b0605204364af54ec677bd022da425d03",
            "0x0000000000000000000000000bf61f706105ea44694f2e92986bd01c39930280"
          ],
          "data": "0x000000000000000000000000ffffffffffffffffffffffffffffffffffffffff0000000000000000000000000000000000000000000000000000000067daeef8",
          "blockHash": "0x870936820d77b2493eb5f136475bc0edaf7cbd45aadafce94ee6f8cbef131186",
          "blockNumber": "0x78fdb7",
          "blockTimestamp": "0x67d99d84",
          "transactionHash": "0xcf391b4e72c46cd93831042f183d333f4742fe8e0c5bee5910073845fec02a0f",
          "transactionIndex": "0x91",
          "logIndex": "0xed",
          "removed": false
        }
      ],
      "logsBloom": "0x00010000000000010000000000004000000000000004000000000000000000000000000000000000000000000000000000000000000000080000000000080000000000000000000000000000000000000000000000000000000000000000000000000000000000000000000000000000000000000000000000100000000000000020000000000000000000000000040000000000000000000000000000000000000000000000000000000000000000000000200000000000000000080000000000000000000000000000000000000000000000000000000040000000000000000000000000000000000000004000000000000000000000000000000002000400",
      "type": "0x2",
      "transactionHash": "0xcf391b4e72c46cd93831042f183d333f4742fe8e0c5bee5910073845fec02a0f",
      "transactionIndex": "0x91",
      "blockHash": "0x870936820d77b2493eb5f136475bc0edaf7cbd45aadafce94ee6f8cbef131186",
      "blockNumber": "0x78fdb7",
      "gasUsed": "0x77e6",
      "effectiveGasPrice": "0x23c702b8",
      "from": "0x12395366299C28492682f7853424554df0b81B38",
      "to": "0x000000000022D473030F116dDEE9F6B43aC78BA3",
      "contractAddress": null
    },
    {
      "status": "0x1",
      "cumulativeGasUsed": "0x139c8e2",
      "logs": [
        {
          "address": "0x000000000022D473030F116dDEE9F6B43aC78BA3",
          "topics": [
            "0xda9fa7c1b00402c17d0161b249b1ab8bbec047c5a52207b9c112deffd817036b",
            "0x00000000000000000000000012395366299c28492682f7853424554df0b81b38",
            "0x00000000000000000000000094a9d9ac8a22534e3faca9f4e7f2e2cf85d5e4c8",
            "0x0000000000000000000000000bf61f706105ea44694f2e92986bd01c39930280"
          ],
          "data": "0x000000000000000000000000ffffffffffffffffffffffffffffffffffffffff0000000000000000000000000000000000000000000000000000000067daeef8",
          "blockHash": "0x870936820d77b2493eb5f136475bc0edaf7cbd45aadafce94ee6f8cbef131186",
          "blockNumber": "0x78fdb7",
          "blockTimestamp": "0x67d99d84",
          "transactionHash": "0x0c3d7b9b6e45523a522e932ac3868192bb0f6a7c9f2fdabe873a1366bbb51c05",
          "transactionIndex": "0x92",
          "logIndex": "0xee",
          "removed": false
        }
      ],
      "logsBloom": "0x00010000000000010200000000000000000000000004000000000000000000000000000000000000000100000000000000000000000000080000000000080000000000000000000000000000000000000000000000000000000000000000000000000000000000000000000000000000000000000000000000100000000000000020000000000000000000000000040000000000000000000000000000000000000000000000000000000000000000000000000000000000000000080000000000000000000000000000000000000000000000000000020040000000000000000000000000000000000000000000000000000000000000000000000002000400",
      "type": "0x2",
      "transactionHash": "0x0c3d7b9b6e45523a522e932ac3868192bb0f6a7c9f2fdabe873a1366bbb51c05",
      "transactionIndex": "0x92",
      "blockHash": "0x870936820d77b2493eb5f136475bc0edaf7cbd45aadafce94ee6f8cbef131186",
      "blockNumber": "0x78fdb7",
      "gasUsed": "0x77e6",
      "effectiveGasPrice": "0x23c702b8",
      "from": "0x12395366299C28492682f7853424554df0b81B38",
      "to": "0x000000000022D473030F116dDEE9F6B43aC78BA3",
      "contractAddress": null
    },
    {
      "status": "0x1",
      "cumulativeGasUsed": "0x13a3bf9",
      "logs": [
        {
          "address": "0x29f2D40B0605204364af54EC677bD022dA425d03",
          "topics": [
            "0x8c5be1e5ebec7d5bd14f71427d1e84f3dd0314c0f7b2291e5b200ac8c7c3b925",
            "0x00000000000000000000000012395366299c28492682f7853424554df0b81b38",
            "0x0000000000000000000000000bf61f706105ea44694f2e92986bd01c39930280"
          ],
          "data": "0xffffffffffffffffffffffffffffffffffffffffffffffffffffffffffffffff",
          "blockHash": "0x870936820d77b2493eb5f136475bc0edaf7cbd45aadafce94ee6f8cbef131186",
          "blockNumber": "0x78fdb7",
          "blockTimestamp": "0x67d99d84",
          "transactionHash": "0x3d4b04757d414aa38281f45874765bef5d6b31dca89a635ca5e6852b01b6e647",
          "transactionIndex": "0x93",
          "logIndex": "0xef",
          "removed": false
        }
      ],
      "logsBloom": "0x00000000000000010000000000000000000000000004400000000000000000000000000000000000000000000000000000000000000000080000000000200000000000000000000000000000004000000000000000000000000000000000000000000000000000000000000000000000000000000000000000100000000000000000000000000000000000000000040000000000000000000000000000000000020000000000000000000000000000000000000000000000000000000000000000000000000000000000000000000000000000200000000000000000000000000010000000000000000000000000000000000000000000000000000002000000",
      "type": "0x2",
      "transactionHash": "0x3d4b04757d414aa38281f45874765bef5d6b31dca89a635ca5e6852b01b6e647",
      "transactionIndex": "0x93",
      "blockHash": "0x870936820d77b2493eb5f136475bc0edaf7cbd45aadafce94ee6f8cbef131186",
      "blockNumber": "0x78fdb7",
      "gasUsed": "0x7317",
      "effectiveGasPrice": "0x23c702b8",
      "from": "0x12395366299C28492682f7853424554df0b81B38",
      "to": "0x29f2D40B0605204364af54EC677bD022dA425d03",
      "contractAddress": null
    },
    {
      "status": "0x1",
      "cumulativeGasUsed": "0x13aaf10",
      "logs": [
        {
          "address": "0x94a9D9AC8a22534E3FaCa9F4e7F2E2cf85d5E4C8",
          "topics": [
            "0x8c5be1e5ebec7d5bd14f71427d1e84f3dd0314c0f7b2291e5b200ac8c7c3b925",
            "0x00000000000000000000000012395366299c28492682f7853424554df0b81b38",
            "0x0000000000000000000000000bf61f706105ea44694f2e92986bd01c39930280"
          ],
          "data": "0xffffffffffffffffffffffffffffffffffffffffffffffffffffffffffffffff",
          "blockHash": "0x870936820d77b2493eb5f136475bc0edaf7cbd45aadafce94ee6f8cbef131186",
          "blockNumber": "0x78fdb7",
          "blockTimestamp": "0x67d99d84",
          "transactionHash": "0x4763219e9ae9eb50004ab4879e73c5b0e8e704b86beefd87ab681bbf2573e2ff",
          "transactionIndex": "0x94",
          "logIndex": "0xf0",
          "removed": false
        }
      ],
      "logsBloom": "0x00000000000000010000000000000000000000000004000000000000000000000000000000000000000000000000000000000000000000080000000000200000000000000000000000000000000000000000000000000000000008000000000000000000000000000000000000000000000000000000000000100000000000000000000000000000000000000000040000000000000000000000000000000000020000000100000000004000000000000000000000000000000000000000000000000000000000000000000000000000000000000000000000000000000000000010000000000000000000000000000000000000000000000000000002000000",
      "type": "0x2",
      "transactionHash": "0x4763219e9ae9eb50004ab4879e73c5b0e8e704b86beefd87ab681bbf2573e2ff",
      "transactionIndex": "0x94",
      "blockHash": "0x870936820d77b2493eb5f136475bc0edaf7cbd45aadafce94ee6f8cbef131186",
      "blockNumber": "0x78fdb7",
      "gasUsed": "0x7317",
      "effectiveGasPrice": "0x23c702b8",
      "from": "0x12395366299C28492682f7853424554df0b81B38",
      "to": "0x94a9D9AC8a22534E3FaCa9F4e7F2E2cf85d5E4C8",
      "contractAddress": null
    },
    {
      "status": "0x1",
      "cumulativeGasUsed": "0x13e4ebf",
      "logs": [
        {
          "address": "0xbA1333333333a1BA1108E8412f11850A5C319bA9",
          "topics": [
            "0xd1398bee19313d6bf672ccb116e51f4a1a947e91c757907f51fbb5b5e56c698f",
            "0x000000000000000000000000a3a6398f3b29b84a6657a1f4bce5c90f38462bf7",
            "0x0000000000000000000000000000000000000000000000000000000000000000",
            "0x00000000000000000000000012395366299c28492682f7853424554df0b81b38"
          ],
          "data": "0x000000000000000000000000000000000000000000000000000000174876e7f3",
          "blockHash": "0x870936820d77b2493eb5f136475bc0edaf7cbd45aadafce94ee6f8cbef131186",
          "blockNumber": "0x78fdb7",
          "blockTimestamp": "0x67d99d84",
          "transactionHash": "0x6354a67358f76c506aa5f1ac1d77840a119bfcfafb90ddd3750e07e394200f87",
          "transactionIndex": "0x95",
          "logIndex": "0xf1",
          "removed": false
        },
        {
          "address": "0xA3a6398f3B29b84a6657A1f4bcE5c90F38462bf7",
          "topics": [
            "0xddf252ad1be2c89b69c2b068fc378daa952ba7f163c4a11628f55a4df523b3ef",
            "0x0000000000000000000000000000000000000000000000000000000000000000",
            "0x00000000000000000000000012395366299c28492682f7853424554df0b81b38"
          ],
          "data": "0x000000000000000000000000000000000000000000000000000000174876e7f3",
          "blockHash": "0x870936820d77b2493eb5f136475bc0edaf7cbd45aadafce94ee6f8cbef131186",
          "blockNumber": "0x78fdb7",
          "blockTimestamp": "0x67d99d84",
          "transactionHash": "0x6354a67358f76c506aa5f1ac1d77840a119bfcfafb90ddd3750e07e394200f87",
          "transactionIndex": "0x95",
          "logIndex": "0xf2",
          "removed": false
        },
        {
          "address": "0xbA1333333333a1BA1108E8412f11850A5C319bA9",
          "topics": [
            "0xa26a52d8d53702bba7f137907b8e1f99ff87f6d450144270ca25e72481cca871",
            "0x000000000000000000000000a3a6398f3b29b84a6657a1f4bce5c90f38462bf7",
            "0x00000000000000000000000012395366299c28492682f7853424554df0b81b38",
            "0x0000000000000000000000000000000000000000000000000000000000000001"
          ],
          "data": "0x00000000000000000000000000000000000000000000000000000045d964b7e9000000000000000000000000000000000000000000000000000000000000006000000000000000000000000000000000000000000000000000000000000000c0000000000000000000000000000000000000000000000000000000000000000200000000000000000000000000000000000000000000000000000000000000010000000000000000000000000000000000000000000000000000000000000001000000000000000000000000000000000000000000000000000000000000000200000000000000000000000000000000000000000000000000000000000000000000000000000000000000000000000000000000000000000000000000000000",
          "blockHash": "0x870936820d77b2493eb5f136475bc0edaf7cbd45aadafce94ee6f8cbef131186",
          "blockNumber": "0x78fdb7",
          "blockTimestamp": "0x67d99d84",
          "transactionHash": "0x6354a67358f76c506aa5f1ac1d77840a119bfcfafb90ddd3750e07e394200f87",
          "transactionIndex": "0x95",
          "logIndex": "0xf3",
          "removed": false
        },
        {
          "address": "0x29f2D40B0605204364af54EC677bD022dA425d03",
          "topics": [
            "0xddf252ad1be2c89b69c2b068fc378daa952ba7f163c4a11628f55a4df523b3ef",
            "0x00000000000000000000000012395366299c28492682f7853424554df0b81b38",
            "0x000000000000000000000000ba1333333333a1ba1108e8412f11850a5c319ba9"
          ],
          "data": "0x0000000000000000000000000000000000000000000000000000000000000001",
          "blockHash": "0x870936820d77b2493eb5f136475bc0edaf7cbd45aadafce94ee6f8cbef131186",
          "blockNumber": "0x78fdb7",
          "blockTimestamp": "0x67d99d84",
          "transactionHash": "0x6354a67358f76c506aa5f1ac1d77840a119bfcfafb90ddd3750e07e394200f87",
          "transactionIndex": "0x95",
          "logIndex": "0xf4",
          "removed": false
        },
        {
          "address": "0x29f2D40B0605204364af54EC677bD022dA425d03",
          "topics": [
            "0x8c5be1e5ebec7d5bd14f71427d1e84f3dd0314c0f7b2291e5b200ac8c7c3b925",
            "0x00000000000000000000000012395366299c28492682f7853424554df0b81b38",
            "0x000000000000000000000000000000000022d473030f116ddee9f6b43ac78ba3"
          ],
          "data": "0xfffffffffffffffffffffffffffffffffffffffffffffffffffffffffffffffc",
          "blockHash": "0x870936820d77b2493eb5f136475bc0edaf7cbd45aadafce94ee6f8cbef131186",
          "blockNumber": "0x78fdb7",
          "blockTimestamp": "0x67d99d84",
          "transactionHash": "0x6354a67358f76c506aa5f1ac1d77840a119bfcfafb90ddd3750e07e394200f87",
          "transactionIndex": "0x95",
          "logIndex": "0xf5",
          "removed": false
        },
        {
          "address": "0x94a9D9AC8a22534E3FaCa9F4e7F2E2cf85d5E4C8",
          "topics": [
            "0xddf252ad1be2c89b69c2b068fc378daa952ba7f163c4a11628f55a4df523b3ef",
            "0x00000000000000000000000012395366299c28492682f7853424554df0b81b38",
            "0x000000000000000000000000ba1333333333a1ba1108e8412f11850a5c319ba9"
          ],
          "data": "0x0000000000000000000000000000000000000000000000000000000000000001",
          "blockHash": "0x870936820d77b2493eb5f136475bc0edaf7cbd45aadafce94ee6f8cbef131186",
          "blockNumber": "0x78fdb7",
          "blockTimestamp": "0x67d99d84",
          "transactionHash": "0x6354a67358f76c506aa5f1ac1d77840a119bfcfafb90ddd3750e07e394200f87",
          "transactionIndex": "0x95",
          "logIndex": "0xf6",
          "removed": false
        },
        {
          "address": "0x94a9D9AC8a22534E3FaCa9F4e7F2E2cf85d5E4C8",
          "topics": [
            "0x8c5be1e5ebec7d5bd14f71427d1e84f3dd0314c0f7b2291e5b200ac8c7c3b925",
            "0x00000000000000000000000012395366299c28492682f7853424554df0b81b38",
            "0x000000000000000000000000000000000022d473030f116ddee9f6b43ac78ba3"
          ],
          "data": "0xfffffffffffffffffffffffffffffffffffffffffffffffffffffffffffffffc",
          "blockHash": "0x870936820d77b2493eb5f136475bc0edaf7cbd45aadafce94ee6f8cbef131186",
          "blockNumber": "0x78fdb7",
          "blockTimestamp": "0x67d99d84",
          "transactionHash": "0x6354a67358f76c506aa5f1ac1d77840a119bfcfafb90ddd3750e07e394200f87",
          "transactionIndex": "0x95",
          "logIndex": "0xf7",
          "removed": false
        }
      ],
      "logsBloom": "0x00000000000000010040000000000000000080000000400000004000002000000000000000000000000000000000000000000000800000000000000000240000802000000000000000004008104000000000000000040800000008000000000000000000020000000000000000000800000001000000000000100010000000000000000000000000000000000000040000000001000000000000010000080000020000800180000000044000000000000000000000000000000000000000000000000002000000000000000000000000000004200000000000000000800060080010000000000000002000000000000000000000000000000000000000000000",
      "type": "0x2",
      "transactionHash": "0x6354a67358f76c506aa5f1ac1d77840a119bfcfafb90ddd3750e07e394200f87",
      "transactionIndex": "0x95",
      "blockHash": "0x870936820d77b2493eb5f136475bc0edaf7cbd45aadafce94ee6f8cbef131186",
      "blockNumber": "0x78fdb7",
      "gasUsed": "0x39faf",
      "effectiveGasPrice": "0x23c702b8",
      "from": "0x12395366299C28492682f7853424554df0b81B38",
      "to": "0x0BF61f706105EA44694f2e92986bD01C39930280",
      "contractAddress": null
    }
  ],
  "libraries": [],
  "pending": [],
  "returns": {},
  "timestamp": 1742314890,
  "chain": 11155111,
  "commit": "c5d8f79"
}