{
  "transactions": [
    {
      "hash": "0xc4798026a5c804d6045966961e37eaf1a3d5ea3989724332a67fe9b59c465b81",
      "transactionType": "CALL",
      "contractName": null,
      "contractAddress": "0x000000000022D473030F116dDEE9F6B43aC78BA3",
      "function": "approve(address,address,uint160,uint48)",
      "arguments": [
        "0x29f2D40B0605204364af54EC677bD022dA425d03",
        "0x0BF61f706105EA44694f2e92986bD01C39930280",
        "1461501637330902918203684832716283019655932542975",
        "1742402592"
      ],
      "transaction": {
        "from": "0x12395366299C28492682f7853424554df0b81B38",
        "to": "0x000000000022D473030F116dDEE9F6B43aC78BA3",
        "gas": "0xa59b",
        "value": "0x0",
        "input": "0x87517c4500000000000000000000000029f2d40b0605204364af54ec677bd022da425d030000000000000000000000000bf61f706105ea44694f2e92986bd01c39930280000000000000000000000000ffffffffffffffffffffffffffffffffffffffff0000000000000000000000000000000000000000000000000000000067daf420",
        "nonce": "0xf9",
        "chainId": "0xaa36a7"
      },
      "additionalContracts": [],
      "isFixedGasLimit": false
    },
    {
      "hash": "0x1d3f6899e4daa9d472d79d9bce696f58849a495f4529bad212a16da4acd40556",
      "transactionType": "CALL",
      "contractName": null,
      "contractAddress": "0x000000000022D473030F116dDEE9F6B43aC78BA3",
      "function": "approve(address,address,uint160,uint48)",
      "arguments": [
        "0x94a9D9AC8a22534E3FaCa9F4e7F2E2cf85d5E4C8",
        "0x0BF61f706105EA44694f2e92986bD01C39930280",
        "1461501637330902918203684832716283019655932542975",
        "1742402592"
      ],
      "transaction": {
        "from": "0x12395366299C28492682f7853424554df0b81B38",
        "to": "0x000000000022D473030F116dDEE9F6B43aC78BA3",
        "gas": "0xa59b",
        "value": "0x0",
        "input": "0x87517c4500000000000000000000000094a9d9ac8a22534e3faca9f4e7f2e2cf85d5e4c80000000000000000000000000bf61f706105ea44694f2e92986bd01c39930280000000000000000000000000ffffffffffffffffffffffffffffffffffffffff0000000000000000000000000000000000000000000000000000000067daf420",
        "nonce": "0xfa",
        "chainId": "0xaa36a7"
      },
      "additionalContracts": [],
      "isFixedGasLimit": false
    },
    {
      "hash": "0x3afd4e6f71ba2852542fed9b999b1a425011bbdf6cd395cfcd329d30d189fe75",
      "transactionType": "CALL",
      "contractName": null,
      "contractAddress": "0x29f2D40B0605204364af54EC677bD022dA425d03",
      "function": "approve(address,uint256)",
      "arguments": [
        "0x0BF61f706105EA44694f2e92986bD01C39930280",
        "115792089237316195423570985008687907853269984665640564039457584007913129639935"
      ],
      "transaction": {
        "from": "0x12395366299C28492682f7853424554df0b81B38",
        "to": "0x29f2D40B0605204364af54EC677bD022dA425d03",
        "gas": "0x8fdb",
        "value": "0x0",
        "input": "0x095ea7b30000000000000000000000000bf61f706105ea44694f2e92986bd01c39930280ffffffffffffffffffffffffffffffffffffffffffffffffffffffffffffffff",
        "nonce": "0xfb",
        "chainId": "0xaa36a7"
      },
      "additionalContracts": [],
      "isFixedGasLimit": false
    },
    {
      "hash": "0x944bc749e57eb9f45a1ea845ceeb62b3d5468d023b3247121123e379b762fe61",
      "transactionType": "CALL",
      "contractName": null,
      "contractAddress": "0x94a9D9AC8a22534E3FaCa9F4e7F2E2cf85d5E4C8",
      "function": "approve(address,uint256)",
      "arguments": [
        "0x0BF61f706105EA44694f2e92986bD01C39930280",
        "115792089237316195423570985008687907853269984665640564039457584007913129639935"
      ],
      "transaction": {
        "from": "0x12395366299C28492682f7853424554df0b81B38",
        "to": "0x94a9D9AC8a22534E3FaCa9F4e7F2E2cf85d5E4C8",
        "gas": "0x8fdb",
        "value": "0x0",
        "input": "0x095ea7b30000000000000000000000000bf61f706105ea44694f2e92986bd01c39930280ffffffffffffffffffffffffffffffffffffffffffffffffffffffffffffffff",
        "nonce": "0xfc",
        "chainId": "0xaa36a7"
      },
      "additionalContracts": [],
      "isFixedGasLimit": false
    },
    {
      "hash": "0x46352bce15cd3008b4da8b3f94eefbc02c6a25e5264c7984d5f3b55e534d1f4a",
      "transactionType": "CALL",
      "contractName": null,
      "contractAddress": "0x0BF61f706105EA44694f2e92986bD01C39930280",
      "function": "addLiquidityUnbalanced(address,uint256[],uint256,bool,bytes)",
      "arguments": [
        "0xA3a6398f3B29b84a6657A1f4bcE5c90F38462bf7",
        "[30, 30]",
        "0",
        "false",
        "0x"
      ],
      "transaction": {
        "from": "0x12395366299C28492682f7853424554df0b81B38",
        "to": "0x0BF61f706105EA44694f2e92986bD01C39930280",
        "gas": "0x4ffc0",
        "value": "0x0",
        "input": "0xc08bc851000000000000000000000000a3a6398f3b29b84a6657a1f4bce5c90f38462bf700000000000000000000000000000000000000000000000000000000000000a00000000000000000000000000000000000000000000000000000000000000000000000000000000000000000000000000000000000000000000000000000000000000000000000000000000000000000000000000000000000000000000001000000000000000000000000000000000000000000000000000000000000000002000000000000000000000000000000000000000000000000000000000000001e000000000000000000000000000000000000000000000000000000000000001e0000000000000000000000000000000000000000000000000000000000000000",
        "nonce": "0xfd",
        "chainId": "0xaa36a7"
      },
      "additionalContracts": [],
      "isFixedGasLimit": false
    }
  ],
  "receipts": [
    {
      "status": "0x1",
      "cumulativeGasUsed": "0x796656",
      "logs": [
        {
          "address": "0x000000000022D473030F116dDEE9F6B43aC78BA3",
          "topics": [
            "0xda9fa7c1b00402c17d0161b249b1ab8bbec047c5a52207b9c112deffd817036b",
            "0x00000000000000000000000012395366299c28492682f7853424554df0b81b38",
            "0x00000000000000000000000029f2d40b0605204364af54ec677bd022da425d03",
            "0x0000000000000000000000000bf61f706105ea44694f2e92986bd01c39930280"
          ],
          "data": "0x000000000000000000000000ffffffffffffffffffffffffffffffffffffffff0000000000000000000000000000000000000000000000000000000067daf420",
          "blockHash": "0x7256392e0cedfbc1601e743a74a30319b5d7c1d199ebf5b66166731b3708637a",
          "blockNumber": "0x78fe27",
          "blockTimestamp": "0x67d9a2c4",
          "transactionHash": "0xc4798026a5c804d6045966961e37eaf1a3d5ea3989724332a67fe9b59c465b81",
          "transactionIndex": "0x6b",
          "logIndex": "0x8b",
          "removed": false
        }
      ],
      "logsBloom": "0x00010000000000010000000000004000000000000004000000000000000000000000000000000000000000000000000000000000000000080000000000080000000000000000000000000000000000000000000000000000000000000000000000000000000000000000000000000000000000000000000000100000000000000020000000000000000000000000040000000000000000000000000000000000000000000000000000000000000000000000200000000000000000080000000000000000000000000000000000000000000000000000000040000000000000000000000000000000000000004000000000000000000000000000000002000400",
      "type": "0x2",
      "transactionHash": "0xc4798026a5c804d6045966961e37eaf1a3d5ea3989724332a67fe9b59c465b81",
      "transactionIndex": "0x6b",
      "blockHash": "0x7256392e0cedfbc1601e743a74a30319b5d7c1d199ebf5b66166731b3708637a",
      "blockNumber": "0x78fe27",
      "gasUsed": "0x77e6",
      "effectiveGasPrice": "0x738aae2",
      "from": "0x12395366299C28492682f7853424554df0b81B38",
      "to": "0x000000000022D473030F116dDEE9F6B43aC78BA3",
      "contractAddress": null
    },
    {
      "status": "0x1",
      "cumulativeGasUsed": "0x79de3c",
      "logs": [
        {
          "address": "0x000000000022D473030F116dDEE9F6B43aC78BA3",
          "topics": [
            "0xda9fa7c1b00402c17d0161b249b1ab8bbec047c5a52207b9c112deffd817036b",
            "0x00000000000000000000000012395366299c28492682f7853424554df0b81b38",
            "0x00000000000000000000000094a9d9ac8a22534e3faca9f4e7f2e2cf85d5e4c8",
            "0x0000000000000000000000000bf61f706105ea44694f2e92986bd01c39930280"
          ],
          "data": "0x000000000000000000000000ffffffffffffffffffffffffffffffffffffffff0000000000000000000000000000000000000000000000000000000067daf420",
          "blockHash": "0x7256392e0cedfbc1601e743a74a30319b5d7c1d199ebf5b66166731b3708637a",
          "blockNumber": "0x78fe27",
          "blockTimestamp": "0x67d9a2c4",
          "transactionHash": "0x1d3f6899e4daa9d472d79d9bce696f58849a495f4529bad212a16da4acd40556",
          "transactionIndex": "0x6c",
          "logIndex": "0x8c",
          "removed": false
        }
      ],
      "logsBloom": "0x00010000000000010200000000000000000000000004000000000000000000000000000000000000000100000000000000000000000000080000000000080000000000000000000000000000000000000000000000000000000000000000000000000000000000000000000000000000000000000000000000100000000000000020000000000000000000000000040000000000000000000000000000000000000000000000000000000000000000000000000000000000000000080000000000000000000000000000000000000000000000000000020040000000000000000000000000000000000000000000000000000000000000000000000002000400",
      "type": "0x2",
      "transactionHash": "0x1d3f6899e4daa9d472d79d9bce696f58849a495f4529bad212a16da4acd40556",
      "transactionIndex": "0x6c",
      "blockHash": "0x7256392e0cedfbc1601e743a74a30319b5d7c1d199ebf5b66166731b3708637a",
      "blockNumber": "0x78fe27",
      "gasUsed": "0x77e6",
      "effectiveGasPrice": "0x738aae2",
      "from": "0x12395366299C28492682f7853424554df0b81B38",
      "to": "0x000000000022D473030F116dDEE9F6B43aC78BA3",
      "contractAddress": null
    },
    {
      "status": "0x1",
      "cumulativeGasUsed": "0x7a4663",
      "logs": [
        {
          "address": "0x29f2D40B0605204364af54EC677bD022dA425d03",
          "topics": [
            "0x8c5be1e5ebec7d5bd14f71427d1e84f3dd0314c0f7b2291e5b200ac8c7c3b925",
            "0x00000000000000000000000012395366299c28492682f7853424554df0b81b38",
            "0x0000000000000000000000000bf61f706105ea44694f2e92986bd01c39930280"
          ],
          "data": "0xffffffffffffffffffffffffffffffffffffffffffffffffffffffffffffffff",
          "blockHash": "0x7256392e0cedfbc1601e743a74a30319b5d7c1d199ebf5b66166731b3708637a",
          "blockNumber": "0x78fe27",
          "blockTimestamp": "0x67d9a2c4",
          "transactionHash": "0x3afd4e6f71ba2852542fed9b999b1a425011bbdf6cd395cfcd329d30d189fe75",
          "transactionIndex": "0x6d",
          "logIndex": "0x8d",
          "removed": false
        }
      ],
      "logsBloom": "0x00000000000000010000000000000000000000000004400000000000000000000000000000000000000000000000000000000000000000080000000000200000000000000000000000000000004000000000000000000000000000000000000000000000000000000000000000000000000000000000000000100000000000000000000000000000000000000000040000000000000000000000000000000000020000000000000000000000000000000000000000000000000000000000000000000000000000000000000000000000000000200000000000000000000000000010000000000000000000000000000000000000000000000000000002000000",
      "type": "0x2",
      "transactionHash": "0x3afd4e6f71ba2852542fed9b999b1a425011bbdf6cd395cfcd329d30d189fe75",
      "transactionIndex": "0x6d",
      "blockHash": "0x7256392e0cedfbc1601e743a74a30319b5d7c1d199ebf5b66166731b3708637a",
      "blockNumber": "0x78fe27",
      "gasUsed": "0x6827",
      "effectiveGasPrice": "0x738aae2",
      "from": "0x12395366299C28492682f7853424554df0b81B38",
      "to": "0x29f2D40B0605204364af54EC677bD022dA425d03",
      "contractAddress": null
    },
    {
      "status": "0x1",
      "cumulativeGasUsed": "0x7aae8a",
      "logs": [
        {
          "address": "0x94a9D9AC8a22534E3FaCa9F4e7F2E2cf85d5E4C8",
          "topics": [
            "0x8c5be1e5ebec7d5bd14f71427d1e84f3dd0314c0f7b2291e5b200ac8c7c3b925",
            "0x00000000000000000000000012395366299c28492682f7853424554df0b81b38",
            "0x0000000000000000000000000bf61f706105ea44694f2e92986bd01c39930280"
          ],
          "data": "0xffffffffffffffffffffffffffffffffffffffffffffffffffffffffffffffff",
          "blockHash": "0x7256392e0cedfbc1601e743a74a30319b5d7c1d199ebf5b66166731b3708637a",
          "blockNumber": "0x78fe27",
          "blockTimestamp": "0x67d9a2c4",
          "transactionHash": "0x944bc749e57eb9f45a1ea845ceeb62b3d5468d023b3247121123e379b762fe61",
          "transactionIndex": "0x6e",
          "logIndex": "0x8e",
          "removed": false
        }
      ],
      "logsBloom": "0x00000000000000010000000000000000000000000004000000000000000000000000000000000000000000000000000000000000000000080000000000200000000000000000000000000000000000000000000000000000000008000000000000000000000000000000000000000000000000000000000000100000000000000000000000000000000000000000040000000000000000000000000000000000020000000100000000004000000000000000000000000000000000000000000000000000000000000000000000000000000000000000000000000000000000000010000000000000000000000000000000000000000000000000000002000000",
      "type": "0x2",
      "transactionHash": "0x944bc749e57eb9f45a1ea845ceeb62b3d5468d023b3247121123e379b762fe61",
      "transactionIndex": "0x6e",
      "blockHash": "0x7256392e0cedfbc1601e743a74a30319b5d7c1d199ebf5b66166731b3708637a",
      "blockNumber": "0x78fe27",
      "gasUsed": "0x6827",
      "effectiveGasPrice": "0x738aae2",
      "from": "0x12395366299C28492682f7853424554df0b81B38",
      "to": "0x94a9D9AC8a22534E3FaCa9F4e7F2E2cf85d5E4C8",
      "contractAddress": null
    },
    {
      "status": "0x1",
      "cumulativeGasUsed": "0x7e4d0f",
      "logs": [
        {
          "address": "0xbA1333333333a1BA1108E8412f11850A5C319bA9",
          "topics": [
            "0xd1398bee19313d6bf672ccb116e51f4a1a947e91c757907f51fbb5b5e56c698f",
            "0x000000000000000000000000a3a6398f3b29b84a6657a1f4bce5c90f38462bf7",
            "0x0000000000000000000000000000000000000000000000000000000000000000",
            "0x00000000000000000000000012395366299c28492682f7853424554df0b81b38"
          ],
          "data": "0x000000000000000000000000000000000000000000000000000002ba7def2d5e",
          "blockHash": "0x7256392e0cedfbc1601e743a74a30319b5d7c1d199ebf5b66166731b3708637a",
          "blockNumber": "0x78fe27",
          "blockTimestamp": "0x67d9a2c4",
          "transactionHash": "0x46352bce15cd3008b4da8b3f94eefbc02c6a25e5264c7984d5f3b55e534d1f4a",
          "transactionIndex": "0x6f",
          "logIndex": "0x8f",
          "removed": false
        },
        {
          "address": "0xA3a6398f3B29b84a6657A1f4bcE5c90F38462bf7",
          "topics": [
            "0xddf252ad1be2c89b69c2b068fc378daa952ba7f163c4a11628f55a4df523b3ef",
            "0x0000000000000000000000000000000000000000000000000000000000000000",
            "0x00000000000000000000000012395366299c28492682f7853424554df0b81b38"
          ],
          "data": "0x000000000000000000000000000000000000000000000000000002ba7def2d5e",
          "blockHash": "0x7256392e0cedfbc1601e743a74a30319b5d7c1d199ebf5b66166731b3708637a",
          "blockNumber": "0x78fe27",
          "blockTimestamp": "0x67d9a2c4",
          "transactionHash": "0x46352bce15cd3008b4da8b3f94eefbc02c6a25e5264c7984d5f3b55e534d1f4a",
          "transactionIndex": "0x6f",
          "logIndex": "0x90",
          "removed": false
        },
        {
          "address": "0xbA1333333333a1BA1108E8412f11850A5C319bA9",
          "topics": [
            "0xa26a52d8d53702bba7f137907b8e1f99ff87f6d450144270ca25e72481cca871",
            "0x000000000000000000000000a3a6398f3b29b84a6657a1f4bce5c90f38462bf7",
            "0x00000000000000000000000012395366299c28492682f7853424554df0b81b38",
            "0x0000000000000000000000000000000000000000000000000000000000000001"
          ],
          "data": "0x00000000000000000000000000000000000000000000000000001176592def4f000000000000000000000000000000000000000000000000000000000000006000000000000000000000000000000000000000000000000000000000000000c00000000000000000000000000000000000000000000000000000000000000002000000000000000000000000000000000000000000000000000000000000001e000000000000000000000000000000000000000000000000000000000000001e000000000000000000000000000000000000000000000000000000000000000200000000000000000000000000000000000000000000000000000000000000000000000000000000000000000000000000000000000000000000000000000000",
          "blockHash": "0x7256392e0cedfbc1601e743a74a30319b5d7c1d199ebf5b66166731b3708637a",
          "blockNumber": "0x78fe27",
          "blockTimestamp": "0x67d9a2c4",
          "transactionHash": "0x46352bce15cd3008b4da8b3f94eefbc02c6a25e5264c7984d5f3b55e534d1f4a",
          "transactionIndex": "0x6f",
          "logIndex": "0x91",
          "removed": false
        },
        {
          "address": "0x29f2D40B0605204364af54EC677bD022dA425d03",
          "topics": [
            "0xddf252ad1be2c89b69c2b068fc378daa952ba7f163c4a11628f55a4df523b3ef",
            "0x00000000000000000000000012395366299c28492682f7853424554df0b81b38",
            "0x000000000000000000000000ba1333333333a1ba1108e8412f11850a5c319ba9"
          ],
          "data": "0x000000000000000000000000000000000000000000000000000000000000001e",
          "blockHash": "0x7256392e0cedfbc1601e743a74a30319b5d7c1d199ebf5b66166731b3708637a",
          "blockNumber": "0x78fe27",
          "blockTimestamp": "0x67d9a2c4",
          "transactionHash": "0x46352bce15cd3008b4da8b3f94eefbc02c6a25e5264c7984d5f3b55e534d1f4a",
          "transactionIndex": "0x6f",
          "logIndex": "0x92",
          "removed": false
        },
        {
          "address": "0x29f2D40B0605204364af54EC677bD022dA425d03",
          "topics": [
            "0x8c5be1e5ebec7d5bd14f71427d1e84f3dd0314c0f7b2291e5b200ac8c7c3b925",
            "0x00000000000000000000000012395366299c28492682f7853424554df0b81b38",
            "0x000000000000000000000000000000000022d473030f116ddee9f6b43ac78ba3"
          ],
          "data": "0xffffffffffffffffffffffffffffffffffffffffffffffffffffffffffffff3f",
          "blockHash": "0x7256392e0cedfbc1601e743a74a30319b5d7c1d199ebf5b66166731b3708637a",
          "blockNumber": "0x78fe27",
          "blockTimestamp": "0x67d9a2c4",
          "transactionHash": "0x46352bce15cd3008b4da8b3f94eefbc02c6a25e5264c7984d5f3b55e534d1f4a",
          "transactionIndex": "0x6f",
          "logIndex": "0x93",
          "removed": false
        },
        {
          "address": "0x94a9D9AC8a22534E3FaCa9F4e7F2E2cf85d5E4C8",
          "topics": [
            "0xddf252ad1be2c89b69c2b068fc378daa952ba7f163c4a11628f55a4df523b3ef",
            "0x00000000000000000000000012395366299c28492682f7853424554df0b81b38",
            "0x000000000000000000000000ba1333333333a1ba1108e8412f11850a5c319ba9"
          ],
          "data": "0x000000000000000000000000000000000000000000000000000000000000001e",
          "blockHash": "0x7256392e0cedfbc1601e743a74a30319b5d7c1d199ebf5b66166731b3708637a",
          "blockNumber": "0x78fe27",
          "blockTimestamp": "0x67d9a2c4",
          "transactionHash": "0x46352bce15cd3008b4da8b3f94eefbc02c6a25e5264c7984d5f3b55e534d1f4a",
          "transactionIndex": "0x6f",
          "logIndex": "0x94",
          "removed": false
        },
        {
          "address": "0x94a9D9AC8a22534E3FaCa9F4e7F2E2cf85d5E4C8",
          "topics": [
            "0x8c5be1e5ebec7d5bd14f71427d1e84f3dd0314c0f7b2291e5b200ac8c7c3b925",
            "0x00000000000000000000000012395366299c28492682f7853424554df0b81b38",
            "0x000000000000000000000000000000000022d473030f116ddee9f6b43ac78ba3"
          ],
          "data": "0xffffffffffffffffffffffffffffffffffffffffffffffffffffffffffffff3f",
          "blockHash": "0x7256392e0cedfbc1601e743a74a30319b5d7c1d199ebf5b66166731b3708637a",
          "blockNumber": "0x78fe27",
          "blockTimestamp": "0x67d9a2c4",
          "transactionHash": "0x46352bce15cd3008b4da8b3f94eefbc02c6a25e5264c7984d5f3b55e534d1f4a",
          "transactionIndex": "0x6f",
          "logIndex": "0x95",
          "removed": false
        }
      ],
      "logsBloom": "0x00000000000000010040000000000000000080000000400000004000002000000000000000000000000000000000000000000000800000000000000000240000802000000000000000004008104000000000000000040800000008000000000000000000020000000000000000000800000001000000000000100010000000000000000000000000000000000000040000000001000000000000010000080000020000800180000000044000000000000000000000000000000000000000000000000002000000000000000000000000000004200000000000000000800060080010000000000000002000000000000000000000000000000000000000000000",
      "type": "0x2",
      "transactionHash": "0x46352bce15cd3008b4da8b3f94eefbc02c6a25e5264c7984d5f3b55e534d1f4a",
      "transactionIndex": "0x6f",
      "blockHash": "0x7256392e0cedfbc1601e743a74a30319b5d7c1d199ebf5b66166731b3708637a",
      "blockNumber": "0x78fe27",
      "gasUsed": "0x39e85",
      "effectiveGasPrice": "0x738aae2",
      "from": "0x12395366299C28492682f7853424554df0b81B38",
      "to": "0x0BF61f706105EA44694f2e92986bD01C39930280",
      "contractAddress": null
    }
  ],
  "libraries": [],
  "pending": [],
  "returns": {},
  "timestamp": 1742316230,
  "chain": 11155111,
  "commit": "c5d8f79"
}