{
  "transactions": [
    {
      "hash": "0x87bec4c9be48279f9ee63eb604da8819ca66f400d6a55946262929e380090341",
      "transactionType": "CALL",
      "contractName": null,
      "contractAddress": "0x000000000022D473030F116dDEE9F6B43aC78BA3",
      "function": "approve(address,address,uint160,uint48)",
      "arguments": [
        "0x29f2D40B0605204364af54EC677bD022dA425d03",
        "0x0BF61f706105EA44694f2e92986bD01C39930280",
        "1461501637330902918203684832716283019655932542975",
        "1742402340"
      ],
      "transaction": {
        "from": "0x12395366299C28492682f7853424554df0b81B38",
        "to": "0x000000000022D473030F116dDEE9F6B43aC78BA3",
        "gas": "0xa59b",
        "value": "0x0",
        "input": "0x87517c4500000000000000000000000029f2d40b0605204364af54ec677bd022da425d030000000000000000000000000bf61f706105ea44694f2e92986bd01c39930280000000000000000000000000ffffffffffffffffffffffffffffffffffffffff0000000000000000000000000000000000000000000000000000000067daf324",
        "nonce": "0xd1",
        "chainId": "0xaa36a7"
      },
      "additionalContracts": [],
      "isFixedGasLimit": false
    },
    {
      "hash": "0x17bf7e72b09e505fd9f518614916a491ea8be5b7e86524aa73703080f33dd20a",
      "transactionType": "CALL",
      "contractName": null,
      "contractAddress": "0x000000000022D473030F116dDEE9F6B43aC78BA3",
      "function": "approve(address,address,uint160,uint48)",
      "arguments": [
        "0x94a9D9AC8a22534E3FaCa9F4e7F2E2cf85d5E4C8",
        "0x0BF61f706105EA44694f2e92986bD01C39930280",
        "1461501637330902918203684832716283019655932542975",
        "1742402340"
      ],
      "transaction": {
        "from": "0x12395366299C28492682f7853424554df0b81B38",
        "to": "0x000000000022D473030F116dDEE9F6B43aC78BA3",
        "gas": "0xa59b",
        "value": "0x0",
        "input": "0x87517c4500000000000000000000000094a9d9ac8a22534e3faca9f4e7f2e2cf85d5e4c80000000000000000000000000bf61f706105ea44694f2e92986bd01c39930280000000000000000000000000ffffffffffffffffffffffffffffffffffffffff0000000000000000000000000000000000000000000000000000000067daf324",
        "nonce": "0xd2",
        "chainId": "0xaa36a7"
      },
      "additionalContracts": [],
      "isFixedGasLimit": false
    },
    {
      "hash": "0xcf7d33eef787110e715da591ed9e240dcd939a4dcebe184881ea81ebf078c9ec",
      "transactionType": "CALL",
      "contractName": null,
      "contractAddress": "0x29f2D40B0605204364af54EC677bD022dA425d03",
      "function": "approve(address,uint256)",
      "arguments": [
        "0x0BF61f706105EA44694f2e92986bD01C39930280",
        "115792089237316195423570985008687907853269984665640564039457584007913129639935"
      ],
      "transaction": {
        "from": "0x12395366299C28492682f7853424554df0b81B38",
        "to": "0x29f2D40B0605204364af54EC677bD022dA425d03",
        "gas": "0x8fdb",
        "value": "0x0",
        "input": "0x095ea7b30000000000000000000000000bf61f706105ea44694f2e92986bd01c39930280ffffffffffffffffffffffffffffffffffffffffffffffffffffffffffffffff",
        "nonce": "0xd3",
        "chainId": "0xaa36a7"
      },
      "additionalContracts": [],
      "isFixedGasLimit": false
    },
    {
      "hash": "0xc34489bbf47109eb563b5a2cf0c8ab03e8f8121a6ff09f17d8e7f4053cc1356a",
      "transactionType": "CALL",
      "contractName": null,
      "contractAddress": "0x94a9D9AC8a22534E3FaCa9F4e7F2E2cf85d5E4C8",
      "function": "approve(address,uint256)",
      "arguments": [
        "0x0BF61f706105EA44694f2e92986bD01C39930280",
        "115792089237316195423570985008687907853269984665640564039457584007913129639935"
      ],
      "transaction": {
        "from": "0x12395366299C28492682f7853424554df0b81B38",
        "to": "0x94a9D9AC8a22534E3FaCa9F4e7F2E2cf85d5E4C8",
        "gas": "0x8fdb",
        "value": "0x0",
        "input": "0x095ea7b30000000000000000000000000bf61f706105ea44694f2e92986bd01c39930280ffffffffffffffffffffffffffffffffffffffffffffffffffffffffffffffff",
        "nonce": "0xd4",
        "chainId": "0xaa36a7"
      },
      "additionalContracts": [],
      "isFixedGasLimit": false
    },
    {
      "hash": "0x87e4192d2774e7637bb2e3eaf656a1b89dd2688915aa07c7e05818fecc432c99",
      "transactionType": "CALL",
      "contractName": null,
      "contractAddress": "0x0BF61f706105EA44694f2e92986bD01C39930280",
      "function": "addLiquidityUnbalanced(address,uint256[],uint256,bool,bytes)",
      "arguments": [
        "0xA3a6398f3B29b84a6657A1f4bcE5c90F38462bf7",
        "[5, 5]",
        "0",
        "false",
        "0x"
      ],
      "transaction": {
        "from": "0x12395366299C28492682f7853424554df0b81B38",
        "to": "0x0BF61f706105EA44694f2e92986bD01C39930280",
        "gas": "0x5024e",
        "value": "0x0",
        "input": "0xc08bc851000000000000000000000000a3a6398f3b29b84a6657a1f4bce5c90f38462bf700000000000000000000000000000000000000000000000000000000000000a00000000000000000000000000000000000000000000000000000000000000000000000000000000000000000000000000000000000000000000000000000000000000000000000000000000000000000000000000000000000000000000001000000000000000000000000000000000000000000000000000000000000000002000000000000000000000000000000000000000000000000000000000000000500000000000000000000000000000000000000000000000000000000000000050000000000000000000000000000000000000000000000000000000000000000",
        "nonce": "0xd5",
        "chainId": "0xaa36a7"
      },
      "additionalContracts": [],
      "isFixedGasLimit": false
    }
  ],
  "receipts": [
    {
      "status": "0x1",
      "cumulativeGasUsed": "0x1151057",
      "logs": [
        {
          "address": "0x000000000022D473030F116dDEE9F6B43aC78BA3",
          "topics": [
            "0xda9fa7c1b00402c17d0161b249b1ab8bbec047c5a52207b9c112deffd817036b",
            "0x00000000000000000000000012395366299c28492682f7853424554df0b81b38",
            "0x00000000000000000000000029f2d40b0605204364af54ec677bd022da425d03",
            "0x0000000000000000000000000bf61f706105ea44694f2e92986bd01c39930280"
          ],
          "data": "0x000000000000000000000000ffffffffffffffffffffffffffffffffffffffff0000000000000000000000000000000000000000000000000000000067daf324",
          "blockHash": "0xd1e0242908ff5e1c04e9d3514ce4bb34ed0478c5454c618af412d06c61796a1b",
          "blockNumber": "0x78fe10",
          "blockTimestamp": "0x67d9a1b0",
          "transactionHash": "0x87bec4c9be48279f9ee63eb604da8819ca66f400d6a55946262929e380090341",
          "transactionIndex": "0x7a",
          "logIndex": "0xba",
          "removed": false
        }
      ],
      "logsBloom": "0x00010000000000010000000000004000000000000004000000000000000000000000000000000000000000000000000000000000000000080000000000080000000000000000000000000000000000000000000000000000000000000000000000000000000000000000000000000000000000000000000000100000000000000020000000000000000000000000040000000000000000000000000000000000000000000000000000000000000000000000200000000000000000080000000000000000000000000000000000000000000000000000000040000000000000000000000000000000000000004000000000000000000000000000000002000400",
      "type": "0x2",
      "transactionHash": "0x87bec4c9be48279f9ee63eb604da8819ca66f400d6a55946262929e380090341",
      "transactionIndex": "0x7a",
      "blockHash": "0xd1e0242908ff5e1c04e9d3514ce4bb34ed0478c5454c618af412d06c61796a1b",
      "blockNumber": "0x78fe10",
      "gasUsed": "0x77e6",
      "effectiveGasPrice": "0x8065c57",
      "from": "0x12395366299C28492682f7853424554df0b81B38",
      "to": "0x000000000022D473030F116dDEE9F6B43aC78BA3",
      "contractAddress": null
    },
    {
      "status": "0x1",
      "cumulativeGasUsed": "0x115883d",
      "logs": [
        {
          "address": "0x000000000022D473030F116dDEE9F6B43aC78BA3",
          "topics": [
            "0xda9fa7c1b00402c17d0161b249b1ab8bbec047c5a52207b9c112deffd817036b",
            "0x00000000000000000000000012395366299c28492682f7853424554df0b81b38",
            "0x00000000000000000000000094a9d9ac8a22534e3faca9f4e7f2e2cf85d5e4c8",
            "0x0000000000000000000000000bf61f706105ea44694f2e92986bd01c39930280"
          ],
          "data": "0x000000000000000000000000ffffffffffffffffffffffffffffffffffffffff0000000000000000000000000000000000000000000000000000000067daf324",
          "blockHash": "0xd1e0242908ff5e1c04e9d3514ce4bb34ed0478c5454c618af412d06c61796a1b",
          "blockNumber": "0x78fe10",
          "blockTimestamp": "0x67d9a1b0",
          "transactionHash": "0x17bf7e72b09e505fd9f518614916a491ea8be5b7e86524aa73703080f33dd20a",
          "transactionIndex": "0x7b",
          "logIndex": "0xbb",
          "removed": false
        }
      ],
      "logsBloom": "0x00010000000000010200000000000000000000000004000000000000000000000000000000000000000100000000000000000000000000080000000000080000000000000000000000000000000000000000000000000000000000000000000000000000000000000000000000000000000000000000000000100000000000000020000000000000000000000000040000000000000000000000000000000000000000000000000000000000000000000000000000000000000000080000000000000000000000000000000000000000000000000000020040000000000000000000000000000000000000000000000000000000000000000000000002000400",
      "type": "0x2",
      "transactionHash": "0x17bf7e72b09e505fd9f518614916a491ea8be5b7e86524aa73703080f33dd20a",
      "transactionIndex": "0x7b",
      "blockHash": "0xd1e0242908ff5e1c04e9d3514ce4bb34ed0478c5454c618af412d06c61796a1b",
      "blockNumber": "0x78fe10",
      "gasUsed": "0x77e6",
      "effectiveGasPrice": "0x8065c57",
      "from": "0x12395366299C28492682f7853424554df0b81B38",
      "to": "0x000000000022D473030F116dDEE9F6B43aC78BA3",
      "contractAddress": null
    },
    {
      "status": "0x1",
      "cumulativeGasUsed": "0x117e927",
      "logs": [
        {
          "address": "0x29f2D40B0605204364af54EC677bD022dA425d03",
          "topics": [
            "0x8c5be1e5ebec7d5bd14f71427d1e84f3dd0314c0f7b2291e5b200ac8c7c3b925",
            "0x00000000000000000000000012395366299c28492682f7853424554df0b81b38",
            "0x0000000000000000000000000bf61f706105ea44694f2e92986bd01c39930280"
          ],
          "data": "0xffffffffffffffffffffffffffffffffffffffffffffffffffffffffffffffff",
          "blockHash": "0xd1e0242908ff5e1c04e9d3514ce4bb34ed0478c5454c618af412d06c61796a1b",
          "blockNumber": "0x78fe10",
          "blockTimestamp": "0x67d9a1b0",
          "transactionHash": "0xcf7d33eef787110e715da591ed9e240dcd939a4dcebe184881ea81ebf078c9ec",
          "transactionIndex": "0x7d",
          "logIndex": "0xbf",
          "removed": false
        }
      ],
      "logsBloom": "0x00000000000000010000000000000000000000000004400000000000000000000000000000000000000000000000000000000000000000080000000000200000000000000000000000000000004000000000000000000000000000000000000000000000000000000000000000000000000000000000000000100000000000000000000000000000000000000000040000000000000000000000000000000000020000000000000000000000000000000000000000000000000000000000000000000000000000000000000000000000000000200000000000000000000000000010000000000000000000000000000000000000000000000000000002000000",
      "type": "0x2",
      "transactionHash": "0xcf7d33eef787110e715da591ed9e240dcd939a4dcebe184881ea81ebf078c9ec",
      "transactionIndex": "0x7d",
      "blockHash": "0xd1e0242908ff5e1c04e9d3514ce4bb34ed0478c5454c618af412d06c61796a1b",
      "blockNumber": "0x78fe10",
      "gasUsed": "0x6827",
      "effectiveGasPrice": "0x8065c57",
      "from": "0x12395366299C28492682f7853424554df0b81B38",
      "to": "0x29f2D40B0605204364af54EC677bD022dA425d03",
      "contractAddress": null
    },
    {
      "status": "0x1",
      "cumulativeGasUsed": "0x118514e",
      "logs": [
        {
          "address": "0x94a9D9AC8a22534E3FaCa9F4e7F2E2cf85d5E4C8",
          "topics": [
            "0x8c5be1e5ebec7d5bd14f71427d1e84f3dd0314c0f7b2291e5b200ac8c7c3b925",
            "0x00000000000000000000000012395366299c28492682f7853424554df0b81b38",
            "0x0000000000000000000000000bf61f706105ea44694f2e92986bd01c39930280"
          ],
          "data": "0xffffffffffffffffffffffffffffffffffffffffffffffffffffffffffffffff",
          "blockHash": "0xd1e0242908ff5e1c04e9d3514ce4bb34ed0478c5454c618af412d06c61796a1b",
          "blockNumber": "0x78fe10",
          "blockTimestamp": "0x67d9a1b0",
          "transactionHash": "0xc34489bbf47109eb563b5a2cf0c8ab03e8f8121a6ff09f17d8e7f4053cc1356a",
          "transactionIndex": "0x7e",
          "logIndex": "0xc0",
          "removed": false
        }
      ],
      "logsBloom": "0x00000000000000010000000000000000000000000004000000000000000000000000000000000000000000000000000000000000000000080000000000200000000000000000000000000000000000000000000000000000000008000000000000000000000000000000000000000000000000000000000000100000000000000000000000000000000000000000040000000000000000000000000000000000020000000100000000004000000000000000000000000000000000000000000000000000000000000000000000000000000000000000000000000000000000000010000000000000000000000000000000000000000000000000000002000000",
      "type": "0x2",
      "transactionHash": "0xc34489bbf47109eb563b5a2cf0c8ab03e8f8121a6ff09f17d8e7f4053cc1356a",
      "transactionIndex": "0x7e",
      "blockHash": "0xd1e0242908ff5e1c04e9d3514ce4bb34ed0478c5454c618af412d06c61796a1b",
      "blockNumber": "0x78fe10",
      "gasUsed": "0x6827",
      "effectiveGasPrice": "0x8065c57",
      "from": "0x12395366299C28492682f7853424554df0b81B38",
      "to": "0x94a9D9AC8a22534E3FaCa9F4e7F2E2cf85d5E4C8",
      "contractAddress": null
    },
    {
      "status": "0x1",
      "cumulativeGasUsed": "0x11bf1ad",
      "logs": [
        {
          "address": "0xbA1333333333a1BA1108E8412f11850A5C319bA9",
          "topics": [
            "0xd1398bee19313d6bf672ccb116e51f4a1a947e91c757907f51fbb5b5e56c698f",
            "0x000000000000000000000000a3a6398f3b29b84a6657a1f4bce5c90f38462bf7",
            "0x0000000000000000000000000000000000000000000000000000000000000000",
            "0x00000000000000000000000012395366299c28492682f7853424554df0b81b38"
          ],
          "data": "0x000000000000000000000000000000000000000000000000000000746a52878d",
          "blockHash": "0xd1e0242908ff5e1c04e9d3514ce4bb34ed0478c5454c618af412d06c61796a1b",
          "blockNumber": "0x78fe10",
          "blockTimestamp": "0x67d9a1b0",
          "transactionHash": "0x87e4192d2774e7637bb2e3eaf656a1b89dd2688915aa07c7e05818fecc432c99",
          "transactionIndex": "0x7f",
          "logIndex": "0xc1",
          "removed": false
        },
        {
          "address": "0xA3a6398f3B29b84a6657A1f4bcE5c90F38462bf7",
          "topics": [
            "0xddf252ad1be2c89b69c2b068fc378daa952ba7f163c4a11628f55a4df523b3ef",
            "0x0000000000000000000000000000000000000000000000000000000000000000",
            "0x00000000000000000000000012395366299c28492682f7853424554df0b81b38"
          ],
          "data": "0x000000000000000000000000000000000000000000000000000000746a52878d",
          "blockHash": "0xd1e0242908ff5e1c04e9d3514ce4bb34ed0478c5454c618af412d06c61796a1b",
          "blockNumber": "0x78fe10",
          "blockTimestamp": "0x67d9a1b0",
          "transactionHash": "0x87e4192d2774e7637bb2e3eaf656a1b89dd2688915aa07c7e05818fecc432c99",
          "transactionIndex": "0x7f",
          "logIndex": "0xc2",
          "removed": false
        },
        {
          "address": "0xbA1333333333a1BA1108E8412f11850A5C319bA9",
          "topics": [
            "0xa26a52d8d53702bba7f137907b8e1f99ff87f6d450144270ca25e72481cca871",
            "0x000000000000000000000000a3a6398f3b29b84a6657a1f4bce5c90f38462bf7",
            "0x00000000000000000000000012395366299c28492682f7853424554df0b81b38",
            "0x0000000000000000000000000000000000000000000000000000000000000001"
          ],
          "data": "0x0000000000000000000000000000000000000000000000000000052f2279a32c000000000000000000000000000000000000000000000000000000000000006000000000000000000000000000000000000000000000000000000000000000c0000000000000000000000000000000000000000000000000000000000000000200000000000000000000000000000000000000000000000000000000000000050000000000000000000000000000000000000000000000000000000000000005000000000000000000000000000000000000000000000000000000000000000200000000000000000000000000000000000000000000000000000000000000000000000000000000000000000000000000000000000000000000000000000000",
          "blockHash": "0xd1e0242908ff5e1c04e9d3514ce4bb34ed0478c5454c618af412d06c61796a1b",
          "blockNumber": "0x78fe10",
          "blockTimestamp": "0x67d9a1b0",
          "transactionHash": "0x87e4192d2774e7637bb2e3eaf656a1b89dd2688915aa07c7e05818fecc432c99",
          "transactionIndex": "0x7f",
          "logIndex": "0xc3",
          "removed": false
        },
        {
          "address": "0x29f2D40B0605204364af54EC677bD022dA425d03",
          "topics": [
            "0xddf252ad1be2c89b69c2b068fc378daa952ba7f163c4a11628f55a4df523b3ef",
            "0x00000000000000000000000012395366299c28492682f7853424554df0b81b38",
            "0x000000000000000000000000ba1333333333a1ba1108e8412f11850a5c319ba9"
          ],
          "data": "0x0000000000000000000000000000000000000000000000000000000000000005",
          "blockHash": "0xd1e0242908ff5e1c04e9d3514ce4bb34ed0478c5454c618af412d06c61796a1b",
          "blockNumber": "0x78fe10",
          "blockTimestamp": "0x67d9a1b0",
          "transactionHash": "0x87e4192d2774e7637bb2e3eaf656a1b89dd2688915aa07c7e05818fecc432c99",
          "transactionIndex": "0x7f",
          "logIndex": "0xc4",
          "removed": false
        },
        {
          "address": "0x29f2D40B0605204364af54EC677bD022dA425d03",
          "topics": [
            "0x8c5be1e5ebec7d5bd14f71427d1e84f3dd0314c0f7b2291e5b200ac8c7c3b925",
            "0x00000000000000000000000012395366299c28492682f7853424554df0b81b38",
            "0x000000000000000000000000000000000022d473030f116ddee9f6b43ac78ba3"
          ],
          "data": "0xffffffffffffffffffffffffffffffffffffffffffffffffffffffffffffffc6",
          "blockHash": "0xd1e0242908ff5e1c04e9d3514ce4bb34ed0478c5454c618af412d06c61796a1b",
          "blockNumber": "0x78fe10",
          "blockTimestamp": "0x67d9a1b0",
          "transactionHash": "0x87e4192d2774e7637bb2e3eaf656a1b89dd2688915aa07c7e05818fecc432c99",
          "transactionIndex": "0x7f",
          "logIndex": "0xc5",
          "removed": false
        },
        {
          "address": "0x94a9D9AC8a22534E3FaCa9F4e7F2E2cf85d5E4C8",
          "topics": [
            "0xddf252ad1be2c89b69c2b068fc378daa952ba7f163c4a11628f55a4df523b3ef",
            "0x00000000000000000000000012395366299c28492682f7853424554df0b81b38",
            "0x000000000000000000000000ba1333333333a1ba1108e8412f11850a5c319ba9"
          ],
          "data": "0x0000000000000000000000000000000000000000000000000000000000000005",
          "blockHash": "0xd1e0242908ff5e1c04e9d3514ce4bb34ed0478c5454c618af412d06c61796a1b",
          "blockNumber": "0x78fe10",
          "blockTimestamp": "0x67d9a1b0",
          "transactionHash": "0x87e4192d2774e7637bb2e3eaf656a1b89dd2688915aa07c7e05818fecc432c99",
          "transactionIndex": "0x7f",
          "logIndex": "0xc6",
          "removed": false
        },
        {
          "address": "0x94a9D9AC8a22534E3FaCa9F4e7F2E2cf85d5E4C8",
          "topics": [
            "0x8c5be1e5ebec7d5bd14f71427d1e84f3dd0314c0f7b2291e5b200ac8c7c3b925",
            "0x00000000000000000000000012395366299c28492682f7853424554df0b81b38",
            "0x000000000000000000000000000000000022d473030f116ddee9f6b43ac78ba3"
          ],
          "data": "0xffffffffffffffffffffffffffffffffffffffffffffffffffffffffffffffc6",
          "blockHash": "0xd1e0242908ff5e1c04e9d3514ce4bb34ed0478c5454c618af412d06c61796a1b",
          "blockNumber": "0x78fe10",
          "blockTimestamp": "0x67d9a1b0",
          "transactionHash": "0x87e4192d2774e7637bb2e3eaf656a1b89dd2688915aa07c7e05818fecc432c99",
          "transactionIndex": "0x7f",
          "logIndex": "0xc7",
          "removed": false
        }
      ],
      "logsBloom": "0x00000000000000010040000000000000000080000000400000004000002000000000000000000000000000000000000000000000800000000000000000240000802000000000000000004008104000000000000000040800000008000000000000000000020000000000000000000800000001000000000000100010000000000000000000000000000000000000040000000001000000000000010000080000020000800180000000044000000000000000000000000000000000000000000000000002000000000000000000000000000004200000000000000000800060080010000000000000002000000000000000000000000000000000000000000000",
      "type": "0x2",
      "transactionHash": "0x87e4192d2774e7637bb2e3eaf656a1b89dd2688915aa07c7e05818fecc432c99",
      "transactionIndex": "0x7f",
      "blockHash": "0xd1e0242908ff5e1c04e9d3514ce4bb34ed0478c5454c618af412d06c61796a1b",
      "blockNumber": "0x78fe10",
      "gasUsed": "0x3a05f",
      "effectiveGasPrice": "0x8065c57",
      "from": "0x12395366299C28492682f7853424554df0b81B38",
      "to": "0x0BF61f706105EA44694f2e92986bD01C39930280",
      "contractAddress": null
    }
  ],
  "libraries": [],
  "pending": [],
  "returns": {},
  "timestamp": 1742315959,
  "chain": 11155111,
  "commit": "c5d8f79"
}