{
  "transactions": [
    {
      "hash": "0x88b8112ad5988a04d6f7f1a9694aad7e89c128e25245945b5e1625af24869d95",
      "transactionType": "CALL",
      "contractName": null,
      "contractAddress": "0x000000000022D473030F116dDEE9F6B43aC78BA3",
      "function": "approve(address,address,uint160,uint48)",
      "arguments": [
        "0x29f2D40B0605204364af54EC677bD022dA425d03",
        "0x0BF61f706105EA44694f2e92986bD01C39930280",
        "1461501637330902918203684832716283019655932542975",
        "1742402364"
      ],
      "transaction": {
        "from": "0x12395366299C28492682f7853424554df0b81B38",
        "to": "0x000000000022D473030F116dDEE9F6B43aC78BA3",
        "gas": "0xa59b",
        "value": "0x0",
        "input": "0x87517c4500000000000000000000000029f2d40b0605204364af54ec677bd022da425d030000000000000000000000000bf61f706105ea44694f2e92986bd01c39930280000000000000000000000000ffffffffffffffffffffffffffffffffffffffff0000000000000000000000000000000000000000000000000000000067daf33c",
        "nonce": "0xd6",
        "chainId": "0xaa36a7"
      },
      "additionalContracts": [],
      "isFixedGasLimit": false
    },
    {
      "hash": "0x55364f5b6dd8cdf3ae5e470b85f0da5dd293c4c017bf1f2cc5754715e100b1ec",
      "transactionType": "CALL",
      "contractName": null,
      "contractAddress": "0x000000000022D473030F116dDEE9F6B43aC78BA3",
      "function": "approve(address,address,uint160,uint48)",
      "arguments": [
        "0x94a9D9AC8a22534E3FaCa9F4e7F2E2cf85d5E4C8",
        "0x0BF61f706105EA44694f2e92986bD01C39930280",
        "1461501637330902918203684832716283019655932542975",
        "1742402364"
      ],
      "transaction": {
        "from": "0x12395366299C28492682f7853424554df0b81B38",
        "to": "0x000000000022D473030F116dDEE9F6B43aC78BA3",
        "gas": "0xa59b",
        "value": "0x0",
        "input": "0x87517c4500000000000000000000000094a9d9ac8a22534e3faca9f4e7f2e2cf85d5e4c80000000000000000000000000bf61f706105ea44694f2e92986bd01c39930280000000000000000000000000ffffffffffffffffffffffffffffffffffffffff0000000000000000000000000000000000000000000000000000000067daf33c",
        "nonce": "0xd7",
        "chainId": "0xaa36a7"
      },
      "additionalContracts": [],
      "isFixedGasLimit": false
    },
    {
      "hash": "0x29a0e2a3d5230051828aac87ec77090bf7dc0649265611b6b8fe58b74cbf83be",
      "transactionType": "CALL",
      "contractName": null,
      "contractAddress": "0x29f2D40B0605204364af54EC677bD022dA425d03",
      "function": "approve(address,uint256)",
      "arguments": [
        "0x0BF61f706105EA44694f2e92986bD01C39930280",
        "115792089237316195423570985008687907853269984665640564039457584007913129639935"
      ],
      "transaction": {
        "from": "0x12395366299C28492682f7853424554df0b81B38",
        "to": "0x29f2D40B0605204364af54EC677bD022dA425d03",
        "gas": "0x8fdb",
        "value": "0x0",
        "input": "0x095ea7b30000000000000000000000000bf61f706105ea44694f2e92986bd01c39930280ffffffffffffffffffffffffffffffffffffffffffffffffffffffffffffffff",
        "nonce": "0xd8",
        "chainId": "0xaa36a7"
      },
      "additionalContracts": [],
      "isFixedGasLimit": false
    },
    {
      "hash": "0x7b4a1a6806d93bae7930edd2de7f7179512fdbbc9d22beb1d942ed16c2659de8",
      "transactionType": "CALL",
      "contractName": null,
      "contractAddress": "0x94a9D9AC8a22534E3FaCa9F4e7F2E2cf85d5E4C8",
      "function": "approve(address,uint256)",
      "arguments": [
        "0x0BF61f706105EA44694f2e92986bD01C39930280",
        "115792089237316195423570985008687907853269984665640564039457584007913129639935"
      ],
      "transaction": {
        "from": "0x12395366299C28492682f7853424554df0b81B38",
        "to": "0x94a9D9AC8a22534E3FaCa9F4e7F2E2cf85d5E4C8",
        "gas": "0x8fdb",
        "value": "0x0",
        "input": "0x095ea7b30000000000000000000000000bf61f706105ea44694f2e92986bd01c39930280ffffffffffffffffffffffffffffffffffffffffffffffffffffffffffffffff",
        "nonce": "0xd9",
        "chainId": "0xaa36a7"
      },
      "additionalContracts": [],
      "isFixedGasLimit": false
    },
    {
      "hash": "0x69dcee50cdf005a68474d367beb5d20de3aba634c1c8d877c6027f8b4465381e",
      "transactionType": "CALL",
      "contractName": null,
      "contractAddress": "0x0BF61f706105EA44694f2e92986bD01C39930280",
      "function": "addLiquidityUnbalanced(address,uint256[],uint256,bool,bytes)",
      "arguments": [
        "0xA3a6398f3B29b84a6657A1f4bcE5c90F38462bf7",
        "[10, 10]",
        "0",
        "false",
        "0x"
      ],
      "transaction": {
        "from": "0x12395366299C28492682f7853424554df0b81B38",
        "to": "0x0BF61f706105EA44694f2e92986bD01C39930280",
        "gas": "0x54d42",
        "value": "0x0",
        "input": "0xc08bc851000000000000000000000000a3a6398f3b29b84a6657a1f4bce5c90f38462bf700000000000000000000000000000000000000000000000000000000000000a00000000000000000000000000000000000000000000000000000000000000000000000000000000000000000000000000000000000000000000000000000000000000000000000000000000000000000000000000000000000000000000001000000000000000000000000000000000000000000000000000000000000000002000000000000000000000000000000000000000000000000000000000000000a000000000000000000000000000000000000000000000000000000000000000a0000000000000000000000000000000000000000000000000000000000000000",
        "nonce": "0xda",
        "chainId": "0xaa36a7"
      },
      "additionalContracts": [],
      "isFixedGasLimit": false
    }
  ],
  "receipts": [
    {
      "status": "0x1",
      "cumulativeGasUsed": "0xc7536a",
      "logs": [
        {
          "address": "0x000000000022D473030F116dDEE9F6B43aC78BA3",
          "topics": [
            "0xda9fa7c1b00402c17d0161b249b1ab8bbec047c5a52207b9c112deffd817036b",
            "0x00000000000000000000000012395366299c28492682f7853424554df0b81b38",
            "0x00000000000000000000000029f2d40b0605204364af54ec677bd022da425d03",
            "0x0000000000000000000000000bf61f706105ea44694f2e92986bd01c39930280"
          ],
          "data": "0x000000000000000000000000ffffffffffffffffffffffffffffffffffffffff0000000000000000000000000000000000000000000000000000000067daf33c",
          "blockHash": "0xaba7cace1a6b010cc1c7ae3a47c9507b9a982f15135702fa5cf2f575377b9f1c",
          "blockNumber": "0x78fe12",
          "blockTimestamp": "0x67d9a1c8",
          "transactionHash": "0x88b8112ad5988a04d6f7f1a9694aad7e89c128e25245945b5e1625af24869d95",
          "transactionIndex": "0x62",
          "logIndex": "0x84",
          "removed": false
        }
      ],
      "logsBloom": "0x00010000000000010000000000004000000000000004000000000000000000000000000000000000000000000000000000000000000000080000000000080000000000000000000000000000000000000000000000000000000000000000000000000000000000000000000000000000000000000000000000100000000000000020000000000000000000000000040000000000000000000000000000000000000000000000000000000000000000000000200000000000000000080000000000000000000000000000000000000000000000000000000040000000000000000000000000000000000000004000000000000000000000000000000002000400",
      "type": "0x2",
      "transactionHash": "0x88b8112ad5988a04d6f7f1a9694aad7e89c128e25245945b5e1625af24869d95",
      "transactionIndex": "0x62",
      "blockHash": "0xaba7cace1a6b010cc1c7ae3a47c9507b9a982f15135702fa5cf2f575377b9f1c",
      "blockNumber": "0x78fe12",
      "gasUsed": "0x77e6",
      "effectiveGasPrice": "0x7a8828f",
      "from": "0x12395366299C28492682f7853424554df0b81B38",
      "to": "0x000000000022D473030F116dDEE9F6B43aC78BA3",
      "contractAddress": null
    },
    {
      "status": "0x1",
      "cumulativeGasUsed": "0xc7cb50",
      "logs": [
        {
          "address": "0x000000000022D473030F116dDEE9F6B43aC78BA3",
          "topics": [
            "0xda9fa7c1b00402c17d0161b249b1ab8bbec047c5a52207b9c112deffd817036b",
            "0x00000000000000000000000012395366299c28492682f7853424554df0b81b38",
            "0x00000000000000000000000094a9d9ac8a22534e3faca9f4e7f2e2cf85d5e4c8",
            "0x0000000000000000000000000bf61f706105ea44694f2e92986bd01c39930280"
          ],
          "data": "0x000000000000000000000000ffffffffffffffffffffffffffffffffffffffff0000000000000000000000000000000000000000000000000000000067daf33c",
          "blockHash": "0xaba7cace1a6b010cc1c7ae3a47c9507b9a982f15135702fa5cf2f575377b9f1c",
          "blockNumber": "0x78fe12",
          "blockTimestamp": "0x67d9a1c8",
          "transactionHash": "0x55364f5b6dd8cdf3ae5e470b85f0da5dd293c4c017bf1f2cc5754715e100b1ec",
          "transactionIndex": "0x63",
          "logIndex": "0x85",
          "removed": false
        }
      ],
      "logsBloom": "0x00010000000000010200000000000000000000000004000000000000000000000000000000000000000100000000000000000000000000080000000000080000000000000000000000000000000000000000000000000000000000000000000000000000000000000000000000000000000000000000000000100000000000000020000000000000000000000000040000000000000000000000000000000000000000000000000000000000000000000000000000000000000000080000000000000000000000000000000000000000000000000000020040000000000000000000000000000000000000000000000000000000000000000000000002000400",
      "type": "0x2",
      "transactionHash": "0x55364f5b6dd8cdf3ae5e470b85f0da5dd293c4c017bf1f2cc5754715e100b1ec",
      "transactionIndex": "0x63",
      "blockHash": "0xaba7cace1a6b010cc1c7ae3a47c9507b9a982f15135702fa5cf2f575377b9f1c",
      "blockNumber": "0x78fe12",
      "gasUsed": "0x77e6",
      "effectiveGasPrice": "0x7a8828f",
      "from": "0x12395366299C28492682f7853424554df0b81B38",
      "to": "0x000000000022D473030F116dDEE9F6B43aC78BA3",
      "contractAddress": null
    },
    {
      "status": "0x1",
      "cumulativeGasUsed": "0xc83377",
      "logs": [
        {
          "address": "0x29f2D40B0605204364af54EC677bD022dA425d03",
          "topics": [
            "0x8c5be1e5ebec7d5bd14f71427d1e84f3dd0314c0f7b2291e5b200ac8c7c3b925",
            "0x00000000000000000000000012395366299c28492682f7853424554df0b81b38",
            "0x0000000000000000000000000bf61f706105ea44694f2e92986bd01c39930280"
          ],
          "data": "0xffffffffffffffffffffffffffffffffffffffffffffffffffffffffffffffff",
          "blockHash": "0xaba7cace1a6b010cc1c7ae3a47c9507b9a982f15135702fa5cf2f575377b9f1c",
          "blockNumber": "0x78fe12",
          "blockTimestamp": "0x67d9a1c8",
          "transactionHash": "0x29a0e2a3d5230051828aac87ec77090bf7dc0649265611b6b8fe58b74cbf83be",
          "transactionIndex": "0x64",
          "logIndex": "0x86",
          "removed": false
        }
      ],
      "logsBloom": "0x00000000000000010000000000000000000000000004400000000000000000000000000000000000000000000000000000000000000000080000000000200000000000000000000000000000004000000000000000000000000000000000000000000000000000000000000000000000000000000000000000100000000000000000000000000000000000000000040000000000000000000000000000000000020000000000000000000000000000000000000000000000000000000000000000000000000000000000000000000000000000200000000000000000000000000010000000000000000000000000000000000000000000000000000002000000",
      "type": "0x2",
      "transactionHash": "0x29a0e2a3d5230051828aac87ec77090bf7dc0649265611b6b8fe58b74cbf83be",
      "transactionIndex": "0x64",
      "blockHash": "0xaba7cace1a6b010cc1c7ae3a47c9507b9a982f15135702fa5cf2f575377b9f1c",
      "blockNumber": "0x78fe12",
      "gasUsed": "0x6827",
      "effectiveGasPrice": "0x7a8828f",
      "from": "0x12395366299C28492682f7853424554df0b81B38",
      "to": "0x29f2D40B0605204364af54EC677bD022dA425d03",
      "contractAddress": null
    },
    {
      "status": "0x1",
      "cumulativeGasUsed": "0xc89b9e",
      "logs": [
        {
          "address": "0x94a9D9AC8a22534E3FaCa9F4e7F2E2cf85d5E4C8",
          "topics": [
            "0x8c5be1e5ebec7d5bd14f71427d1e84f3dd0314c0f7b2291e5b200ac8c7c3b925",
            "0x00000000000000000000000012395366299c28492682f7853424554df0b81b38",
            "0x0000000000000000000000000bf61f706105ea44694f2e92986bd01c39930280"
          ],
          "data": "0xffffffffffffffffffffffffffffffffffffffffffffffffffffffffffffffff",
          "blockHash": "0xaba7cace1a6b010cc1c7ae3a47c9507b9a982f15135702fa5cf2f575377b9f1c",
          "blockNumber": "0x78fe12",
          "blockTimestamp": "0x67d9a1c8",
          "transactionHash": "0x7b4a1a6806d93bae7930edd2de7f7179512fdbbc9d22beb1d942ed16c2659de8",
          "transactionIndex": "0x65",
          "logIndex": "0x87",
          "removed": false
        }
      ],
      "logsBloom": "0x00000000000000010000000000000000000000000004000000000000000000000000000000000000000000000000000000000000000000080000000000200000000000000000000000000000000000000000000000000000000008000000000000000000000000000000000000000000000000000000000000100000000000000000000000000000000000000000040000000000000000000000000000000000020000000100000000004000000000000000000000000000000000000000000000000000000000000000000000000000000000000000000000000000000000000010000000000000000000000000000000000000000000000000000002000000",
      "type": "0x2",
      "transactionHash": "0x7b4a1a6806d93bae7930edd2de7f7179512fdbbc9d22beb1d942ed16c2659de8",
      "transactionIndex": "0x65",
      "blockHash": "0xaba7cace1a6b010cc1c7ae3a47c9507b9a982f15135702fa5cf2f575377b9f1c",
      "blockNumber": "0x78fe12",
      "gasUsed": "0x6827",
      "effectiveGasPrice": "0x7a8828f",
      "from": "0x12395366299C28492682f7853424554df0b81B38",
      "to": "0x94a9D9AC8a22534E3FaCa9F4e7F2E2cf85d5E4C8",
      "contractAddress": null
    },
    {
      "status": "0x1",
      "cumulativeGasUsed": "0xcc3ba9",
      "logs": [
        {
          "address": "0xbA1333333333a1BA1108E8412f11850A5C319bA9",
          "topics": [
            "0xd1398bee19313d6bf672ccb116e51f4a1a947e91c757907f51fbb5b5e56c698f",
            "0x000000000000000000000000a3a6398f3b29b84a6657a1f4bce5c90f38462bf7",
            "0x0000000000000000000000000000000000000000000000000000000000000000",
            "0x00000000000000000000000012395366299c28492682f7853424554df0b81b38"
          ],
          "data": "0x000000000000000000000000000000000000000000000000000000e8d4a50f1f",
          "blockHash": "0xaba7cace1a6b010cc1c7ae3a47c9507b9a982f15135702fa5cf2f575377b9f1c",
          "blockNumber": "0x78fe12",
          "blockTimestamp": "0x67d9a1c8",
          "transactionHash": "0x69dcee50cdf005a68474d367beb5d20de3aba634c1c8d877c6027f8b4465381e",
          "transactionIndex": "0x66",
          "logIndex": "0x88",
          "removed": false
        },
        {
          "address": "0xA3a6398f3B29b84a6657A1f4bcE5c90F38462bf7",
          "topics": [
            "0xddf252ad1be2c89b69c2b068fc378daa952ba7f163c4a11628f55a4df523b3ef",
            "0x0000000000000000000000000000000000000000000000000000000000000000",
            "0x00000000000000000000000012395366299c28492682f7853424554df0b81b38"
          ],
          "data": "0x000000000000000000000000000000000000000000000000000000e8d4a50f1f",
          "blockHash": "0xaba7cace1a6b010cc1c7ae3a47c9507b9a982f15135702fa5cf2f575377b9f1c",
          "blockNumber": "0x78fe12",
          "blockTimestamp": "0x67d9a1c8",
          "transactionHash": "0x69dcee50cdf005a68474d367beb5d20de3aba634c1c8d877c6027f8b4465381e",
          "transactionIndex": "0x66",
          "logIndex": "0x89",
          "removed": false
        },
        {
          "address": "0xbA1333333333a1BA1108E8412f11850A5C319bA9",
          "topics": [
            "0xa26a52d8d53702bba7f137907b8e1f99ff87f6d450144270ca25e72481cca871",
            "0x000000000000000000000000a3a6398f3b29b84a6657a1f4bce5c90f38462bf7",
            "0x00000000000000000000000012395366299c28492682f7853424554df0b81b38",
            "0x0000000000000000000000000000000000000000000000000000000000000001"
          ],
          "data": "0x00000000000000000000000000000000000000000000000000000617f71eb24b000000000000000000000000000000000000000000000000000000000000006000000000000000000000000000000000000000000000000000000000000000c00000000000000000000000000000000000000000000000000000000000000002000000000000000000000000000000000000000000000000000000000000000a000000000000000000000000000000000000000000000000000000000000000a000000000000000000000000000000000000000000000000000000000000000200000000000000000000000000000000000000000000000000000000000000000000000000000000000000000000000000000000000000000000000000000000",
          "blockHash": "0xaba7cace1a6b010cc1c7ae3a47c9507b9a982f15135702fa5cf2f575377b9f1c",
          "blockNumber": "0x78fe12",
          "blockTimestamp": "0x67d9a1c8",
          "transactionHash": "0x69dcee50cdf005a68474d367beb5d20de3aba634c1c8d877c6027f8b4465381e",
          "transactionIndex": "0x66",
          "logIndex": "0x8a",
          "removed": false
        },
        {
          "address": "0x29f2D40B0605204364af54EC677bD022dA425d03",
          "topics": [
            "0xddf252ad1be2c89b69c2b068fc378daa952ba7f163c4a11628f55a4df523b3ef",
            "0x00000000000000000000000012395366299c28492682f7853424554df0b81b38",
            "0x000000000000000000000000ba1333333333a1ba1108e8412f11850a5c319ba9"
          ],
          "data": "0x000000000000000000000000000000000000000000000000000000000000000a",
          "blockHash": "0xaba7cace1a6b010cc1c7ae3a47c9507b9a982f15135702fa5cf2f575377b9f1c",
          "blockNumber": "0x78fe12",
          "blockTimestamp": "0x67d9a1c8",
          "transactionHash": "0x69dcee50cdf005a68474d367beb5d20de3aba634c1c8d877c6027f8b4465381e",
          "transactionIndex": "0x66",
          "logIndex": "0x8b",
          "removed": false
        },
        {
          "address": "0x29f2D40B0605204364af54EC677bD022dA425d03",
          "topics": [
            "0x8c5be1e5ebec7d5bd14f71427d1e84f3dd0314c0f7b2291e5b200ac8c7c3b925",
            "0x00000000000000000000000012395366299c28492682f7853424554df0b81b38",
            "0x000000000000000000000000000000000022d473030f116ddee9f6b43ac78ba3"
          ],
          "data": "0xffffffffffffffffffffffffffffffffffffffffffffffffffffffffffffffbc",
          "blockHash": "0xaba7cace1a6b010cc1c7ae3a47c9507b9a982f15135702fa5cf2f575377b9f1c",
          "blockNumber": "0x78fe12",
          "blockTimestamp": "0x67d9a1c8",
          "transactionHash": "0x69dcee50cdf005a68474d367beb5d20de3aba634c1c8d877c6027f8b4465381e",
          "transactionIndex": "0x66",
          "logIndex": "0x8c",
          "removed": false
        },
        {
          "address": "0x94a9D9AC8a22534E3FaCa9F4e7F2E2cf85d5E4C8",
          "topics": [
            "0xddf252ad1be2c89b69c2b068fc378daa952ba7f163c4a11628f55a4df523b3ef",
            "0x00000000000000000000000012395366299c28492682f7853424554df0b81b38",
            "0x000000000000000000000000ba1333333333a1ba1108e8412f11850a5c319ba9"
          ],
          "data": "0x000000000000000000000000000000000000000000000000000000000000000a",
          "blockHash": "0xaba7cace1a6b010cc1c7ae3a47c9507b9a982f15135702fa5cf2f575377b9f1c",
          "blockNumber": "0x78fe12",
          "blockTimestamp": "0x67d9a1c8",
          "transactionHash": "0x69dcee50cdf005a68474d367beb5d20de3aba634c1c8d877c6027f8b4465381e",
          "transactionIndex": "0x66",
          "logIndex": "0x8d",
          "removed": false
        },
        {
          "address": "0x94a9D9AC8a22534E3FaCa9F4e7F2E2cf85d5E4C8",
          "topics": [
            "0x8c5be1e5ebec7d5bd14f71427d1e84f3dd0314c0f7b2291e5b200ac8c7c3b925",
            "0x00000000000000000000000012395366299c28492682f7853424554df0b81b38",
            "0x000000000000000000000000000000000022d473030f116ddee9f6b43ac78ba3"
          ],
          "data": "0xffffffffffffffffffffffffffffffffffffffffffffffffffffffffffffffbc",
          "blockHash": "0xaba7cace1a6b010cc1c7ae3a47c9507b9a982f15135702fa5cf2f575377b9f1c",
          "blockNumber": "0x78fe12",
          "blockTimestamp": "0x67d9a1c8",
          "transactionHash": "0x69dcee50cdf005a68474d367beb5d20de3aba634c1c8d877c6027f8b4465381e",
          "transactionIndex": "0x66",
          "logIndex": "0x8e",
          "removed": false
        }
      ],
      "logsBloom": "0x00000000000000010040000000000000000080000000400000004000002000000000000000000000000000000000000000000000800000000000000000240000802000000000000000004008104000000000000000040800000008000000000000000000020000000000000000000800000001000000000000100010000000000000000000000000000000000000040000000001000000000000010000080000020000800180000000044000000000000000000000000000000000000000000000000002000000000000000000000000000004200000000000000000800060080010000000000000002000000000000000000000000000000000000000000000",
      "type": "0x2",
      "transactionHash": "0x69dcee50cdf005a68474d367beb5d20de3aba634c1c8d877c6027f8b4465381e",
      "transactionIndex": "0x66",
      "blockHash": "0xaba7cace1a6b010cc1c7ae3a47c9507b9a982f15135702fa5cf2f575377b9f1c",
      "blockNumber": "0x78fe12",
      "gasUsed": "0x3a00b",
      "effectiveGasPrice": "0x7a8828f",
      "from": "0x12395366299C28492682f7853424554df0b81B38",
      "to": "0x0BF61f706105EA44694f2e92986bD01C39930280",
      "contractAddress": null
    }
  ],
  "libraries": [],
  "pending": [],
  "returns": {},
  "timestamp": 1742315980,
  "chain": 11155111,
  "commit": "c5d8f79"
}