{
  "transactions": [
    {
      "hash": "0x3e4b744fc87feada29a51426614e4127c31cb612352e5602cb68f93f62049b1e",
      "transactionType": "CALL",
      "contractName": null,
      "contractAddress": "0x0BF61f706105EA44694f2e92986bD01C39930280",
      "function": "addLiquidityUnbalanced(address,uint256[],uint256,bool,bytes)",
      "arguments": [
        "0xA3a6398f3B29b84a6657A1f4bcE5c90F38462bf7",
        "[100000000, 100000000]",
        "0",
        "false",
        "0x"
      ],
      "transaction": {
        "from": "0x12395366299C28492682f7853424554df0b81B38",
        "to": "0x0BF61f706105EA44694f2e92986bD01C39930280",
        "gas": "0x55c26",
        "value": "0x0",
        "input": "0xc08bc851000000000000000000000000a3a6398f3b29b84a6657a1f4bce5c90f38462bf700000000000000000000000000000000000000000000000000000000000000a000000000000000000000000000000000000000000000000000000000000000000000000000000000000000000000000000000000000000000000000000000000000000000000000000000000000000000000000000000000000000000000010000000000000000000000000000000000000000000000000000000000000000020000000000000000000000000000000000000000000000000000000005f5e1000000000000000000000000000000000000000000000000000000000005f5e1000000000000000000000000000000000000000000000000000000000000000000",
        "nonce": "0x13b",
        "chainId": "0xaa36a7"
      },
      "additionalContracts": [],
      "isFixedGasLimit": false
    }
  ],
  "receipts": [
    {
      "status": "0x1",
      "cumulativeGasUsed": "0x986413",
      "logs": [
        {
          "address": "0xbA1333333333a1BA1108E8412f11850A5C319bA9",
          "topics": [
            "0xd1398bee19313d6bf672ccb116e51f4a1a947e91c757907f51fbb5b5e56c698f",
            "0x000000000000000000000000a3a6398f3b29b84a6657a1f4bce5c90f38462bf7",
            "0x0000000000000000000000000000000000000000000000000000000000000000",
            "0x00000000000000000000000012395366299c28492682f7853424554df0b81b38"
          ],
          "data": "0x0000000000000000000000000000000000000000000000008ac7230403bb73e5",
          "blockHash": "0x9a747c52a59988b69cb1b95cd1f8ec1cdaaa0d0fc432bf81f5cd3e12875f1bd6",
          "blockNumber": "0x78fe6c",
          "blockTimestamp": "0x67d9a600",
          "transactionHash": "0x3e4b744fc87feada29a51426614e4127c31cb612352e5602cb68f93f62049b1e",
          "transactionIndex": "0x7f",
          "logIndex": "0x9a",
          "removed": false
        },
        {
          "address": "0xA3a6398f3B29b84a6657A1f4bcE5c90F38462bf7",
          "topics": [
            "0xddf252ad1be2c89b69c2b068fc378daa952ba7f163c4a11628f55a4df523b3ef",
            "0x0000000000000000000000000000000000000000000000000000000000000000",
            "0x00000000000000000000000012395366299c28492682f7853424554df0b81b38"
          ],
          "data": "0x0000000000000000000000000000000000000000000000008ac7230403bb73e5",
          "blockHash": "0x9a747c52a59988b69cb1b95cd1f8ec1cdaaa0d0fc432bf81f5cd3e12875f1bd6",
          "blockNumber": "0x78fe6c",
          "blockTimestamp": "0x67d9a600",
          "transactionHash": "0x3e4b744fc87feada29a51426614e4127c31cb612352e5602cb68f93f62049b1e",
          "transactionIndex": "0x7f",
          "logIndex": "0x9b",
          "removed": false
        },
        {
          "address": "0xbA1333333333a1BA1108E8412f11850A5C319bA9",
          "topics": [
            "0xa26a52d8d53702bba7f137907b8e1f99ff87f6d450144270ca25e72481cca871",
            "0x000000000000000000000000a3a6398f3b29b84a6657a1f4bce5c90f38462bf7",
            "0x00000000000000000000000012395366299c28492682f7853424554df0b81b38",
            "0x0000000000000000000000000000000000000000000000000000000000000001"
          ],
          "data": "0x000000000000000000000000000000000000000000000000d3ff905e7cf2142c000000000000000000000000000000000000000000000000000000000000006000000000000000000000000000000000000000000000000000000000000000c000000000000000000000000000000000000000000000000000000000000000020000000000000000000000000000000000000000000000000000000005f5e1000000000000000000000000000000000000000000000000000000000005f5e100000000000000000000000000000000000000000000000000000000000000000200000000000000000000000000000000000000000000000000000000000000000000000000000000000000000000000000000000000000000000000000000000",
          "blockHash": "0x9a747c52a59988b69cb1b95cd1f8ec1cdaaa0d0fc432bf81f5cd3e12875f1bd6",
          "blockNumber": "0x78fe6c",
          "blockTimestamp": "0x67d9a600",
          "transactionHash": "0x3e4b744fc87feada29a51426614e4127c31cb612352e5602cb68f93f62049b1e",
          "transactionIndex": "0x7f",
          "logIndex": "0x9c",
          "removed": false
        },
        {
          "address": "0x29f2D40B0605204364af54EC677bD022dA425d03",
          "topics": [
            "0xddf252ad1be2c89b69c2b068fc378daa952ba7f163c4a11628f55a4df523b3ef",
            "0x00000000000000000000000012395366299c28492682f7853424554df0b81b38",
            "0x000000000000000000000000ba1333333333a1ba1108e8412f11850a5c319ba9"
          ],
          "data": "0x0000000000000000000000000000000000000000000000000000000005f5e100",
          "blockHash": "0x9a747c52a59988b69cb1b95cd1f8ec1cdaaa0d0fc432bf81f5cd3e12875f1bd6",
          "blockNumber": "0x78fe6c",
          "blockTimestamp": "0x67d9a600",
          "transactionHash": "0x3e4b744fc87feada29a51426614e4127c31cb612352e5602cb68f93f62049b1e",
          "transactionIndex": "0x7f",
          "logIndex": "0x9d",
          "removed": false
        },
        {
          "address": "0x29f2D40B0605204364af54EC677bD022dA425d03",
          "topics": [
            "0x8c5be1e5ebec7d5bd14f71427d1e84f3dd0314c0f7b2291e5b200ac8c7c3b925",
            "0x00000000000000000000000012395366299c28492682f7853424554df0b81b38",
            "0x000000000000000000000000000000000022d473030f116ddee9f6b43ac78ba3"
          ],
          "data": "0xfffffffffffffffffffffffffffffffffffffffffffffffffffffffff6e50dd7",
          "blockHash": "0x9a747c52a59988b69cb1b95cd1f8ec1cdaaa0d0fc432bf81f5cd3e12875f1bd6",
          "blockNumber": "0x78fe6c",
          "blockTimestamp": "0x67d9a600",
          "transactionHash": "0x3e4b744fc87feada29a51426614e4127c31cb612352e5602cb68f93f62049b1e",
          "transactionIndex": "0x7f",
          "logIndex": "0x9e",
          "removed": false
        },
        {
          "address": "0x94a9D9AC8a22534E3FaCa9F4e7F2E2cf85d5E4C8",
          "topics": [
            "0xddf252ad1be2c89b69c2b068fc378daa952ba7f163c4a11628f55a4df523b3ef",
            "0x00000000000000000000000012395366299c28492682f7853424554df0b81b38",
            "0x000000000000000000000000ba1333333333a1ba1108e8412f11850a5c319ba9"
          ],
          "data": "0x0000000000000000000000000000000000000000000000000000000005f5e100",
          "blockHash": "0x9a747c52a59988b69cb1b95cd1f8ec1cdaaa0d0fc432bf81f5cd3e12875f1bd6",
          "blockNumber": "0x78fe6c",
          "blockTimestamp": "0x67d9a600",
          "transactionHash": "0x3e4b744fc87feada29a51426614e4127c31cb612352e5602cb68f93f62049b1e",
          "transactionIndex": "0x7f",
          "logIndex": "0x9f",
          "removed": false
        },
        {
          "address": "0x94a9D9AC8a22534E3FaCa9F4e7F2E2cf85d5E4C8",
          "topics": [
            "0x8c5be1e5ebec7d5bd14f71427d1e84f3dd0314c0f7b2291e5b200ac8c7c3b925",
            "0x00000000000000000000000012395366299c28492682f7853424554df0b81b38",
            "0x000000000000000000000000000000000022d473030f116ddee9f6b43ac78ba3"
          ],
          "data": "0xfffffffffffffffffffffffffffffffffffffffffffffffffffffffff6e50dd7",
          "blockHash": "0x9a747c52a59988b69cb1b95cd1f8ec1cdaaa0d0fc432bf81f5cd3e12875f1bd6",
          "blockNumber": "0x78fe6c",
          "blockTimestamp": "0x67d9a600",
          "transactionHash": "0x3e4b744fc87feada29a51426614e4127c31cb612352e5602cb68f93f62049b1e",
          "transactionIndex": "0x7f",
          "logIndex": "0xa0",
          "removed": false
        }
      ],
      "logsBloom": "0x00000000000000010040000000000000000080000000400000004000002000000000000000000000000000000000000000000000800000000000000000240000802000000000000000004008104000000000000000040800000008000000000000000000020000000000000000000800000001000000000000100010000000000000000000000000000000000000040000000001000000000000010000080000020000800180000000044000000000000000000000000000000000000000000000000002000000000000000000000000000004200000000000000000800060080010000000000000002000000000000000000000000000000000000000000000",
      "type": "0x2",
      "transactionHash": "0x3e4b744fc87feada29a51426614e4127c31cb612352e5602cb68f93f62049b1e",
      "transactionIndex": "0x7f",
      "blockHash": "0x9a747c52a59988b69cb1b95cd1f8ec1cdaaa0d0fc432bf81f5cd3e12875f1bd6",
      "blockNumber": "0x78fe6c",
      "gasUsed": "0x3aa39",
      "effectiveGasPrice": "0x4d26231",
      "from": "0x12395366299C28492682f7853424554df0b81B38",
      "to": "0x0BF61f706105EA44694f2e92986bD01C39930280",
      "contractAddress": null
    }
  ],
  "libraries": [],
  "pending": [],
  "returns": {},
  "timestamp": 1742317060,
  "chain": 11155111,
  "commit": "c5d8f79"
}