{
  "transactions": [
    {
      "hash": "0xfda291d2065025aae926c5f3d30a9c9ab27731eff0e895e8f24d5ba69eadab3c",
      "transactionType": "CALL",
      "contractName": null,
      "contractAddress": "0x000000000022D473030F116dDEE9F6B43aC78BA3",
      "function": "approve(address,address,uint160,uint48)",
      "arguments": [
        "0x29f2D40B0605204364af54EC677bD022dA425d03",
        "0x0BF61f706105EA44694f2e92986bD01C39930280",
        "1461501637330902918203684832716283019655932542975",
        "1742402508"
      ],
      "transaction": {
        "from": "0x12395366299C28492682f7853424554df0b81B38",
        "to": "0x000000000022D473030F116dDEE9F6B43aC78BA3",
        "gas": "0xa59b",
        "value": "0x0",
        "input": "0x87517c4500000000000000000000000029f2d40b0605204364af54ec677bd022da425d030000000000000000000000000bf61f706105ea44694f2e92986bd01c39930280000000000000000000000000ffffffffffffffffffffffffffffffffffffffff0000000000000000000000000000000000000000000000000000000067daf3cc",
        "nonce": "0xea",
        "chainId": "0xaa36a7"
      },
      "additionalContracts": [],
      "isFixedGasLimit": false
    },
    {
      "hash": "0xd651d5396155e53c1d47d2aabb1fb543110f054e62952b5a483a5b4ca25a3b4a",
      "transactionType": "CALL",
      "contractName": null,
      "contractAddress": "0x000000000022D473030F116dDEE9F6B43aC78BA3",
      "function": "approve(address,address,uint160,uint48)",
      "arguments": [
        "0x94a9D9AC8a22534E3FaCa9F4e7F2E2cf85d5E4C8",
        "0x0BF61f706105EA44694f2e92986bD01C39930280",
        "1461501637330902918203684832716283019655932542975",
        "1742402508"
      ],
      "transaction": {
        "from": "0x12395366299C28492682f7853424554df0b81B38",
        "to": "0x000000000022D473030F116dDEE9F6B43aC78BA3",
        "gas": "0xa59b",
        "value": "0x0",
        "input": "0x87517c4500000000000000000000000094a9d9ac8a22534e3faca9f4e7f2e2cf85d5e4c80000000000000000000000000bf61f706105ea44694f2e92986bd01c39930280000000000000000000000000ffffffffffffffffffffffffffffffffffffffff0000000000000000000000000000000000000000000000000000000067daf3cc",
        "nonce": "0xeb",
        "chainId": "0xaa36a7"
      },
      "additionalContracts": [],
      "isFixedGasLimit": false
    },
    {
      "hash": "0x412f0ecf10392302a099891ab7559614ae8c7544c2e312e7e0b13266eb896b6c",
      "transactionType": "CALL",
      "contractName": null,
      "contractAddress": "0x29f2D40B0605204364af54EC677bD022dA425d03",
      "function": "approve(address,uint256)",
      "arguments": [
        "0x0BF61f706105EA44694f2e92986bD01C39930280",
        "115792089237316195423570985008687907853269984665640564039457584007913129639935"
      ],
      "transaction": {
        "from": "0x12395366299C28492682f7853424554df0b81B38",
        "to": "0x29f2D40B0605204364af54EC677bD022dA425d03",
        "gas": "0x8fdb",
        "value": "0x0",
        "input": "0x095ea7b30000000000000000000000000bf61f706105ea44694f2e92986bd01c39930280ffffffffffffffffffffffffffffffffffffffffffffffffffffffffffffffff",
        "nonce": "0xec",
        "chainId": "0xaa36a7"
      },
      "additionalContracts": [],
      "isFixedGasLimit": false
    },
    {
      "hash": "0xdfe5a187429899d483c7e3c4ef8516d75d448534c0475872576c53711172df93",
      "transactionType": "CALL",
      "contractName": null,
      "contractAddress": "0x94a9D9AC8a22534E3FaCa9F4e7F2E2cf85d5E4C8",
      "function": "approve(address,uint256)",
      "arguments": [
        "0x0BF61f706105EA44694f2e92986bD01C39930280",
        "115792089237316195423570985008687907853269984665640564039457584007913129639935"
      ],
      "transaction": {
        "from": "0x12395366299C28492682f7853424554df0b81B38",
        "to": "0x94a9D9AC8a22534E3FaCa9F4e7F2E2cf85d5E4C8",
        "gas": "0x8fdb",
        "value": "0x0",
        "input": "0x095ea7b30000000000000000000000000bf61f706105ea44694f2e92986bd01c39930280ffffffffffffffffffffffffffffffffffffffffffffffffffffffffffffffff",
        "nonce": "0xed",
        "chainId": "0xaa36a7"
      },
      "additionalContracts": [],
      "isFixedGasLimit": false
    },
    {
      "hash": "0x564eddb829e76fcab8a6aa95092f22356274fe419b3bc48acc586da8f78c8689",
      "transactionType": "CALL",
      "contractName": null,
      "contractAddress": "0x0BF61f706105EA44694f2e92986bD01C39930280",
      "function": "addLiquidityUnbalanced(address,uint256[],uint256,bool,bytes)",
      "arguments": [
        "0xA3a6398f3B29b84a6657A1f4bcE5c90F38462bf7",
        "[15, 15]",
        "0",
        "false",
        "0x"
      ],
      "transaction": {
        "from": "0x12395366299C28492682f7853424554df0b81B38",
        "to": "0x0BF61f706105EA44694f2e92986bD01C39930280",
        "gas": "0x54c4d",
        "value": "0x0",
        "input": "0xc08bc851000000000000000000000000a3a6398f3b29b84a6657a1f4bce5c90f38462bf700000000000000000000000000000000000000000000000000000000000000a00000000000000000000000000000000000000000000000000000000000000000000000000000000000000000000000000000000000000000000000000000000000000000000000000000000000000000000000000000000000000000000001000000000000000000000000000000000000000000000000000000000000000002000000000000000000000000000000000000000000000000000000000000000f000000000000000000000000000000000000000000000000000000000000000f0000000000000000000000000000000000000000000000000000000000000000",
        "nonce": "0xee",
        "chainId": "0xaa36a7"
      },
      "additionalContracts": [],
      "isFixedGasLimit": false
    }
  ],
  "receipts": [
    {
      "status": "0x1",
      "cumulativeGasUsed": "0xa9bbde",
      "logs": [
        {
          "address": "0x000000000022D473030F116dDEE9F6B43aC78BA3",
          "topics": [
            "0xda9fa7c1b00402c17d0161b249b1ab8bbec047c5a52207b9c112deffd817036b",
            "0x00000000000000000000000012395366299c28492682f7853424554df0b81b38",
            "0x00000000000000000000000029f2d40b0605204364af54ec677bd022da425d03",
            "0x0000000000000000000000000bf61f706105ea44694f2e92986bd01c39930280"
          ],
          "data": "0x000000000000000000000000ffffffffffffffffffffffffffffffffffffffff0000000000000000000000000000000000000000000000000000000067daf3cc",
          "blockHash": "0x8f1bb1b643bc6e6bbd6a0e5d33a80bc3f59fe730fcd4ebfe5657c9f29f72b4b1",
          "blockNumber": "0x78fe1f",
          "blockTimestamp": "0x67d9a264",
          "transactionHash": "0xfda291d2065025aae926c5f3d30a9c9ab27731eff0e895e8f24d5ba69eadab3c",
          "transactionIndex": "0x6e",
          "logIndex": "0xb4",
          "removed": false
        }
      ],
      "logsBloom": "0x00010000000000010000000000004000000000000004000000000000000000000000000000000000000000000000000000000000000000080000000000080000000000000000000000000000000000000000000000000000000000000000000000000000000000000000000000000000000000000000000000100000000000000020000000000000000000000000040000000000000000000000000000000000000000000000000000000000000000000000200000000000000000080000000000000000000000000000000000000000000000000000000040000000000000000000000000000000000000004000000000000000000000000000000002000400",
      "type": "0x2",
      "transactionHash": "0xfda291d2065025aae926c5f3d30a9c9ab27731eff0e895e8f24d5ba69eadab3c",
      "transactionIndex": "0x6e",
      "blockHash": "0x8f1bb1b643bc6e6bbd6a0e5d33a80bc3f59fe730fcd4ebfe5657c9f29f72b4b1",
      "blockNumber": "0x78fe1f",
      "gasUsed": "0x77e6",
      "effectiveGasPrice": "0x72a2b68",
      "from": "0x12395366299C28492682f7853424554df0b81B38",
      "to": "0x000000000022D473030F116dDEE9F6B43aC78BA3",
      "contractAddress": null
    },
    {
      "status": "0x1",
      "cumulativeGasUsed": "0xaa33c4",
      "logs": [
        {
          "address": "0x000000000022D473030F116dDEE9F6B43aC78BA3",
          "topics": [
            "0xda9fa7c1b00402c17d0161b249b1ab8bbec047c5a52207b9c112deffd817036b",
            "0x00000000000000000000000012395366299c28492682f7853424554df0b81b38",
            "0x00000000000000000000000094a9d9ac8a22534e3faca9f4e7f2e2cf85d5e4c8",
            "0x0000000000000000000000000bf61f706105ea44694f2e92986bd01c39930280"
          ],
          "data": "0x000000000000000000000000ffffffffffffffffffffffffffffffffffffffff0000000000000000000000000000000000000000000000000000000067daf3cc",
          "blockHash": "0x8f1bb1b643bc6e6bbd6a0e5d33a80bc3f59fe730fcd4ebfe5657c9f29f72b4b1",
          "blockNumber": "0x78fe1f",
          "blockTimestamp": "0x67d9a264",
          "transactionHash": "0xd651d5396155e53c1d47d2aabb1fb543110f054e62952b5a483a5b4ca25a3b4a",
          "transactionIndex": "0x6f",
          "logIndex": "0xb5",
          "removed": false
        }
      ],
      "logsBloom": "0x00010000000000010200000000000000000000000004000000000000000000000000000000000000000100000000000000000000000000080000000000080000000000000000000000000000000000000000000000000000000000000000000000000000000000000000000000000000000000000000000000100000000000000020000000000000000000000000040000000000000000000000000000000000000000000000000000000000000000000000000000000000000000080000000000000000000000000000000000000000000000000000020040000000000000000000000000000000000000000000000000000000000000000000000002000400",
      "type": "0x2",
      "transactionHash": "0xd651d5396155e53c1d47d2aabb1fb543110f054e62952b5a483a5b4ca25a3b4a",
      "transactionIndex": "0x6f",
      "blockHash": "0x8f1bb1b643bc6e6bbd6a0e5d33a80bc3f59fe730fcd4ebfe5657c9f29f72b4b1",
      "blockNumber": "0x78fe1f",
      "gasUsed": "0x77e6",
      "effectiveGasPrice": "0x72a2b68",
      "from": "0x12395366299C28492682f7853424554df0b81B38",
      "to": "0x000000000022D473030F116dDEE9F6B43aC78BA3",
      "contractAddress": null
    },
    {
      "status": "0x1",
      "cumulativeGasUsed": "0xaa9beb",
      "logs": [
        {
          "address": "0x29f2D40B0605204364af54EC677bD022dA425d03",
          "topics": [
            "0x8c5be1e5ebec7d5bd14f71427d1e84f3dd0314c0f7b2291e5b200ac8c7c3b925",
            "0x00000000000000000000000012395366299c28492682f7853424554df0b81b38",
            "0x0000000000000000000000000bf61f706105ea44694f2e92986bd01c39930280"
          ],
          "data": "0xffffffffffffffffffffffffffffffffffffffffffffffffffffffffffffffff",
          "blockHash": "0x8f1bb1b643bc6e6bbd6a0e5d33a80bc3f59fe730fcd4ebfe5657c9f29f72b4b1",
          "blockNumber": "0x78fe1f",
          "blockTimestamp": "0x67d9a264",
          "transactionHash": "0x412f0ecf10392302a099891ab7559614ae8c7544c2e312e7e0b13266eb896b6c",
          "transactionIndex": "0x70",
          "logIndex": "0xb6",
          "removed": false
        }
      ],
      "logsBloom": "0x00000000000000010000000000000000000000000004400000000000000000000000000000000000000000000000000000000000000000080000000000200000000000000000000000000000004000000000000000000000000000000000000000000000000000000000000000000000000000000000000000100000000000000000000000000000000000000000040000000000000000000000000000000000020000000000000000000000000000000000000000000000000000000000000000000000000000000000000000000000000000200000000000000000000000000010000000000000000000000000000000000000000000000000000002000000",
      "type": "0x2",
      "transactionHash": "0x412f0ecf10392302a099891ab7559614ae8c7544c2e312e7e0b13266eb896b6c",
      "transactionIndex": "0x70",
      "blockHash": "0x8f1bb1b643bc6e6bbd6a0e5d33a80bc3f59fe730fcd4ebfe5657c9f29f72b4b1",
      "blockNumber": "0x78fe1f",
      "gasUsed": "0x6827",
      "effectiveGasPrice": "0x72a2b68",
      "from": "0x12395366299C28492682f7853424554df0b81B38",
      "to": "0x29f2D40B0605204364af54EC677bD022dA425d03",
      "contractAddress": null
    },
    {
      "status": "0x1",
      "cumulativeGasUsed": "0xab0412",
      "logs": [
        {
          "address": "0x94a9D9AC8a22534E3FaCa9F4e7F2E2cf85d5E4C8",
          "topics": [
            "0x8c5be1e5ebec7d5bd14f71427d1e84f3dd0314c0f7b2291e5b200ac8c7c3b925",
            "0x00000000000000000000000012395366299c28492682f7853424554df0b81b38",
            "0x0000000000000000000000000bf61f706105ea44694f2e92986bd01c39930280"
          ],
          "data": "0xffffffffffffffffffffffffffffffffffffffffffffffffffffffffffffffff",
          "blockHash": "0x8f1bb1b643bc6e6bbd6a0e5d33a80bc3f59fe730fcd4ebfe5657c9f29f72b4b1",
          "blockNumber": "0x78fe1f",
          "blockTimestamp": "0x67d9a264",
          "transactionHash": "0xdfe5a187429899d483c7e3c4ef8516d75d448534c0475872576c53711172df93",
          "transactionIndex": "0x71",
          "logIndex": "0xb7",
          "removed": false
        }
      ],
      "logsBloom": "0x00000000000000010000000000000000000000000004000000000000000000000000000000000000000000000000000000000000000000080000000000200000000000000000000000000000000000000000000000000000000008000000000000000000000000000000000000000000000000000000000000100000000000000000000000000000000000000000040000000000000000000000000000000000020000000100000000004000000000000000000000000000000000000000000000000000000000000000000000000000000000000000000000000000000000000010000000000000000000000000000000000000000000000000000002000000",
      "type": "0x2",
      "transactionHash": "0xdfe5a187429899d483c7e3c4ef8516d75d448534c0475872576c53711172df93",
      "transactionIndex": "0x71",
      "blockHash": "0x8f1bb1b643bc6e6bbd6a0e5d33a80bc3f59fe730fcd4ebfe5657c9f29f72b4b1",
      "blockNumber": "0x78fe1f",
      "gasUsed": "0x6827",
      "effectiveGasPrice": "0x72a2b68",
      "from": "0x12395366299C28492682f7853424554df0b81B38",
      "to": "0x94a9D9AC8a22534E3FaCa9F4e7F2E2cf85d5E4C8",
      "contractAddress": null
    },
    {
      "status": "0x1",
      "cumulativeGasUsed": "0xaea375",
      "logs": [
        {
          "address": "0xbA1333333333a1BA1108E8412f11850A5C319bA9",
          "topics": [
            "0xd1398bee19313d6bf672ccb116e51f4a1a947e91c757907f51fbb5b5e56c698f",
            "0x000000000000000000000000a3a6398f3b29b84a6657a1f4bce5c90f38462bf7",
            "0x0000000000000000000000000000000000000000000000000000000000000000",
            "0x00000000000000000000000012395366299c28492682f7853424554df0b81b38"
          ],
          "data": "0x0000000000000000000000000000000000000000000000000000015d3ef796ae",
          "blockHash": "0x8f1bb1b643bc6e6bbd6a0e5d33a80bc3f59fe730fcd4ebfe5657c9f29f72b4b1",
          "blockNumber": "0x78fe1f",
          "blockTimestamp": "0x67d9a264",
          "transactionHash": "0x564eddb829e76fcab8a6aa95092f22356274fe419b3bc48acc586da8f78c8689",
          "transactionIndex": "0x72",
          "logIndex": "0xb8",
          "removed": false
        },
        {
          "address": "0xA3a6398f3B29b84a6657A1f4bcE5c90F38462bf7",
          "topics": [
            "0xddf252ad1be2c89b69c2b068fc378daa952ba7f163c4a11628f55a4df523b3ef",
            "0x0000000000000000000000000000000000000000000000000000000000000000",
            "0x00000000000000000000000012395366299c28492682f7853424554df0b81b38"
          ],
          "data": "0x0000000000000000000000000000000000000000000000000000015d3ef796ae",
          "blockHash": "0x8f1bb1b643bc6e6bbd6a0e5d33a80bc3f59fe730fcd4ebfe5657c9f29f72b4b1",
          "blockNumber": "0x78fe1f",
          "blockTimestamp": "0x67d9a264",
          "transactionHash": "0x564eddb829e76fcab8a6aa95092f22356274fe419b3bc48acc586da8f78c8689",
          "transactionIndex": "0x72",
          "logIndex": "0xb9",
          "removed": false
        },
        {
          "address": "0xbA1333333333a1BA1108E8412f11850A5C319bA9",
          "topics": [
            "0xa26a52d8d53702bba7f137907b8e1f99ff87f6d450144270ca25e72481cca871",
            "0x000000000000000000000000a3a6398f3b29b84a6657a1f4bce5c90f38462bf7",
            "0x00000000000000000000000012395366299c28492682f7853424554df0b81b38",
            "0x0000000000000000000000000000000000000000000000000000000000000001"
          ],
          "data": "0x00000000000000000000000000000000000000000000000000000b1888aa8576000000000000000000000000000000000000000000000000000000000000006000000000000000000000000000000000000000000000000000000000000000c00000000000000000000000000000000000000000000000000000000000000002000000000000000000000000000000000000000000000000000000000000000f000000000000000000000000000000000000000000000000000000000000000f000000000000000000000000000000000000000000000000000000000000000200000000000000000000000000000000000000000000000000000000000000000000000000000000000000000000000000000000000000000000000000000000",
          "blockHash": "0x8f1bb1b643bc6e6bbd6a0e5d33a80bc3f59fe730fcd4ebfe5657c9f29f72b4b1",
          "blockNumber": "0x78fe1f",
          "blockTimestamp": "0x67d9a264",
          "transactionHash": "0x564eddb829e76fcab8a6aa95092f22356274fe419b3bc48acc586da8f78c8689",
          "transactionIndex": "0x72",
          "logIndex": "0xba",
          "removed": false
        },
        {
          "address": "0x29f2D40B0605204364af54EC677bD022dA425d03",
          "topics": [
            "0xddf252ad1be2c89b69c2b068fc378daa952ba7f163c4a11628f55a4df523b3ef",
            "0x00000000000000000000000012395366299c28492682f7853424554df0b81b38",
            "0x000000000000000000000000ba1333333333a1ba1108e8412f11850a5c319ba9"
          ],
          "data": "0x000000000000000000000000000000000000000000000000000000000000000f",
          "blockHash": "0x8f1bb1b643bc6e6bbd6a0e5d33a80bc3f59fe730fcd4ebfe5657c9f29f72b4b1",
          "blockNumber": "0x78fe1f",
          "blockTimestamp": "0x67d9a264",
          "transactionHash": "0x564eddb829e76fcab8a6aa95092f22356274fe419b3bc48acc586da8f78c8689",
          "transactionIndex": "0x72",
          "logIndex": "0xbb",
          "removed": false
        },
        {
          "address": "0x29f2D40B0605204364af54EC677bD022dA425d03",
          "topics": [
            "0x8c5be1e5ebec7d5bd14f71427d1e84f3dd0314c0f7b2291e5b200ac8c7c3b925",
            "0x00000000000000000000000012395366299c28492682f7853424554df0b81b38",
            "0x000000000000000000000000000000000022d473030f116ddee9f6b43ac78ba3"
          ],
          "data": "0xffffffffffffffffffffffffffffffffffffffffffffffffffffffffffffff85",
          "blockHash": "0x8f1bb1b643bc6e6bbd6a0e5d33a80bc3f59fe730fcd4ebfe5657c9f29f72b4b1",
          "blockNumber": "0x78fe1f",
          "blockTimestamp": "0x67d9a264",
          "transactionHash": "0x564eddb829e76fcab8a6aa95092f22356274fe419b3bc48acc586da8f78c8689",
          "transactionIndex": "0x72",
          "logIndex": "0xbc",
          "removed": false
        },
        {
          "address": "0x94a9D9AC8a22534E3FaCa9F4e7F2E2cf85d5E4C8",
          "topics": [
            "0xddf252ad1be2c89b69c2b068fc378daa952ba7f163c4a11628f55a4df523b3ef",
            "0x00000000000000000000000012395366299c28492682f7853424554df0b81b38",
            "0x000000000000000000000000ba1333333333a1ba1108e8412f11850a5c319ba9"
          ],
          "data": "0x000000000000000000000000000000000000000000000000000000000000000f",
          "blockHash": "0x8f1bb1b643bc6e6bbd6a0e5d33a80bc3f59fe730fcd4ebfe5657c9f29f72b4b1",
          "blockNumber": "0x78fe1f",
          "blockTimestamp": "0x67d9a264",
          "transactionHash": "0x564eddb829e76fcab8a6aa95092f22356274fe419b3bc48acc586da8f78c8689",
          "transactionIndex": "0x72",
          "logIndex": "0xbd",
          "removed": false
        },
        {
          "address": "0x94a9D9AC8a22534E3FaCa9F4e7F2E2cf85d5E4C8",
          "topics": [
            "0x8c5be1e5ebec7d5bd14f71427d1e84f3dd0314c0f7b2291e5b200ac8c7c3b925",
            "0x00000000000000000000000012395366299c28492682f7853424554df0b81b38",
            "0x000000000000000000000000000000000022d473030f116ddee9f6b43ac78ba3"
          ],
          "data": "0xffffffffffffffffffffffffffffffffffffffffffffffffffffffffffffff85",
          "blockHash": "0x8f1bb1b643bc6e6bbd6a0e5d33a80bc3f59fe730fcd4ebfe5657c9f29f72b4b1",
          "blockNumber": "0x78fe1f",
          "blockTimestamp": "0x67d9a264",
          "transactionHash": "0x564eddb829e76fcab8a6aa95092f22356274fe419b3bc48acc586da8f78c8689",
          "transactionIndex": "0x72",
          "logIndex": "0xbe",
          "removed": false
        }
      ],
      "logsBloom": "0x00000000000000010040000000000000000080000000400000004000002000000000000000000000000000000000000000000000800000000000000000240000802000000000000000004008104000000000000000040800000008000000000000000000020000000000000000000800000001000000000000100010000000000000000000000000000000000000040000000001000000000000010000080000020000800180000000044000000000000000000000000000000000000000000000000002000000000000000000000000000004200000000000000000800060080010000000000000002000000000000000000000000000000000000000000000",
      "type": "0x2",
      "transactionHash": "0x564eddb829e76fcab8a6aa95092f22356274fe419b3bc48acc586da8f78c8689",
      "transactionIndex": "0x72",
      "blockHash": "0x8f1bb1b643bc6e6bbd6a0e5d33a80bc3f59fe730fcd4ebfe5657c9f29f72b4b1",
      "blockNumber": "0x78fe1f",
      "gasUsed": "0x39f63",
      "effectiveGasPrice": "0x72a2b68",
      "from": "0x12395366299C28492682f7853424554df0b81B38",
      "to": "0x0BF61f706105EA44694f2e92986bD01C39930280",
      "contractAddress": null
    }
  ],
  "libraries": [],
  "pending": [],
  "returns": {},
  "timestamp": 1742316139,
  "chain": 11155111,
  "commit": "c5d8f79"
}