{
  "transactions": [
    {
      "hash": "0xa8b3bfa8ba2dfc90635b867afc26f98c1c908ccfe6820b0733a6451589ec1c30",
      "transactionType": "CALL",
      "contractName": null,
      "contractAddress": "0x0BF61f706105EA44694f2e92986bD01C39930280",
      "function": "addLiquidityUnbalanced(address,uint256[],uint256,bool,bytes)",
      "arguments": [
        "0xA3a6398f3B29b84a6657A1f4bcE5c90F38462bf7",
        "[400000, 400000]",
        "0",
        "false",
        "0x"
      ],
      "transaction": {
        "from": "0x12395366299C28492682f7853424554df0b81B38",
        "to": "0x0BF61f706105EA44694f2e92986bD01C39930280",
        "gas": "0x50e2b",
        "value": "0x0",
        "input": "0xc08bc851000000000000000000000000a3a6398f3b29b84a6657a1f4bce5c90f38462bf700000000000000000000000000000000000000000000000000000000000000a000000000000000000000000000000000000000000000000000000000000000000000000000000000000000000000000000000000000000000000000000000000000000000000000000000000000000000000000000000000000000000000010000000000000000000000000000000000000000000000000000000000000000020000000000000000000000000000000000000000000000000000000000061a800000000000000000000000000000000000000000000000000000000000061a800000000000000000000000000000000000000000000000000000000000000000",
        "nonce": "0x134",
        "chainId": "0xaa36a7"
      },
      "additionalContracts": [],
      "isFixedGasLimit": false
    }
  ],
  "receipts": [
    {
      "status": "0x1",
      "cumulativeGasUsed": "0x7e6d7f",
      "logs": [
        {
          "address": "0xbA1333333333a1BA1108E8412f11850A5C319bA9",
          "topics": [
            "0xd1398bee19313d6bf672ccb116e51f4a1a947e91c757907f51fbb5b5e56c698f",
            "0x000000000000000000000000a3a6398f3b29b84a6657a1f4bce5c90f38462bf7",
            "0x0000000000000000000000000000000000000000000000000000000000000000",
            "0x00000000000000000000000012395366299c28492682f7853424554df0b81b38"
          ],
          "data": "0x000000000000000000000000000000000000000000000000008e1bc9be7ac1c4",
          "blockHash": "0x308759e1da8d11230118aabc295299f1a723590225d731681b7a5ba6732731ba",
          "blockNumber": "0x78fe5b",
          "blockTimestamp": "0x67d9a534",
          "transactionHash": "0xa8b3bfa8ba2dfc90635b867afc26f98c1c908ccfe6820b0733a6451589ec1c30",
          "transactionIndex": "0x6b",
          "logIndex": "0x87",
          "removed": false
        },
        {
          "address": "0xA3a6398f3B29b84a6657A1f4bcE5c90F38462bf7",
          "topics": [
            "0xddf252ad1be2c89b69c2b068fc378daa952ba7f163c4a11628f55a4df523b3ef",
            "0x0000000000000000000000000000000000000000000000000000000000000000",
            "0x00000000000000000000000012395366299c28492682f7853424554df0b81b38"
          ],
          "data": "0x000000000000000000000000000000000000000000000000008e1bc9be7ac1c4",
          "blockHash": "0x308759e1da8d11230118aabc295299f1a723590225d731681b7a5ba6732731ba",
          "blockNumber": "0x78fe5b",
          "blockTimestamp": "0x67d9a534",
          "transactionHash": "0xa8b3bfa8ba2dfc90635b867afc26f98c1c908ccfe6820b0733a6451589ec1c30",
          "transactionIndex": "0x6b",
          "logIndex": "0x88",
          "removed": false
        },
        {
          "address": "0xbA1333333333a1BA1108E8412f11850A5C319bA9",
          "topics": [
            "0xa26a52d8d53702bba7f137907b8e1f99ff87f6d450144270ca25e72481cca871",
            "0x000000000000000000000000a3a6398f3b29b84a6657a1f4bce5c90f38462bf7",
            "0x00000000000000000000000012395366299c28492682f7853424554df0b81b38",
            "0x0000000000000000000000000000000000000000000000000000000000000001"
          ],
          "data": "0x00000000000000000000000000000000000000000000000001555ecc9e2ca692000000000000000000000000000000000000000000000000000000000000006000000000000000000000000000000000000000000000000000000000000000c000000000000000000000000000000000000000000000000000000000000000020000000000000000000000000000000000000000000000000000000000061a800000000000000000000000000000000000000000000000000000000000061a80000000000000000000000000000000000000000000000000000000000000000200000000000000000000000000000000000000000000000000000000000000000000000000000000000000000000000000000000000000000000000000000000",
          "blockHash": "0x308759e1da8d11230118aabc295299f1a723590225d731681b7a5ba6732731ba",
          "blockNumber": "0x78fe5b",
          "blockTimestamp": "0x67d9a534",
          "transactionHash": "0xa8b3bfa8ba2dfc90635b867afc26f98c1c908ccfe6820b0733a6451589ec1c30",
          "transactionIndex": "0x6b",
          "logIndex": "0x89",
          "removed": false
        },
        {
          "address": "0x29f2D40B0605204364af54EC677bD022dA425d03",
          "topics": [
            "0xddf252ad1be2c89b69c2b068fc378daa952ba7f163c4a11628f55a4df523b3ef",
            "0x00000000000000000000000012395366299c28492682f7853424554df0b81b38",
            "0x000000000000000000000000ba1333333333a1ba1108e8412f11850a5c319ba9"
          ],
          "data": "0x0000000000000000000000000000000000000000000000000000000000061a80",
          "blockHash": "0x308759e1da8d11230118aabc295299f1a723590225d731681b7a5ba6732731ba",
          "blockNumber": "0x78fe5b",
          "blockTimestamp": "0x67d9a534",
          "transactionHash": "0xa8b3bfa8ba2dfc90635b867afc26f98c1c908ccfe6820b0733a6451589ec1c30",
          "transactionIndex": "0x6b",
          "logIndex": "0x8a",
          "removed": false
        },
        {
          "address": "0x29f2D40B0605204364af54EC677bD022dA425d03",
          "topics": [
            "0x8c5be1e5ebec7d5bd14f71427d1e84f3dd0314c0f7b2291e5b200ac8c7c3b925",
            "0x00000000000000000000000012395366299c28492682f7853424554df0b81b38",
            "0x000000000000000000000000000000000022d473030f116ddee9f6b43ac78ba3"
          ],
          "data": "0xfffffffffffffffffffffffffffffffffffffffffffffffffffffffffff15697",
          "blockHash": "0x308759e1da8d11230118aabc295299f1a723590225d731681b7a5ba6732731ba",
          "blockNumber": "0x78fe5b",
          "blockTimestamp": "0x67d9a534",
          "transactionHash": "0xa8b3bfa8ba2dfc90635b867afc26f98c1c908ccfe6820b0733a6451589ec1c30",
          "transactionIndex": "0x6b",
          "logIndex": "0x8b",
          "removed": false
        },
        {
          "address": "0x94a9D9AC8a22534E3FaCa9F4e7F2E2cf85d5E4C8",
          "topics": [
            "0xddf252ad1be2c89b69c2b068fc378daa952ba7f163c4a11628f55a4df523b3ef",
            "0x00000000000000000000000012395366299c28492682f7853424554df0b81b38",
            "0x000000000000000000000000ba1333333333a1ba1108e8412f11850a5c319ba9"
          ],
          "data": "0x0000000000000000000000000000000000000000000000000000000000061a80",
          "blockHash": "0x308759e1da8d11230118aabc295299f1a723590225d731681b7a5ba6732731ba",
          "blockNumber": "0x78fe5b",
          "blockTimestamp": "0x67d9a534",
          "transactionHash": "0xa8b3bfa8ba2dfc90635b867afc26f98c1c908ccfe6820b0733a6451589ec1c30",
          "transactionIndex": "0x6b",
          "logIndex": "0x8c",
          "removed": false
        },
        {
          "address": "0x94a9D9AC8a22534E3FaCa9F4e7F2E2cf85d5E4C8",
          "topics": [
            "0x8c5be1e5ebec7d5bd14f71427d1e84f3dd0314c0f7b2291e5b200ac8c7c3b925",
            "0x00000000000000000000000012395366299c28492682f7853424554df0b81b38",
            "0x000000000000000000000000000000000022d473030f116ddee9f6b43ac78ba3"
          ],
          "data": "0xfffffffffffffffffffffffffffffffffffffffffffffffffffffffffff15697",
          "blockHash": "0x308759e1da8d11230118aabc295299f1a723590225d731681b7a5ba6732731ba",
          "blockNumber": "0x78fe5b",
          "blockTimestamp": "0x67d9a534",
          "transactionHash": "0xa8b3bfa8ba2dfc90635b867afc26f98c1c908ccfe6820b0733a6451589ec1c30",
          "transactionIndex": "0x6b",
          "logIndex": "0x8d",
          "removed": false
        }
      ],
      "logsBloom": "0x00000000000000010040000000000000000080000000400000004000002000000000000000000000000000000000000000000000800000000000000000240000802000000000000000004008104000000000000000040800000008000000000000000000020000000000000000000800000001000000000000100010000000000000000000000000000000000000040000000001000000000000010000080000020000800180000000044000000000000000000000000000000000000000000000000002000000000000000000000000000004200000000000000000800060080010000000000000002000000000000000000000000000000000000000000000",
      "type": "0x2",
      "transactionHash": "0xa8b3bfa8ba2dfc90635b867afc26f98c1c908ccfe6820b0733a6451589ec1c30",
      "transactionIndex": "0x6b",
      "blockHash": "0x308759e1da8d11230118aabc295299f1a723590225d731681b7a5ba6732731ba",
      "blockNumber": "0x78fe5b",
      "gasUsed": "0x3a8f5",
      "effectiveGasPrice": "0x6b14c52",
      "from": "0x12395366299C28492682f7853424554df0b81B38",
      "to": "0x0BF61f706105EA44694f2e92986bD01C39930280",
      "contractAddress": null
    }
  ],
  "libraries": [],
  "pending": [],
  "returns": {},
  "timestamp": 1742316857,
  "chain": 11155111,
  "commit": "c5d8f79"
}