{
  "transactions": [
    {
      "hash": "0xc3e7057c0f1fee4dcb75bed99947cd8e984cd7e813b8befd61846443a9baf27b",
      "transactionType": "CALL",
      "contractName": null,
      "contractAddress": "0xc840e742C9CC87F08C14537C6b6515cD952AC789",
      "function": "performUpdate(address)",
      "arguments": [
        "0x5a424180eeBc7A02a1f329d05651D541Bd22fa84"
      ],
      "transaction": {
        "from": "0x12395366299C28492682f7853424554df0b81B38",
        "to": "0xc840e742C9CC87F08C14537C6b6515cD952AC789",
        "gas": "0x3e8e3",
        "value": "0x0",
        "input": "0xe3a11da10000000000000000000000005a424180eebc7a02a1f329d05651d541bd22fa84",
        "nonce": "0x16f",
        "chainId": "0xaa36a7"
      },
      "additionalContracts": [],
      "isFixedGasLimit": false
    }
  ],
  "receipts": [],
  "libraries": [],
  "pending": [],
  "returns": {},
  "timestamp": 1743769369,
  "chain": 11155111,
  "commit": "53ca75c"
}