{
  "transactions": [
    {
      "hash": "0x57d2d720e01152bec9a18cfa584b62e550d05852a6f7395a395d781894626df5",
      "transactionType": "CALL",
      "contractName": null,
      "contractAddress": "0xc840e742C9CC87F08C14537C6b6515cD952AC789",
      "function": "performUpdate(address)",
      "arguments": [
        "0x5a424180eeBc7A02a1f329d05651D541Bd22fa84"
      ],
      "transaction": {
        "from": "0x12395366299C28492682f7853424554df0b81B38",
        "to": "0xc840e742C9CC87F08C14537C6b6515cD952AC789",
        "gas": "0x3e8e3",
        "value": "0x0",
        "input": "0xe3a11da10000000000000000000000005a424180eebc7a02a1f329d05651d541bd22fa84",
        "nonce": "0x175",
        "chainId": "0xaa36a7"
      },
      "additionalContracts": [],
      "isFixedGasLimit": false
    }
  ],
  "receipts": [
    {
      "status": "0x1",
      "cumulativeGasUsed": "0xc707e6",
      "logs": [
        {
          "address": "0x5a424180eeBc7A02a1f329d05651D541Bd22fa84",
          "topics": [
            "0x3f678b7d550c0f8dfb5dce7c8568f6e139b01f5582a5613d669ebe77729a49fc",
            "0x0000000000000000000000005a424180eebc7a02a1f329d05651d541bd22fa84"
          ],
          "data": "0x0000000000000000000000000000000000000000000000000000000000000060000000000000000000000000000000000000000000000000000000ffffffffff0000000000000000000000000000000000000000000000000000000067efd3c8000000000000000000000000000000000000000000000000000000000000000400000000000000000000000000000000000000000000000006f05b59d3b2000000000000000000000000000000000000000000000000000006f05b59d3b2000000000000000000000000000000000000000000000000000000000000000000000000000000000000000000000000000000000000000000000000000000000000",
          "blockHash": "0xd9d138b3f8b2e13ac160a81e70554f1b3e38dd377d4c38a573c2da48474dcfc1",
          "blockNumber": "0x7ad194",
          "blockTimestamp": "0x67efd3c8",
          "transactionHash": "0x57d2d720e01152bec9a18cfa584b62e550d05852a6f7395a395d781894626df5",
          "transactionIndex": "0x9d",
          "logIndex": "0xb2",
          "removed": false
        },
        {
          "address": "0xc840e742C9CC87F08C14537C6b6515cD952AC789",
          "topics": [
            "0x30f7151deb2a6edd0073424d948b6da843616acab7248b8cdace73ea9ec81ac6",
            "0x0000000000000000000000005a424180eebc7a02a1f329d05651d541bd22fa84"
          ],
          "data": "0x00000000000000000000000012395366299c28492682f7853424554df0b81b380000000000000000000000000000000000000000000000000000000000000080000000000000000000000000000000000000000000000000000000ffffffffff0000000000000000000000000000000000000000000000000000000067efd3c8000000000000000000000000000000000000000000000000000000000000000400000000000000000000000000000000000000000000000006f05b59d3b2000000000000000000000000000000000000000000000000000006f05b59d3b2000000000000000000000000000000000000000000000000000000000000000000000000000000000000000000000000000000000000000000000000000000000000",
          "blockHash": "0xd9d138b3f8b2e13ac160a81e70554f1b3e38dd377d4c38a573c2da48474dcfc1",
          "blockNumber": "0x7ad194",
          "blockTimestamp": "0x67efd3c8",
          "transactionHash": "0x57d2d720e01152bec9a18cfa584b62e550d05852a6f7395a395d781894626df5",
          "transactionIndex": "0x9d",
          "logIndex": "0xb3",
          "removed": false
        },
        {
          "address": "0xc840e742C9CC87F08C14537C6b6515cD952AC789",
          "topics": [
            "0x5182541565a0a53b3f95727ceaa2a0feffd43b7a7f7a095032e4c9f8fbb00928",
            "0x00000000000000000000000012395366299c28492682f7853424554df0b81b38",
            "0x0000000000000000000000005a424180eebc7a02a1f329d05651d541bd22fa84"
          ],
          "data": "0x",
          "blockHash": "0xd9d138b3f8b2e13ac160a81e70554f1b3e38dd377d4c38a573c2da48474dcfc1",
          "blockNumber": "0x7ad194",
          "blockTimestamp": "0x67efd3c8",
          "transactionHash": "0x57d2d720e01152bec9a18cfa584b62e550d05852a6f7395a395d781894626df5",
          "transactionIndex": "0x9d",
          "logIndex": "0xb4",
          "removed": false
        }
      ],
      "logsBloom": "0x00000400000000010000000000000000000000000000000000000000000000000000000000000000000000000000000404000000000000000000000000000000000000000000000040000000000000000800000000000000000000000000000000000800000000000000000000000000000000000000020000100000000040000000000800400000000000000000040020000000000001000000000000000000000000000000000000000000000040000000000000082800000000000000000000000000000000000000000000000000000000020000000000000000000000000000000000000000000000000000000000000000000080000000000000000000",
      "type": "0x2",
      "transactionHash": "0x57d2d720e01152bec9a18cfa584b62e550d05852a6f7395a395d781894626df5",
      "transactionIndex": "0x9d",
      "blockHash": "0xd9d138b3f8b2e13ac160a81e70554f1b3e38dd377d4c38a573c2da48474dcfc1",
      "blockNumber": "0x7ad194",
      "gasUsed": "0x2d4a0",
      "effectiveGasPrice": "0x5d434c32",
      "from": "0x12395366299C28492682f7853424554df0b81B38",
      "to": "0xc840e742C9CC87F08C14537C6b6515cD952AC789",
      "contractAddress": null
    }
  ],
  "libraries": [],
  "pending": [],
  "returns": {},
  "timestamp": 1743770573,
  "chain": 11155111,
  "commit": "10e16f9"
}