{
  "transactions": [
    {
      "hash": "0xc124283358e954bee68568f6c4e68397381473ef1e3296f58c13ff17be572ae7",
      "transactionType": "CALL",
      "contractName": null,
      "contractAddress": "0xc840e742C9CC87F08C14537C6b6515cD952AC789",
      "function": "InitialisePoolLastRunTime(address,uint40)",
      "arguments": [
        "0x5a424180eeBc7A02a1f329d05651D541Bd22fa84",
        "10"
      ],
      "transaction": {
        "from": "0x12395366299C28492682f7853424554df0b81B38",
        "to": "0xc840e742C9CC87F08C14537C6b6515cD952AC789",
        "gas": "0xa7e2",
        "value": "0x0",
        "input": "0xce768b320000000000000000000000005a424180eebc7a02a1f329d05651d541bd22fa84000000000000000000000000000000000000000000000000000000000000000a",
        "nonce": "0x162",
        "chainId": "0xaa36a7"
      },
      "additionalContracts": [],
      "isFixedGasLimit": false
    }
  ],
  "receipts": [
    {
      "status": "0x1",
      "cumulativeGasUsed": "0x86a6c2",
      "logs": [
        {
          "address": "0xc840e742C9CC87F08C14537C6b6515cD952AC789",
          "topics": [
            "0x79a782d8b17346e0b863d44323bb26710950eb32858ac04fe6c20fdc8d83d2dc"
          ],
          "data": "0x0000000000000000000000005a424180eebc7a02a1f329d05651d541bd22fa84000000000000000000000000000000000000000000000000000000000000000a",
          "blockHash": "0x4b232ed6a3cb54a88c45fea9e92e37c752e91566786fb0b5e93b0e0b1aeab588",
          "blockNumber": "0x7ace1d",
          "blockTimestamp": "0x67efaa28",
          "transactionHash": "0xc124283358e954bee68568f6c4e68397381473ef1e3296f58c13ff17be572ae7",
          "transactionIndex": "0x65",
          "logIndex": "0x8f",
          "removed": false
        }
      ],
      "logsBloom": "0x00000000000000000000000000000000000000000000000000000000000000000000000000000000000000000000000400000000000000000000080000000000000000000000000000000000000000000000000000000000000000000000000000000000000000000000001000000000000000020000000000000000000000000000000000000000000000000000000020000000000000000000000000000000000000000000000000000000000000000000000000000800000000000000000000000000000000000000000000000000000000000000000000000000000000000000000000000000000000000000000000000000000000000000000000000000",
      "type": "0x2",
      "transactionHash": "0xc124283358e954bee68568f6c4e68397381473ef1e3296f58c13ff17be572ae7",
      "transactionIndex": "0x65",
      "blockHash": "0x4b232ed6a3cb54a88c45fea9e92e37c752e91566786fb0b5e93b0e0b1aeab588",
      "blockNumber": "0x7ace1d",
      "gasUsed": "0x798c",
      "effectiveGasPrice": "0x4a9a8927",
      "from": "0x12395366299C28492682f7853424554df0b81B38",
      "to": "0xc840e742C9CC87F08C14537C6b6515cD952AC789",
      "contractAddress": null
    }
  ],
  "libraries": [],
  "pending": [],
  "returns": {},
  "timestamp": 1743759914,
  "chain": 11155111,
  "commit": "53ca75c"
}