{
  "transactions": [
    {
      "hash": "0xe86a5472fef068f9b8c18e7fdd10db13a4568646446fb60e351fa14542bfa56c",
      "transactionType": "CALL",
      "contractName": null,
      "contractAddress": "0xB6b7CCa5E4D3B4DD1a4f52C38f287c7303Db7dA2",
      "function": "InitialisePoolLastRunTime(address,uint40)",
      "arguments": [
        "0xCB78DF4EAd6D9558c19960Cdec71AcA3e37c1087",
        "10"
      ],
      "transaction": {
        "from": "0x12395366299C28492682f7853424554df0b81B38",
        "to": "0xB6b7CCa5E4D3B4DD1a4f52C38f287c7303Db7dA2",
        "gas": "0xa7e2",
        "value": "0x0",
        "input": "0xce768b32000000000000000000000000cb78df4ead6d9558c19960cdec71aca3e37c1087000000000000000000000000000000000000000000000000000000000000000a",
        "nonce": "0x1b5",
        "chainId": "0xaa36a7"
      },
      "additionalContracts": [],
      "isFixedGasLimit": false
    }
  ],
  "receipts": [
    {
      "status": "0x1",
      "cumulativeGasUsed": "0xb310e2",
      "logs": [
        {
          "address": "0xB6b7CCa5E4D3B4DD1a4f52C38f287c7303Db7dA2",
          "topics": [
            "0x79a782d8b17346e0b863d44323bb26710950eb32858ac04fe6c20fdc8d83d2dc"
          ],
          "data": "0x000000000000000000000000cb78df4ead6d9558c19960cdec71aca3e37c1087000000000000000000000000000000000000000000000000000000000000000a",
          "blockHash": "0xa638c6aad741c17763bf095c0b4cd8fee898ce1ee19cf317b489c2d71408ff76",
          "blockNumber": "0x7b89d7",
          "blockTimestamp": "0x67f8d4d0",
          "transactionHash": "0xe86a5472fef068f9b8c18e7fdd10db13a4568646446fb60e351fa14542bfa56c",
          "transactionIndex": "0x36",
          "logIndex": "0x71",
          "removed": false
        }
      ],
      "logsBloom": "0x00000000000000000000000000000000000000000000000000000000000000000000000000000000000000000000000000000000000400000000080000000000000000000000000000000000000000000000000000000000000000000000000000000000000000000000001000000000000000020000000000000000000000000000000000000000000000000200000000000000000000000000000800000000000000000000000000000000000000000000000000000000000000000000000000000000000000000000000000000000000000000000000000000000000000000000000000000000000000000000000000000000000000000000000000000000",
      "type": "0x2",
      "transactionHash": "0xe86a5472fef068f9b8c18e7fdd10db13a4568646446fb60e351fa14542bfa56c",
      "transactionIndex": "0x36",
      "blockHash": "0xa638c6aad741c17763bf095c0b4cd8fee898ce1ee19cf317b489c2d71408ff76",
      "blockNumber": "0x7b89d7",
      "gasUsed": "0x798c",
      "effectiveGasPrice": "0x1e8262",
      "from": "0x12395366299C28492682f7853424554df0b81B38",
      "to": "0xB6b7CCa5E4D3B4DD1a4f52C38f287c7303Db7dA2",
      "contractAddress": null
    }
  ],
  "libraries": [],
  "pending": [],
  "returns": {},
  "timestamp": 1744360660,
  "chain": 11155111,
  "commit": "c05839a"
}