{
  "transactions": [
    {
      "hash": "0x36c5604dcd576281f343990c4f84cceeb124aeaeddf405e68f2cce3da7036341",
      "transactionType": "CALL",
      "contractName": null,
      "contractAddress": "0xc840e742C9CC87F08C14537C6b6515cD952AC789",
      "function": "InitialisePoolLastRunTime(address,uint40)",
      "arguments": [
        "0xCd2Ca3bBe68Fb83E9B1f1217deCF3Fb01dbFb01E",
        "10"
      ],
      "transaction": {
        "from": "0x12395366299C28492682f7853424554df0b81B38",
        "to": "0xc840e742C9CC87F08C14537C6b6515cD952AC789",
        "gas": "0xa7e2",
        "value": "0x0",
        "input": "0xce768b32000000000000000000000000cd2ca3bbe68fb83e9b1f1217decf3fb01dbfb01e000000000000000000000000000000000000000000000000000000000000000a",
        "nonce": "0x16a",
        "chainId": "0xaa36a7"
      },
      "additionalContracts": [],
      "isFixedGasLimit": false
    }
  ],
  "receipts": [
    {
      "status": "0x1",
      "cumulativeGasUsed": "0xd9a467",
      "logs": [
        {
          "address": "0xc840e742C9CC87F08C14537C6b6515cD952AC789",
          "topics": [
            "0x79a782d8b17346e0b863d44323bb26710950eb32858ac04fe6c20fdc8d83d2dc"
          ],
          "data": "0x000000000000000000000000cd2ca3bbe68fb83e9b1f1217decf3fb01dbfb01e000000000000000000000000000000000000000000000000000000000000000a",
          "blockHash": "0xdbe13ae153c54219a1cdd58a50ec631a5283ce42d5df9413f4375b629f40c5cf",
          "blockNumber": "0x7aceb7",
          "blockTimestamp": "0x67efb160",
          "transactionHash": "0x36c5604dcd576281f343990c4f84cceeb124aeaeddf405e68f2cce3da7036341",
          "transactionIndex": "0x77",
          "logIndex": "0xd7",
          "removed": false
        }
      ],
      "logsBloom": "0x00000000000000000000000000000000000000000000000000000000000000000000000000000000000000000000000400000000000000000000080000000000000000000000000000000000000000000000000000000000000000000000000000000000000000000000001000000000000000020000000000000000000000000000000000000000000000000000000020000000000000000000000000000000000000000000000000000000000000000000000000000800000000000000000000000000000000000000000000000000000000000000000000000000000000000000000000000000000000000000000000000000000000000000000000000000",
      "type": "0x2",
      "transactionHash": "0x36c5604dcd576281f343990c4f84cceeb124aeaeddf405e68f2cce3da7036341",
      "transactionIndex": "0x77",
      "blockHash": "0xdbe13ae153c54219a1cdd58a50ec631a5283ce42d5df9413f4375b629f40c5cf",
      "blockNumber": "0x7aceb7",
      "gasUsed": "0x798c",
      "effectiveGasPrice": "0x71cda479",
      "from": "0x12395366299C28492682f7853424554df0b81B38",
      "to": "0xc840e742C9CC87F08C14537C6b6515cD952AC789",
      "contractAddress": null
    }
  ],
  "libraries": [],
  "pending": [],
  "returns": {},
  "timestamp": 1743761768,
  "chain": 11155111,
  "commit": "53ca75c"
}