{
  "transactions": [
    {
      "hash": "0xac510256f1b873d69631204b56efa524ad860003b3ecc205c0cce4ff5fdf2a2f",
      "transactionType": "CALL",
      "contractName": null,
      "contractAddress": "0xc840e742C9CC87F08C14537C6b6515cD952AC789",
      "function": "InitialisePoolLastRunTime(address,uint40)",
      "arguments": [
        "0xCd2Ca3bBe68Fb83E9B1f1217deCF3Fb01dbFb01E",
        "10"
      ],
      "transaction": {
        "from": "0x12395366299C28492682f7853424554df0b81B38",
        "to": "0xc840e742C9CC87F08C14537C6b6515cD952AC789",
        "gas": "0x98c6",
        "value": "0x0",
        "input": "0xce768b32000000000000000000000000cd2ca3bbe68fb83e9b1f1217decf3fb01dbfb01e000000000000000000000000000000000000000000000000000000000000000a",
        "nonce": "0x170",
        "chainId": "0xaa36a7"
      },
      "additionalContracts": [],
      "isFixedGasLimit": false
    }
  ],
  "receipts": [
    {
      "status": "0x1",
      "cumulativeGasUsed": "0x12ed5af",
      "logs": [
        {
          "address": "0xc840e742C9CC87F08C14537C6b6515cD952AC789",
          "topics": [
            "0x79a782d8b17346e0b863d44323bb26710950eb32858ac04fe6c20fdc8d83d2dc"
          ],
          "data": "0x000000000000000000000000cd2ca3bbe68fb83e9b1f1217decf3fb01dbfb01e000000000000000000000000000000000000000000000000000000000000000a",
          "blockHash": "0x3650b1bda5d5025d048d25e1377b407dd2b1aa20fffe3957366dcc0c49b7bde3",
          "blockNumber": "0x7ad134",
          "blockTimestamp": "0x67efcf48",
          "transactionHash": "0xac510256f1b873d69631204b56efa524ad860003b3ecc205c0cce4ff5fdf2a2f",
          "transactionIndex": "0x83",
          "logIndex": "0xde",
          "removed": false
        }
      ],
      "logsBloom": "0x00000000000000000000000000000000000000000000000000000000000000000000000000000000000000000000000400000000000000000000080000000000000000000000000000000000000000000000000000000000000000000000000000000000000000000000001000000000000000020000000000000000000000000000000000000000000000000000000020000000000000000000000000000000000000000000000000000000000000000000000000000800000000000000000000000000000000000000000000000000000000000000000000000000000000000000000000000000000000000000000000000000000000000000000000000000",
      "type": "0x2",
      "transactionHash": "0xac510256f1b873d69631204b56efa524ad860003b3ecc205c0cce4ff5fdf2a2f",
      "transactionIndex": "0x83",
      "blockHash": "0x3650b1bda5d5025d048d25e1377b407dd2b1aa20fffe3957366dcc0c49b7bde3",
      "blockNumber": "0x7ad134",
      "gasUsed": "0x6e9c",
      "effectiveGasPrice": "0x719f983c",
      "from": "0x12395366299C28492682f7853424554df0b81B38",
      "to": "0xc840e742C9CC87F08C14537C6b6515cD952AC789",
      "contractAddress": null
    }
  ],
  "libraries": [],
  "pending": [],
  "returns": {},
  "timestamp": 1743769419,
  "chain": 11155111,
  "commit": "53ca75c"
}