{
  "transactions": [
    {
      "hash": "0x3dcfe76ef67744cfe5f75c427e4a687f175001cfa4417a7e917692deb72a71f3",
      "transactionType": "CALL",
      "contractName": null,
      "contractAddress": "0xc840e742C9CC87F08C14537C6b6515cD952AC789",
      "function": "InitialisePoolLastRunTime(address,uint40)",
      "arguments": [
        "0xCd2Ca3bBe68Fb83E9B1f1217deCF3Fb01dbFb01E",
        "10"
      ],
      "transaction": {
        "from": "0x12395366299C28492682f7853424554df0b81B38",
        "to": "0xc840e742C9CC87F08C14537C6b6515cD952AC789",
        "gas": "0x98c6",
        "value": "0x0",
        "input": "0xce768b32000000000000000000000000cd2ca3bbe68fb83e9b1f1217decf3fb01dbfb01e000000000000000000000000000000000000000000000000000000000000000a",
        "nonce": "0x172",
        "chainId": "0xaa36a7"
      },
      "additionalContracts": [],
      "isFixedGasLimit": false
    }
  ],
  "receipts": [
    {
      "status": "0x1",
      "cumulativeGasUsed": "0xb137ff",
      "logs": [
        {
          "address": "0xc840e742C9CC87F08C14537C6b6515cD952AC789",
          "topics": [
            "0x79a782d8b17346e0b863d44323bb26710950eb32858ac04fe6c20fdc8d83d2dc"
          ],
          "data": "0x000000000000000000000000cd2ca3bbe68fb83e9b1f1217decf3fb01dbfb01e000000000000000000000000000000000000000000000000000000000000000a",
          "blockHash": "0xb3c0043e57dfa2eba215714627d68e777bb7d9c52d4976cbaa7f45a9a2d80769",
          "blockNumber": "0x7ad170",
          "blockTimestamp": "0x67efd218",
          "transactionHash": "0x3dcfe76ef67744cfe5f75c427e4a687f175001cfa4417a7e917692deb72a71f3",
          "transactionIndex": "0x78",
          "logIndex": "0x8f",
          "removed": false
        }
      ],
      "logsBloom": "0x00000000000000000000000000000000000000000000000000000000000000000000000000000000000000000000000400000000000000000000080000000000000000000000000000000000000000000000000000000000000000000000000000000000000000000000001000000000000000020000000000000000000000000000000000000000000000000000000020000000000000000000000000000000000000000000000000000000000000000000000000000800000000000000000000000000000000000000000000000000000000000000000000000000000000000000000000000000000000000000000000000000000000000000000000000000",
      "type": "0x2",
      "transactionHash": "0x3dcfe76ef67744cfe5f75c427e4a687f175001cfa4417a7e917692deb72a71f3",
      "transactionIndex": "0x78",
      "blockHash": "0xb3c0043e57dfa2eba215714627d68e777bb7d9c52d4976cbaa7f45a9a2d80769",
      "blockNumber": "0x7ad170",
      "gasUsed": "0x6e9c",
      "effectiveGasPrice": "0x8d40ba83",
      "from": "0x12395366299C28492682f7853424554df0b81B38",
      "to": "0xc840e742C9CC87F08C14537C6b6515cD952AC789",
      "contractAddress": null
    }
  ],
  "libraries": [],
  "pending": [],
  "returns": {},
  "timestamp": 1743770141,
  "chain": 11155111,
  "commit": "10e16f9"
}