{
  "transactions": [
    {
      "hash": "0x77b9e5994faf98cc854ed0cc3a4439d58fc818ba4851f2836c323bb4417371ba",
      "transactionType": "CALL",
      "contractName": null,
      "contractAddress": "0xc840e742C9CC87F08C14537C6b6515cD952AC789",
      "function": "InitialisePoolLastRunTime(address,uint40)",
      "arguments": [
        "0x7E7AAbC766aD4079257c88d41B9E95B0dd48c2C3",
        "10"
      ],
      "transaction": {
        "from": "0x12395366299C28492682f7853424554df0b81B38",
        "to": "0xc840e742C9CC87F08C14537C6b6515cD952AC789",
        "gas": "0xa7e2",
        "value": "0x0",
        "input": "0xce768b320000000000000000000000007e7aabc766ad4079257c88d41b9e95b0dd48c2c3000000000000000000000000000000000000000000000000000000000000000a",
        "nonce": "0x18d",
        "chainId": "0xaa36a7"
      },
      "additionalContracts": [],
      "isFixedGasLimit": false
    }
  ],
  "receipts": [
    {
      "status": "0x1",
      "cumulativeGasUsed": "0xb34f2d",
      "logs": [
        {
          "address": "0xc840e742C9CC87F08C14537C6b6515cD952AC789",
          "topics": [
            "0x79a782d8b17346e0b863d44323bb26710950eb32858ac04fe6c20fdc8d83d2dc"
          ],
          "data": "0x0000000000000000000000007e7aabc766ad4079257c88d41b9e95b0dd48c2c3000000000000000000000000000000000000000000000000000000000000000a",
          "blockHash": "0x58c081fc2c88ab6dbeddde8378561d42e6c987aea12efb64136a47b66b6be2fb",
          "blockNumber": "0x7b2316",
          "blockTimestamp": "0x67f3bba0",
          "transactionHash": "0x77b9e5994faf98cc854ed0cc3a4439d58fc818ba4851f2836c323bb4417371ba",
          "transactionIndex": "0x6d",
          "logIndex": "0xa6",
          "removed": false
        }
      ],
      "logsBloom": "0x00000000000000000000000000000000000000000000000000000000000000000000000000000000000000000000000400000000000000000000080000000000000000000000000000000000000000000000000000000000000000000000000000000000000000000000001000000000000000020000000000000000000000000000000000000000000000000000000020000000000000000000000000000000000000000000000000000000000000000000000000000800000000000000000000000000000000000000000000000000000000000000000000000000000000000000000000000000000000000000000000000000000000000000000000000000",
      "type": "0x2",
      "transactionHash": "0x77b9e5994faf98cc854ed0cc3a4439d58fc818ba4851f2836c323bb4417371ba",
      "transactionIndex": "0x6d",
      "blockHash": "0x58c081fc2c88ab6dbeddde8378561d42e6c987aea12efb64136a47b66b6be2fb",
      "blockNumber": "0x7b2316",
      "gasUsed": "0x798c",
      "effectiveGasPrice": "0x264d196e",
      "from": "0x12395366299C28492682f7853424554df0b81B38",
      "to": "0xc840e742C9CC87F08C14537C6b6515cD952AC789",
      "contractAddress": null
    }
  ],
  "libraries": [],
  "pending": [],
  "returns": {},
  "timestamp": 1744026530,
  "chain": 11155111,
  "commit": "10e16f9"
}