{
  "transactions": [
    {
      "hash": "0xaa59dd5763283705375e71e52395ff044dd05c221d13fcafeb59d440f7bb8000",
      "transactionType": "CALL",
      "contractName": null,
      "contractAddress": "0xB6b7CCa5E4D3B4DD1a4f52C38f287c7303Db7dA2",
      "function": "setIntermediateValuesManually(address,int256[],int256[],uint256)",
      "arguments": [
        "0xCB78DF4EAd6D9558c19960Cdec71AcA3e37c1087",
        "[1000000000000000000, 1000000000000000000]",
        "[1000000000000000000, 1000000000000000000]",
        "2"
      ],
      "transaction": {
        "from": "0x12395366299C28492682f7853424554df0b81B38",
        "to": "0xB6b7CCa5E4D3B4DD1a4f52C38f287c7303Db7dA2",
        "gas": "0x1121e",
        "value": "0x0",
        "input": "0xd4ead0b2000000000000000000000000cb78df4ead6d9558c19960cdec71aca3e37c1087000000000000000000000000000000000000000000000000000000000000008000000000000000000000000000000000000000000000000000000000000000e0000000000000000000000000000000000000000000000000000000000000000200000000000000000000000000000000000000000000000000000000000000020000000000000000000000000000000000000000000000000de0b6b3a76400000000000000000000000000000000000000000000000000000de0b6b3a764000000000000000000000000000000000000000000000000000000000000000000020000000000000000000000000000000000000000000000000de0b6b3a76400000000000000000000000000000000000000000000000000000de0b6b3a7640000",
        "nonce": "0x1b4",
        "chainId": "0xaa36a7"
      },
      "additionalContracts": [],
      "isFixedGasLimit": false
    }
  ],
  "receipts": [
    {
      "status": "0x1",
      "cumulativeGasUsed": "0xe17143",
      "logs": [
        {
          "address": "0xB6b7CCa5E4D3B4DD1a4f52C38f287c7303Db7dA2",
          "topics": [
            "0xd800d1b75993a532fcdc42cfad69c08e80a232f051683f302292c0b13957406d",
            "0x00000000000000000000000012395366299c28492682f7853424554df0b81b38",
            "0x000000000000000000000000cb78df4ead6d9558c19960cdec71aca3e37c1087"
          ],
          "data": "0x000000000000000000000000000000000000000000000000000000000000006000000000000000000000000000000000000000000000000000000000000000c0000000000000000000000000000000000000000000000000000000000000000200000000000000000000000000000000000000000000000000000000000000020000000000000000000000000000000000000000000000000de0b6b3a76400000000000000000000000000000000000000000000000000000de0b6b3a764000000000000000000000000000000000000000000000000000000000000000000020000000000000000000000000000000000000000000000000de0b6b3a76400000000000000000000000000000000000000000000000000000de0b6b3a7640000",
          "blockHash": "0xcd4a6a3544b8cca2c6b6084a0c9036f9619c341778f8cd306ed1e2f4aa07931c",
          "blockNumber": "0x7b89d2",
          "blockTimestamp": "0x67f8d488",
          "transactionHash": "0xaa59dd5763283705375e71e52395ff044dd05c221d13fcafeb59d440f7bb8000",
          "transactionIndex": "0x67",
          "logIndex": "0xc5",
          "removed": false
        }
      ],
      "logsBloom": "0x00000000000000010000000000000000000000000000000000000000000000000000000000000000000000000000000000000000000400000000000000000000000000000000004000000000000000000000000200000000000000000000000000000000000000000000000000000000000000000000000000100000000000000000000000000000000000000200040000000000000000000000040800000000000000000000000000000000000080000000000000000004000000000000000000000000000000000000000100000000000000000000000000000000000000000000000000000000000000000000000000000000000000000000000000000000",
      "type": "0x2",
      "transactionHash": "0xaa59dd5763283705375e71e52395ff044dd05c221d13fcafeb59d440f7bb8000",
      "transactionIndex": "0x67",
      "blockHash": "0xcd4a6a3544b8cca2c6b6084a0c9036f9619c341778f8cd306ed1e2f4aa07931c",
      "blockNumber": "0x7b89d2",
      "gasUsed": "0xc675",
      "effectiveGasPrice": "0x1a8b5a",
      "from": "0x12395366299C28492682f7853424554df0b81B38",
      "to": "0xB6b7CCa5E4D3B4DD1a4f52C38f287c7303Db7dA2",
      "contractAddress": null
    }
  ],
  "libraries": [],
  "pending": [],
  "returns": {},
  "timestamp": 1744360588,
  "chain": 11155111,
  "commit": "c05839a"
}