{
  "transactions": [
    {
      "hash": "0xdc57eb6df50bbef491c57bb641783cf13f5cb40ce56cb5ef2d15ce5b31a62ed3",
      "transactionType": "CALL",
      "contractName": null,
      "contractAddress": "0xc840e742C9CC87F08C14537C6b6515cD952AC789",
      "function": "setIntermediateValuesManually(address,int256[],int256[],uint256)",
      "arguments": [
        "0x5a424180eeBc7A02a1f329d05651D541Bd22fa84",
        "[1000000000000000000, 1000000000000000000]",
        "[1000000000000000000, 1000000000000000000]",
        "2"
      ],
      "transaction": {
        "from": "0x12395366299C28492682f7853424554df0b81B38",
        "to": "0xc840e742C9CC87F08C14537C6b6515cD952AC789",
        "gas": "0x1121e",
        "value": "0x0",
        "input": "0xd4ead0b20000000000000000000000005a424180eebc7a02a1f329d05651d541bd22fa84000000000000000000000000000000000000000000000000000000000000008000000000000000000000000000000000000000000000000000000000000000e0000000000000000000000000000000000000000000000000000000000000000200000000000000000000000000000000000000000000000000000000000000020000000000000000000000000000000000000000000000000de0b6b3a76400000000000000000000000000000000000000000000000000000de0b6b3a764000000000000000000000000000000000000000000000000000000000000000000020000000000000000000000000000000000000000000000000de0b6b3a76400000000000000000000000000000000000000000000000000000de0b6b3a7640000",
        "nonce": "0x16b",
        "chainId": "0xaa36a7"
      },
      "additionalContracts": [],
      "isFixedGasLimit": false
    }
  ],
  "receipts": [
    {
      "status": "0x1",
      "cumulativeGasUsed": "0xed706c",
      "logs": [
        {
          "address": "0xc840e742C9CC87F08C14537C6b6515cD952AC789",
          "topics": [
            "0xd800d1b75993a532fcdc42cfad69c08e80a232f051683f302292c0b13957406d",
            "0x00000000000000000000000012395366299c28492682f7853424554df0b81b38",
            "0x0000000000000000000000005a424180eebc7a02a1f329d05651d541bd22fa84"
          ],
          "data": "0x000000000000000000000000000000000000000000000000000000000000006000000000000000000000000000000000000000000000000000000000000000c0000000000000000000000000000000000000000000000000000000000000000200000000000000000000000000000000000000000000000000000000000000020000000000000000000000000000000000000000000000000de0b6b3a76400000000000000000000000000000000000000000000000000000de0b6b3a764000000000000000000000000000000000000000000000000000000000000000000020000000000000000000000000000000000000000000000000de0b6b3a76400000000000000000000000000000000000000000000000000000de0b6b3a7640000",
          "blockHash": "0xd9b9c9835a5d84672b3cae86fcc392d6990443997301a0335d16c28d15872b32",
          "blockNumber": "0x7aced6",
          "blockTimestamp": "0x67efb2d4",
          "transactionHash": "0xdc57eb6df50bbef491c57bb641783cf13f5cb40ce56cb5ef2d15ce5b31a62ed3",
          "transactionIndex": "0x87",
          "logIndex": "0xda",
          "removed": false
        }
      ],
      "logsBloom": "0x00000000000000010000000000000000000000000000000000000000000000000000000000000000000000000000000400000000000000000000000000000000000000000000000000000000000000000800000200000000000000000000000000000800000000000000000000000000000000000000000000100000000000000000000000000000000000000000040020000000000000000000000000000000000000000000000000000000000080000000000000002804000000000000000000000000000000000000000000000000000000000000000000000000000000000000000000000000000000000000000000000000000000000000000000000000",
      "type": "0x2",
      "transactionHash": "0xdc57eb6df50bbef491c57bb641783cf13f5cb40ce56cb5ef2d15ce5b31a62ed3",
      "transactionIndex": "0x87",
      "blockHash": "0xd9b9c9835a5d84672b3cae86fcc392d6990443997301a0335d16c28d15872b32",
      "blockNumber": "0x7aced6",
      "gasUsed": "0xc675",
      "effectiveGasPrice": "0x8784f415",
      "from": "0x12395366299C28492682f7853424554df0b81B38",
      "to": "0xc840e742C9CC87F08C14537C6b6515cD952AC789",
      "contractAddress": null
    }
  ],
  "libraries": [],
  "pending": [],
  "returns": {},
  "timestamp": 1743762134,
  "chain": 11155111,
  "commit": "53ca75c"
}