{
  "transactions": [
    {
      "hash": "0x887d337ff800c9b3410a7f3b84c384443d331871ccec52551305359f9e64b632",
      "transactionType": "CALL",
      "contractName": null,
      "contractAddress": "0xc840e742C9CC87F08C14537C6b6515cD952AC789",
      "function": "setIntermediateValuesManually(address,int256[],int256[],uint256)",
      "arguments": [
        "0x7E7AAbC766aD4079257c88d41B9E95B0dd48c2C3",
        "[1000000000000000000, 1000000000000000000]",
        "[1000000000000000000, 1000000000000000000]",
        "2"
      ],
      "transaction": {
        "from": "0x12395366299C28492682f7853424554df0b81B38",
        "to": "0xc840e742C9CC87F08C14537C6b6515cD952AC789",
        "gas": "0x1121e",
        "value": "0x0",
        "input": "0xd4ead0b20000000000000000000000007e7aabc766ad4079257c88d41b9e95b0dd48c2c3000000000000000000000000000000000000000000000000000000000000008000000000000000000000000000000000000000000000000000000000000000e0000000000000000000000000000000000000000000000000000000000000000200000000000000000000000000000000000000000000000000000000000000020000000000000000000000000000000000000000000000000de0b6b3a76400000000000000000000000000000000000000000000000000000de0b6b3a764000000000000000000000000000000000000000000000000000000000000000000020000000000000000000000000000000000000000000000000de0b6b3a76400000000000000000000000000000000000000000000000000000de0b6b3a7640000",
        "nonce": "0x18e",
        "chainId": "0xaa36a7"
      },
      "additionalContracts": [],
      "isFixedGasLimit": false
    }
  ],
  "receipts": [
    {
      "status": "0x1",
      "cumulativeGasUsed": "0xa41f06",
      "logs": [
        {
          "address": "0xc840e742C9CC87F08C14537C6b6515cD952AC789",
          "topics": [
            "0xd800d1b75993a532fcdc42cfad69c08e80a232f051683f302292c0b13957406d",
            "0x00000000000000000000000012395366299c28492682f7853424554df0b81b38",
            "0x0000000000000000000000007e7aabc766ad4079257c88d41b9e95b0dd48c2c3"
          ],
          "data": "0x000000000000000000000000000000000000000000000000000000000000006000000000000000000000000000000000000000000000000000000000000000c0000000000000000000000000000000000000000000000000000000000000000200000000000000000000000000000000000000000000000000000000000000020000000000000000000000000000000000000000000000000de0b6b3a76400000000000000000000000000000000000000000000000000000de0b6b3a764000000000000000000000000000000000000000000000000000000000000000000020000000000000000000000000000000000000000000000000de0b6b3a76400000000000000000000000000000000000000000000000000000de0b6b3a7640000",
          "blockHash": "0x3ff9d0f018479c53e72cd0724d51eb47f43c9932ea4f3241238deedd8f991c84",
          "blockNumber": "0x7b231b",
          "blockTimestamp": "0x67f3bbdc",
          "transactionHash": "0x887d337ff800c9b3410a7f3b84c384443d331871ccec52551305359f9e64b632",
          "transactionIndex": "0x62",
          "logIndex": "0xb4",
          "removed": false
        }
      ],
      "logsBloom": "0x00000000000000010000000000000000000200000000000000000000000000000000000000000000000000000000000400080000000000000000000000000000000000000000000000000000000000000000000200000000000000000000000000000000000000000000000000000000000000000000000000100000000000000000000000000000000000000000040020000000000000000000000000000000000000000000000000000000000080800000000000000804000000000000000000000000000000000000000000000000000000000000000000000000000000000000000000000000000000000000000000000000000000000000000000000000",
      "type": "0x2",
      "transactionHash": "0x887d337ff800c9b3410a7f3b84c384443d331871ccec52551305359f9e64b632",
      "transactionIndex": "0x62",
      "blockHash": "0x3ff9d0f018479c53e72cd0724d51eb47f43c9932ea4f3241238deedd8f991c84",
      "blockNumber": "0x7b231b",
      "gasUsed": "0xc675",
      "effectiveGasPrice": "0x23344d82",
      "from": "0x12395366299C28492682f7853424554df0b81B38",
      "to": "0xc840e742C9CC87F08C14537C6b6515cD952AC789",
      "contractAddress": null
    }
  ],
  "libraries": [],
  "pending": [],
  "returns": {},
  "timestamp": 1744026594,
  "chain": 11155111,
  "commit": "10e16f9"
}