{
  "transactions": [
    {
      "hash": "0xb9ff7c439e29b10b61037c956085fd8d6e7a511d8fdb23371f0db86e3181af92",
      "transactionType": "CALL",
      "contractName": null,
      "contractAddress": "0xc840e742C9CC87F08C14537C6b6515cD952AC789",
      "function": "performUpdate(address)",
      "arguments": [
        "0x5a424180eeBc7A02a1f329d05651D541Bd22fa84"
      ],
      "transaction": {
        "from": "0x12395366299C28492682f7853424554df0b81B38",
        "to": "0xc840e742C9CC87F08C14537C6b6515cD952AC789",
        "gas": "0x423de",
        "value": "0x0",
        "input": "0xe3a11da10000000000000000000000005a424180eebc7a02a1f329d05651d541bd22fa84",
        "nonce": "0x16c",
        "chainId": "0xaa36a7"
      },
      "additionalContracts": [],
      "isFixedGasLimit": false
    }
  ],
  "receipts": [
    {
      "status": "0x1",
      "cumulativeGasUsed": "0x1191447",
      "logs": [
        {
          "address": "0x5a424180eeBc7A02a1f329d05651D541Bd22fa84",
          "topics": [
            "0x3f678b7d550c0f8dfb5dce7c8568f6e139b01f5582a5613d669ebe77729a49fc",
            "0x0000000000000000000000005a424180eebc7a02a1f329d05651d541bd22fa84"
          ],
          "data": "0x0000000000000000000000000000000000000000000000000000000000000060000000000000000000000000000000000000000000000000000000ffffffffff0000000000000000000000000000000000000000000000000000000067efb40c000000000000000000000000000000000000000000000000000000000000000400000000000000000000000000000000000000000000000006f05b59d3b2000000000000000000000000000000000000000000000000000006f05b59d3b2000000000000000000000000000000000000000000000000000000000000000000000000000000000000000000000000000000000000000000000000000000000000",
          "blockHash": "0x17f13ce8525210b0fd80851c13f6700a2c69e93ec3dbb4ade978491def767b43",
          "blockNumber": "0x7acef0",
          "blockTimestamp": "0x67efb40c",
          "transactionHash": "0xb9ff7c439e29b10b61037c956085fd8d6e7a511d8fdb23371f0db86e3181af92",
          "transactionIndex": "0x77",
          "logIndex": "0x18d",
          "removed": false
        },
        {
          "address": "0xc840e742C9CC87F08C14537C6b6515cD952AC789",
          "topics": [
            "0x30f7151deb2a6edd0073424d948b6da843616acab7248b8cdace73ea9ec81ac6",
            "0x0000000000000000000000005a424180eebc7a02a1f329d05651d541bd22fa84"
          ],
          "data": "0x00000000000000000000000012395366299c28492682f7853424554df0b81b380000000000000000000000000000000000000000000000000000000000000080000000000000000000000000000000000000000000000000000000ffffffffff0000000000000000000000000000000000000000000000000000000067efb40c000000000000000000000000000000000000000000000000000000000000000400000000000000000000000000000000000000000000000006f05b59d3b2000000000000000000000000000000000000000000000000000006f05b59d3b2000000000000000000000000000000000000000000000000000000000000000000000000000000000000000000000000000000000000000000000000000000000000",
          "blockHash": "0x17f13ce8525210b0fd80851c13f6700a2c69e93ec3dbb4ade978491def767b43",
          "blockNumber": "0x7acef0",
          "blockTimestamp": "0x67efb40c",
          "transactionHash": "0xb9ff7c439e29b10b61037c956085fd8d6e7a511d8fdb23371f0db86e3181af92",
          "transactionIndex": "0x77",
          "logIndex": "0x18e",
          "removed": false
        },
        {
          "address": "0xc840e742C9CC87F08C14537C6b6515cD952AC789",
          "topics": [
            "0x5182541565a0a53b3f95727ceaa2a0feffd43b7a7f7a095032e4c9f8fbb00928",
            "0x00000000000000000000000012395366299c28492682f7853424554df0b81b38",
            "0x0000000000000000000000005a424180eebc7a02a1f329d05651d541bd22fa84"
          ],
          "data": "0x",
          "blockHash": "0x17f13ce8525210b0fd80851c13f6700a2c69e93ec3dbb4ade978491def767b43",
          "blockNumber": "0x7acef0",
          "blockTimestamp": "0x67efb40c",
          "transactionHash": "0xb9ff7c439e29b10b61037c956085fd8d6e7a511d8fdb23371f0db86e3181af92",
          "transactionIndex": "0x77",
          "logIndex": "0x18f",
          "removed": false
        }
      ],
      "logsBloom": "0x00000400000000010000000000000000000000000000000000000000000000000000000000000000000000000000000404000000000000000000000000000000000000000000000040000000000000000800000000000000000000000000000000000800000000000000000000000000000000000000020000100000000040000000000800400000000000000000040020000000000001000000000000000000000000000000000000000000000040000000000000082800000000000000000000000000000000000000000000000000000000020000000000000000000000000000000000000000000000000000000000000000000080000000000000000000",
      "type": "0x2",
      "transactionHash": "0xb9ff7c439e29b10b61037c956085fd8d6e7a511d8fdb23371f0db86e3181af92",
      "transactionIndex": "0x77",
      "blockHash": "0x17f13ce8525210b0fd80851c13f6700a2c69e93ec3dbb4ade978491def767b43",
      "blockNumber": "0x7acef0",
      "gasUsed": "0x2d4b3",
      "effectiveGasPrice": "0x92bc8660",
      "from": "0x12395366299C28492682f7853424554df0b81B38",
      "to": "0xc840e742C9CC87F08C14537C6b6515cD952AC789",
      "contractAddress": null
    }
  ],
  "libraries": [],
  "pending": [],
  "returns": {},
  "timestamp": 1743762446,
  "chain": 11155111,
  "commit": "53ca75c"
}