{
  "transactions": [
    {
      "hash": "0x16c575893ebe07cfb14d75cb9bbd28b450a00fd8f2addd9a36dec6e8d629d44c",
      "transactionType": "CALL",
      "contractName": null,
      "contractAddress": "0xc840e742C9CC87F08C14537C6b6515cD952AC789",
      "function": "performUpdate(address)",
      "arguments": [
        "0x7E7AAbC766aD4079257c88d41B9E95B0dd48c2C3"
      ],
      "transaction": {
        "from": "0x12395366299C28492682f7853424554df0b81B38",
        "to": "0xc840e742C9CC87F08C14537C6b6515cD952AC789",
        "gas": "0x45f2d",
        "value": "0x0",
        "input": "0xe3a11da10000000000000000000000007e7aabc766ad4079257c88d41b9e95b0dd48c2c3",
        "nonce": "0x190",
        "chainId": "0xaa36a7"
      },
      "additionalContracts": [],
      "isFixedGasLimit": false
    }
  ],
  "receipts": [
    {
      "status": "0x1",
      "cumulativeGasUsed": "0x5c0f19",
      "logs": [
        {
          "address": "0x7E7AAbC766aD4079257c88d41B9E95B0dd48c2C3",
          "topics": [
            "0x3f678b7d550c0f8dfb5dce7c8568f6e139b01f5582a5613d669ebe77729a49fc",
            "0x0000000000000000000000007e7aabc766ad4079257c88d41b9e95b0dd48c2c3"
          ],
          "data": "0x00000000000000000000000000000000000000000000000000000000000000600000000000000000000000000000000000000000000000000000000067f6bbd00000000000000000000000000000000000000000000000000000000067f6bb9400000000000000000000000000000000000000000000000000000000000000040000000000000000000000000000000000000000000000000dbd2df8de887000000000000000000000000000000000000000000000000000002388bac8db9000000000000000000000000000000000000000000000000000000000079b15c6aafffffffffffffffffffffffffffffffffffffffffffffffffffffff864ea3956",
          "blockHash": "0x9f1870c4e37d53abc46c4ffddd7628fa156cad761922c0d624ab8c3ad7e6df04",
          "blockNumber": "0x7b60b3",
          "blockTimestamp": "0x67f6bb94",
          "transactionHash": "0x16c575893ebe07cfb14d75cb9bbd28b450a00fd8f2addd9a36dec6e8d629d44c",
          "transactionIndex": "0x4e",
          "logIndex": "0x6f",
          "removed": false
        },
        {
          "address": "0xc840e742C9CC87F08C14537C6b6515cD952AC789",
          "topics": [
            "0x30f7151deb2a6edd0073424d948b6da843616acab7248b8cdace73ea9ec81ac6",
            "0x0000000000000000000000007e7aabc766ad4079257c88d41b9e95b0dd48c2c3"
          ],
          "data": "0x00000000000000000000000012395366299c28492682f7853424554df0b81b3800000000000000000000000000000000000000000000000000000000000000800000000000000000000000000000000000000000000000000000000067f6bbd00000000000000000000000000000000000000000000000000000000067f6bb9400000000000000000000000000000000000000000000000000000000000000040000000000000000000000000000000000000000000000000dbd2df8de887000000000000000000000000000000000000000000000000000002388bac8db9000000000000000000000000000000000000000000000000000000000079b15c6aafffffffffffffffffffffffffffffffffffffffffffffffffffffff864ea3956",
          "blockHash": "0x9f1870c4e37d53abc46c4ffddd7628fa156cad761922c0d624ab8c3ad7e6df04",
          "blockNumber": "0x7b60b3",
          "blockTimestamp": "0x67f6bb94",
          "transactionHash": "0x16c575893ebe07cfb14d75cb9bbd28b450a00fd8f2addd9a36dec6e8d629d44c",
          "transactionIndex": "0x4e",
          "logIndex": "0x70",
          "removed": false
        },
        {
          "address": "0xc840e742C9CC87F08C14537C6b6515cD952AC789",
          "topics": [
            "0x5182541565a0a53b3f95727ceaa2a0feffd43b7a7f7a095032e4c9f8fbb00928",
            "0x00000000000000000000000012395366299c28492682f7853424554df0b81b38",
            "0x0000000000000000000000007e7aabc766ad4079257c88d41b9e95b0dd48c2c3"
          ],
          "data": "0x",
          "blockHash": "0x9f1870c4e37d53abc46c4ffddd7628fa156cad761922c0d624ab8c3ad7e6df04",
          "blockNumber": "0x7b60b3",
          "blockTimestamp": "0x67f6bb94",
          "transactionHash": "0x16c575893ebe07cfb14d75cb9bbd28b450a00fd8f2addd9a36dec6e8d629d44c",
          "transactionIndex": "0x4e",
          "logIndex": "0x71",
          "removed": false
        }
      ],
      "logsBloom": "0x00000400000080010000000000000000000200000000000000000000000000000000000000000000000000000000000404080000000000000000000000000000000000000000000040000000000000000000000000000000000000020000000000000000000000000000000000000800000000000000020000100000000040000000000000000000000000000000040020000000000001000000000000000000000000000000000000000000000000800000000000080800000000000000000000000000000000000000000000000000000000020000000000000000000000000000000000000000000000000000000000000000000080000000000000000000",
      "type": "0x2",
      "transactionHash": "0x16c575893ebe07cfb14d75cb9bbd28b450a00fd8f2addd9a36dec6e8d629d44c",
      "transactionIndex": "0x4e",
      "blockHash": "0x9f1870c4e37d53abc46c4ffddd7628fa156cad761922c0d624ab8c3ad7e6df04",
      "blockNumber": "0x7b60b3",
      "gasUsed": "0x32a44",
      "effectiveGasPrice": "0x3bcd2f",
      "from": "0x12395366299C28492682f7853424554df0b81B38",
      "to": "0xc840e742C9CC87F08C14537C6b6515cD952AC789",
      "contractAddress": null
    }
  ],
  "libraries": [],
  "pending": [],
  "returns": {},
  "timestamp": 1744223128,
  "chain": 11155111,
  "commit": "b7dba5d"
}