{
  "transactions": [
    {
      "hash": "0xe2e10997d04c3414e458fe998ede80f93be2334e5c1f4d93284ca41a99f1ba65",
      "transactionType": "CALL",
      "contractName": null,
      "contractAddress": "0xc840e742C9CC87F08C14537C6b6515cD952AC789",
      "function": "performUpdate(address)",
      "arguments": [
        "0x7E7AAbC766aD4079257c88d41B9E95B0dd48c2C3"
      ],
      "transaction": {
        "from": "0x12395366299C28492682f7853424554df0b81B38",
        "to": "0xc840e742C9CC87F08C14537C6b6515cD952AC789",
        "gas": "0x4b0d0",
        "value": "0x0",
        "input": "0xe3a11da10000000000000000000000007e7aabc766ad4079257c88d41b9e95b0dd48c2c3",
        "nonce": "0x18f",
        "chainId": "0xaa36a7"
      },
      "additionalContracts": [],
      "isFixedGasLimit": false
    }
  ],
  "receipts": [
    {
      "status": "0x1",
      "cumulativeGasUsed": "0xc07e9e",
      "logs": [
        {
          "address": "0x7E7AAbC766aD4079257c88d41B9E95B0dd48c2C3",
          "topics": [
            "0x3f678b7d550c0f8dfb5dce7c8568f6e139b01f5582a5613d669ebe77729a49fc",
            "0x0000000000000000000000007e7aabc766ad4079257c88d41b9e95b0dd48c2c3"
          ],
          "data": "0x00000000000000000000000000000000000000000000000000000000000000600000000000000000000000000000000000000000000000000000000067f3c83c0000000000000000000000000000000000000000000000000000000067f3bcc0000000000000000000000000000000000000000000000000000000000000000400000000000000000000000000000000000000000000000006f05b59d3b2000000000000000000000000000000000000000000000000000006f05b59d3b20000000000000000000000000000000000000000000000000000000097951b766aaaffffffffffffffffffffffffffffffffffffffffffffffffffff686ae4899556",
          "blockHash": "0x4dce1fb9868562c83d24b95959987eb0a90dcfb25a02625445dac26c50febe3e",
          "blockNumber": "0x7b232e",
          "blockTimestamp": "0x67f3bcc0",
          "transactionHash": "0xe2e10997d04c3414e458fe998ede80f93be2334e5c1f4d93284ca41a99f1ba65",
          "transactionIndex": "0x6a",
          "logIndex": "0xb1",
          "removed": false
        },
        {
          "address": "0xc840e742C9CC87F08C14537C6b6515cD952AC789",
          "topics": [
            "0x30f7151deb2a6edd0073424d948b6da843616acab7248b8cdace73ea9ec81ac6",
            "0x0000000000000000000000007e7aabc766ad4079257c88d41b9e95b0dd48c2c3"
          ],
          "data": "0x00000000000000000000000012395366299c28492682f7853424554df0b81b3800000000000000000000000000000000000000000000000000000000000000800000000000000000000000000000000000000000000000000000000067f3c83c0000000000000000000000000000000000000000000000000000000067f3bcc0000000000000000000000000000000000000000000000000000000000000000400000000000000000000000000000000000000000000000006f05b59d3b2000000000000000000000000000000000000000000000000000006f05b59d3b20000000000000000000000000000000000000000000000000000000097951b766aaaffffffffffffffffffffffffffffffffffffffffffffffffffff686ae4899556",
          "blockHash": "0x4dce1fb9868562c83d24b95959987eb0a90dcfb25a02625445dac26c50febe3e",
          "blockNumber": "0x7b232e",
          "blockTimestamp": "0x67f3bcc0",
          "transactionHash": "0xe2e10997d04c3414e458fe998ede80f93be2334e5c1f4d93284ca41a99f1ba65",
          "transactionIndex": "0x6a",
          "logIndex": "0xb2",
          "removed": false
        },
        {
          "address": "0xc840e742C9CC87F08C14537C6b6515cD952AC789",
          "topics": [
            "0x5182541565a0a53b3f95727ceaa2a0feffd43b7a7f7a095032e4c9f8fbb00928",
            "0x00000000000000000000000012395366299c28492682f7853424554df0b81b38",
            "0x0000000000000000000000007e7aabc766ad4079257c88d41b9e95b0dd48c2c3"
          ],
          "data": "0x",
          "blockHash": "0x4dce1fb9868562c83d24b95959987eb0a90dcfb25a02625445dac26c50febe3e",
          "blockNumber": "0x7b232e",
          "blockTimestamp": "0x67f3bcc0",
          "transactionHash": "0xe2e10997d04c3414e458fe998ede80f93be2334e5c1f4d93284ca41a99f1ba65",
          "transactionIndex": "0x6a",
          "logIndex": "0xb3",
          "removed": false
        }
      ],
      "logsBloom": "0x00000400000080010000000000000000000200000000000000000000000000000000000000000000000000000000000404080000000000000000000000000000000000000000000040000000000000000000000000000000000000020000000000000000000000000000000000000800000000000000020000100000000040000000000000000000000000000000040020000000000001000000000000000000000000000000000000000000000000800000000000080800000000000000000000000000000000000000000000000000000000020000000000000000000000000000000000000000000000000000000000000000000080000000000000000000",
      "type": "0x2",
      "transactionHash": "0xe2e10997d04c3414e458fe998ede80f93be2334e5c1f4d93284ca41a99f1ba65",
      "transactionIndex": "0x6a",
      "blockHash": "0x4dce1fb9868562c83d24b95959987eb0a90dcfb25a02625445dac26c50febe3e",
      "blockNumber": "0x7b232e",
      "gasUsed": "0x33512",
      "effectiveGasPrice": "0x231c2c90",
      "from": "0x12395366299C28492682f7853424554df0b81B38",
      "to": "0xc840e742C9CC87F08C14537C6b6515cD952AC789",
      "contractAddress": null
    }
  ],
  "libraries": [],
  "pending": [],
  "returns": {},
  "timestamp": 1744026823,
  "chain": 11155111,
  "commit": "10e16f9"
}