{
  "transactions": [
    {
      "hash": "0x802b134335d3a2f9abf6faff21e357d5505e18b3d1dc4e45d16bcf7c23894d8e",
      "transactionType": "CALL",
      "contractName": null,
      "contractAddress": "0x94a9D9AC8a22534E3FaCa9F4e7F2E2cf85d5E4C8",
      "function": "approve(address,uint256)",
      "arguments": [
        "0x000000000022D473030F116dDEE9F6B43aC78BA3",
        "115792089237316195423570985008687907853269984665640564039457584007913129639935"
      ],
      "transaction": {
        "from": "0x12395366299C28492682f7853424554df0b81B38",
        "to": "0x94a9D9AC8a22534E3FaCa9F4e7F2E2cf85d5E4C8",
        "gas": "0xa7f9",
        "value": "0x0",
        "input": "0x095ea7b3000000000000000000000000000000000022d473030f116ddee9f6b43ac78ba3ffffffffffffffffffffffffffffffffffffffffffffffffffffffffffffffff",
        "nonce": "0x187",
        "chainId": "0xaa36a7"
      },
      "additionalContracts": [],
      "isFixedGasLimit": false
    },
    {
      "hash": "0x6c6e81d1577d464fc0e822310db498964f5dd8e61976d3e169b2a9580dc30a75",
      "transactionType": "CALL",
      "contractName": null,
      "contractAddress": "0x29f2D40B0605204364af54EC677bD022dA425d03",
      "function": "approve(address,uint256)",
      "arguments": [
        "0x000000000022D473030F116dDEE9F6B43aC78BA3",
        "115792089237316195423570985008687907853269984665640564039457584007913129639935"
      ],
      "transaction": {
        "from": "0x12395366299C28492682f7853424554df0b81B38",
        "to": "0x29f2D40B0605204364af54EC677bD022dA425d03",
        "gas": "0xa7f9",
        "value": "0x0",
        "input": "0x095ea7b3000000000000000000000000000000000022d473030f116ddee9f6b43ac78ba3ffffffffffffffffffffffffffffffffffffffffffffffffffffffffffffffff",
        "nonce": "0x188",
        "chainId": "0xaa36a7"
      },
      "additionalContracts": [],
      "isFixedGasLimit": false
    },
    {
      "hash": "0xd6c2d18c290ee7a5e5ce772a509087cd56996226424f1b186946d5d30739eb45",
      "transactionType": "CALL",
      "contractName": null,
      "contractAddress": "0x000000000022D473030F116dDEE9F6B43aC78BA3",
      "function": "approve(address,address,uint160,uint48)",
      "arguments": [
        "0x29f2D40B0605204364af54EC677bD022dA425d03",
        "0x0BF61f706105EA44694f2e92986bD01C39930280",
        "1461501637330902918203684832716283019655932542975",
        "1744112748"
      ],
      "transaction": {
        "from": "0x12395366299C28492682f7853424554df0b81B38",
        "to": "0x000000000022D473030F116dDEE9F6B43aC78BA3",
        "gas": "0xa59b",
        "value": "0x0",
        "input": "0x87517c4500000000000000000000000029f2d40b0605204364af54ec677bd022da425d030000000000000000000000000bf61f706105ea44694f2e92986bd01c39930280000000000000000000000000ffffffffffffffffffffffffffffffffffffffff0000000000000000000000000000000000000000000000000000000067f50c6c",
        "nonce": "0x189",
        "chainId": "0xaa36a7"
      },
      "additionalContracts": [],
      "isFixedGasLimit": false
    },
    {
      "hash": "0x1cb277c2d9bc91b444c2ca747ccfe1205502acc0a34abaded7bd6d4db361030c",
      "transactionType": "CALL",
      "contractName": null,
      "contractAddress": "0x000000000022D473030F116dDEE9F6B43aC78BA3",
      "function": "approve(address,address,uint160,uint48)",
      "arguments": [
        "0x94a9D9AC8a22534E3FaCa9F4e7F2E2cf85d5E4C8",
        "0x0BF61f706105EA44694f2e92986bD01C39930280",
        "1461501637330902918203684832716283019655932542975",
        "1744112748"
      ],
      "transaction": {
        "from": "0x12395366299C28492682f7853424554df0b81B38",
        "to": "0x000000000022D473030F116dDEE9F6B43aC78BA3",
        "gas": "0xa59b",
        "value": "0x0",
        "input": "0x87517c4500000000000000000000000094a9d9ac8a22534e3faca9f4e7f2e2cf85d5e4c80000000000000000000000000bf61f706105ea44694f2e92986bd01c39930280000000000000000000000000ffffffffffffffffffffffffffffffffffffffff0000000000000000000000000000000000000000000000000000000067f50c6c",
        "nonce": "0x18a",
        "chainId": "0xaa36a7"
      },
      "additionalContracts": [],
      "isFixedGasLimit": false
    },
    {
      "hash": "0xa00500a5920dc7cb2a45efafca525cc0c396f3fd7b94126304dfa38b15095b28",
      "transactionType": "CALL",
      "contractName": null,
      "contractAddress": "0x0BF61f706105EA44694f2e92986bD01C39930280",
      "function": "initialize(address,address[],uint256[],uint256,bool,bytes)",
      "arguments": [
        "0x7E7AAbC766aD4079257c88d41B9E95B0dd48c2C3",
        "[0x29f2D40B0605204364af54EC677bD022dA425d03, 0x94a9D9AC8a22534E3FaCa9F4e7F2E2cf85d5E4C8]",
        "[10000000, 10000000]",
        "0",
        "true",
        "0x"
      ],
      "transaction": {
        "from": "0x12395366299C28492682f7853424554df0b81B38",
        "to": "0x0BF61f706105EA44694f2e92986bD01C39930280",
        "gas": "0x63087",
        "value": "0x0",
        "input": "0x026b3d950000000000000000000000007e7aabc766ad4079257c88d41b9e95b0dd48c2c300000000000000000000000000000000000000000000000000000000000000c00000000000000000000000000000000000000000000000000000000000000120000000000000000000000000000000000000000000000000000000000000000000000000000000000000000000000000000000000000000000000000000000010000000000000000000000000000000000000000000000000000000000000180000000000000000000000000000000000000000000000000000000000000000200000000000000000000000029f2d40b0605204364af54ec677bd022da425d0300000000000000000000000094a9d9ac8a22534e3faca9f4e7f2e2cf85d5e4c80000000000000000000000000000000000000000000000000000000000000002000000000000000000000000000000000000000000000000000000000098968000000000000000000000000000000000000000000000000000000000009896800000000000000000000000000000000000000000000000000000000000000000",
        "nonce": "0x18b",
        "chainId": "0xaa36a7"
      },
      "additionalContracts": [],
      "isFixedGasLimit": false
    }
  ],
  "receipts": [
    {
      "status": "0x1",
      "cumulativeGasUsed": "0xb9392c",
      "logs": [
        {
          "address": "0x94a9D9AC8a22534E3FaCa9F4e7F2E2cf85d5E4C8",
          "topics": [
            "0x8c5be1e5ebec7d5bd14f71427d1e84f3dd0314c0f7b2291e5b200ac8c7c3b925",
            "0x00000000000000000000000012395366299c28492682f7853424554df0b81b38",
            "0x000000000000000000000000000000000022d473030f116ddee9f6b43ac78ba3"
          ],
          "data": "0xffffffffffffffffffffffffffffffffffffffffffffffffffffffffffffffff",
          "blockHash": "0x5fa2d145403a3b25e2f2bd2a8ccab5b21606f2abfb79ee99deb8705911453024",
          "blockNumber": "0x7b2309",
          "blockTimestamp": "0x67f3bb04",
          "transactionHash": "0x802b134335d3a2f9abf6faff21e357d5505e18b3d1dc4e45d16bcf7c23894d8e",
          "transactionIndex": "0x69",
          "logIndex": "0xbc",
          "removed": false
        }
      ],
      "logsBloom": "0x00000000000000010000000000000000000000000000000000000000000000000000000000000000000000000000000000000000800000000000000000200000000000000000000000004000000000000000000000000800000008000000000000000000000000000000000000000000000000000000000000100000000000000000000000000000000000000000040000000000000000000000000000000000020000000100000000004000000000000000000000000000000000000000000000000000000000000000000000000000000000000000000000000000000000000010000000000000000000000000000000000000000000000000000000000000",
      "type": "0x2",
      "transactionHash": "0x802b134335d3a2f9abf6faff21e357d5505e18b3d1dc4e45d16bcf7c23894d8e",
      "transactionIndex": "0x69",
      "blockHash": "0x5fa2d145403a3b25e2f2bd2a8ccab5b21606f2abfb79ee99deb8705911453024",
      "blockNumber": "0x7b2309",
      "gasUsed": "0x72db",
      "effectiveGasPrice": "0x29369fc7",
      "from": "0x12395366299C28492682f7853424554df0b81B38",
      "to": "0x94a9D9AC8a22534E3FaCa9F4e7F2E2cf85d5E4C8",
      "contractAddress": null
    },
    {
      "status": "0x1",
      "cumulativeGasUsed": "0xb9ac07",
      "logs": [
        {
          "address": "0x29f2D40B0605204364af54EC677bD022dA425d03",
          "topics": [
            "0x8c5be1e5ebec7d5bd14f71427d1e84f3dd0314c0f7b2291e5b200ac8c7c3b925",
            "0x00000000000000000000000012395366299c28492682f7853424554df0b81b38",
            "0x000000000000000000000000000000000022d473030f116ddee9f6b43ac78ba3"
          ],
          "data": "0xffffffffffffffffffffffffffffffffffffffffffffffffffffffffffffffff",
          "blockHash": "0x5fa2d145403a3b25e2f2bd2a8ccab5b21606f2abfb79ee99deb8705911453024",
          "blockNumber": "0x7b2309",
          "blockTimestamp": "0x67f3bb04",
          "transactionHash": "0x6c6e81d1577d464fc0e822310db498964f5dd8e61976d3e169b2a9580dc30a75",
          "transactionIndex": "0x6a",
          "logIndex": "0xbd",
          "removed": false
        }
      ],
      "logsBloom": "0x00000000000000010000000000000000000000000000400000000000000000000000000000000000000000000000000000000000800000000000000000200000000000000000000000004000004000000000000000000800000000000000000000000000000000000000000000000000000000000000000000100000000000000000000000000000000000000000040000000000000000000000000000000000020000000000000000000000000000000000000000000000000000000000000000000000000000000000000000000000000000200000000000000000000000000010000000000000000000000000000000000000000000000000000000000000",
      "type": "0x2",
      "transactionHash": "0x6c6e81d1577d464fc0e822310db498964f5dd8e61976d3e169b2a9580dc30a75",
      "transactionIndex": "0x6a",
      "blockHash": "0x5fa2d145403a3b25e2f2bd2a8ccab5b21606f2abfb79ee99deb8705911453024",
      "blockNumber": "0x7b2309",
      "gasUsed": "0x72db",
      "effectiveGasPrice": "0x29369fc7",
      "from": "0x12395366299C28492682f7853424554df0b81B38",
      "to": "0x29f2D40B0605204364af54EC677bD022dA425d03",
      "contractAddress": null
    },
    {
      "status": "0x1",
      "cumulativeGasUsed": "0xba23ed",
      "logs": [
        {
          "address": "0x000000000022D473030F116dDEE9F6B43aC78BA3",
          "topics": [
            "0xda9fa7c1b00402c17d0161b249b1ab8bbec047c5a52207b9c112deffd817036b",
            "0x00000000000000000000000012395366299c28492682f7853424554df0b81b38",
            "0x00000000000000000000000029f2d40b0605204364af54ec677bd022da425d03",
            "0x0000000000000000000000000bf61f706105ea44694f2e92986bd01c39930280"
          ],
          "data": "0x000000000000000000000000ffffffffffffffffffffffffffffffffffffffff0000000000000000000000000000000000000000000000000000000067f50c6c",
          "blockHash": "0x5fa2d145403a3b25e2f2bd2a8ccab5b21606f2abfb79ee99deb8705911453024",
          "blockNumber": "0x7b2309",
          "blockTimestamp": "0x67f3bb04",
          "transactionHash": "0xd6c2d18c290ee7a5e5ce772a509087cd56996226424f1b186946d5d30739eb45",
          "transactionIndex": "0x6b",
          "logIndex": "0xbe",
          "removed": false
        }
      ],
      "logsBloom": "0x00010000000000010000000000004000000000000004000000000000000000000000000000000000000000000000000000000000000000080000000000080000000000000000000000000000000000000000000000000000000000000000000000000000000000000000000000000000000000000000000000100000000000000020000000000000000000000000040000000000000000000000000000000000000000000000000000000000000000000000200000000000000000080000000000000000000000000000000000000000000000000000000040000000000000000000000000000000000000004000000000000000000000000000000002000400",
      "type": "0x2",
      "transactionHash": "0xd6c2d18c290ee7a5e5ce772a509087cd56996226424f1b186946d5d30739eb45",
      "transactionIndex": "0x6b",
      "blockHash": "0x5fa2d145403a3b25e2f2bd2a8ccab5b21606f2abfb79ee99deb8705911453024",
      "blockNumber": "0x7b2309",
      "gasUsed": "0x77e6",
      "effectiveGasPrice": "0x29369fc7",
      "from": "0x12395366299C28492682f7853424554df0b81B38",
      "to": "0x000000000022D473030F116dDEE9F6B43aC78BA3",
      "contractAddress": null
    },
    {
      "status": "0x1",
      "cumulativeGasUsed": "0xba9bd3",
      "logs": [
        {
          "address": "0x000000000022D473030F116dDEE9F6B43aC78BA3",
          "topics": [
            "0xda9fa7c1b00402c17d0161b249b1ab8bbec047c5a52207b9c112deffd817036b",
            "0x00000000000000000000000012395366299c28492682f7853424554df0b81b38",
            "0x00000000000000000000000094a9d9ac8a22534e3faca9f4e7f2e2cf85d5e4c8",
            "0x0000000000000000000000000bf61f706105ea44694f2e92986bd01c39930280"
          ],
          "data": "0x000000000000000000000000ffffffffffffffffffffffffffffffffffffffff0000000000000000000000000000000000000000000000000000000067f50c6c",
          "blockHash": "0x5fa2d145403a3b25e2f2bd2a8ccab5b21606f2abfb79ee99deb8705911453024",
          "blockNumber": "0x7b2309",
          "blockTimestamp": "0x67f3bb04",
          "transactionHash": "0x1cb277c2d9bc91b444c2ca747ccfe1205502acc0a34abaded7bd6d4db361030c",
          "transactionIndex": "0x6c",
          "logIndex": "0xbf",
          "removed": false
        }
      ],
      "logsBloom": "0x00010000000000010200000000000000000000000004000000000000000000000000000000000000000100000000000000000000000000080000000000080000000000000000000000000000000000000000000000000000000000000000000000000000000000000000000000000000000000000000000000100000000000000020000000000000000000000000040000000000000000000000000000000000000000000000000000000000000000000000000000000000000000080000000000000000000000000000000000000000000000000000020040000000000000000000000000000000000000000000000000000000000000000000000002000400",
      "type": "0x2",
      "transactionHash": "0x1cb277c2d9bc91b444c2ca747ccfe1205502acc0a34abaded7bd6d4db361030c",
      "transactionIndex": "0x6c",
      "blockHash": "0x5fa2d145403a3b25e2f2bd2a8ccab5b21606f2abfb79ee99deb8705911453024",
      "blockNumber": "0x7b2309",
      "gasUsed": "0x77e6",
      "effectiveGasPrice": "0x29369fc7",
      "from": "0x12395366299C28492682f7853424554df0b81B38",
      "to": "0x000000000022D473030F116dDEE9F6B43aC78BA3",
      "contractAddress": null
    },
    {
      "status": "0x1",
      "cumulativeGasUsed": "0xbf16ff",
      "logs": [
        {
          "address": "0xbA1333333333a1BA1108E8412f11850A5C319bA9",
          "topics": [
            "0xd1398bee19313d6bf672ccb116e51f4a1a947e91c757907f51fbb5b5e56c698f",
            "0x0000000000000000000000007e7aabc766ad4079257c88d41b9e95b0dd48c2c3",
            "0x0000000000000000000000000000000000000000000000000000000000000000",
            "0x0000000000000000000000000000000000000000000000000000000000000000"
          ],
          "data": "0x00000000000000000000000000000000000000000000000000000000000f4240",
          "blockHash": "0x5fa2d145403a3b25e2f2bd2a8ccab5b21606f2abfb79ee99deb8705911453024",
          "blockNumber": "0x7b2309",
          "blockTimestamp": "0x67f3bb04",
          "transactionHash": "0xa00500a5920dc7cb2a45efafca525cc0c396f3fd7b94126304dfa38b15095b28",
          "transactionIndex": "0x6d",
          "logIndex": "0xc0",
          "removed": false
        },
        {
          "address": "0x7E7AAbC766aD4079257c88d41B9E95B0dd48c2C3",
          "topics": [
            "0xddf252ad1be2c89b69c2b068fc378daa952ba7f163c4a11628f55a4df523b3ef",
            "0x0000000000000000000000000000000000000000000000000000000000000000",
            "0x0000000000000000000000000000000000000000000000000000000000000000"
          ],
          "data": "0x00000000000000000000000000000000000000000000000000000000000f4240",
          "blockHash": "0x5fa2d145403a3b25e2f2bd2a8ccab5b21606f2abfb79ee99deb8705911453024",
          "blockNumber": "0x7b2309",
          "blockTimestamp": "0x67f3bb04",
          "transactionHash": "0xa00500a5920dc7cb2a45efafca525cc0c396f3fd7b94126304dfa38b15095b28",
          "transactionIndex": "0x6d",
          "logIndex": "0xc1",
          "removed": false
        },
        {
          "address": "0xbA1333333333a1BA1108E8412f11850A5C319bA9",
          "topics": [
            "0xd1398bee19313d6bf672ccb116e51f4a1a947e91c757907f51fbb5b5e56c698f",
            "0x0000000000000000000000007e7aabc766ad4079257c88d41b9e95b0dd48c2c3",
            "0x0000000000000000000000000000000000000000000000000000000000000000",
            "0x00000000000000000000000012395366299c28492682f7853424554df0b81b38"
          ],
          "data": "0x0000000000000000000000000000000000000000000000000de0b6b3a7546f98",
          "blockHash": "0x5fa2d145403a3b25e2f2bd2a8ccab5b21606f2abfb79ee99deb8705911453024",
          "blockNumber": "0x7b2309",
          "blockTimestamp": "0x67f3bb04",
          "transactionHash": "0xa00500a5920dc7cb2a45efafca525cc0c396f3fd7b94126304dfa38b15095b28",
          "transactionIndex": "0x6d",
          "logIndex": "0xc2",
          "removed": false
        },
        {
          "address": "0x7E7AAbC766aD4079257c88d41B9E95B0dd48c2C3",
          "topics": [
            "0xddf252ad1be2c89b69c2b068fc378daa952ba7f163c4a11628f55a4df523b3ef",
            "0x0000000000000000000000000000000000000000000000000000000000000000",
            "0x00000000000000000000000012395366299c28492682f7853424554df0b81b38"
          ],
          "data": "0x0000000000000000000000000000000000000000000000000de0b6b3a7546f98",
          "blockHash": "0x5fa2d145403a3b25e2f2bd2a8ccab5b21606f2abfb79ee99deb8705911453024",
          "blockNumber": "0x7b2309",
          "blockTimestamp": "0x67f3bb04",
          "transactionHash": "0xa00500a5920dc7cb2a45efafca525cc0c396f3fd7b94126304dfa38b15095b28",
          "transactionIndex": "0x6d",
          "logIndex": "0xc3",
          "removed": false
        },
        {
          "address": "0xbA1333333333a1BA1108E8412f11850A5C319bA9",
          "topics": [
            "0xa26a52d8d53702bba7f137907b8e1f99ff87f6d450144270ca25e72481cca871",
            "0x0000000000000000000000007e7aabc766ad4079257c88d41b9e95b0dd48c2c3",
            "0x00000000000000000000000012395366299c28492682f7853424554df0b81b38",
            "0x0000000000000000000000000000000000000000000000000000000000000001"
          ],
          "data": "0x0000000000000000000000000000000000000000000000000de0b6b3a763b1d8000000000000000000000000000000000000000000000000000000000000006000000000000000000000000000000000000000000000000000000000000000c0000000000000000000000000000000000000000000000000000000000000000200000000000000000000000000000000000000000000000000000000009896800000000000000000000000000000000000000000000000000000000000989680000000000000000000000000000000000000000000000000000000000000000200000000000000000000000000000000000000000000000000000000000000000000000000000000000000000000000000000000000000000000000000000000",
          "blockHash": "0x5fa2d145403a3b25e2f2bd2a8ccab5b21606f2abfb79ee99deb8705911453024",
          "blockNumber": "0x7b2309",
          "blockTimestamp": "0x67f3bb04",
          "transactionHash": "0xa00500a5920dc7cb2a45efafca525cc0c396f3fd7b94126304dfa38b15095b28",
          "transactionIndex": "0x6d",
          "logIndex": "0xc4",
          "removed": false
        },
        {
          "address": "0xbA1333333333a1BA1108E8412f11850A5C319bA9",
          "topics": [
            "0xcad8c9d32507393b6508ca4a888b81979919b477510585bde8488f153072d6f3",
            "0x0000000000000000000000007e7aabc766ad4079257c88d41b9e95b0dd48c2c3"
          ],
          "data": "0x",
          "blockHash": "0x5fa2d145403a3b25e2f2bd2a8ccab5b21606f2abfb79ee99deb8705911453024",
          "blockNumber": "0x7b2309",
          "blockTimestamp": "0x67f3bb04",
          "transactionHash": "0xa00500a5920dc7cb2a45efafca525cc0c396f3fd7b94126304dfa38b15095b28",
          "transactionIndex": "0x6d",
          "logIndex": "0xc5",
          "removed": false
        },
        {
          "address": "0x29f2D40B0605204364af54EC677bD022dA425d03",
          "topics": [
            "0xddf252ad1be2c89b69c2b068fc378daa952ba7f163c4a11628f55a4df523b3ef",
            "0x00000000000000000000000012395366299c28492682f7853424554df0b81b38",
            "0x000000000000000000000000ba1333333333a1ba1108e8412f11850a5c319ba9"
          ],
          "data": "0x0000000000000000000000000000000000000000000000000000000000989680",
          "blockHash": "0x5fa2d145403a3b25e2f2bd2a8ccab5b21606f2abfb79ee99deb8705911453024",
          "blockNumber": "0x7b2309",
          "blockTimestamp": "0x67f3bb04",
          "transactionHash": "0xa00500a5920dc7cb2a45efafca525cc0c396f3fd7b94126304dfa38b15095b28",
          "transactionIndex": "0x6d",
          "logIndex": "0xc6",
          "removed": false
        },
        {
          "address": "0x29f2D40B0605204364af54EC677bD022dA425d03",
          "topics": [
            "0x8c5be1e5ebec7d5bd14f71427d1e84f3dd0314c0f7b2291e5b200ac8c7c3b925",
            "0x00000000000000000000000012395366299c28492682f7853424554df0b81b38",
            "0x000000000000000000000000000000000022d473030f116ddee9f6b43ac78ba3"
          ],
          "data": "0xffffffffffffffffffffffffffffffffffffffffffffffffffffffffff67697f",
          "blockHash": "0x5fa2d145403a3b25e2f2bd2a8ccab5b21606f2abfb79ee99deb8705911453024",
          "blockNumber": "0x7b2309",
          "blockTimestamp": "0x67f3bb04",
          "transactionHash": "0xa00500a5920dc7cb2a45efafca525cc0c396f3fd7b94126304dfa38b15095b28",
          "transactionIndex": "0x6d",
          "logIndex": "0xc7",
          "removed": false
        },
        {
          "address": "0x94a9D9AC8a22534E3FaCa9F4e7F2E2cf85d5E4C8",
          "topics": [
            "0xddf252ad1be2c89b69c2b068fc378daa952ba7f163c4a11628f55a4df523b3ef",
            "0x00000000000000000000000012395366299c28492682f7853424554df0b81b38",
            "0x000000000000000000000000ba1333333333a1ba1108e8412f11850a5c319ba9"
          ],
          "data": "0x0000000000000000000000000000000000000000000000000000000000989680",
          "blockHash": "0x5fa2d145403a3b25e2f2bd2a8ccab5b21606f2abfb79ee99deb8705911453024",
          "blockNumber": "0x7b2309",
          "blockTimestamp": "0x67f3bb04",
          "transactionHash": "0xa00500a5920dc7cb2a45efafca525cc0c396f3fd7b94126304dfa38b15095b28",
          "transactionIndex": "0x6d",
          "logIndex": "0xc8",
          "removed": false
        },
        {
          "address": "0x94a9D9AC8a22534E3FaCa9F4e7F2E2cf85d5E4C8",
          "topics": [
            "0x8c5be1e5ebec7d5bd14f71427d1e84f3dd0314c0f7b2291e5b200ac8c7c3b925",
            "0x00000000000000000000000012395366299c28492682f7853424554df0b81b38",
            "0x000000000000000000000000000000000022d473030f116ddee9f6b43ac78ba3"
          ],
          "data": "0xffffffffffffffffffffffffffffffffffffffffffffffffffffffffff67697f",
          "blockHash": "0x5fa2d145403a3b25e2f2bd2a8ccab5b21606f2abfb79ee99deb8705911453024",
          "blockNumber": "0x7b2309",
          "blockTimestamp": "0x67f3bb04",
          "transactionHash": "0xa00500a5920dc7cb2a45efafca525cc0c396f3fd7b94126304dfa38b15095b28",
          "transactionIndex": "0x6d",
          "logIndex": "0xc9",
          "removed": false
        }
      ],
      "logsBloom": "0x00000000000080010040000000000000000280000000400000004000002000000000000000000000000000000000000000080000800000000000000000240000802000000000000000004008004000000000000000040800000008020000000000000000020000000000000000000800000001000000000000100010000000000000000000000000000000000000040000000000000000000000010000000000020000c00180000000044000000000800000000000000000000000000000000000000002000000000000000000000000000000200000000000000000800060000010000000000000002000000100000000000000000000000000000000000000",
      "type": "0x2",
      "transactionHash": "0xa00500a5920dc7cb2a45efafca525cc0c396f3fd7b94126304dfa38b15095b28",
      "transactionIndex": "0x6d",
      "blockHash": "0x5fa2d145403a3b25e2f2bd2a8ccab5b21606f2abfb79ee99deb8705911453024",
      "blockNumber": "0x7b2309",
      "gasUsed": "0x47b2c",
      "effectiveGasPrice": "0x29369fc7",
      "from": "0x12395366299C28492682f7853424554df0b81B38",
      "to": "0x0BF61f706105EA44694f2e92986bD01C39930280",
      "contractAddress": null
    }
  ],
  "libraries": [],
  "pending": [],
  "returns": {},
  "timestamp": 1744026377,
  "chain": 11155111,
  "commit": "10e16f9"
}