{
  "transactions": [
    {
      "hash": "0x7f3dde37d2fed72e20792e70dfd1ce4f17ed683b42d657b8de392570c1c63307",
      "transactionType": "CALL",
      "contractName": null,
      "contractAddress": "0x94a9D9AC8a22534E3FaCa9F4e7F2E2cf85d5E4C8",
      "function": "approve(address,uint256)",
      "arguments": [
        "0x000000000022D473030F116dDEE9F6B43aC78BA3",
        "115792089237316195423570985008687907853269984665640564039457584007913129639935"
      ],
      "transaction": {
        "from": "0x12395366299C28492682f7853424554df0b81B38",
        "to": "0x94a9D9AC8a22534E3FaCa9F4e7F2E2cf85d5E4C8",
        "gas": "0xa7f9",
        "value": "0x0",
        "input": "0x095ea7b3000000000000000000000000000000000022d473030f116ddee9f6b43ac78ba3ffffffffffffffffffffffffffffffffffffffffffffffffffffffffffffffff",
        "nonce": "0x1ad",
        "chainId": "0xaa36a7"
      },
      "additionalContracts": [],
      "isFixedGasLimit": false
    },
    {
      "hash": "0x13258904a0bdd08bcb2e81f6b0a4bf40322f01d5f4e8892673965c121eebc12b",
      "transactionType": "CALL",
      "contractName": null,
      "contractAddress": "0x29f2D40B0605204364af54EC677bD022dA425d03",
      "function": "approve(address,uint256)",
      "arguments": [
        "0x000000000022D473030F116dDEE9F6B43aC78BA3",
        "115792089237316195423570985008687907853269984665640564039457584007913129639935"
      ],
      "transaction": {
        "from": "0x12395366299C28492682f7853424554df0b81B38",
        "to": "0x29f2D40B0605204364af54EC677bD022dA425d03",
        "gas": "0xa7f9",
        "value": "0x0",
        "input": "0x095ea7b3000000000000000000000000000000000022d473030f116ddee9f6b43ac78ba3ffffffffffffffffffffffffffffffffffffffffffffffffffffffffffffffff",
        "nonce": "0x1ae",
        "chainId": "0xaa36a7"
      },
      "additionalContracts": [],
      "isFixedGasLimit": false
    },
    {
      "hash": "0x557448658b8a01ed335116f66c26aef4b63af5b0929331dca9c4e1f8cce14893",
      "transactionType": "CALL",
      "contractName": null,
      "contractAddress": "0x000000000022D473030F116dDEE9F6B43aC78BA3",
      "function": "approve(address,address,uint160,uint48)",
      "arguments": [
        "0x29f2D40B0605204364af54EC677bD022dA425d03",
        "0x0BF61f706105EA44694f2e92986bD01C39930280",
        "1461501637330902918203684832716283019655932542975",
        "1744446744"
      ],
      "transaction": {
        "from": "0x12395366299C28492682f7853424554df0b81B38",
        "to": "0x000000000022D473030F116dDEE9F6B43aC78BA3",
        "gas": "0xa59b",
        "value": "0x0",
        "input": "0x87517c4500000000000000000000000029f2d40b0605204364af54ec677bd022da425d030000000000000000000000000bf61f706105ea44694f2e92986bd01c39930280000000000000000000000000ffffffffffffffffffffffffffffffffffffffff0000000000000000000000000000000000000000000000000000000067fa2518",
        "nonce": "0x1af",
        "chainId": "0xaa36a7"
      },
      "additionalContracts": [],
      "isFixedGasLimit": false
    },
    {
      "hash": "0x069d6227d0101503c52addfd14916ec32f8bf0cc419fe93ba2c75e260108bdc6",
      "transactionType": "CALL",
      "contractName": null,
      "contractAddress": "0x000000000022D473030F116dDEE9F6B43aC78BA3",
      "function": "approve(address,address,uint160,uint48)",
      "arguments": [
        "0x94a9D9AC8a22534E3FaCa9F4e7F2E2cf85d5E4C8",
        "0x0BF61f706105EA44694f2e92986bD01C39930280",
        "1461501637330902918203684832716283019655932542975",
        "1744446744"
      ],
      "transaction": {
        "from": "0x12395366299C28492682f7853424554df0b81B38",
        "to": "0x000000000022D473030F116dDEE9F6B43aC78BA3",
        "gas": "0xa59b",
        "value": "0x0",
        "input": "0x87517c4500000000000000000000000094a9d9ac8a22534e3faca9f4e7f2e2cf85d5e4c80000000000000000000000000bf61f706105ea44694f2e92986bd01c39930280000000000000000000000000ffffffffffffffffffffffffffffffffffffffff0000000000000000000000000000000000000000000000000000000067fa2518",
        "nonce": "0x1b0",
        "chainId": "0xaa36a7"
      },
      "additionalContracts": [],
      "isFixedGasLimit": false
    },
    {
      "hash": "0xcbb6c278d764202428bf70773e3876ee20ebf0bcb5261faf1fe436c4f78be434",
      "transactionType": "CALL",
      "contractName": null,
      "contractAddress": "0x0BF61f706105EA44694f2e92986bD01C39930280",
      "function": "initialize(address,address[],uint256[],uint256,bool,bytes)",
      "arguments": [
        "0xCB78DF4EAd6D9558c19960Cdec71AcA3e37c1087",
        "[0x29f2D40B0605204364af54EC677bD022dA425d03, 0x94a9D9AC8a22534E3FaCa9F4e7F2E2cf85d5E4C8]",
        "[10000000, 10000000]",
        "0",
        "true",
        "0x"
      ],
      "transaction": {
        "from": "0x12395366299C28492682f7853424554df0b81B38",
        "to": "0x0BF61f706105EA44694f2e92986bD01C39930280",
        "gas": "0x63087",
        "value": "0x0",
        "input": "0x026b3d95000000000000000000000000cb78df4ead6d9558c19960cdec71aca3e37c108700000000000000000000000000000000000000000000000000000000000000c00000000000000000000000000000000000000000000000000000000000000120000000000000000000000000000000000000000000000000000000000000000000000000000000000000000000000000000000000000000000000000000000010000000000000000000000000000000000000000000000000000000000000180000000000000000000000000000000000000000000000000000000000000000200000000000000000000000029f2d40b0605204364af54ec677bd022da425d0300000000000000000000000094a9d9ac8a22534e3faca9f4e7f2e2cf85d5e4c80000000000000000000000000000000000000000000000000000000000000002000000000000000000000000000000000000000000000000000000000098968000000000000000000000000000000000000000000000000000000000009896800000000000000000000000000000000000000000000000000000000000000000",
        "nonce": "0x1b1",
        "chainId": "0xaa36a7"
      },
      "additionalContracts": [],
      "isFixedGasLimit": false
    }
  ],
  "receipts": [
    {
      "status": "0x1",
      "cumulativeGasUsed": "0x111b47e",
      "logs": [
        {
          "address": "0x94a9D9AC8a22534E3FaCa9F4e7F2E2cf85d5E4C8",
          "topics": [
            "0x8c5be1e5ebec7d5bd14f71427d1e84f3dd0314c0f7b2291e5b200ac8c7c3b925",
            "0x00000000000000000000000012395366299c28492682f7853424554df0b81b38",
            "0x000000000000000000000000000000000022d473030f116ddee9f6b43ac78ba3"
          ],
          "data": "0xffffffffffffffffffffffffffffffffffffffffffffffffffffffffffffffff",
          "blockHash": "0x9f31cfb856d7f3a9a9806c0797d4d9fd2c223f8a20c7a7de01c70b5f42380ba6",
          "blockNumber": "0x7b89c0",
          "blockTimestamp": "0x67f8d3a4",
          "transactionHash": "0x7f3dde37d2fed72e20792e70dfd1ce4f17ed683b42d657b8de392570c1c63307",
          "transactionIndex": "0x54",
          "logIndex": "0x7a",
          "removed": false
        }
      ],
      "logsBloom": "0x00000000000000010000000000000000000000000000000000000000000000000000000000000000000000000000000000000000800000000000000000200000000000000000000000004000000000000000000000000800000008000000000000000000000000000000000000000000000000000000000000100000000000000000000000000000000000000000040000000000000000000000000000000000020000000100000000004000000000000000000000000000000000000000000000000000000000000000000000000000000000000000000000000000000000000010000000000000000000000000000000000000000000000000000000000000",
      "type": "0x2",
      "transactionHash": "0x7f3dde37d2fed72e20792e70dfd1ce4f17ed683b42d657b8de392570c1c63307",
      "transactionIndex": "0x54",
      "blockHash": "0x9f31cfb856d7f3a9a9806c0797d4d9fd2c223f8a20c7a7de01c70b5f42380ba6",
      "blockNumber": "0x7b89c0",
      "gasUsed": "0x72db",
      "effectiveGasPrice": "0x1ef102",
      "from": "0x12395366299C28492682f7853424554df0b81B38",
      "to": "0x94a9D9AC8a22534E3FaCa9F4e7F2E2cf85d5E4C8",
      "contractAddress": null
    },
    {
      "status": "0x1",
      "cumulativeGasUsed": "0x12136c3",
      "logs": [
        {
          "address": "0x29f2D40B0605204364af54EC677bD022dA425d03",
          "topics": [
            "0x8c5be1e5ebec7d5bd14f71427d1e84f3dd0314c0f7b2291e5b200ac8c7c3b925",
            "0x00000000000000000000000012395366299c28492682f7853424554df0b81b38",
            "0x000000000000000000000000000000000022d473030f116ddee9f6b43ac78ba3"
          ],
          "data": "0xffffffffffffffffffffffffffffffffffffffffffffffffffffffffffffffff",
          "blockHash": "0x9f31cfb856d7f3a9a9806c0797d4d9fd2c223f8a20c7a7de01c70b5f42380ba6",
          "blockNumber": "0x7b89c0",
          "blockTimestamp": "0x67f8d3a4",
          "transactionHash": "0x13258904a0bdd08bcb2e81f6b0a4bf40322f01d5f4e8892673965c121eebc12b",
          "transactionIndex": "0x5f",
          "logIndex": "0x81",
          "removed": false
        }
      ],
      "logsBloom": "0x00000000000000010000000000000000000000000000400000000000000000000000000000000000000000000000000000000000800000000000000000200000000000000000000000004000004000000000000000000800000000000000000000000000000000000000000000000000000000000000000000100000000000000000000000000000000000000000040000000000000000000000000000000000020000000000000000000000000000000000000000000000000000000000000000000000000000000000000000000000000000200000000000000000000000000010000000000000000000000000000000000000000000000000000000000000",
      "type": "0x2",
      "transactionHash": "0x13258904a0bdd08bcb2e81f6b0a4bf40322f01d5f4e8892673965c121eebc12b",
      "transactionIndex": "0x5f",
      "blockHash": "0x9f31cfb856d7f3a9a9806c0797d4d9fd2c223f8a20c7a7de01c70b5f42380ba6",
      "blockNumber": "0x7b89c0",
      "gasUsed": "0x72db",
      "effectiveGasPrice": "0x1ef102",
      "from": "0x12395366299C28492682f7853424554df0b81B38",
      "to": "0x29f2D40B0605204364af54EC677bD022dA425d03",
      "contractAddress": null
    },
    {
      "status": "0x1",
      "cumulativeGasUsed": "0x121aea9",
      "logs": [
        {
          "address": "0x000000000022D473030F116dDEE9F6B43aC78BA3",
          "topics": [
            "0xda9fa7c1b00402c17d0161b249b1ab8bbec047c5a52207b9c112deffd817036b",
            "0x00000000000000000000000012395366299c28492682f7853424554df0b81b38",
            "0x00000000000000000000000029f2d40b0605204364af54ec677bd022da425d03",
            "0x0000000000000000000000000bf61f706105ea44694f2e92986bd01c39930280"
          ],
          "data": "0x000000000000000000000000ffffffffffffffffffffffffffffffffffffffff0000000000000000000000000000000000000000000000000000000067fa2518",
          "blockHash": "0x9f31cfb856d7f3a9a9806c0797d4d9fd2c223f8a20c7a7de01c70b5f42380ba6",
          "blockNumber": "0x7b89c0",
          "blockTimestamp": "0x67f8d3a4",
          "transactionHash": "0x557448658b8a01ed335116f66c26aef4b63af5b0929331dca9c4e1f8cce14893",
          "transactionIndex": "0x60",
          "logIndex": "0x82",
          "removed": false
        }
      ],
      "logsBloom": "0x00010000000000010000000000004000000000000004000000000000000000000000000000000000000000000000000000000000000000080000000000080000000000000000000000000000000000000000000000000000000000000000000000000000000000000000000000000000000000000000000000100000000000000020000000000000000000000000040000000000000000000000000000000000000000000000000000000000000000000000200000000000000000080000000000000000000000000000000000000000000000000000000040000000000000000000000000000000000000004000000000000000000000000000000002000400",
      "type": "0x2",
      "transactionHash": "0x557448658b8a01ed335116f66c26aef4b63af5b0929331dca9c4e1f8cce14893",
      "transactionIndex": "0x60",
      "blockHash": "0x9f31cfb856d7f3a9a9806c0797d4d9fd2c223f8a20c7a7de01c70b5f42380ba6",
      "blockNumber": "0x7b89c0",
      "gasUsed": "0x77e6",
      "effectiveGasPrice": "0x1ef102",
      "from": "0x12395366299C28492682f7853424554df0b81B38",
      "to": "0x000000000022D473030F116dDEE9F6B43aC78BA3",
      "contractAddress": null
    },
    {
      "status": "0x1",
      "cumulativeGasUsed": "0x122268f",
      "logs": [
        {
          "address": "0x000000000022D473030F116dDEE9F6B43aC78BA3",
          "topics": [
            "0xda9fa7c1b00402c17d0161b249b1ab8bbec047c5a52207b9c112deffd817036b",
            "0x00000000000000000000000012395366299c28492682f7853424554df0b81b38",
            "0x00000000000000000000000094a9d9ac8a22534e3faca9f4e7f2e2cf85d5e4c8",
            "0x0000000000000000000000000bf61f706105ea44694f2e92986bd01c39930280"
          ],
          "data": "0x000000000000000000000000ffffffffffffffffffffffffffffffffffffffff0000000000000000000000000000000000000000000000000000000067fa2518",
          "blockHash": "0x9f31cfb856d7f3a9a9806c0797d4d9fd2c223f8a20c7a7de01c70b5f42380ba6",
          "blockNumber": "0x7b89c0",
          "blockTimestamp": "0x67f8d3a4",
          "transactionHash": "0x069d6227d0101503c52addfd14916ec32f8bf0cc419fe93ba2c75e260108bdc6",
          "transactionIndex": "0x61",
          "logIndex": "0x83",
          "removed": false
        }
      ],
      "logsBloom": "0x00010000000000010200000000000000000000000004000000000000000000000000000000000000000100000000000000000000000000080000000000080000000000000000000000000000000000000000000000000000000000000000000000000000000000000000000000000000000000000000000000100000000000000020000000000000000000000000040000000000000000000000000000000000000000000000000000000000000000000000000000000000000000080000000000000000000000000000000000000000000000000000020040000000000000000000000000000000000000000000000000000000000000000000000002000400",
      "type": "0x2",
      "transactionHash": "0x069d6227d0101503c52addfd14916ec32f8bf0cc419fe93ba2c75e260108bdc6",
      "transactionIndex": "0x61",
      "blockHash": "0x9f31cfb856d7f3a9a9806c0797d4d9fd2c223f8a20c7a7de01c70b5f42380ba6",
      "blockNumber": "0x7b89c0",
      "gasUsed": "0x77e6",
      "effectiveGasPrice": "0x1ef102",
      "from": "0x12395366299C28492682f7853424554df0b81B38",
      "to": "0x000000000022D473030F116dDEE9F6B43aC78BA3",
      "contractAddress": null
    },
    {
      "status": "0x1",
      "cumulativeGasUsed": "0x126a1bb",
      "logs": [
        {
          "address": "0xbA1333333333a1BA1108E8412f11850A5C319bA9",
          "topics": [
            "0xd1398bee19313d6bf672ccb116e51f4a1a947e91c757907f51fbb5b5e56c698f",
            "0x000000000000000000000000cb78df4ead6d9558c19960cdec71aca3e37c1087",
            "0x0000000000000000000000000000000000000000000000000000000000000000",
            "0x0000000000000000000000000000000000000000000000000000000000000000"
          ],
          "data": "0x00000000000000000000000000000000000000000000000000000000000f4240",
          "blockHash": "0x9f31cfb856d7f3a9a9806c0797d4d9fd2c223f8a20c7a7de01c70b5f42380ba6",
          "blockNumber": "0x7b89c0",
          "blockTimestamp": "0x67f8d3a4",
          "transactionHash": "0xcbb6c278d764202428bf70773e3876ee20ebf0bcb5261faf1fe436c4f78be434",
          "transactionIndex": "0x62",
          "logIndex": "0x84",
          "removed": false
        },
        {
          "address": "0xCB78DF4EAd6D9558c19960Cdec71AcA3e37c1087",
          "topics": [
            "0xddf252ad1be2c89b69c2b068fc378daa952ba7f163c4a11628f55a4df523b3ef",
            "0x0000000000000000000000000000000000000000000000000000000000000000",
            "0x0000000000000000000000000000000000000000000000000000000000000000"
          ],
          "data": "0x00000000000000000000000000000000000000000000000000000000000f4240",
          "blockHash": "0x9f31cfb856d7f3a9a9806c0797d4d9fd2c223f8a20c7a7de01c70b5f42380ba6",
          "blockNumber": "0x7b89c0",
          "blockTimestamp": "0x67f8d3a4",
          "transactionHash": "0xcbb6c278d764202428bf70773e3876ee20ebf0bcb5261faf1fe436c4f78be434",
          "transactionIndex": "0x62",
          "logIndex": "0x85",
          "removed": false
        },
        {
          "address": "0xbA1333333333a1BA1108E8412f11850A5C319bA9",
          "topics": [
            "0xd1398bee19313d6bf672ccb116e51f4a1a947e91c757907f51fbb5b5e56c698f",
            "0x000000000000000000000000cb78df4ead6d9558c19960cdec71aca3e37c1087",
            "0x0000000000000000000000000000000000000000000000000000000000000000",
            "0x00000000000000000000000012395366299c28492682f7853424554df0b81b38"
          ],
          "data": "0x0000000000000000000000000000000000000000000000000de0b6b3a7546f98",
          "blockHash": "0x9f31cfb856d7f3a9a9806c0797d4d9fd2c223f8a20c7a7de01c70b5f42380ba6",
          "blockNumber": "0x7b89c0",
          "blockTimestamp": "0x67f8d3a4",
          "transactionHash": "0xcbb6c278d764202428bf70773e3876ee20ebf0bcb5261faf1fe436c4f78be434",
          "transactionIndex": "0x62",
          "logIndex": "0x86",
          "removed": false
        },
        {
          "address": "0xCB78DF4EAd6D9558c19960Cdec71AcA3e37c1087",
          "topics": [
            "0xddf252ad1be2c89b69c2b068fc378daa952ba7f163c4a11628f55a4df523b3ef",
            "0x0000000000000000000000000000000000000000000000000000000000000000",
            "0x00000000000000000000000012395366299c28492682f7853424554df0b81b38"
          ],
          "data": "0x0000000000000000000000000000000000000000000000000de0b6b3a7546f98",
          "blockHash": "0x9f31cfb856d7f3a9a9806c0797d4d9fd2c223f8a20c7a7de01c70b5f42380ba6",
          "blockNumber": "0x7b89c0",
          "blockTimestamp": "0x67f8d3a4",
          "transactionHash": "0xcbb6c278d764202428bf70773e3876ee20ebf0bcb5261faf1fe436c4f78be434",
          "transactionIndex": "0x62",
          "logIndex": "0x87",
          "removed": false
        },
        {
          "address": "0xbA1333333333a1BA1108E8412f11850A5C319bA9",
          "topics": [
            "0xa26a52d8d53702bba7f137907b8e1f99ff87f6d450144270ca25e72481cca871",
            "0x000000000000000000000000cb78df4ead6d9558c19960cdec71aca3e37c1087",
            "0x00000000000000000000000012395366299c28492682f7853424554df0b81b38",
            "0x0000000000000000000000000000000000000000000000000000000000000001"
          ],
          "data": "0x0000000000000000000000000000000000000000000000000de0b6b3a763b1d8000000000000000000000000000000000000000000000000000000000000006000000000000000000000000000000000000000000000000000000000000000c0000000000000000000000000000000000000000000000000000000000000000200000000000000000000000000000000000000000000000000000000009896800000000000000000000000000000000000000000000000000000000000989680000000000000000000000000000000000000000000000000000000000000000200000000000000000000000000000000000000000000000000000000000000000000000000000000000000000000000000000000000000000000000000000000",
          "blockHash": "0x9f31cfb856d7f3a9a9806c0797d4d9fd2c223f8a20c7a7de01c70b5f42380ba6",
          "blockNumber": "0x7b89c0",
          "blockTimestamp": "0x67f8d3a4",
          "transactionHash": "0xcbb6c278d764202428bf70773e3876ee20ebf0bcb5261faf1fe436c4f78be434",
          "transactionIndex": "0x62",
          "logIndex": "0x88",
          "removed": false
        },
        {
          "address": "0xbA1333333333a1BA1108E8412f11850A5C319bA9",
          "topics": [
            "0xcad8c9d32507393b6508ca4a888b81979919b477510585bde8488f153072d6f3",
            "0x000000000000000000000000cb78df4ead6d9558c19960cdec71aca3e37c1087"
          ],
          "data": "0x",
          "blockHash": "0x9f31cfb856d7f3a9a9806c0797d4d9fd2c223f8a20c7a7de01c70b5f42380ba6",
          "blockNumber": "0x7b89c0",
          "blockTimestamp": "0x67f8d3a4",
          "transactionHash": "0xcbb6c278d764202428bf70773e3876ee20ebf0bcb5261faf1fe436c4f78be434",
          "transactionIndex": "0x62",
          "logIndex": "0x89",
          "removed": false
        },
        {
          "address": "0x29f2D40B0605204364af54EC677bD022dA425d03",
          "topics": [
            "0xddf252ad1be2c89b69c2b068fc378daa952ba7f163c4a11628f55a4df523b3ef",
            "0x00000000000000000000000012395366299c28492682f7853424554df0b81b38",
            "0x000000000000000000000000ba1333333333a1ba1108e8412f11850a5c319ba9"
          ],
          "data": "0x0000000000000000000000000000000000000000000000000000000000989680",
          "blockHash": "0x9f31cfb856d7f3a9a9806c0797d4d9fd2c223f8a20c7a7de01c70b5f42380ba6",
          "blockNumber": "0x7b89c0",
          "blockTimestamp": "0x67f8d3a4",
          "transactionHash": "0xcbb6c278d764202428bf70773e3876ee20ebf0bcb5261faf1fe436c4f78be434",
          "transactionIndex": "0x62",
          "logIndex": "0x8a",
          "removed": false
        },
        {
          "address": "0x29f2D40B0605204364af54EC677bD022dA425d03",
          "topics": [
            "0x8c5be1e5ebec7d5bd14f71427d1e84f3dd0314c0f7b2291e5b200ac8c7c3b925",
            "0x00000000000000000000000012395366299c28492682f7853424554df0b81b38",
            "0x000000000000000000000000000000000022d473030f116ddee9f6b43ac78ba3"
          ],
          "data": "0xffffffffffffffffffffffffffffffffffffffffffffffffffffffffff67697f",
          "blockHash": "0x9f31cfb856d7f3a9a9806c0797d4d9fd2c223f8a20c7a7de01c70b5f42380ba6",
          "blockNumber": "0x7b89c0",
          "blockTimestamp": "0x67f8d3a4",
          "transactionHash": "0xcbb6c278d764202428bf70773e3876ee20ebf0bcb5261faf1fe436c4f78be434",
          "transactionIndex": "0x62",
          "logIndex": "0x8b",
          "removed": false
        },
        {
          "address": "0x94a9D9AC8a22534E3FaCa9F4e7F2E2cf85d5E4C8",
          "topics": [
            "0xddf252ad1be2c89b69c2b068fc378daa952ba7f163c4a11628f55a4df523b3ef",
            "0x00000000000000000000000012395366299c28492682f7853424554df0b81b38",
            "0x000000000000000000000000ba1333333333a1ba1108e8412f11850a5c319ba9"
          ],
          "data": "0x0000000000000000000000000000000000000000000000000000000000989680",
          "blockHash": "0x9f31cfb856d7f3a9a9806c0797d4d9fd2c223f8a20c7a7de01c70b5f42380ba6",
          "blockNumber": "0x7b89c0",
          "blockTimestamp": "0x67f8d3a4",
          "transactionHash": "0xcbb6c278d764202428bf70773e3876ee20ebf0bcb5261faf1fe436c4f78be434",
          "transactionIndex": "0x62",
          "logIndex": "0x8c",
          "removed": false
        },
        {
          "address": "0x94a9D9AC8a22534E3FaCa9F4e7F2E2cf85d5E4C8",
          "topics": [
            "0x8c5be1e5ebec7d5bd14f71427d1e84f3dd0314c0f7b2291e5b200ac8c7c3b925",
            "0x00000000000000000000000012395366299c28492682f7853424554df0b81b38",
            "0x000000000000000000000000000000000022d473030f116ddee9f6b43ac78ba3"
          ],
          "data": "0xffffffffffffffffffffffffffffffffffffffffffffffffffffffffff67697f",
          "blockHash": "0x9f31cfb856d7f3a9a9806c0797d4d9fd2c223f8a20c7a7de01c70b5f42380ba6",
          "blockNumber": "0x7b89c0",
          "blockTimestamp": "0x67f8d3a4",
          "transactionHash": "0xcbb6c278d764202428bf70773e3876ee20ebf0bcb5261faf1fe436c4f78be434",
          "transactionIndex": "0x62",
          "logIndex": "0x8d",
          "removed": false
        }
      ],
      "logsBloom": "0x00000000000000010040000000000000000080000000400000004000002000000000000000000000000000000000000000000000800000000000000000240000802000000000004000004008004000000000000000040800000008000000000000000000020000000000000000000800000001000000000000100010000000000000000000000000000000000000040000000000000000000000050000000000020000c00180000020044000000000000000000000000000000200000000000000000002000000000000000100000000000000200000000000000000800060000010000000000000002000010100000000000000000000000000000000000000",
      "type": "0x2",
      "transactionHash": "0xcbb6c278d764202428bf70773e3876ee20ebf0bcb5261faf1fe436c4f78be434",
      "transactionIndex": "0x62",
      "blockHash": "0x9f31cfb856d7f3a9a9806c0797d4d9fd2c223f8a20c7a7de01c70b5f42380ba6",
      "blockNumber": "0x7b89c0",
      "gasUsed": "0x47b2c",
      "effectiveGasPrice": "0x1ef102",
      "from": "0x12395366299C28492682f7853424554df0b81B38",
      "to": "0x0BF61f706105EA44694f2e92986bD01C39930280",
      "contractAddress": null
    }
  ],
  "libraries": [],
  "pending": [],
  "returns": {},
  "timestamp": 1744360360,
  "chain": 11155111,
  "commit": "c05839a"
}